:100000000FC700002AC7000028C7000026C700004D
:1000100024C7000022C7000020C700001EC7000040
:100020001CC700001AC700000C94A6290C948E2A45
:100030000C945B2912C7000010C700000EC7000017
:100040000CC700000AC7000008C7000006C7000070
:1000500004C700000C94822900C70000FEC60000FF
:10006000FCC60000FAC60000F8C60000F6C6000094
:10007000F4C60000F2C60000F0C60000EEC60000A4
:10008000ECC60000EAC60000E8C60000E6C60000B4
:10009000E4C60000E2C60000E0C60000DEC60000C4
:1000A000DCC60000DAC60000D8C60000050109025F
:1000B000A10185020901A1000509190129081500FE
:1000C0002501950875018102050109300931158165
:1000D000257F95027508810609381581257F9501D0
:1000E00075088106050C0A38021581257F95017572
:1000F000088106C0C005010980A101850319012AF4
:10010000B700150126B700950175108100C0050CD8
:100110000901A101850419012AA002150126A002E6
:10012000950175108100C005010906A10105071997
:10013000E029E715002501950875018102950175F3
:100140000881010507190029FF150026FF00950603
:100150007508810005081901290515002501950577
:1001600075019102950175039101C009023B0002DE
:100170000100A0FA09040000010301010009211196
:100180000100012244000705810308000109040160
:10019000000103000000092111010001227B00077A
:1001A0000582032000011201000200000008271749
:1001B0000300010001020001180363006F006300E7
:1001C0006F0074003400360070006C00750073001E
:1001D00000000C0361006B00690032003700000072
:1001E00004030904000000000000000000000000FB
:1001F00000000000000000000000000000000000FF
:1002000000000000000000007E0F00D4FFFFFFC7C9
:100210000000007800000000000000002A2B2800E9
:1002200000000000000000000000000000000029A5
:10023000000000002C1E3420212224342627252EE5
:10024000362D3738271E1F2021222324252633331D
:10025000362E37381F0405060708090A0B0C0D0E49
:100260000F101112131415161718191A1B1C1D2F15
:100270003130232D350405060708090A0B0C0D0E35
:100280000F101112131415161718191A1B1C1D2FF5
:100290003130354CFFAA7F554000010101010101B9
:1002A000010101020202020202020202030303032D
:1002B00003030303040404040404040505050505FD
:1002C00006060606060707070707080808080909BB
:1002D00009090A0A0A0B0B0B0C0C0C0D0D0D0E0E66
:1002E0000E0F0F0F101011111112121313141415F9
:1002F0001516161717181819191A1A1B1B1C1D1D6D
:100300001E1E1F20202122222324242526262728C2
:1003100029292A2B2C2D2D2E2F30313232333435F2
:10032000363738393A3B3C3D3E3F404142434445F5
:10033000464748494A4C4D4E4F50515354555658D4
:10034000595A5B5D5E5F616264656668696B6C6D7E
:100350006F7072737577787A7B7D7E8082838587F4
:10036000888A8C8E8F91939596989A9C9EA0A2A332
:10037000A5A7A9ABADAFB1B3B5B7BABCBEC0C2C437
:10038000C6C9CBCDCFD1D4D6D8DBDDDFE2E4E7E9F7
:10039000EBEEF0F3F5F8FAFDFF643214783C1E2B17
:1003A0002814001A0008001500170029210400165F
:1003B00000070009000A0090241D001B0006001918
:1003C0000005005201E1002C4325524152D10000AA
:1003D0000000004B0000004E00000031001300122E
:1003E000000C0018001C00340033000F000E000D3C
:1003F000000B009134380037003600100011005116
:1004000001E50028382A380000D200000000000072
:10041000000000000000002B2814001A000800153E
:10042000001700292104001600070009000A0090A7
:10043000241D001B000600190005002B08E1002CFC
:100440004326524052D100000000004B0000004EF5
:100450000000003100130012000C0018001C0034D2
:100460000033000F000E000D000B009134380037F0
:10047000003600100011002B05E50028382A310055
:1004800000D2000000000000000000000000002B6F
:1004900028407E417E427E437E447E01004A7E4B60
:1004A0007E4C7E4D7E4E7E0100547E557E567E579C
:1004B0007E587E697E23525E7E01000100D10000DD
:1004C0000000002D0100002E0100000100497E48BF
:1004D0007E477E467E457E0100537E527E517E5091
:1004E0007E4F7E6A7E5D7E5C7E5B7E5A7E597E514B
:1004F00001E7005F7E01000000D200000000000064
:100500000000000000000000001E001F002000216D
:1005100000220001001E021F02200221022202010D
:10052000002D022E022D002E000000000001000010
:100530000000004052D10000000000AA000000A905
:100540000000003500270026002500240023003588
:10055000022702260225022402230201003802306B
:10056000022F0230002F00000001000100010000F6
:1005700000D20000000000000000000000000000A9
:10058000000000000000000000000000000000006B
:10059000000000000000000000000000000000005B
:1005A000000000000000000000000000000000004B
:1005B000000000000000000000000000000000003B
:1005C000000000000000000000000000000000002B
:1005D000000000000000000000000000000000001B
:1005E000000000000000000000000000000000000B
:1005F00000000000000000660C3A003B003C003D9B
:10060000003E000100440045000000210A200A01CC
:1006100000217820782F7800002C090100010000CB
:10062000000000D3005008000000002D0800002E3C
:10063000080000000043004200410040003F00006D
:100640000000004F005200510050000100007E01E8
:100650007E0000AD00AE000000010001004C38003B
:10066000004F080000000000000000000000000F24
:10067000083A003B003C003D003E000100440045BC
:10068000000000160A46080100217820782F780023
:100690000037080100010000000000D300B6000090
:1006A0000000002D0100002E010000000043004268
:1006B00000410040003F00000000004F0052005188
:1006C0000050000100000000000000AD00AE00007E
:1006D00000010001004C310000B7000000000000E4
:1006E000000000000000004E004B004E004B004E8A
:1006F000004B00A900AA004E004B002E082D082E2A
:10070000012D010000010061000000000000000256
:1007100000690000000000000004007500000000F7
:100720000000010040650000000000000000426F72
:100730000000000000002000006B610000000002CB
:100740000000006B6900000000008000006B750075
:10075000000000000800006B650000000000008041
:10076000006B6F000000004000004073610000005B
:1007700000400000007361000000000800000073EA
:100780006900000000000100007375000000000017
:1007900004004073650000000000000001736F005A
:1007A0000000000000000274610000000000400032
:1007B00040746900000000000004407475000000EF
:1007C00000040000007465000000000010000074C8
:1007D0006F00000000000000046E610000000000D7
:1007E0001000406E6900000000000000416E7500BE
:1007F000000000080000406E6500000000000001DD
:10080000406E6F00000000000040006861000000C2
:10081000000000200068690000000000002040681F
:10082000690000000000000840687500000000003A
:1008300002000068650000000000001000686F0002
:1008400000000000001040686F0000000000200061
:10085000406D6100000000000800406D690000006C
:1008600000000000486D7500000000020000406DAF
:100870006500000000000002406D6F0000000000F5
:10088000800040796100000000000200407975009E
:1008900000000080000040796F00000000000000B0
:1008A0001072610000000004000040726900000046
:1008B000008000000072750000000000000020723F
:1008C000650000000000000060726500000000008C
:1008D000040000726F00000000000000507761000B
:1008E00000000000004040776F00000000000000A2
:1008F000086E6E00000000000008002D00000000DF
:100900000000200100676100000000020001006794
:10091000690000000000A0000067750000000000F2
:1009200008010067650000000000008100676F009B
:10093000000000402000007A610000000008000173
:10094000007A6900000000002100007A75000000B4
:1009500000000401007A6500000000000001017A37
:100960006F00000000002000026461000000000031
:10097000400100646900000000002004006475006C
:100980000000000400010064650000000000100188
:1009900000646F0000000000004100626100000080
:1009A00000000021006269000000000020080062D1
:1009B00075000000000022000062650000000000D9
:1009C000001100626F0000000000200C007675002E
:1009D00000000000004004706100000000000020E2
:1009E00004706900000000000088007075000000BD
:1009F000000002800070650000000000001004701C
:100A00006F000000000180000078796100000001A3
:100A1000800040787961000000010200007879755B
:100A2000000000010200407879750000008100009C
:100A30000078796F0000008100004078796F000035
:100A40000001000100786100000000010001407811
:100A50006100000000010002007869000000000150
:100A60000002407869000000000100040078750071
:100A70000000000101000078650000000001010095
:100A80004078650000000001000002786F0000005F
:100A90000001000042786F000000000100001078A3
:100AA00077610000000040000078747500000008C5
:100AB00080000073796100000008020000737975FE
:100AC0000000008800000073796F000000088001BA
:100AD000007A7961000000080201007A797500004F
:100AE00000880001007A796F000000028000006B2E
:100AF0007961000000020200006B7975000000823D
:100B00000000006B796F00000002800100677961CE
:100B100000000002020100677975000000820001F8
:100B20000067796F00000000C00000747961000068
:100B300000004200007479750000008040000074DD
:100B4000796F00000000C0010064796100000000BE
:100B50004201006479750000008040010064796FF3
:100B6000000000009000006E79610000000012009B
:100B7000006E7975000000801000006E796F000033
:100B800000008020006879610000000002200068F9
:100B900079750000008000200068796F0000000077
:100BA00080210062796100000000022100627975F5
:100BB0000000008000210062796F000000008020AA
:100BC0000470796100000000022004707975000053
:100BD000008000200470796F000000008800006D24
:100BE0007961000000000A00006D79750000008046
:100BF0000800006D796F00000004800000727961C8
:100C000000000004020000727975000000840000FA
:100C10000072796F0000000400020474686900002B
:100C200000040200047468750000000400030064FE
:100C3000686900000004020100646875000000009B
:100C4000100404746F7875000000100500646F785C
:100C50007500000801000473796500000000410080
:100C600004747965000000080101007A79650000CC
:100C70000000410100647965000000000089006601
:100C8000610000000000008A0066690000000000AA
:100C900001880066650000000000008802666F00A1
:100CA00000000000028800667975000000000182E3
:100CB0000069786500000000008600776900000088
:100CC00000000184007765000000000000840275C8
:100CD000786F000000002005007661000000000031
:100CE00020060076690000000000210400766500FF
:100CF00000000000200402766F00000000002204C3
:100D000000767578797500008081006B75786100D8
:100D100000008082006B7578690000008180006BA4
:100D20007578650000008080026B75786F000000A8
:100D30008080106B757877610000A001006775787E
:100D400061000000A0020067757869000000A10042
:100D50000067757865000000A000026775786F0075
:100D60000000A000106775787761000000850074AE
:100D700073610000000000860074736900000000C9
:100D80000184007473650000000000840274736FB6
:100D900000000000000040200000000000010000F2
:100DA00000000000000000000080402C0000000057
:100DB00000002003003B0000000000004003003A58
:100DC0000000000000004003003A000000000000A6
:100DD0000083003C0000000000000003013E000012
:100DE000000000001003003F00000000000000436E
:100DF00000210000000000000000442E0101280036
:100E0000000000800401012800000000008044016F
:100E10000128000000100003002F00000000000067
:100E200011241FBECFEFDAE0DEBFCDBF12E0A0E09D
:100E3000B1E0E0E7FCE502C005900D92AE39B107E4
:100E4000D9F724E0AEE9B2E001C01D92A831B207A3
:100E5000E1F70E94B4240C94E92DD2C88F929F929E
:100E6000AF92BF92CF92DF92EF92FF92CF93DF9338
:100E7000DB01EC012091FD0330E02115310509F47F
:100E800053C0422F6EEF73E080E090E0FB010190D1
:100E9000F081E02DEE0FFF1FEE0FFF1FE35EF64F18
:100EA000C080D180E280F380460157018A229B22D4
:100EB000AC22BD2289288A288B2811F1C094D094B5
:100EC000E094F094AC21BD21CE21DF21FC01EE0F96
:100ED000FF1FE250FC4F8930910561F4109210041D
:100EE00010921104215031092097B040A04029F6FA
:100EF00041500DC001966281738161937193EBCF74
:100F00006E5F7F4F0196821793070CF4BFCF40931B
:100F1000FD03DF91CF91FF90EF90DF90CF90BF90D6
:100F2000AF909F908F90089540E0F1CFEEEFF3E007
:100F300084E111928A95E9F71092FD031092F7036C
:100F40001092F8031092F6031092F4031092F50336
:100F500008958093A0039093A1030895CF93C1E0D7
:100F600061FDC4E060FDCC0F62FDC29593E0769513
:100F700067959A95E1F7660F771F660F771F460F03
:100F8000571FFA0140E050E090E06191DF019C01C1
:100F9000042E02C0369527950A94E2F72695220B77
:100FA00026272C2326272E934F5F5F4F4430510571
:100FB00061F7CF910895A82FA77023E096958795A4
:100FC0002A95E1F7880F991F880F991F680F791FDD
:100FD000FB0140E050E080E0219130E00A2E02C0A9
:100FE000369527950A94E2F72170042E01C0220F4E
:100FF0000A94EAF7822B4F5F5F4F4430510561F747
:101000000895282F862F9A3068F4263050F4622FE6
:1010100070E026E0929F600D711D11244BE553E0B6
:101020009DCF08959C5F9230E0F7622F70E047E516
:1010300053E0F6CF292F9A3058F4863080F490E0B0
:101040006BE573E036E0239F800D911D1124B3CF33
:101050002C5F223020F467E573E090E0F8CF80E069
:101060000895E091A9039091A803E91302C080E0DC
:1010700008959F0157E0E59FF0011124E655FC4FCC
:101080005181561306C05081581303C05581541323
:1010900005C02F5F3F4FF901E770E7CF81E008956A
:1010A0008091A9032091A803281301C008950196F7
:1010B0008770FACF8095982F80919D038923809324
:1010C0009D030895FC01F235B8F5F03508F0BBC07A
:1010D000E03EF105F0F4ED3CF10508F092C0E83A8D
:1010E000F10570F4E53AF10508F07BC0E130F10557
:1010F00029F0CF010497813A910540F4CF0108957A
:10110000CF01885A91094B9708F46FC0E0E0F0E0F6
:10111000F5CFF03460F4F03208F0AAC0E83EF105F3
:1011200068F3CF0191509C0121153F41E6CFCF01DB
:101130009F70906AFC01E2CFE03882E5F807C8F5BD
:10114000E03682E5F80708F064C0E03482E5F8078D
:10115000D0F4E03282E5F80708F055C02E2F26952E
:10116000269590E2299F900111248E2F837041E0F3
:1011700050E002C0440F551F8A95E2F7CA01822B46
:10118000932B9D68D7CF2E2F26952695277090E21A
:10119000299F900111248E2F837041E050E002C0FE
:1011A000440F551F8A95E2F7CA01822B932B9C6846
:1011B000C1CFE03C82E5F80748F42E2F2F71E03ACA
:1011C000F245E8F5922F84EF906AB4CFCF01805CAE
:1011D0009245809708F09ACF9E2F9F7180EF906A7A
:1011E000A9CFCF0184979064A5CF8E2F885AE82F7E
:1011F000F0E0EE0FFF1FE955FE4F8081918194646E
:1012000099CFF0657BCF8E2F8F71982F81EF906AE9
:1012100091CF2E2F26952695277090E2299F900139
:1012200011248E2F837041E050E002C0440F551FFF
:101230008A95E2F7CA01822B932B9A687BCF80E0D4
:10124000922F906277CFCF0123E0880F991F2A95C4
:10125000E1F7392F3F706E2F6F71462FE4FF04C006
:1012600080E1689FA0011124242FC901906962CFF9
:10127000CF019F71E6CF972F7A30C8F4663088F59A
:10128000873090F570E026E0929F600D711D11246B
:101290009CE3899F600D711D1124FB01EE0FFF1F60
:1012A000E156FC4F85919591282F822F08957D3F1F
:1012B00059F4611116C08730B8F494E0899FF001A9
:1012C0001124E951F94FEECF7C3F59F4611109C067
:1012D000873050F494E0899FF0011124E751F94FD1
:1012E000E1CF20E090E0E1CF21E0FCCFCF92DF9290
:1012F000FF920F931F93CF93DF936C010091A20392
:101300001091A3038091A0039091A103082B192BA6
:10131000CFE0D0E081E090E00C2E02C0880F991F52
:101320000A94E2F780239123892B61F4219790F7A7
:10133000F12C8F2DDF91CF911F910F91FF90DF90B6
:10134000CF900895FC2EB6018C2F95DFBBDE019760
:1013500069F3EFCF1F93CF93DF93FC012581C08109
:10136000D181CE01211571F0611561F0BFDF182F19
:10137000682FCE0146DEBE01812F7DDFDF91CF9148
:101380001F91089557DE182FF6CFCF93DF93EC010E
:10139000ADDFBE0170DF96DEDF91CF910895FC01D5
:1013A0002481211599F080819181EFDF282F92957A
:1013B0009F70963099F060F4925F9F70923030F495
:1013C000203FB1F038F481E0283E38F080E0089505
:1013D0009A5FF3CF81E0243FC9F7089591E0213F60
:1013E00009F090E081E0283E08F080E0892B089524
:1013F00081E0089580E008950895CF92DF92EF9202
:10140000FF921F93CF93DF93462F172FE82FF0E023
:10141000E756FD4F71110CC0E4918E2F7E2F6E2F79
:10142000DF91CF911F91FF90EF90DF90CF900895C3
:10143000F491EF2F86E0689FE00111242FEF30E058
:10144000CE01B9010E94062DDB01CA01880F991F48
:1014500065E56A9FA0016B9F500D1124841B482FE6
:10146000440F480FC901811B9109F89F7001F99F32
:10147000F00C11248F2D149FB0011124672F70E000
:101480006901C61AD70AB601F69F6001F79FD00C12
:101490001124A330B10549F1B901641B7109AB01F5
:1014A000149FB001159F700D1124672F70E0261B4B
:1014B000370BF29FA001F39F500D1124752FCC3FE5
:1014C000D34050F4A130B105A1F0129709F0A7CF95
:1014D000EF2D852F7F2FA3CFA430B10569F016978C
:1014E00009F49DCF7F2D8D2D9ACF7D2DEF2D8F2F40
:1014F00096CF7F2FED2D93CFE52F7F2DF8CFCF9374
:10150000762FC22F682F842F78DF472F90911901F3
:101510002C2F291B922F282F892F90E066D1CF9155
:101520000895CF938091950380FF03C0EBD4CF91B2
:101530000895C0911B0180911C01C817B8F78091D4
:1015400019019C2F981B20E040E060E0892F90E07B
:101550004CD1CF5FF0CF0F931F93CF93DF93D82F52
:10156000162F042F80919503C0911B0180FD10C0A0
:10157000DF91CF911F910F910895809119019C2FB8
:10158000981B202F412F6D2F892F90E02ED1CF5FF8
:1015900080911C01C81788F3C4DFEACF0F931F9313
:1015A000CF93DF93762F9091950390FF19C0493721
:1015B00008F048E7682F842F20DFD62F172F082F39
:1015C000C0E0809119019C2F981B202F412F6D2F77
:1015D000892F90E00AD18C2FC1E0813091F7A1DFF3
:1015E000DF91CF911F910F910895CF93DF93D82F63
:1015F000C92F892F90E028E0C11103C08D2F9C2FA7
:1016000020E0AC0174E0569547957A95E1F74115D5
:10161000510511F02C5FCA01AC01569547955695BE
:1016200047954115510511F02E5FCA019695879592
:10163000820F843051F1C8F48230F9F0833009F11F
:1016400040E060E080E0AADF80E08093ED0382E08C
:1016500080931B018CE080931C018AE080931D0124
:101660008D2F9C2FDF91CF910895853091F086309A
:1016700039F74FEF6FEF85E50FC04FEF6FEF8BE25C
:10168000E2CF4FEF6FEF80E8DECF4FEF6FEF85E1F6
:10169000DACF4FEF6FEF80E081DF81E0D6CFA5DFBB
:1016A0008093A2039093A303089521E030E002C049
:1016B000220F331F8A95E2F78091A2039091A30332
:1016C000822B932BECCF21E030E002C0220F331F9E
:1016D0008A95E2F7209530958091A2039091A3031B
:1016E00082239323DCCF9091A40380958923809358
:1016F000A403282F277061F4891751F09091A60355
:1017000092FF06C0869586958695DDDF1092A4032C
:101710000895CF93DF93EC018091950380FF0EC075
:101720007091970380919803893708F088E76C815E
:1017300064DE962F672F482F892F0DDF8C818F5FF6
:101740008C83DF91CF9108950F931F93CF938C01DA
:10175000C0E060911D01C61768F0E3DEF8018481E6
:10176000928190FF20C08F5FF8018483CF911F91F9
:101770000F91089520911B012C0F3327331F4091A7
:101780009803493708F048E770E08FEF90E00E9437
:101790001A2DF8018481C69F800D11246091970352
:1017A000AEDECF5FD6CF8150DFCF4AB183E9861B53
:1017B0008F7021E001C0220F8A95EAF7922F909551
:1017C00094239AB99BB1822F892B8BB9089589B143
:1017D00090E023E9261B2F7002C0959587952A95E6
:1017E000E2F781700895269A0895FC01EE0FFF1F1D
:1017F000E80FF91FED53FD4F618340832283089565
:10180000382F25EB3203C001112497FF04C0805804
:101810009109892F089580589F4FFBCF80917D03B8
:1018200080FD14C081FD14C082FD16C080917C0330
:10183000811581F08E3180F420E5829FC001112452
:101840006EE170E00E941A2D862F089584E10895BC
:1018500088E2089588E0089580E5089580917D03E9
:1018600080FD17C081FD17C082FD19C080917B03E8
:10187000811599F0883298F428E0829FC0011124E4
:1018800068E270E00E941A2D6115710551F0862FF3
:10189000089562E0FCCF64E0FACF61E0F8CF68E041
:1018A000F6CF81E00895E0914D03F0914E0330971B
:1018B00039F00190F081E02D309711F009950895ED
:1018C00080E00895E0914D03F0914E03309759F078
:1018D00026813781232B39F022E0DC012C9306800E
:1018E000F781E02D09950895A3E0B0E0EAE7FCE078
:1018F0000C94482D2091C1023091C202281739075B
:10190000B1F08093C1029093C202E0914D03F09137
:101910004E03309761F00084F185E02D309739F067
:1019200023E029838A839B83CE0101960995239620
:10193000E2E00C94642DA3E0B0E0E1EAFCE00C945A
:10194000482D2091BF023091C00228173907B1F00D
:101950008093BF029093C002E0914D03F0914E033B
:10196000309761F00084F185E02D309739F024E064
:1019700029838A839B83CE01019609952396E2E011
:101980000C94642D9C01FC01329680E09FEF408115
:10199000461759F031969F3F19F4411101C0982F15
:1019A0008F5F8630A1F79F3F09F40895290F311DFD
:1019B00097FD3A95F90162830895FC0132960896E5
:1019C0002191261302C0DF011E92E817F907C1F723
:1019D0000895DC01FB0111969C9111978181981368
:1019E00022C012968C911297811519F09281891359
:1019F0001AC013968C911397811519F0938189134E
:101A000012C015968C911597811519F0958189133F
:101A10000AC014969C91911521F081E0248129132C
:101A200003C080E001C081E08170089580910C01C5
:101A300008952FB7F8948091BB029091BC02A091B9
:101A4000BD02B091BE022FBF0895F3DF9C019091BB
:101A5000800380918103982B21F0209331033093F0
:101A600032039091820380918303982B21F020937D
:101A70002F03309330038EE793E024CF2FB7F894F1
:101A80006091BB027091BC028091BD029091BE0238
:101A90002FBF08950895FC012091B1023091B20248
:101AA0002617370748F06115710529F49091E80071
:101AB0009E779093E8009B0190E02115310541F459
:101AC000911106C08091E80082FF32C080E0089545
:101AD000809107038115C1F18530C1F18091E80043
:101AE00083FD30C08091E80082FDECCF8091E8005A
:101AF00080FFE3CF8091F3004091F200582F211531
:101B0000310519F04830510558F091E04830510541
:101B100009F090E04091E8004E774093E800CDCF87
:101B200081918093F100215031094F5F5F4FE7CFE2
:101B300080910703811541F0853041F08091E800E4
:101B400083FFC0CF81E0089582E0089583E0089587
:101B5000982F9093E900891771F07091EC00209113
:101B6000ED005091F00021FD09C09F5F973089F78B
:101B70008093E9000895762F242F50E03091EB00F8
:101B80003E7F3093EB003091ED003D7F3093ED00D0
:101B90003091EB0031603093EB007093EC002093B8
:101BA000ED005093F0002091EE0027FDDECF089568
:101BB0008091AB0287FF13C08091E80082FF06C0CE
:101BC0008091E8008B778093E80008958091070367
:101BD0008111F2CF0895809107038115D9F3809187
:101BE000E80080FFF8CF8091E8008E77ECCF20915D
:101BF000E4003091E50095E6A9012091EC00822FE8
:101C0000817020FF06C08091E80080FF06C080E060
:101C100008952091E80022FD1AC0809107038115E4
:101C200089F0853089F08091EB0085FD0FC020910F
:101C3000E4003091E50042175307F9F29150E1F6C4
:101C400084E0089582E0089583E0089581E0089596
:101C5000CF93DF93C8EDD0E088818F7E8883E7ED56
:101C6000F0E080818160808384E082BF81E08093A6
:101C7000AA0288818E7F8883E2EE10821092DA00B9
:101C8000A1EEB0E01C9288818F778883888180687C
:101C9000888388818F7D888319BC109207031092F6
:101CA000A902109206031092A802A0EE8C918B7FDD
:101CB0008C9388818160888342E060E080E048DF27
:101CC000A1EEB0E08C918E7F8C93E2EEF0E080810B
:101CD00081608083808188608083E0EE80818E7F58
:101CE0008083888180618883DF91CF910895E8EDBA
:101CF000F0E080818E7F80831092E2001092DA0003
:101D00001092E100A0EEB0E08C9181608C93808114
:101D10008F77808319BCA7ED8C918E7F8C93808107
:101D20008F7E80831092AA0208958093F9034091D8
:101D3000F9035091FA036091FB037091FC0383E176
:101D400090E00C94CD2D24982C9880E098E02A986F
:101D500025E02A95F1F7000022271C992395880F8A
:101D6000822B2A9A25E02A95F1F70000915079F705
:101D70000895249A27E030E090E02A98AC01022EE2
:101D800002C0559547950A94E2F740FF0EC02C9A81
:101D90004AE04A95F1F700C02A9A2150310968F7C4
:101DA00085E18A95F1F7000008952C98F1CFCF9343
:101DB000C62F2D988068DDDF8C2FDBDF2D9ACF9129
:101DC000089584E08093E9038093EA0382E080939E
:101DD000EB0381E08093EC031092ED0344E054E0C8
:101DE00062E071E08FE090E00E94CD2D60E070E055
:101DF000AB0183E190E00E94CD2D60E982E2D7CF74
:101E000061E08D37910548F06DE0863D26E0920750
:101E100020F46DE770E00E94062D606189E1C7CF74
:101E2000CF932D988091E70281110EC083E6A1DF48
:101E30008ADFC82F88DF982F2D9A8C2FC7FD8068E6
:101E400097FD9068CF91089580E090E0FBCFACE0E3
:101E5000B0E0EDE2FFE00C94462D4F835887162F3B
:101E6000072F8B879C87DCDF282F292B11F4902FDD
:101E7000812F89879A8786E0FE013796DE011196C9
:101E800001900D928A95E1F729813A814B815C811D
:101E90006D817E8180E090E02C96E4E00C94622DD0
:101EA0002D9867DF50DF95E09A95F1F700002D9AA5
:101EB0000895CF93DF93229A249A259A6AE58AE3BC
:101EC00076DF8FE79FEA22E0815090402040E1F7E3
:101ED00000C000001092E702A3DF80E0E1DFC82F1E
:101EE00081E0DEDFD82F8EE3DBDFC23129F49D2FC6
:101EF000D13011F4863209F090E0892F8170DF91A2
:101F0000CF91089535B13F7B25B120644FB7F89448
:101F100083EC92E0FC010196508168E025B9000055
:101F200000C057FF35B9550F000000C000C000C009
:101F300035B900C06A9591F752E0873E950751F791
:101F40004FBF8FE594E00197F1F700C000000895BE
:101F50000F931F93CF93DF93EB018A0190910703B7
:101F6000943059F58093E9008FEF9091E80095FD4A
:101F700006C095ED9A95F1F700008150B1F7809178
:101F8000E80085FF1AC033DE811112C08091E8009D
:101F900085FD06C08091E8008E778093E800F3CF3E
:101FA00088818093F1000150104011F02196EECF0E
:101FB0008091E8008E778093E800DF91CF911F91A8
:101FC0000F910895CF93DF93EC0148E050E0BC01FE
:101FD00081E0BEDF88E0FE01A3EBB2E001900D924C
:101FE0008A95E1F7DF91CF91089546E050E0BC017A
:101FF00082E0AECF43E050E0BC0182E0A9CF9091F7
:10200000A60392FB222720F9281771F080FB92F992
:102010009093A6036091A5037091A60384E090E0DD
:102020000E94D52D82E05FCB08950F93CF93DF936D
:10203000C5E9D3E0488159816A817B8188E090E0DD
:102040000E94CD2D6C81262F60E070E0CB01622FC5
:1020500083E20E94BB2DDF91CF910F91089585E01F
:1020600080939503109296038FEF8093970388E7F0
:10207000809398031092990385E993E0D6CF8091DD
:102080009903833018F48F5F8093990385E993E077
:10209000CCCF80919903811519F0815080939903D9
:1020A00085E993E0C2CFA0E0B0E0E9E5F0E10C946F
:1020B000432D082FE62E142FD22E8091950380FFFA
:1020C00024C0282F26952695E22FF0E0EC5AFE4FEB
:1020D0009081909393038C7F8430E1F4842F49376F
:1020E00008F088E7602F7E2D88D9962F672F482F1C
:1020F000892F31DA00939603E092970310939803A7
:10210000D11419F085E993E090DFCDB7DEB7E7E0B1
:102110000C945F2D923019F400919603EBCF95301B
:10212000D9F39B3039F785EFF82EF20EEF2DE695B7
:10213000F0E0EC56FD4FD491C0E060911D01C61750
:1021400010F0EFD9D7CFCD9FC001112470E00E94CD
:10215000062D862F800FF0FE02C0802F861B209157
:102160001B012C0F3327331F412F193708F048E785
:102170006E2DC5D9CF5FE1CFE5E9F3E0818121E0A4
:1021800043816281865F8FCFE5E9F3E0818121E0C1
:10219000438162818A5087CFE5E9F3E0628121E1E2
:1021A000620F08F46FEF21E0438181817CCFE5E984
:1021B000F3E0628121E1621B08F460E021E04381E9
:1021C000818171CFE5E9F3E0438121E1420F08F419
:1021D0004FEF21E06281818166CFE5E9F3E0438141
:1021E00021E1421B08F440E021E0628181815BCF64
:1021F000CF936DEF72E084E893E0EBDBC82F81159D
:1022000019F084E893E05EDB9091850386E0E4E8D2
:10221000F3E0282F11922A95E9F790938503E4E8DB
:10222000F3E0ADEFB2E001900D928A95E1F781E025
:10223000911101C080E08C2BCF910895611509F4B4
:1022400050C0E82FED5CE33148F4F0E0E650F24D89
:102250000C942D2DE3DA819580938103F6CBDEDAA1
:10226000FBCFDCDA819580938003F8CFD7DAFBCF00
:10227000F5DA80938203F2CFF1DA8195FACFEEDAC4
:10228000819580938303EACFE9DAFBCF482F415D44
:10229000550B21E001C0220F4A95EAF790917F0388
:1022A000922B90937F0340918503815D21E001C0D3
:1022B000220F8A95EAF7822F611509F489C0422B13
:1022C0004093850395CF80917D03816080937D034A
:1022D000C5CF80917D038260F9CF80917D038460BA
:1022E000F5CF90918003482F50E08D3C59F4209118
:1022F000810327FF0DC01092810391110BC0109232
:102300007C0308C08E3CA9F42091810312169CF333
:102310009115A9F09091820320918303922B11F4DF
:1023200010927B03415D51094830510508F4BBCF41
:1023300095CF8F3C39F497FFEBCF109280039091AB
:102340008103DBCF803D19F41916BCF3E1CF209156
:102350008203893D29F41216DCF610928203D8CF4D
:102360008A3D19F427FFD4CFF8CF209183038B3D0A
:1023700029F427FFCDCF10928303CACF8C3D19F4E7
:102380001216CCF3C5CF282F215D283070F4FA0146
:10239000E15D21E001C0220FEA95EAF72095309136
:1023A0007F03232320937F03B3CF20917D032E7FD0
:1023B0008D3D59F020917D032D7F8E3D31F08F3D75
:1023C00009F0A6CF20917D032B7F20937D03A0CF22
:1023D0008095482375CF80919D039091A703892B09
:1023E00090919E03911589F0892B90E022EA32E0CA
:1023F000F90140812F5F3F4F41119F5F42E0283A32
:102400003407B1F7911110929E038093A00248E027
:1024100050E06FE473E080EA92E00E949C2D892BEB
:10242000B9F088E0E0EAF2E0AFE4B3E001900D92A9
:102430008A95E1F7E0914D03F0914E03309741F01A
:102440000280F381E02D309719F080EA92E009953F
:10245000089510929D03E2EAF2E086E011928A95D7
:10246000E9F780E090E040DA80E090E064DA1092F2
:10247000A703B1DFEEE7F3E086E011928A95E9F772
:1024800010927C0310927B0310927D03DECAE1DF81
:102490008FEF94E32CE0815090402040E1F700C0A2
:1024A000000088E19AE00FB6F894A8958093600048
:1024B0000FBE90936000FFCFAAE2B0E0E2E6F2E147
:1024C0000C94472D8BEA92E0FC0101962091F100DB
:1024D000208322E0833B9207B9F78091AC028930D8
:1024E00009F457C0C8F4823009F4B2C0833009F44B
:1024F00082C0813081F18091E80083FFE6C0809145
:10250000AB029091AC029A3008F0DFC0E92FF0E006
:10251000E35FF14D0C942D2D8A3009F489C08B3086
:1025200051F78091AB02813231F78091AF029091E7
:10253000B002892B01F78091E800877F8093E80043
:1025400037DB81E09091AD02911101C080E0809372
:102550000D017FDFD0CF8091AB02813A61F680918F
:10256000E800877F8093E8008091AF029091B002ED
:10257000892B59F060E080E090E070E08CDA809187
:10258000E8008B778093E800B6CF68E083EB92E0B9
:10259000F4CF8091AB02813209F0ADCF8091AF02D0
:1025A0009091B002029708F0A6CF8091E800877F53
:1025B0008093E8008091E80082FF18C02091F3002A
:1025C0008091F200922F029731F48091F1008130D6
:1025D00011F0863021F48091F10080930C018091FC
:1025E000E8008B778093E800E3DA85CF80910703DA
:1025F0008111E0CF80CF8091AB02813A09F07BCF8F
:102600008091AF029091B002892B09F074CF809134
:10261000E800877F8093E8008091E80080FFFCCF8E
:1026200080910D018093F1008091E8008E77DACFE0
:102630008091AB02813209F05ECF8091E800877F04
:102640008093E800B5DA8091AE0280930B0153CFFE
:102650008091AB02813A09F04ECF8091E800877FEC
:102660008093E8008091E80080FFFCCF80910B010F
:10267000D9CF803889F0823841F58091AF028F70D0
:10268000873018F58093E9008091EB0085FB88275F
:1026900080F91092E90006C080910603880F90919E
:1026A000A802892B9091E800977F9093E80080938F
:1026B000F1001092F1008091E8008E7723C0811123
:1026C00016C08091AD02813009F18091E80083FF4E
:1026D0000AC08091E800877F8093E8008091EB003A
:1026E00080628093EB00AA96E3E00C94632D823025
:1026F00061F78091AD02811579F01092E900809127
:10270000E800877F8093E80053DADFCF933009F049
:1027100080E080930603F1CF8091AF028F70282F65
:102720002150263090F68093E9002091EB0020FFA5
:10273000E4CF933031F48091EB0080628093EB0022
:10274000DCCF9091EB0090619093EB0021E001C011
:10275000220F8A95EAF72093EA001092EA0080910E
:10276000EB008860EBCF8111B0CF8091AD028F7705
:10277000182F8091E3008078812B8093E300809173
:10278000E800877F8093E80013DA8091E80080FFFB
:10279000FCCF8091E30080688093E30083E0111117
:1027A00001C082E08093070390CF8058823008F008
:1027B0008CCF2091AD023091AE022C3D83E03807E2
:1027C00089F583E08A838AE289834FB7F894DE0132
:1027D000139620E03EE051E2E32FF0E050935700E3
:1027E000849120FF03C082958F703F5F8F708A3085
:1027F000B8F0895C8D931D922F5F243169F74FBF2C
:102800008091E800877F8093E8006AE270E0CE0163
:10281000019641D98091E8008B778093E80055CFED
:10282000805DE8CF832F90E08330910519F160F44B
:102830008130910509F46CC08230910509F045CFD3
:102840008BE3EBE6F1E029C02091AF023091B002BA
:102850008132910509F453C08232910509F035CFD8
:102860002130310508F45CC009F02FCF8BE7ECEA8A
:10287000F0E013C0822F90E0213099F18230910571
:10288000B9F1009709F021CFE0EEF1E0E4918E2F4D
:10289000E0EEF1E0009709F418CF2091E800277FDF
:1028A0002093E8002091B1023091B2028217930781
:1028B00008F49C0140E021153105B1F5411134C007
:1028C0008091E80082FDA6CF80910703811509F46D
:1028D000A1CF853009F49ECF8091E80083FFF0CF2F
:1028E00099CFE2EDF1E0E4918E2FE2EDF1E0D2CF6D
:1028F000E8EBF1E0E4918E2FE8EBF1E0CBCF213073
:10290000310550F009F0E1CE89E0E6E9F1E0C5CF0C
:1029100082E1E6EAF1E0C1CF89E0EDE7F1E0BDCF89
:1029200084E4E7E2F1E0B9CF80910703811509F46F
:1029300071CF853009F46ECF8091E80083FD6ACFB6
:102940008091E80082FDBCCF8091E80080FFB3CF8A
:102950004091F3008091F200942F2115310519F078
:102960008830910550F041E0089709F040E08091EF
:10297000E8008E778093E8009ECF44914093F10069
:102980003196215031090196E8CF803809F09DCE6B
:102990008091E800877F8093E8008091A90280936E
:1029A000F10089CE811191CE8091AD02182F823035
:1029B00008F08BCE8091E800877F8093E800109329
:1029C000A902F6D8111599F084E08093070342E03C
:1029D00061EC81E0BDD842E261EC82E0B9D880913F
:1029E0000703843051F482E080930E016ECE809113
:1029F000E30087FDE9CF81E0E8CF81E0F5CFCF9319
:102A0000C82F8115A1F08450813A98F4E2EAF2E0EF
:102A100088EA92E02081C217E1F131968E179F0774
:102A2000C9F76C2F80EA92E00E94C20CD4DCCF91EF
:102A300008958C2F805E883060F4C77021E001C05B
:102A4000220FCA95EAF780919D03822B80939D0304
:102A5000EDCF8C2F855A833030F48C2F8452990B14
:102A60000E94740CE4CFEC2FE85AEB3150F4F0E004
:102A7000EE0FFF1FE352FE4F808191810E949B0C5D
:102A8000D6CF8C2F8D5C833190F661E08C2FD6DB16
:102A9000CECF6C2F80EA92E00E94DD0C9CDCC1CF8F
:102AA000811579F1982F9450913A30F4682F80EA8B
:102AB00092E00E94DD0C8FCC982F905E983058F4F5
:102AC000982F81E091FD84E090FD880F92FD829522
:102AD0000E945A08F0CF982F955A933020F480E046
:102AE00090E00C94740C982F985A9B3120F480E05D
:102AF00090E00C949B0C982F9D5C933110F460E057
:102B00009DCB08951F93CF93DF93182FC0E5D0E09E
:102B1000893311F0C0E0D0E0812F71DF209731F4CC
:102B2000812FBEDFDF91CF911F9108958FE99FE044
:102B30000197F1F700C000002197F0CF81E080936A
:102B4000170410921304109214041092150410929A
:102B500016040E949607809112040E94550B80E98A
:102B6000D1DF8AE8CFCF109217041092130410928D
:102B7000140410921504109216040E949607809176
:102B800012040E94630B81E9BDDF8BE8BBCF811586
:102B900031F090919D03982B90939D031CCC089548
:102BA000811519F00E945A0816CC08958F929F92B1
:102BB000AF92BF92CF92DF92EF92FF920F9388E095
:102BC00090E00E94B12D4B015C01609395039092BF
:102BD000960380939703B0929803109299031092F2
:102BE0009A0310929B0310929C0383E290E00E9450
:102BF000A92D9401A5018092950330939603A0928C
:102C00009703509398038093990310929A0310921C
:102C10009B0310929C030F91FF90EF90DF90CF9059
:102C2000BF90AF909F908F900895A0E0B0E0EBE14F
:102C3000F6E10C94382D41E453E007E911E0D12C82
:102C40007D01E394FA01B190AF01DF011E92F8011A
:102C500081918F01E82FE295EF70F0E021A18F7054
:102C6000B70101C0660F8A95EAF7462E262B21A3ED
:102C700022A1C62EC0942C2122A320EA2A95F1F786
:102C800021EA222E21E0322E310160E070E0E301E2
:102C9000A9903E012A2D22952F70205E30E0E90197
:102CA00028819C908A2D8F7002C0359527958A9532
:102CB000E2F720FD92C02E2D062E01C0220F0A94AD
:102CC000EAF729292C936F5F7F4F66307105F9F67B
:102CD00091A1C922C1A292A1842D892B82A381E056
:102CE0009C919B1101C080E0D82A83E046345807AC
:102CF00009F0A8CF20E030E07901E3944CE951E0FD
:102D0000F10181911F01E82FE295EF70F0E061A1E0
:102D10008F70D70102C0AA0FBB1F8A95E2F72D0161
:102D20006A2B61A372A16A2F6095762372A370EA61
:102D30007A95F1F7AE2D022E01C0AA0F0A94EAF798
:102D40008A2E80947A2FA7E9B1E006E413E0C12C23
:102D5000E80199908E017D90A72CA2948FE0A82283
:102D600080E2A80EB12CE501A880872D8F7002C0EB
:102D7000B594A7948A95E2F7A0FC31C0B92CB72A84
:102D8000380181E0681A7108E301B882AA24A3948B
:102D9000B91001C0A12CCA284A175B07C9F691A136
:102DA000692361A392A1842D892B82A3DC282F5F44
:102DB0003F4F2630310509F0A3CFD11499F081E0BF
:102DC000809336030E94190D80933403909335034A
:102DD000CDB7DEB7E2E10C94542D20E072CFB92CD0
:102DE000B820CECF80913603811591F3C091340382
:102DF000D09135030E94190D8C1B9D0B059740F354
:102E00004AE050E061E473E087E393E00E949C2D88
:102E1000892B49F08AE0E1E4F3E0A7E3B3E0019015
:102E20000D928A95E1F710923603D2CFADE2B0E071
:102E3000ECE1F7E10C94382D80910403833009F024
:102E4000CAC24091840350918503609186037091BA
:102E5000870380918803909189030E94270F209314
:102E600084033093850340938603509387036093D4
:102E700088037093890386E0E4E8F3E0DE011796A7
:102E800001900D928A95E1F70091860301951091CA
:102E90008703119509871A8786E0FE013796DE01C0
:102EA0001D9601900D928A95E1F786E0FE013D9610
:102EB0009E012F5F3F4FD90101900D928A95E1F756
:102EC00086E0F901A4E8B3E001900D928A95E1F75C
:102ED00086E0E4E8F3E0DE01179601900D928A9512
:102EE000E1F786E0FE013796DE01539601900D92E0
:102EF0008A95E1F786E0FE017396D90101900D9263
:102F00008A95E1F786E0F901A4E8B3E001900D921B
:102F10008A95E1F786E0E4E8F3E0DE015F96019050
:102F20000D928A95E1F73090880320908903E09113
:102F3000EB03F0E0EE0FFF1FEB58FE4F6081718155
:102F400080E090E00E94A12C25E33AEF4EE85CE39C
:102F50000E94E32B4B015C01602F000F770B872F42
:102F6000972F0E94A32C2B013C01B401C5010E94A4
:102F7000D12A6B017C01612F110F770B872F972FBF
:102F80000E94A32C6DA37EA38FA398A7B401C501B3
:102F900090580E942F2B69A77AA78BA79CA7960110
:102FA000A701B201C3010E94E32B4B015C0129A5DB
:102FB0003AA54BA55CA56DA17EA18FA198A50E9405
:102FC000E32B9B01AC01B401C5010E946B2C2AE9E3
:102FD00039E949E95EE30E94E32B4B015C0123E3FD
:102FE00033E343E35FE36091F8027091F90280916B
:102FF000FA029091FB020E94E32B9B01AC01B40109
:10300000C5010E946C2C4B015C0129A53AA54BA57A
:103010005CA5B201C3010E94E32B2B013C012DA151
:103020003EA14FA158A5B601C7010E94E32B9B0109
:10303000AC01B201C3010E946C2C2AE939E949E9CB
:103040005EE30E94E32B6B017C0123E333E343E364
:103050005FE36091F4027091F5028091F602909125
:10306000F7020E94E32B9B01AC01B601C7010E944D
:103070006C2C6B017C018092F8029092F902A09274
:10308000FA02B092FB026093F402D092F5028093B0
:10309000F602F092F70220E030E040EC5FE3B4018A
:1030A000C5010E94E32B4B015C0120E030E040ECC5
:1030B0005FE3B601C7010E94E32B6B017C018091A5
:1030C000ED039E012F5F3F4F29A73DA7811509F40E
:1030D000FCC0B401C5010E94702C8B0177FF04C0B5
:1030E00000271127061B170BB601C7010E94702C81
:1030F000AB01CB0177FF04C088279927841B950B70
:10310000801791070CF0CCC0E12CF12C6701609185
:10311000F2027091F302872F880F880B982F0E947C
:10312000A32C6DA37EA38FA398A76091F00270914A
:10313000F102872F880F880B982F0E94A32C2B0158
:103140003C018091EC03811509F4AEC02DA13EA194
:103150004FA158A5B401C5010E946C2C4B015C0124
:103160009601A701B201C3010E946B2C0E94702C32
:103170006B017C01B401C5010E94702CAB0160930E
:10318000F2025093F302C092F002D092F102E09169
:10319000EA03F0E0EE0FFF1FE759FE4FE0819A01CE
:1031A0000E2E02C0359527950A94E2F7C6010E2E21
:1031B00002C0959587950A94E2F7082F211581F0B2
:1031C000220E322F330F330B0E2E02C0220F331F6D
:1031D0000A94E2F7421B530B4093F2025093F3021E
:1031E000011509F4F6C0380E982F990F990B02C0FB
:1031F000880F991FEA95E2F7C81AD90AC092F0021F
:10320000D092F10200E010E009A31AA33BA22CA285
:1032100086E0FE017F96DE01179601900D928A9559
:10322000E1F786E0FE013796A9A5BDA501900D92B4
:103230008A95E1F786E0E9A5FDA5DE0159960190A2
:103240000D928A95E1F786E0FE017996DE011796E8
:1032500001900D928A95E1F786E0FE013796A4E889
:10326000B3E001900D928A95E1F786E0EEE7F3E096
:10327000DE01179601900D928A95E1F78091850302
:103280009885892B809385030E94F810811102C0D4
:103290008091FC021092FC02AD96E2E10C94542D58
:1032A000A12CB12C450133CF9401A5016DA17EA1C4
:1032B0008FA198A50E946B2C4B015C019201A30188
:1032C000B601C7010E946C2C51CF20E030E040E0F5
:1032D0005FE3B401C5010E94E32B2091EC02309121
:1032E000ED024091EE025091EF020E946C2C4B01D6
:1032F0005C016093EC029092ED028093EE02B0923A
:10330000EF0220E030E040E05FE3B601C7010E9439
:10331000E32B2091E8023091E9024091EA025091BA
:10332000EB020E946C2C6B017C016093E802D0924E
:10333000E9028093EA02F092EB02B401C5019F77A3
:1033400020E030E040E85FE30E94DE2C00E087FDF3
:103350001AC0B401C5010E94702C062F762F770F7A
:10336000770B872F972F0E94A32C9B01AC01B401F0
:10337000C5010E946B2C6093EC027093ED02809368
:10338000EE029093EF0220E030E040E85FE3B60108
:10339000C7019F770E94DE2C87FD1BC0B601C701C5
:1033A0000E94702C162F762F770F770B872F972F71
:1033B0000E94A32C9B01AC01B601C7010E946B2C9B
:1033C0006093E8027093E9028093EA029093EB0223
:1033D0001BCF10E019CF80E05FCF9091950390FF55
:1033E0002EC0811569F1853168F58F73880F880FBC
:1033F000909195039370892B80939503611521F02B
:1034000085E993E00E941510609195036695669595
:1034100070E04BE050E080E091E00E948F2D892B1E
:1034200099F01092940381E08093200320E0409172
:10343000980360919703809196030C94531008951C
:1034400081E0D4CF84E1D2CF81E0809394030E94C5
:10345000190D80931D0390931E03E5CF8091950372
:10346000869586958F5F853108F081E061E0B5CF64
:103470008091950386958695815009F484E161E0F9
:10348000ACCFA0E0B0E0E7E4FAE10C94412DEC0110
:1034900098819130D0F009F03EC08981813021F4CB
:1034A0008A8123962FDBF4CF823021F48A81239600
:1034B000A6DAEECF833021F48A812396F1DAE8CFC1
:1034C000843041F022968111E3CFCDB7DEB7E9E039
:1034D0000C945D2D8A81239620E030E09AE0482FFD
:1034E0004053550B4A30510560F02115310559F311
:1034F000EFE9FFE03197F1F700C0000021503109FA
:10350000F4CF929FB001939F700D11249A01260F62
:10351000371F8991E4CF2196E92FF0E0EC5EFD4F53
:103520008491B82E292F26952695269530E0F9010D
:10353000EC5FFD4FE4909770F12C092E02C0F594DA
:10354000E7940A94E2F7F901EC50FE4FC490D12CB5
:10355000092E02C0D594C7940A94E2F72C513E4F2D
:10356000F901049110E002C0159507959A95E2F7CC
:10357000E0FE02C081EE43DAC0FE02C086EE3FDA12
:103580008B2D3DDA8B2D8CDAC0FE02C086EE88DAF8
:10359000E0FE02C081EE84DA00FF7ACF8CE282CFB7
:1035A000A2E1B0E0E6EDFAE10C94382D6091FD0364
:1035B000611509F448C08090130490901404A09001
:1035C0001504B09016048EEF93E08B879C87DC0186
:1035D00080E090E01D861E861F86188AED91FD9181
:1035E000EE0FFF1FEE0FFF1FE35EF64F008111810C
:1035F00022813381802A912AA22AB32ACD84DE84B3
:10360000EF84F888C02AD12AE22AF32ACD86DE8602
:10361000EF86F88A01968617910504F381149104C8
:10362000A10480E4B80699F48091FE039091FF0311
:103630008F359E4729F588E265DA60E070E080E02A
:1036400090E40E942E076296E2E10C94542D8114BE
:103650009104A10486E0B80631F470DA60E070E00D
:1036600080E096E0EECF8114910480E8A80681E026
:10367000B80631F478DA60E070E080E891E0E1CFFC
:10368000EEEFF3E020E030E080819181AC014E5517
:103690005E474230510508F485C0880F991F880F96
:1036A000991F835E964FFC01408051806280738039
:1036B00083E0282E87E0382E8101C12CD12C7601A1
:1036C0004AE050E0B801CE0101960E94862D298182
:1036D0003A814B815C81C901DA0188219921AA21B3
:1036E000BB21BE016F5F7F4F698B7A8B281739072B
:1036F0004A075B0799F58D859E85AF85B88982233A
:103700009323A423B523892B8A2B8B2B39F1B90161
:10371000CA010E94332DFC01B601C7010E94332D5E
:103720008E179F070CF449C0C9F441145104610479
:103730007104A1F0C901DA0184219521A621B721E4
:10374000892B8A2B8B2B51F0C201D3018C219D2117
:10375000AE21BF21892B8A2B8B2B79F1065F1F4F5E
:103760008EE00F31180709F0ABCFC114D104E1048A
:10377000F10479F14AE050E0B10189899A890E9407
:10378000862D89819A81AB81BC818C159D05AE0502
:10379000BF05B1F4CE01059674DEB601C7010E94E3
:1037A0002E0704CF32962F5F3F4F261731050CF4BA
:1037B0006BCF612C712C23017BCF69017A01CECFB5
:1037C0008AE0280E311C8FE128168EE0380691F62B
:1037D000E4CF8091FD03811509F435CFEB85FC859D
:1037E0002281338121933193EB87FC87E051F440B0
:1037F000A9F7109210041092110481508093FD03D8
:1038000022CFA0E0B0E0E7E0FCE10C94422D7C0187
:10381000FC018481811509F45EC061E0C7010E944A
:10382000AA09EC01CA368EE7D807E1F1CB368EE75C
:10383000D80709F43DC08091F7039091F803892BD4
:10384000D1F480911704811509F44EC080911204BF
:103850004091A2035091A3034115510509F052C0B4
:10386000811509F45CC00E94550B8091F70390917B
:10387000F803892BA9F18091F7039091F8031816AA
:1038800019060CF04CC0809112044091A203509193
:10389000A3034115510509F05FC0811140C00E948A
:1038A000630B3DC0F7018581811531F05CD904C0FF
:1038B000F7018581811142D98091A403877059F065
:1038C000F7018581811539F08091A60382FF03C03D
:1038D00082E00E94730BCDB7DEB7E8E00C945E2D5A
:1038E0008091170481111BC0809112044091A203A2
:1038F0005091A3034115510511F5811110C00E948B
:10390000630BB9CF21E030E0082E02C0220F331F35
:103910000A94E2F724233523232B09F4A4CFF701DB
:103920002581211509F483C0FE01E056FE47EA30E7
:10393000F10508F07CC0E95EF14D0C942D2D21E0DD
:1039400030E0082E02C0220F331F0A94E2F724232E
:103950003523232B21F3D3CF21E030E0082E02C002
:10396000220F331F0A94E2F724233523232BB9F2C5
:1039700096CF0E949607A0CF81E00E94950E9CCF23
:1039800082E0FBCF83E0F9CF9091FA03892F8E7FFD
:1039900090FF81608093FA034091F9035091FA03FC
:1039A0006091FB037091FC0383E190E00E94CD2DB8
:1039B00083CF8091F9038230B1F0833009F18130F7
:1039C00019F48EE191E05DDD8091FA0381FF1BC067
:1039D00086E391E056DD8091FA0382FF17C082E40E
:1039E00091E04FDD69CF82E291E04BDD8091FA03F7
:1039F00080FF03C086E291E0E6CF8BE291E0E3CF67
:103A000080E391E0E0CF8CE391E0E4CF8BE491E0C0
:103A1000E8CF9091FA03892F8D7F91FF8260BACF12
:103A20009091FA03892F8B7F92FF8460B3CF8091AE
:103A300017048111BFC08091F4039091F503211503
:103A400009F4A8C02091F6032F5F2093F60340915C
:103A50008E0350918F03009701F52130F1F4C417C4
:103A6000D507B1F08091900390919103C817D907C1
:103A700079F080918A0390918B03C817D90741F0A0
:103A800080918C0390918D03C817D90709F08DC0E0
:103A9000C093F403D093F5030FCF2091900330919E
:103AA0009103C417D50759F42817390771F446D87C
:103AB0001092F4031092F5031092F603FDCEC21794
:103AC000D30719F448175907F1CF20918A03309191
:103AD0008B0340918C0350918D03C217D30729F4B7
:103AE0004817590741F43FD8E3CFC417D50719F455
:103AF00028173907F7CF06D81092F4031092F50370
:103B00001092F603C1158EE7D80709F0F3C0F7014C
:103B10008581811509F18091E90390E0019665E0C6
:103B200070E00E94062D8093E9034091E9035091D3
:103B3000EA036091EB037091EC038FE090E00E9448
:103B4000CD2DE091E903F0E0EE0FFF1FED5EFD4F9C
:103B5000808191810E94000FF7018581C6319CE729
:103B6000D90709F0B6C4811509F484C180919D0379
:103B70008A7A91E0811101C090E09093920365E30D
:103B8000811101C069E280EA92E00E94C20C0E94A9
:103B9000EB1192CE1092F603009739F00E94821535
:103BA0001092F4031092F50387CE1092F403109252
:103BB000F503A8CFD93208F06DC0C13088E2D8072C
:103BC00068F4D33208F062C0C13082E2D80730F422
:103BD000C83ED10518F5C03ED10530F18091F703FC
:103BE0009091F803211509F46AC001968093F703B8
:103BF0009093F803809112040E94630BC6308EE705
:103C0000D80709F420C1C5308EE7D80709F426C1CA
:103C1000C4308EE7D80709F426C19ECFCE0181506B
:103C200091428F3F9105D0F2211156C0CE018054B0
:103C30009E478032910508F065CF880F991F880F45
:103C4000991F835E9D4FFC01408151816281738188
:103C5000409550956095709580911304909114044F
:103C6000A0911504B091160484239523A623B723AD
:103C70008093130490931404A0931504B093160436
:103C80008091FD03811509F417CECBC0CE01815080
:103C90009442C7CFD53378F4C13084E3D80708F015
:103CA0009DCFD23320F4C13081E3D80796CFCE0127
:103CB00081509243B6CFCE0181509843B2CF019745
:103CC00011F00AF0DDC31092F7031092F80380910F
:103CD00012040E94550B92CFCE358EE7D80758F5C7
:103CE000C0348EE7D80708F06DC0C1158EE7D8073D
:103CF00009F411CFC1308EE7D80709F0C6C3F70128
:103D00008581811509F428CF8091EA0390E001961E
:103D100066E070E00E94062D8093EA034091E9037B
:103D20005091EA036091EB037091EC038FE090E017
:103D30000E94CD2D11CFCE018E559E47029708F0DF
:103D4000A9C38091FD039091FA038E0100541E4790
:103D5000000F111F000F111F92FD0DC0811549F0BA
:103D60001FDC109213041092140410921504109288
:103D700016048091FD03E82FF0E0EE0FFF1FE250E4
:103D8000FC4FC083D1838F5F8093FD03F801E35E16
:103D9000FD4F8091130490911404A0911504B091EB
:103DA00016044081518162817381842B952BA62B4F
:103DB000B72B8093130490931404A0931504B0932D
:103DC00016047ACD8091FD03E82FF0E0EE0FFF1F7F
:103DD000E250FC4FC083D1838F5F8093FD03CC0FF3
:103DE000DD1FCC0FDD1FC35ED64F409113045091F1
:103DF00014046091150470911604FB81EA81098016
:103E0000C881D02D4C2B5D2B6E2B7F2B4093130440
:103E10005093140460931504709316048A3008F4C8
:103E20004BCDBEDB49CDF7018581811509F494CED8
:103E30008091EB0390E0019669E070E00E94062D0E
:103E40008093EB036BCFF7018581811509F441C3A2
:103E50008091EC0381958093EC032FC3F70185815A
:103E6000811509F436C38091ED0391E08927809391
:103E7000ED032FC38091920365E3811101C069E2D4
:103E800080EA92E00E94DD0C82CE8091950380FF53
:103E90000CC08E7F8093950385E993E00E941510F6
:103EA000109294030E94910A07CD8160809395033C
:103EB00061E08695869591DAFFCC811521F0D8DAFC
:103EC000FBCC8115E1F3CADAF7CC811529F00E9409
:103ED000C410F2CC8115D9F30E94BC10EDCC811531
:103EE00029F00E94D710E8CC8115D9F30E94CC109C
:103EF000E3CC811529F00E94ED10DECC8115D9F3B9
:103F00000E94E210D9CC811529F00E944910D4CC2E
:103F10008115D9F30E943F10CFCC9E01205E32451F
:103F200020323105A0F4911125C0CF7181E090E0DD
:103F300002C0880F991FCA95E2F7EC01682F83E051
:103F400090E00E94BB2DCE010E94A907B5CC91152F
:103F500009F448C0CB358CE7D807D1F1CC358CE7D4
:103F6000D80759F1CA358CE7D80781F1C1308CE701
:103F7000D807B1F1C3308CE7D80761F1C115DC4730
:103F800089F50E9429128FEF94E32CE08150904034
:103F90002040E1F700C0000087E797E78093000822
:103FA0009093010888E19AE00FB6F894A895809361
:103FB00060000FBE90936000FFCF8091A6030024A5
:103FC00082FF0394802D0E94FF0F76CC81E0FBCF0F
:103FD00080E0F9CF6FEF7FEF80E090E00E94D52D79
:103FE0000E944712F70100811181911509F445C023
:103FF000C8010E947609C82F682FC8010E940108D5
:10400000B8018C2F0E943B090E946208D82FC92F4B
:10401000F701D580068102950F708091A403877007
:1040200001F1CD2CD114F1F0892F807F803461F023
:104030008D2F805E8830A8F0892F807E803221F419
:10404000D23078F0011569F08091A60382FF09C093
:1040500082E00E94730B8091A4038770CC24C394E8
:104060008111C12CEC2FE295EF70C03C08F06AC0C2
:10407000F0E0EF5DF14D0C942D2DC8010E941A085F
:10408000C82FBECF1C2F1F70C03110F01295107FAB
:10409000D114B9F0111569F08D2F805E883010F0C1
:1040A000D11109C080919D03812B80939D030E94B3
:1040B000EB118D2F3FC08091A703812B8093A70325
:1040C000F6CF8D2F0E9450151115E1F18D2F805ED6
:1040D000883010F0D11104C0812F0E945A0806C008
:1040E00010958091A70381238093A7030E94EB1171
:1040F00029C01C2F1F70C07FC03211F01295107F95
:10410000D13040F009F463C0D11409F46DC0011539
:10411000A9F1CFCF8091A60382FD2CC0D11469F004
:10412000111539F080919D03812B80939D030E948E
:10413000EB1180E00E94FF1405C080E00E94501542
:104140001111CACFC11409F4B8C08091A40380FD35
:10415000B4C0F70115828695869586950E94550B09
:10416000C7014FDB8091A4038695869586950E94B2
:10417000630BA3C0D11489F0013020F4812F0E9479
:10418000C715E0CFF9F680919E03912F9823191758
:10419000C9F2812B80939E03D5CF0111D3CF812FFC
:1041A0000E94D01590919E03812F892329F0812FA1
:1041B0008095892380939E0380919F03912F98235C
:1041C00009F4C0CF1095182310939F03BBCFD114CF
:1041D00021F0063008F0B6CFD1CF053008F0B2CFCD
:1041E000812F0E94D015AECF0115D1F3D93349F4F8
:1041F0008FEF97EE23E0815090402040E1F700C020
:1042000000008D2F0E9450159DCF8C2F869586958E
:104210008370813060F009F095CF8D2F9C2F9370C3
:10422000D11002C080E090E00E949B0C8BCF8D2FBC
:104230009C2F9370D11002C080E090E00E94740C1B
:1042400081CF6D2D8D2F0E941E117CCF8C2F8370FE
:1042500009F046C0D1102FC04D2F429546954770AA
:10426000440F440F2D2F2F7030E0042E02C0220F78
:10427000331F0A94E2F780E090E0D4FF09C08FE09A
:1042800090E002C0880F991F4A95E2F780959095BB
:10429000C695C695C370C230D1F0C330A9F0409125
:1042A000A0035091A103C13069F0822B932B84238A
:1042B00095230E94A9070E94530C60E0C7010E9449
:1042C000AA0909CB242B352B822B932BF2CF822BDF
:1042D000932B2091A0033091A10382279327E9CF4C
:1042E000D11491F1C0FFE7CF4D2F4295469547700D
:1042F000440F440F2D2F2F7030E0042E02C0220FE8
:10430000331F0A94E2F780E090E0D4FF09C08FE009
:1043100090E002C0880F991F4A95E2F7809590952A
:10432000C695C695C370C230C1F0C33099F04091B4
:10433000A2035091A303C13059F0822B932B842305
:1043400095230E944F0BB7CF823008F4B4CFCCCF67
:10435000242B352B822B932BF4CF822B932B209164
:10436000A2033091A30382279327EBCFCF70D11400
:1043700039F08C2F0E94550B8D2F0E94C7159BCFB3
:104380008D2F0E94D0158C2F0E94630B94CFD23FAB
:1043900099F170F4D03FC9F0D13F91F0D11409F4F4
:1043A0005BC0011509F455C08D2F0E94FF1483CF07
:1043B000D33F49F1D43F91F79091A60392FD31C0CC
:1043C0008C2F8F71D11401F31BC0D11499F00530DB
:1043D00008F071CFCF7181E090E002C0880F991F83
:1043E000CA95E2F7EC018091A2039091A3038C2778
:1043F0009D27A7CF0630ECCF8C2F8F71D110C4CF63
:104400000E94550B58CF80E090E0D11409F499CF69
:10441000CF7181E090E002C0880F991FCA95E2F742
:1044200090CFD11461F08C2F8F7192FFE9CF982F2C
:10443000990F990F990F93609093A403E1CF81E0B6
:104440000E94730B023008F436CF82E00E94730B97
:1044500032CF8C2F8F71D4CF011579F0D93349F435
:104460008FEF97EE23E0815090402040E1F700C0AD
:1044700000008D2F0E9450151ECF8C2F8F7184CF7E
:104480008093F7039093F803B9CBC2308EE7D80737
:1044900009F4C9CCC3308EE7D80709F0AFCBF701D8
:1044A00085818115B1F08091EB0390E0089669E079
:1044B00070E00E94062D8093EB034091E903509138
:1044C000EA036091EB037091EC038FE090E00E94AF
:1044D000CD2DF7019581911509F41FCD80919D0394
:1044E0008272FE01E052F847EB30F10508F015CD7D
:1044F000E35DF14D0C942D2D8091E803803170F433
:104500008091E703811551F0E091A9032091A80360
:104510003091E3034091E2032E1301C00895BF01DF
:1045200087E0E89FF0011124DF01A655BC4F1496E7
:104530008C911497811551F111968C9111978313D9
:1045400025C08C91841322C015968C9115978111EA
:104550001DC012968D919D91A091E403B091E50349
:104560008A1B9B0B883C910588F48091E8038F702F
:1045700080618093E803E055FC4F80818F708061FB
:10458000808382EE93E03DD90C9450086F5F7F4F9B
:10459000FB01E770C1CFADE0B0E0E1EDF2E20C94D9
:1045A0003D2D8C0186E0F801DE01189601900D92F8
:1045B0008A95E1F7F801F580C48082EE882E83E0C9
:1045C000982E7090E60371101FC0C114D1F0F11441
:1045D00009F415C1C8010E94CF09811509F40FC162
:1045E00087E0F801D40101900D928A95E1F78C2DB6
:1045F000813031F48091E2039091E3030E94C50978
:104600007BDFFF24F39453C0E080A280B380D0907E
:10461000E7038091E4039091E5039501281B390B92
:10462000D11409F4B5C0283C310508F08DC0C1147F
:1046300041F39091E303C1808091E803803108F059
:1046400056C0C91213C09091E2039E110FC0F11021
:1046500048C08F7080618093E80382EE93E0D1D8E8
:104660008091E803F8018683F12C21C0F11039C054
:1046700040E06C2D8E2D0E94310840E06C2D8E2D77
:104680000E943108F82E8111EFCF888599850E940C
:10469000C509292F22952F70903470F49F70223015
:1046A00098F09115A9F0F8019681903188F48F2D3A
:1046B0002D96EDE00C94592D2A5F2F70223060F07A
:1046C000C8019FD8FD2CF3CF911511F0811579F316
:1046D000805E883060F3F4CF803F48F3815F8330A1
:1046E000F9CF8091E80381608093E803BDCFC912C0
:1046F00007C09091E2039E1103C0F11409F469C050
:10470000C8010E94CF09811509F479C0F11409F498
:1047100076C08091E803803270F02091E2033091FE
:10472000E30329833A83AB82BC827D821E828F831E
:10473000CE01019666D887E0F801A2EEB3E00190C1
:104740000D928A95E1F75CCF8091E803803148F4BF
:1047500082EE93E056D8F40187E011928A95E9F74A
:1047600083CFC11409F44DCF2091E3039181291324
:10477000C7CF9091E2039E11C3CFF110C1CF8683C2
:10478000C8013FD8F40187E011928A95E9F739CF43
:10479000283C310500F7C11409F433CFF11479F145
:1047A0009091E3038181981320C08091E2038E11E0
:1047B0001CC08091E80380FD0FC0803168F08683C3
:1047C000807F803F39F08681982F907F905F8F7037
:1047D000892B8683C80115D887E0F801A2EEB3E0E3
:1047E00001900D928A95E1F70CCFC8010E94CF0984
:1047F0008111A1CF8091E80381608093E803C80113
:1048000000D8FFCEABE1B0E0E8E0F4E20C94462D36
:104810004E8B5F8B688F798F8A8F192F9B8F9111A9
:104820001092A7031D8A86E0FE017696DE011F9690
:1048300001900D928A95E1F70A8D011561F00B8BBD
:104840001C8B61E0CE010F960E94AA0961E0CE01A7
:104850000F960E94AA090B8B1C8B87E0FE013F96E6
:10486000DE01189601900D928A95E1F7CE01089627
:1048700092DE81112EC02091A8033091A90387E018
:10488000AE01485F5F4FFA0147505109DA010190CC
:104890000D928A95E1F78C858115D9F0822F90E0F1
:1048A0008395877090E0AC0134171506E1F097E02E
:1048B000929FD0011124A655BC4F9E012F5F3F4F00
:1048C000F90101900D929A95E1F74093A8030E9497
:1048D00050088091A9039091A803891311C06B9689
:1048E000E4E00C94622D0E9429121092A803109209
:1048F000A903E2EEF3E087E011928A95E9F7E9CFA8
:1049000027E0829FC001112486559C4F44DE81150B
:1049100031F38091A9039091AA0301968770809347
:10492000A903D7CFA6E0B0E0E8E9F4E20C94462D65
:104930000E94190D8C0180914B0390914C038017BC
:10494000910771F019821A820E94190DBC014981E8
:104950005A8180E090E056DF00934B0310934C03A4
:104960002696E4E00C94622DCDB7DEB765970FB6BE
:10497000F894DEBF0FBECDBF85B7806885BF85B711
:10498000806885BF84B7877F84BF0FB6F894A895E9
:1049900080916000886180936000109260000FBE7B
:1049A00080E890E00FB6F8948093610090936100E6
:1049B0000FBE81E080930E018AEF99E080939E0202
:1049C00090939F020E94770E0E94280E8091E20031
:1049D00084608093E200789480910703811599F0B8
:1049E0008091E9001091EC008F7010FB112717F9EE
:1049F000182B1092E9008091E80083FD0E945C1260
:104A00001F701093E90082E084BD93E095BD9AEF9A
:104A100097BD80936E00E6E2F3E088E011928A95FC
:104A2000E9F781E08093250360E080E00E94D50BE8
:104A300061E080E00E94D50B8FE891E00197F1F7EB
:104A400000C0000010E080912503181708F4CCC1C5
:104A5000E7E9F1E021EA31E0AF0161E0DA018D91AF
:104A6000AD01A82FA295AF70B0E091961C918F7008
:104A7000E62E01C0EE0C8A95EAF79E2D90959123C3
:104A80009C9311969C918E2D892B8C93241735071E
:104A900029F721EA31E0A90161E0DA018D91AD0148
:104AA000A82FA295AF70B0E091961C918F70E62E62
:104AB00001C0EE0C8A95EAF79E2D909591239C9368
:104AC00011969C918E2D892B8C9381E0473A580743
:104AD00021F741E0D9018D919D01A82FA295AF70DA
:104AE000B0E091966C918F70042F01C0000F8A95F1
:104AF000EAF7902F909596239C9311969C91802F86
:104B0000892B8C9381E0273A380721F741E0819186
:104B1000A82FA295AF70B0E091962C918F70642F62
:104B200001C0660F8A95EAF7962F909592239C9381
:104B300011969C91862F892B8C9381E0E13AF8079E
:104B400031F7E1E4F3E08AE011928A95E9F7E7E3CF
:104B5000F3E08AE011928A95E9F78FE090E00E94F5
:104B6000B12D6093E9037093EA038093EB03909374
:104B7000EC03663010F00E94E10E82E08093120494
:104B800081E190E080938E0310928F0380E1809307
:104B900090031092910389E180938A0310928B0312
:104BA00085E080938C0310928D0383E1DAD76093C4
:104BB000F9037093FA038093FB039093FC03615015
:104BC000633088F081E08093F90377607093FA0393
:104BD0004091F9035091FA036091FB037091FC033B
:104BE00083E190E0DAD780E090E0C0D7833E9E4F2B
:104BF000D9F063EE7EEF80E090E0D7D760E082E00E
:104C000090E0B9D781E090E08093A0031092A103D7
:104C100061E083E0B0D760E074E184E090E0C5D764
:104C20000E942F100E94E10E82E090E092D78093C4
:104C3000120384E090E09AD78093A5039093A60393
:104C400083E090E086D790E00E94A9078091A203BC
:104C50009091A3030E94F50A8091030381112FC054
:104C600085E993E00E94D61580919503843008F081
:104C7000CDC00E942F1085E993E00E94D615809147
:104C80009503843008F0C2C08370846080939503DC
:104C900080919803893718F088E7809398031092E1
:104CA00094030E94F30B8091950380FF05C060E0A0
:104CB000869586950E94ED1981E0809303030E94FA
:104CC000590F8111ABC081E080930403E091E903A7
:104CD000F0E0EE0FFF1FED5EFD4F808191810E949D
:104CE000000F60E982E20E94D70E8FE091E080938E
:104CF0004D0390934E03CE010196282E9B8B6CEFB3
:104D0000462E61E0562E8091070300E110E452E147
:104D1000F52E853009F4DBC00E94151643E1842E80
:104D200043E0942E87E393E08C8B9D8BFC01D401B0
:104D30009D9180812DE133E02A173B0709F4D1C012
:104D400031969817A9F308E013E0D12CEC89FD897E
:104D5000C190EC8BFD8BF40161904F016C14D1F18B
:104D60006C24E12CF12C77247394862D872141F15A
:104D70003C2C372031E0A32E0E2C01C0AA0C0A9443
:104D8000EAF7F801808190E08A21892B91F4E98289
:104D9000DA820E94190D8B839C835D8291E0311031
:104DA00001C090E09E8349815A816B817C818D8115
:104DB00029DD311005C0A094F80180818A2180830B
:104DC000770C8FEFE81AF80A86E0E816F10469F626
:104DD000F401C292D3940F5F1F4F8D2D8A3009F0DA
:104DE000B5CF0E943E0D80C060E0812F0E94E70B8E
:104DF000082F61E0812F0E94E70BE12FF0E0EC5DCE
:104E0000FC4F880F802B80831F5F1DCE8091950300
:104E1000843508F43DCF8370806538CF83E054CF6C
:104E200080910703843029F10E9416171092050320
:104E300088E190E00FB6F894A895809360000FBECB
:104E40001093600083B7817F846083BF83B78160E4
:104E500083BF7894889583B78E7F83BF0FB6F8940D
:104E6000A895809160008861809360001092600036
:104E70000FBE0E941516E7E3F3E0A8E0B3E080E080
:104E800021912D9391E0211101C090E0892B21E423
:104E900033E02E173F07A1F78115C9F08091060373
:104EA0008115A9F009BDF9BC09B400FEFDCF8091C0
:104EB000D8008F7D8093D8008091E000826080933D
:104EC000E0008091E00081FDFCCF0E9429128091DA
:104ED0000703853009F4A4CF0E9429120E94530CC5
:104EE0001BCF981330CF1EDD809194038115D9F12B
:104EF00080919303E0919503E695E695E81BE09396
:104F00001F03823009F03FC0F0E0E456FC4FE4910B
:104F10000E2F10E029E8E22E2BE0F22E80912003E4
:104F2000811561F0109220030E94190D80931D03DA
:104F300090931E0310922103109222030E94190DD8
:104F400020911D0330911E03821B930B8F3F9F47BF
:104F500050F4200F311F20931D0330931E038DE169
:104F600093E0F701099580912E03811551F080910E
:104F7000280310922E0380932903809126038093A7
:104F8000270300E060C0853061F4E695F0E0E75665
:104F9000FC4FE4910E2F10E094EAE92E9BE0F92EED
:104FA000BDCF00ED17E08CEFE82E89E0F82EB6CFEC
:104FB000F09029031091280361E0802F0E94E70BF5
:104FC000E82E60E0802F0E94E70BEE0C8E29202F48
:104FD00030E0D901AC5DBC4FEC919E2F93708917E6
:104FE00089F1EE0FEE0FE82BEC93EF70F0E0E9574C
:104FF000FE4F2D5D3C4F8081F9019081890F8430F7
:105000000CF448C0412F50E0BA016395637070E022
:10501000F616170679F04A5D5C4F902F9F77FA01DC
:1050200094831F5F137010932803909126039F5F52
:1050300090932603982F990F990B64E070E0FAD4AF
:10504000F90180830F5F80912503081708F4B0CF22
:1050500090E01DEF8091290320912803281709F47F
:105060004CC0E82FF0E0E65DFC4FE080FE2CE894B9
:10507000F7F88F5F837080932903809127038F5FF8
:1050800080932703E7FC16C0FF8248860E94190D13
:1050900003E015C08D3F74F6412F50E0BA016395CF
:1050A000637070E0F616170629F24A5D5C4F902F88
:1050B0009068B5CFFF8218870E94190D02E0BC01ED
:1050C00089879A870B875C864F815885802F91E06E
:1050D00099DBFD86E7FE0FC01E870E94190DBC01FB
:1050E0008F87988B098B1A8A4D855E85802F90E07B
:1050F00089DB91E0AFCF4E86F0CF91110E943E0D3B
:105100000E94161781110E943E0D86E0EEE7F3E043
:10511000A22DBB8901900D928A95E1F71092800330
:105120001092810310928203109283038B819C81E1
:10513000892B09F443C000913103109132030E947E
:10514000190D801B910B9C0190917C03911509F422
:10515000ADC02531310590F19F3F19F09F5F9093CD
:105160007C031B81111559F00E940E0C91E0111661
:105170000CF09FEF899F802D1124809380031C8168
:10518000111559F00E940E0C91E011160CF09FEFD2
:10519000899F802D11248093810380918003811544
:1051A00069F010918103111549F00E94000C809361
:1051B0008003812F0E94000C809381038D819E814A
:1051C000892B09F443C000912F03109130030E94F2
:1051D000190D801B910B9C0190917B03911509F493
:1051E00060C02135310590F19F3F19F09F5F90938A
:1051F0007B031D81111559F00E942E0C91E01116B0
:105200000CF09FEF899F802D1124809382031E81D3
:10521000111559F00E942E0C91E011160CF09FEF21
:10522000899F802D112480938303809182038115AF
:1052300069F010918303111549F00E94000C8093CE
:105240008203812F0E94000C80938303622D7B894F
:105250008EE793E00E94E90C81110CC080918003DD
:1052600090918103892B90918203892B90918303E4
:10527000892B11F00E94250D86E0E22DFB89AEE717
:10528000B3E001900D928A95E1F70E94530C909142
:105290003303891709F437CD809333030E943E0D01
:1052A0002ECD2B30310508F0A1CFD0CF2B303105DA
:1052B00008F054CF83CF1F921FB61F9211248F93F3
:1052C0009F93AF93BF9380910503811113C0809189
:1052D000BB029091BC02A091BD02B091BE0241966A
:1052E000A11DB11D8093BB029093BC02A093BD028F
:1052F000B093BE02BF91AF919F918F911F901FBE3F
:105300001F90189578941F921FB61F9211248F93A7
:105310009F93AF93BF938091BB029091BC02A091E9
:10532000BD02B091BE020196A11DB11D8093BB02CA
:105330009093BC02A093BD02B093BE02BF91AF9107
:105340009F918F911F901FBE1F9018951F920F92D3
:105350000FB60F9211242F933F934F935F936F9348
:105360007F938F939F93AF93BF93EF93FF9380911E
:10537000E10082FF09C08091E20082FF05C08091B8
:10538000E1008B7F8093E1008091DA0080FF24C0F0
:105390008091D80080FF20C08091DA008E7F8093BA
:1053A000DA008091D90080FFA9C080E189BD82E147
:1053B00089BD09B400FEFDCF81E080930703809191
:1053C000AA02811109C00E94770E0E94280E8091C6
:1053D000E20084608093E2008091E10080FF1AC0C7
:1053E0008091E20080FF16C08091E2008E7F809362
:1053F000E2008091E20080618093E2008091D80019
:1054000080628093D80019BC85E08093070383E015
:1054100080930E018091E10084FF2FC08091E20013
:1054200084FF2BC080E189BD82E189BD09B400FE03
:10543000FDCF8091D8008F7D8093D8008091E100CE
:105440008F7E8093E1008091E2008F7E8093E20066
:105450008091E20081608093E2008091A902811531
:1054600009F452C084E080930703809107038430DD
:1054700009F052C082E080930E018091E10083FF29
:105480002CC08091E20083FF28C08091E100877FDB
:105490008093E10082E0809307031092A90280913B
:1054A000E1008E7F8093E1008091E2008E7F809307
:1054B000E2008091E20080618093E20042E060E0DF
:1054C00080E00E94A80D8091F00088608093F00039
:1054D00081E080930E0180930D01FF91EF91BF91C8
:1054E000AF919F918F917F916F915F914F913F917C
:1054F0002F910F900FBE0F901F90189519BC10920E
:1055000007031092AA0268CF8091E30087FF02C0D0
:1055100083E0A9CF81E0A7CF81E0ADCF1F920F92AA
:105520000FB60F9211241F932F933F934F935F93C6
:105530006F937F938F939F93AF93BF93CF93DF939B
:10554000EF93FF93E9EEF0E080811091EC008F7013
:1055500010FB112717F9182B1082C0EFD0E08881BB
:10556000877F888378940E945C12E9EEF0E01082D5
:105570008881886088831F701083FF91EF91DF918D
:10558000CF91BF91AF919F918F917F916F915F91DB
:105590004F913F912F911F910F900FBE0F901F9031
:1055A000189503D0E39528C0D4C03FD0E8F3E89421
:1055B000E0E0BB279F57F0F02AED3FE049EC06C042
:1055C000EE0FBB0F661F771F881F28F0B23A6207E5
:1055D0007307840728F0B25A620B730B840BE395B0
:1055E0009A9572F7803830F49A95BB0F661F771F33
:1055F000881FD2F79048A1C0EF93E0FF06C0A2EA4F
:105600002AED3FE049EC5FEB3DD0C5D00F9003940D
:1056100001FC9058E6EDFBE59FC057FD9058440F04
:10562000551F59F05F3F71F04795880F97FB991F01
:1056300061F09F3F79F087950895121613061406BE
:10564000551FF2CF4695F1DF08C01616170618064B
:10565000991FF1CF869571056105089408959F9370
:10566000A4DF0F9007FCEE5FC7CF87D030F08CD05F
:1056700020F031F49F3F11F41EF46BC00EF4E0955E
:10568000E7FB53C0E92FC9DF80F3BA17620773073E
:105690008407950718F071F49EF58EC00EF4E0951E
:1056A0000B2EBA2FA02D0B01B90190010C01CA01DC
:1056B000A0011124FF27591B99F0593F50F4503E87
:1056C00068F11A16F040A22F232F342F4427585F79
:1056D000F3CF469537952795A795F0405395C9F791
:1056E0007EF41F16BA0B620B730B840BBAF0915049
:1056F000A1F0FF0FBB1F661F771F881FC2F70EC0E8
:10570000BA0F621F731F841F48F4879577956795BA
:10571000B795F7959E3F08F0B3CF9395880F08F0A3
:105720009927EE0F97958795089597F99F6780E8D9
:1057300070E060E008959F3F31F0915020F487952C
:1057400077956795B795880F911D9695879597F9E9
:1057500008959FEF80EC08959F938F937F936F93AD
:10576000FF93EF939B01AC012ED0EF91FF918ED070
:105770002F913F914F915F9126C000240A941616F5
:10578000170618060906089500240A94121613062F
:10579000140605060895092E0394000C11F48823BD
:1057A00052F0BB0F40F4BF2B11F460FF04C06F5FD9
:1057B0007F4F8F4F9F4F0895E894BB276627772729
:1057C000CB0197F908950BD0E6CFD7DF28F0DCDFC7
:1057D00018F0952309F0A9CFBCCF1124EECF1DDF1F
:1057E000A0F3959FD1F3950F50E0551F629FF001F4
:1057F000729FBB27F00DB11D639FAA27F00DB11D4D
:10580000AA1F649F6627B00DA11D661F829F2227D5
:10581000B00DA11D621F739FB00DA11D621F839F5C
:10582000A00D611D221F749F3327A00D611D231F32
:10583000849F600D211D822F762F6A2F11249F5780
:1058400050408AF0E1F088234AF0EE0FFF1FBB1FA3
:10585000661F771F881F91505040A9F79E3F510542
:1058600070F063CFAACF5F3FECF3983EDCF38695F0
:1058700077956795B795F795E7959F5FC1F7FE2BED
:10588000880F911D9695879597F90895DF93CF938B
:105890001F930F93FF92EF92DF927B018C0168942C
:1058A00005C0DA2EEF019BDFFE01E894A59125915A
:1058B000359145915591AEF3EF01E4DEFE0197017C
:1058C000A801DA9479F7DF90EF90FF900F911F9184
:1058D000CF91DF9108955058BB27AA27D3DE5BCF25
:1058E00004D06894B11169CF08959FDE88F09F5766
:1058F00090F0B92F9927B751A0F0D1F0660F771F1C
:10590000881F991F1AF0BA95C9F712C0B13081F0FB
:1059100053DFB1E0089550CF672F782F8827B85F05
:1059200039F0B93FCCF3869577956795B395D9F75C
:105930003EF490958095709561957F4F8F4F9F4F66
:105940000895E89409C097FB3EF490958095709572
:1059500061957F4F8F4F9F4F9923A9F0F92F96E9BB
:10596000BB279395F695879577956795B795F11130
:10597000F8CFFAF4BB0F11F460FF1BC06F5F7F4FCD
:105980008F4F9F4F16C0882311F096E911C07723DF
:1059900021F09EE8872F762F05C0662371F096E8E8
:1059A000862F70E060E02AF09A95660F771F881FB7
:1059B000DAF7880F9695879597F9089503D008F43C
:1059C0008FEF0895990F0008550FAA0BE0E8FEEF3E
:1059D00016161706E807F907C0F012161306E407B3
:1059E000F50798F0621B730B840B950B39F40A26AC
:1059F00061F0232B242B252B21F408950A2609F48A
:105A0000A140A6958FEF811D811D0895AA1BBB1B88
:105A100051E107C0AA1FBB1FA617B70710F0A61BAE
:105A2000B70B881F991F5A95A9F780959095BC01CF
:105A3000CD01089597FB072E16F4009406D077FD4C
:105A400008D0E4DF07FC05D03EF4909581959F4F88
:105A50000895709561957F4F0895EE0FFF1F059093
:105A6000F491E02D09943BD08F93CB0138D03CC00A
:105A70002F923F924F925F926F927F928F929F925E
:105A8000AF92BF92CF92DF92EF92FF920F931F934C
:105A9000CF93DF93CDB7DEB7CA1BDB0B0FB6F894FD
:105AA000DEBF0FBECDBF09942A88398848885F843D
:105AB0006E847D848C849B84AA84B984C884DF80AE
:105AC000EE80FD800C811B81AA81B981CE0FD11D92
:105AD0000FB6F894DEBF0FBECDBFED01089507D01D
