:1000000094C60000AFC60000ADC60000ABC600003D
:10001000A9C60000A7C60000A5C60000A3C6000030
:10002000A1C600009FC600000C94A62B0C948E2C39
:100030000C94BB1797C6000095C6000093C600003D
:1000400091C600008FC600008DC600008BC6000060
:1000500089C600000C94822B85C6000083C6000070
:1000600081C600007FC600007DC600007BC6000080
:1000700079C6000077C6000075C6000073C6000090
:1000800071C600006FC600006DC600006BC60000A0
:1000900069C6000067C6000065C6000063C60000B0
:1000A00061C600005FC600005DC6000005010902D0
:1000B000A10185020901A1000509190129081500FE
:1000C0002501950875018102050109300931158165
:1000D000257F95027508810609381581257F9501D0
:1000E00075088106050C0A38021581257F95017572
:1000F000088106C0C005010980A101850319012AF4
:10010000B700150126B700950175108100C0050CD8
:100110000901A101850419012AA002150126A002E6
:10012000950175108100C00660FF0961A101096297
:10013000150026FF00952075088102096315002629
:10014000FF00952075089102C005010906A101056F
:100150000719E029E7150025019508750181029529
:1001600001750881010507190029FF150026FF0008
:100170009506750881000508190129051500250156
:10018000950575019102950175039101C009025B06
:1001900000030100A0FA09040000010301010009A5
:1001A0002111010001224400070581030800010913
:1001B00004010002030000000921110100012222B4
:1001C0000007058203200001070503032000010941
:1001D0000402000103000000092111010001227B3B
:1001E000000705840320000112010002000000083E
:1001F00027170300010001020001180363006F00CC
:1002000063006F0074003400360070006C007500ED
:10021000730000000C0361006B00690032003700BE
:100220000000040309042B2814001A00080015001C
:100230001700292104001600070009000A00902475
:100240001D001B000600190005005201E1002C43AF
:1002500025524152D100000000004B0000004E002A
:1002600000003100130012000C0018001C003400C4
:1002700033000F000E000D000B00913438003700E2
:100280003600100011005101E50028382A3800001E
:10029000D2000000000000000000000000002B2839
:1002A00014001A0008001500170029210400160088
:1002B000070009000A0090241D001B000600190019
:1002C00005002B08E1002C4326524052D1000000CB
:1002D00000004B0000004E0000003100130012002F
:1002E0000C0018001C00340033000F000E000D003D
:1002F0000B009134380037003600100011002B0538
:10030000E50028382A310000D2000000000000007B
:1003100000000000000000000000000000000000DD
:1003200000000000000000000000000000000000CD
:1003300000000000000000000000000000000000BD
:1003400000000000000000000000000000000000AD
:10035000000000000000000000000000000000009D
:10036000000000000000000000000000000000008D
:10037000000000000000000000000000000000007D
:10038000000000000000000000000000000000006D
:100390001E001F0020002100220001001E021F027B
:1003A00020022102220201002D022E022D002E0029
:1003B000000000000100000000004052D1000000D9
:1003C0000000AA000000A900000035002700260058
:1003D00025002400230035022702260225022402DC
:1003E00023020100380230022F0230002F000000EB
:1003F0000100010001000000D20000000000000028
:1004000000000000000000000000000000000000EC
:1004100000000000000000000000000000000000DC
:1004200000000000000000000000000000000000CC
:1004300000000000000000000000000000000000BC
:1004400000000000000000000000000000000000AC
:10045000000000000000000000000000000000009C
:10046000000000000000000000000000000000008C
:100470000000000000000000000000000000660C0A
:100480003A003B003C003D003E00010044004500B6
:100490000000210A200A0100217820782F7800002E
:1004A0002C090100010000000000D30050080000EA
:1004B00000002D0800002E0800000000430042004C
:1004C000410040003F00000000004F00520051007A
:1004D00050000100007E017E0000AD00AE00000073
:1004E000010001004C3800004F080000000000002F
:1004F0000000000000000F083A003B003C003D00F7
:100500003E000100440045000000160A46080100B4
:10051000217820782F7800003708010001000000C2
:100520000000D300B600000000002D0100002E01E5
:100530000000000043004200410040003F00000076
:1005400000004F0052005100500001000000000068
:100550000000AD00AE000000010001004C310000C1
:10056000B7000000000000000000000000004E0086
:100570004B004E004B004E004B00A900AA004E005D
:100580004B002E082D082E012D012F002F002F00CB
:10059000430053002F00556E6465660057696E5323
:1005A00043004D61635343004C34202020004E75BE
:1005B0006D2020004E6167696E0057696E20200033
:1005C0004D6163202000200080818283848586879E
:1005D00088898A8B8C8D8E8F9091929394A0A1A202
:1005E000A3A4A5A6A7A8A9AAABACADAEAFB0B1B263
:1005F000B3B4C0C1C2C3C4C5C6C7C8C9CACBCCCDB9
:10060000CECFD0D1D2D3D40000AE00AF00000000D6
:1006100000003E5B4F5B3E003E6B4F6B3E001C3E5E
:100620007C3E1C00183C7E3C18001C577D571C006B
:100630001C5E7F5E1C0000183C180000FFE7C3E74B
:10064000FF00001824180000FFE7DBE7FF00304838
:100650003A060E00262979292600407F0505070065
:10066000407F05253F005A3CE73C5A007F3E1C1C5A
:100670000800081C1C3E7F0014227F2214005F5FCC
:10068000005F5F0006097F017F00006689956A00B0
:1006900060606060600094A2FFA2940008047E0481
:1006A000080010207E20100008082A1C0800081CE2
:1006B0002A0808001E10101010000C1E0C1E0C0042
:1006C00030383E383000060E3E0E060000000000B6
:1006D000000000005F000000000700070000147F1A
:1006E000147F1400242A7F2A120023130864620056
:1006F000364956205000000807030000001C224124
:1007000000000041221C00002A1C7F1C2A0008084F
:100710003E08080000807030000008080808080043
:100720000000606000002010080402003E514945AE
:100730003E0000427F400000724949494600214185
:10074000494D33001814127F1000274545453900E4
:100750003C4A4949310041211109070036494949BC
:100760003600464949291E000000140000000040E0
:100770003400000000081422410014141414140062
:100780000041221408000201590906003E415D594A
:100790004E007C1211127C007F49494936003E41CF
:1007A000414122007F4141413E007F49494941008A
:1007B0007F09090901003E41415173007F08080883
:1007C0007F0000417F4100002040413F01007F0841
:1007D000142241007F40404040007F021C027F0005
:1007E0007F0408107F003E4141413E007F09090916
:1007F00006003E4151215E007F0919294600264925
:100800004949320003017F0103003F4040403F005F
:100810001F2040201F003F4038403F006314081451
:1008200063000304780403006159494D4300007FCD
:1008300041414100020408102000004141417F0075
:100840000402010204004040404040000003070849
:1008500000002054547840007F2844443800384435
:1008600044442800384444287F0038545454180025
:1008700000087E0902001824241C78007F08040464
:10088000780000447D4000002040403D00007F1083
:100890002844000000417F4000007C047804780078
:1008A0007C08040478003844444438007C1824242C
:1008B0001800182424187C007C08040408004854FC
:1008C0005454240004043F4424003C4040207C0055
:1008D0001C2040201C003C4030403C004428102894
:1008E00044004C9090907C004464544C44000008B8
:1008F000364100000000770000000041360800008B
:100900000201020402003C2623263C0000000000F5
:1009100000000000C060C0D0C8E86C6464646C680B
:100920006898D06000800000000000000000008097
:100930008080000000000000000080808000000037
:100940000000000000008080800000000000000027
:100950000000808000000000000000E0E0000000D7
:100960000000000000C0E0E0E000000000000080A7
:10097000E0E0200000000000000000000000000097
:1009800000000000000000000000E0F0F0F0E0ECEB
:10099000EEF7F37020007C7C7C7E007E7E7E7F7F85
:1009A0007F000080C0E07E5B4F5BFEC00000C000A7
:1009B000DCD7DEDEDED7DC00C00000000000000077
:1009C0000000000000000000000000000000000027
:1009D0000000FC8778FEFE01017884820202868690
:1009E000030187FFFC03FE00000000FCFECF0303B1
:1009F000030387C7860078FEFF8703030303CFFE48
:100A0000FC0038FEFF8703030303C7868400FCFE57
:100A1000870303030387FEFC300303FFFF83030008
:100A20000070787E6F6361FFFF606000F0FCFF0F75
:100A30000F0E8EFCF860003030303030FFFF303069
:100A4000303000000000000000000F1F3F7F7F7F5C
:100A50007F7F3F1E0C001F1F1F3F003F3F3F7F7FD8
:100A60007F00307B7F7830202030787F3B00030090
:100A70000F7F0F0F0F7F0F0003000000000000002A
:100A80000000000000000000000000000000000066
:100A90000000000304193F27425858D99999D85D9E
:100AA0005F6E2C190C070100000000000103030316
:100AB0000303030301000001010303030303030114
:100AC0000000000001030303030303010000000111
:100AD00003030303030301000000000103030300F9
:100AE00000000000000000030300000000010303F9
:100AF00003030303010000000000000003030000E3
:100B000000000000000000000000000000000000E5
:100B100000000000000000000000000000000000D5
:100B200000000000000000000000000000000000C5
:100B300000000000000000000000000000000000B5
:100B4000000000000000000000000000FFAA7F5528
:100B50004000010101010101010101020202020242
:100B60000202020203030303030303030404040455
:100B7000040404050505050506060606060707071D
:100B8000070708080808090909090A0A0A0B0B0BD4
:100B90000C0C0C0D0D0D0E0E0E0F0F0F1010111171
:100BA00011121213131414151516161717181819F5
:100BB000191A1A1B1B1C1D1D1E1E1F20202122225C
:100BC000232424252626272829292A2B2C2D2D2E9F
:100BD0002F30313232333435363738393A3B3C3DB9
:100BE0003E3F404142434445464748494A4C4D4EAA
:100BF0004F50515354555658595A5B5D5E5F616270
:100C000064656668696B6C6D6F7072737577787AFE
:100C10007B7D7E8082838587888A8C8E8F91939559
:100C200096989A9C9EA0A2A3A5A7A9ABADAFB1B37D
:100C3000B5B7BABCBEC0C2C4C6C9CBCDCFD1D4D65D
:100C4000D8DBDDDFE2E4E7E9EBEEF0F3F5F8FAFDFF
:100C5000FF00DA0281FFD9F1DB20A4A62EAF00A0AD
:100C6000C0D30000A1C8D30000AED580A81F408D1E
:100C7000142000643214783C1E00000000000000C4
:100C80000000000000000000000000000000000064
:100C9000000000000000000000000000007E0F00C7
:100CA000D4FFFFFFC7000000780000000000000034
:100CB000002A2B28000000000000000000000000B7
:100CC0000000000029000000002C1E3420212224F6
:100CD000342627252E362D3738271E1F2021222384
:100CE0002425263333362E37381F04050607080916
:100CF0000A0B0C0D0E0F10111213141516171819DC
:100D00001A1B1C1D2F3130232D3504050607080939
:100D10000A0B0C0D0E0F10111213141516171819BB
:100D20001A1B1C1D2F3130354C0011241FBECFEF74
:100D3000DAE0DEBFCDBF12E0A0E0B1E0E4EEF8E61D
:100D400002C005900D92A431B107D9F725E0A4E1C6
:100D5000B2E001C01D92AA38B207E1F70E94A224B6
:100D60000C9411344DC9982F92959F7061F420E036
:100D7000982F892F8695869511F02E5F982F892FB1
:100D80008695820F089524E0F4CF80933805089566
:100D9000CF93C1E061FDC4E060FDCC0F62FDC29560
:100DA00093E0769567959A95E1F79B01220F331FA3
:100DB000260F371F420F531FFA0140E050E090E02A
:100DC0006191DF019C01042E02C0369527950A949B
:100DD000E2F72695220B26272C2326272E934F5FFA
:100DE0005F4F4330510561F7CF910895A82FA77049
:100DF00023E0969587952A95E1F79C01220F331FF2
:100E0000820F931F680F791FFB0140E050E080E0E4
:100E1000219130E00A2E02C0369527950A94E2F718
:100E20002170042E01C0220F0A94EAF7822B4F5F33
:100E30005F4F4330510561F70895282F862F9A3070
:100E400068F4263050F4622F70E026E0929F600D27
:100E5000711D112443E055E09BCF08959C5F9230B3
:100E6000E0F7622F70E040E055E0F6CF292F9A308E
:100E700058F4863080F490E063E075E036E0239F1C
:100E8000800D911D1124B2CF2C5F223020F460E040
:100E900075E090E0F8CF80E00895E0913F059091F3
:100EA0003E05E91302C080E008959F0157E0E59FE9
:100EB000F0011124E05CFA4F5181561306C05081B5
:100EC000581303C05581541305C02F5F3F4FF901DC
:100ED000E770E7CF81E0089580913F0520913E05BE
:100EE000281301C0089501968770FACF8095982F36
:100EF000809135058923809335050895FC01F235ED
:100F0000B8F5F03508F0BBC0E03EF105F0F4ED3C7B
:100F1000F10508F092C0E83AF10570F4E53AF10500
:100F200008F07BC0E130F10529F0CF010497813A48
:100F3000910540F4CF010895CF01885A91094B974C
:100F400008F46FC0E0E0F0E0F5CFF03460F4F03288
:100F500008F0AAC0E83EF10568F3CF0191509C016A
:100F600021153F41E6CFCF019F70906AFC01E2CF8F
:100F7000E03882E5F807C8F5E03682E5F80708F0C2
:100F800064C0E03482E5F807D0F4E03282E5F80787
:100F900008F055C02E2F2695269590E2299F9001A6
:100FA00011248E2F837041E050E002C0440F551F82
:100FB0008A95E2F7CA01822B932B9D68D7CF2E2FFB
:100FC00026952695277090E2299F900111248E2F57
:100FD000837041E050E002C0440F551F8A95E2F74C
:100FE000CA01822B932B9C68C1CFE03C82E5F807B5
:100FF00048F42E2F2F71E03AF245E8F5922F84EF56
:10100000906AB4CFCF01805C9245809708F09ACF68
:101010009E2F9F7180EF906AA9CFCF018497906433
:10102000A5CF8E2F885AE82FF0E0EE0FFF1FE35672
:10103000FE4F80819181946499CFF0657BCF8E2F94
:101040008F71982F81EF906A91CF2E2F269526953C
:10105000277090E2299F900111248E2F837041E028
:1010600050E002C0440F551F8A95E2F7CA01822B57
:10107000932B9A687BCF80E0922F906277CFCF013D
:1010800023E0880F991F2A95E1F7392F3F706E2FC3
:101090006F71462FE4FF04C080E1689FA001112416
:1010A000242FC901906962CFCF019F71E6CF80E004
:1010B00008950895CF92DF92EF92FF921F93CF93FE
:1010C000DF93462F172FE82FF0E0EF5AF44F7111FE
:1010D0000CC0E4918E2F7E2F6E2FDF91CF911F9148
:1010E000FF90EF90DF90CF900895F491EF2F86E07E
:1010F000689FE00111242FEF30E0CE01B9010E947A
:101100006830DB01CA01880F991F65E56A9FA0015D
:101110006B9F500D1124841B482F440F480FC901A9
:10112000811B9109F89F7001F99FF00C11248F2DFC
:10113000149FB0011124672F70E06901C61AD70A05
:10114000B601F69F6001F79FD00C1124A330B105C2
:1011500049F1B901641B7109AB01149FB001159FDE
:10116000700D1124672F70E0261B370BF29FA00132
:10117000F39F500D1124752FCC3FD34050F4A13074
:10118000B105A1F0129709F0A7CFEF2D852F7F2F82
:10119000A3CFA430B10569F0169709F49DCF7F2D38
:1011A0008D2D9ACF7D2DEF2D8F2F96CF7F2FED2D6B
:1011B00093CFE52F7F2DF8CFCF93762FC22F682FB7
:1011C000842F78DF472F909122012C2F291B922FFB
:1011D000282F892F90E06AD1CF91089580912D0515
:1011E000843060F48370846080932D058091300595
:1011F000893718F088E78093300508958435B0F377
:1012000083708065F1CFCF9380912D0580FF03C05F
:10121000B8D4CF910895C091240180912501C817B9
:10122000B8F7809122019C2F981B20E040E060E0FD
:10123000892F90E03BD1CF5FF0CF0F931F93CF93D7
:10124000DF93D82F162F042F80912D05C0912401F4
:1012500080FD10C0DF91CF911F910F910895809173
:1012600022019C2F981B202F412F6D2F892F90E05A
:101270001DD1CF5F80912501C81788F3C4DFEACF65
:101280000F931F93CF93DF93762F90912D0590FFAF
:1012900019C0493708F048E7682F842F0BDFD62F95
:1012A000172F082FC0E0809122019C2F981B202F20
:1012B000412F6D2F892F90E0F9D08C2FC1E0813024
:1012C00091F7A1DFDF91CF911F910F910895CF93F7
:1012D000C82F49DD843041F1B8F48230E9F0833021
:1012E000F9F040E060E080E0CBDF80E080938305B0
:1012F00082E0809324018CE0809325018AE0809332
:1013000026018C2FCF910895853091F0863049F7D2
:101310004FEF6FEF85E50FC04FEF6FEF8BE2E4CF3C
:101320004FEF6FEF80E8E0CF4FEF6FEF85E1DCCF5D
:101330004FEF6FEF80E0A4DF81E0D8CFC8DF80936C
:101340003905089521E001C0220F8A95EAF78091BE
:101350003905822BF3CF21E001C0220F8A95EAF7ED
:10136000822F8095909139058923E8CF90913A0595
:101370008095892380933A05282F277061F4891777
:1013800051F090913C0592FF06C086958695869512
:10139000E2DF10923A0508959091390521E030E09E
:1013A000F90101C0EE0F8A95EAF7D90101C0AA0F31
:1013B0006A95EAF7EA2B01C0220F4A95EAF7892FCE
:1013C0008E23E81303C0892F822BB8CF2095822F5C
:1013D0008923FBCFCF93DF93EC0180912D0580FF14
:1013E0000EC070912F0580913005893708F088E78D
:1013F0006C8160DE962F672F482F892F1EDF8C812E
:101400008F5F8C83DF91CF9108950F931F93CF93BC
:101410008C01C0E060912601C61768F0F4DEF80187
:101420008481928190FF20C08F5FF8018483CF91E7
:101430001F910F910895209124012C0F3327331F02
:1014400040913005493708F048E770E08FEF90E0B1
:101450000E94BF30F8018481C69F800D11246091E5
:101460002F05AADECF5FD6CF8150DFCF4AB183E907
:10147000861B8F7021E001C0220F8A95EAF7922F18
:10148000909594239AB99BB1822F892B8BB908959B
:1014900089B190E023E9261B2F7002C095958795AE
:1014A0002A95E2F781700895269A0895FC01EE0FBF
:1014B000FF1FE80FF91FE75CFD4F61834083228324
:1014C0000895382F25EB3203C001112497FF04C083
:1014D00080589109892F089580589F4FFBCF8091A4
:1014E0001D0580FD14C081FD14C082FD16C08091D1
:1014F0001C05811581F08E3180F420E5829FC001AA
:1015000011246EE170E00E94BF30862F089584E1BF
:10151000089588E2089588E0089580E5089580910F
:101520001D0580FD17C081FD17C082FD19C0809187
:101530001B05811599F0883298F428E0829FC0013C
:10154000112468E270E00E94BF306115710551F00E
:10155000862F089562E0FCCF64E0FACF61E0F8CF17
:1015600068E0F6CF81E00895E091F604F091F70489
:10157000309739F00190F081E02D309711F0099506
:10158000089580E00895E091F604F091F704309713
:1015900059F026813781232B39F022E0DC012C938E
:1015A0000680F781E02D09950895A3E0B0E0EBED0A
:1015B000FAE00C948C3020913702309138022817D1
:1015C0003907B1F08093370290933802E091F60426
:1015D000F091F704309761F00084F185E02D3097A9
:1015E00039F023E029838A839B83CE0101960995F4
:1015F0002396E2E00C94A830A3E0B0E0E2E0FBE048
:101600000C948C302091350230913602281739071E
:10161000B1F08093350290933602E091F604F09198
:10162000F704309761F00084F185E02D309739F0B0
:1016300024E029838A839B83CE0101960995239612
:10164000E2E00C94A8309C01FC01329680E09FEF10
:101650004081461759F031969F3F19F4411101C05E
:10166000982F8F5F8630A1F79F3F09F40895290FC7
:10167000311D97FD3A95F90162830895FC01329678
:1016800008962191261302C0DF011E92E817F90780
:10169000C1F70895DC01FB0111969C91119781819E
:1016A000981322C012968C911297811519F092818D
:1016B00089131AC013968C911397811519F0938191
:1016C000891312C015968C911597811519F0958183
:1016D00089130AC014969C91911521F081E0248110
:1016E000291303C080E001C081E0817008958091DA
:1016F000130108952FB7F89460913102709132026E
:1017000080913302909134022FBF089587E797E7C5
:10171000809300089093010888E19AE00FB6F8944E
:10172000A895809360000FBE90936000FFCF08954E
:10173000FC0120912702309128022617370748F034
:101740006115710529F49091E8009E779093E80067
:101750009B0190E02115310541F4911106C0809163
:10176000E80082FF32C080E008958091DC0481159A
:10177000C1F18530C1F18091E80083FD30C08091D6
:10178000E80082FDECCF8091E80080FFE3CF8091FC
:10179000F3004091F200582F2115310519F048301F
:1017A000510558F091E04830510509F090E0409122
:1017B000E8004E774093E800CDCF81918093F1000F
:1017C000215031094F5F5F4FE7CF8091DC048115D5
:1017D00041F0853041F08091E80083FFC0CF81E087
:1017E000089582E0089583E00895982F9093E9008A
:1017F000891771F07091EC002091ED005091F0008C
:1018000021FD09C09F5F973089F78093E900089513
:10181000762F242F50E03091EB003E7F3093EB0089
:101820003091ED003D7F3093ED003091EB00316061
:101830003093EB007093EC002093ED005093F00098
:101840002091EE0027FDDECF08958091210287FFD1
:1018500013C08091E80082FF06C08091E8008B777A
:101860008093E80008958091DC048111F2CF0895FF
:101870008091DC048115D9F38091E80080FFF8CFD6
:101880008091E8008E77ECCF2091E4003091E50064
:1018900095E6A9012091EC00822F817020FF06C0FF
:1018A0008091E80080FF06C080E008952091E80064
:1018B00022FD1AC08091DC04811589F0853089F001
:1018C0008091EB0085FD0FC02091E4003091E50090
:1018D00042175307F9F29150E1F684E0089582E04F
:1018E000089583E0089581E00895CF93DF93C8EDD4
:1018F000D0E088818F7E8883E7EDF0E08081816091
:10190000808384E082BF81E08093200288818E7F83
:101910008883E2EE10821092DA00A1EEB0E01C9211
:1019200088818F77888388818068888388818F7D8C
:10193000888319BC1092DC0410921F021092AF042D
:1019400010921E02A0EE8C918B7F8C938881816017
:10195000888342E060E080E048DFA1EEB0E08C9157
:101960008E7F8C93E2EEF0E08081816080838081C5
:1019700088608083E0EE80818E7F808388818061B3
:101980008883DF91CF910895E8EDF0E080818E7F2C
:1019900080831092E2001092DA001092E100A0EE33
:1019A000B0E08C9181608C9380818F77808319BCAB
:1019B000A7ED8C918E7F8C9380818F7E8083109297
:1019C0002002089524982C9880E098E02A9825E039
:1019D0002A95F1F7000022271C992395880F822B66
:1019E0002A9A25E02A95F1F70000915079F7089599
:1019F000249A27E030E090E02A98AC01022E02C041
:101A0000559547950A94E2F740FF0EC02C9A4AE09C
:101A10004A95F1F700C02A9A2150310968F785E10B
:101A20008A95F1F7000008952C98F1CFCF93C62F37
:101A30002D988068DDDF8C2FDBDF2D9ACF91089504
:101A400084E080937F058093800582E08093810508
:101A500081E0809382051092830544E054E062E0C7
:101A600071E08FE090E00E94F53360E070E0AB0140
:101A700083E190E00E94F53360E982E2D7CF61E034
:101A80008D37910548F06DE0863D26E0920720F401
:101A90006DE770E00E946830606189E1C7CFCF9345
:101AA0002D988091830281110EC083E6A1DF8ADF29
:101AB000C82F88DF982F2D9A8C2FC7FD806897FD3F
:101AC0009068CF91089580E090E0FBCFACE0B0E06B
:101AD000ECE6FDE00C948A304F835887162F072FD1
:101AE0008B879C87DCDF282F292B11F4902F812FE7
:101AF00089879A8786E0FE013796DE01119601906C
:101B00000D928A95E1F729813A814B815C816D8143
:101B10007E8180E090E02C96E4E00C94A6302D9835
:101B200067DF50DF95E09A95F1F700002D9A089550
:101B3000CF93DF93229A249A259A6AE58AE376DF87
:101B40008FE79FEA22E0815090402040E1F700C0FB
:101B5000000010928302A3DF80E0E1DFC82F81E064
:101B6000DEDFD82F8EE3DBDFC23129F49D2FD130A9
:101B700011F4863209F090E0892F8170DF91CF91C6
:101B8000089535B13F7B25B120644FB7F89489E3C0
:101B900092E0FC010196508168E025B9000000C088
:101BA00057FF35B9550F000000C000C000C035B95F
:101BB00000C06A9591F752E08D35950751F74FBFF8
:101BC0008FE594E00197F1F700C0000008950F93AE
:101BD0001F93CF93DF93EB018A019091DC04943043
:101BE00059F58093E9008FEF9091E80095FD06C0CC
:101BF00095ED9A95F1F700008150B1F78091E800DA
:101C000085FF1AC041DE811112C08091E80085FD78
:101C100006C08091E8008E778093E800F3CF88813A
:101C20008093F1000150104011F02196EECF809189
:101C3000E8008E778093E800DF91CF911F910F919C
:101C40000895603229F440E250E0BC0182E0BFCF49
:101C50000895CF93DF93EC0148E050E0BC0181E0B0
:101C6000B6DF88E0FE01A9E2B2E001900D928A950C
:101C7000E1F7DF91CF91089546E050E0BC0184E0A8
:101C8000A6CF43E050E0BC0184E0A1CF90913C0599
:101C900092FB222720F9281771F080FB92F990938C
:101CA0003C0560913B0570913C0584E090E00E940A
:101CB000FD3382E05BCB08950F93CF93DF93CDE2AA
:101CC000D5E0488159816A817B8188E090E00E945B
:101CD000F5336C81262F60E070E0CB01622F83E248
:101CE0000E94E333DF91CF910F91089585E08093B7
:101CF0002D0510922E058FEF80932F0588E7809396
:101D00003005109231058DE295E0D6CF80913105F6
:101D1000833018F48F5F809331058DE295E0CCCF4E
:101D200080913105811519F08150809331058DE244
:101D300095E0C2CFA0E0B0E0E0EAFEE00C9487308E
:101D4000082FE62E142FD22E80912D0580FF24C05F
:101D5000282F26952695E22FF0E0E65BFE4F908136
:101D600090932B058C7F8430E1F4842F493708F061
:101D700088E7602F7E2D9ED9962F672F482F892FB9
:101D80005CDA00932E05E0922F0510933005D114F4
:101D900019F08DE295E090DFCDB7DEB7E7E00C9467
:101DA000A330923019F400912E05EBCF9530D9F382
:101DB0009B3039F785EFF82EF20EEF2DE695F0E027
:101DC000E45BF44FD491C0E060912601C61710F097
:101DD0001ADAD7CFCD9FC001112470E00E9468307D
:101DE000862F800FF0FE02C0802F861B20912401D9
:101DF0002C0F3327331F412F193708F048E76E2D7A
:101E0000DBD9CF5FE1CFEDE2F5E0818121E04381D5
:101E10006281865F8FCFEDE2F5E0818121E0438131
:101E200062818A5087CFEDE2F5E0628121E1620FA5
:101E300008F46FEF21E0438181817CCFEDE2F5E092
:101E4000628121E1621B08F460E021E0438181812D
:101E500071CFEDE2F5E0438121E1420F08F44FEF4D
:101E600021E06281818166CFEDE2F5E0438121E1ED
:101E7000421B08F440E021E0628181815BCF1F9327
:101E8000CF93DF93122F8730E0F46A30D0F44630DE
:101E9000C0F4C42FD0E0CC0FDD1F2CE0629FC00D3A
:101EA000D11D112498E7899FC00DD11D1124632FE6
:101EB000CE0189960E94E333612FCE018A960E945B
:101EC000E333DF91CF911F9108950F931F93CF9329
:101ED000DF93142F022F8730F0F461111CC094E0BF
:101EE000899FE0011124CF58DC4F81E08427632FC4
:101EF0009E01280F311D280F311DC9010E94E333B7
:101F000081E090E0111102C083E090E0602F8C0F1F
:101F10009D1F0E94E333DF91CF911F910F91089590
:101F20008F929F92BF92CF92DF92EF92FF920F9388
:101F30001F93CF93DF939EE6E92E95E0F92EC12CF7
:101F4000D12CC0E04601D0E013C0F80125913591B5
:101F50004B2D6D2F8C2F93DF0E5F1F4FB3948B2D66
:101F6000863099F786E0880E911CDF5FDA3039F011
:101F70008401000F111F0A5D1D4FB12CE6CFF70140
:101F80002591359141E060E08C2F9FDFF70132967B
:101F90002591359140E060E08C2F97DF84E0E80EDA
:101FA000F11CCF5F8CE3C80ED11CC73059F6DF910E
:101FB000CF911F910F91FF90EF90DF90CF90BF9046
:101FC0009F908F900895CF9369E972E084E295E045
:101FD00061DBC82F811519F084E295E0D4DA909185
:101FE000250586E0E4E2F5E0282F11922A95E9F72D
:101FF00090932505E4E2F5E0A9E9B2E001900D92A5
:102000008A95E1F781E0911101C080E08C2BCF919E
:1020100008958091350590913D05892B9091360565
:10202000911589F0892B90E028E132E0F901408197
:102030002F5F3F4F41119F5F42E02E313407B1F7D0
:102040009111109236058093160248E050E068EF37
:1020500074E086E192E00E94FD30892BB9F088E0BF
:10206000E6E1F2E0A8EFB4E001900D928A95E1F785
:10207000E091F604F091F704309741F00280F3818B
:10208000E02D309719F086E192E0099508958115C9
:1020900031F090913505982B90933505BACF08957E
:1020A000811519F00E947607B4CF08958F929F9200
:1020B000AF92BF92CF92DF92EF92FF920F9388E0A0
:1020C00090E00E94CA334B015C0160932D05909211
:1020D0002E0580932F05B092300510923105109295
:1020E0003205109233051092340583E290E00E948D
:1020F000C2339401A50180922D0530932E05A09244
:102100002F055093300580933105109232051092BF
:102110003305109234050F91FF90EF90DF90CF9030
:10212000BF90AF909F908F9008950F931F93CF9380
:10213000DF93873008F56A30F8F44630E8F4C42FAE
:10214000D0E0CC0FDD1F9CE0699FC00DD11D112494
:1021500098E7899FC00DD11D1124CE0189960E9458
:10216000C233082FCE018A960E94C233902FDF918E
:10217000CF911F910F91089580E090E0F8CFFF92EA
:102180000F931F93CF93DF93F42E873018F56111CF
:1021900021C094E0899FE0011124CF58DC4F81E0F9
:1021A00084279E01280F311D280F311DC9010E946F
:1021B000C233082F81E090E0F11002C083E090E08C
:1021C0008C0F9D1F0E94C233902FCDB7DEB7E5E084
:1021D0000C94A53080E090E0F8CF462F672F7A303E
:1021E00028F4463050F4873040F49FCF7D3F41F4CF
:1021F000411103C041E0873048F080E090E008954D
:102200007C3FD9F74111F9CF8730B8F760E0B7CFFD
:10221000CF92DF92FF920F931F93CF93DF936C01C6
:102220000091390580913805082BC6E0D0E010E018
:10223000C8010C2E02C0959587950A94E2F780FD9F
:102240000CC02197A8F7F12C8F2DDF91CF911F9112
:102250000F91FF90DF90CF900895FC2EB6018C2F48
:10226000BCDF0E947E07019761F3EECF1F93CF93EF
:10227000DF93FC012581C081D181CE01211579F048
:10228000611569F0C5DF182F682FCE010E941D0768
:10229000BE01812FA2DFDF91CF911F9108950E948F
:1022A0003607182FF5CFCF93DF93EC01B1DFBE01D6
:1022B00094DF0E947E07DF91CF910895FC01248175
:1022C000211599F080819181EEDF282F92959F70E2
:1022D000963099F060F4925F9F70923030F4203F16
:1022E000B1F038F481E0283E38F080E008959A5F3C
:1022F000F3CF81E0243FC9F7089591E0213F09F031
:1023000090E081E0283E08F080E0892B089581E08C
:102310000895633771058105910528F4CB01835732
:102320009C4F0C94C23380E00895CF92DF92EF92DD
:10233000FF92CF93DF93EC01C880D980EA80FB80C5
:10234000B601C701E6DF9FEFC91AD90AE90AF90AFF
:10235000C882D982EA82FB82DF91CF91FF90EF9011
:10236000DF90CF90089585E290E00E94C2338632DC
:1023700069F486E290E00E94C233823039F487E249
:1023800090E00E94C23391E0833109F090E0892F00
:1023900081700895ADE2B0E0E0EDF1E10C947C30A5
:1023A0008091AD04833009F0C8C24091240550915A
:1023B000250560912605709127058091280590914B
:1023C000290584DB209324053093250540932605B9
:1023D00050932705609328057093290586E0E4E271
:1023E000F5E0DE01179601900D928A95E1F70091D4
:1023F0002605019510912705119509871A8786E012
:10240000FE013796DE011D9601900D928A95E1F747
:1024100086E0FE013D969E012F5F3F4FD90101905E
:102420000D928A95E1F786E0F901A4E2B5E001900A
:102430000D928A95E1F786E0E4E2F5E0DE01179679
:1024400001900D928A95E1F786E0FE013796DE0154
:10245000539601900D928A95E1F786E0FE017396FE
:10246000D90101900D928A95E1F786E0F901A4E285
:10247000B5E001900D928A95E1F786E0E4E2F5E09F
:10248000DE015F9601900D928A95E1F73090280564
:1024900020902905E0918105F0E0EE0FFF1FE5593E
:1024A000FE4F6081718180E090E00E94033025E35F
:1024B0003AEF4EE85CE30E94452F4B015C01602F30
:1024C000000F770B872F972F0E9405302B013C01BF
:1024D000B401C5010E94332E6B017C01612F110FE5
:1024E000770B872F972F0E9405306DA37EA38FA3B4
:1024F00098A7B401C50190580E94912E69A77AA7A8
:102500008BA79CA79601A701B201C3010E94452F8A
:102510004B015C0129A53AA54BA55CA56DA17EA147
:102520008FA198A50E94452F9B01AC01B401C50164
:102530000E94CD2F2AE939E949E95EE30E94452F3F
:102540004B015C0123E333E343E35FE360919402D7
:102550007091950280919602909197020E94452F6A
:102560009B01AC01B401C5010E94CE2F4B015C015F
:1025700029A53AA54BA55CA5B201C3010E94452F30
:102580002B013C012DA13EA14FA158A5B601C701C9
:102590000E94452F9B01AC01B201C3010E94CE2FC6
:1025A0002AE939E949E95EE30E94452F6B017C0184
:1025B00023E333E343E35FE3609190027091910280
:1025C00080919202909193020E94452F9B01AC0151
:1025D000B601C7010E94CE2F6B017C01809294024C
:1025E00090929502A0929602B09297026093900208
:1025F000D092910280939202F092930220E030E018
:1026000040EC5FE3B401C5010E94452F4B015C0122
:1026100020E030E040EC5FE3B601C7010E94452FA7
:102620006B017C01809183059E012F5F3F4F29A79D
:102630003DA7811509F4FBC0B401C5010E94D22F4A
:102640008B0177FF04C000271127061B170BB6016B
:10265000C7010E94D22FAB01CB0177FF04C08827AE
:102660009927841B950B801791070CF0CBC0E12CA8
:10267000F12C670160918E0270918F02872F880F75
:10268000880B982F0E9405306DA37EA38FA398A777
:1026900060918C0270918D02872F880F880B982F84
:1026A0000E9405302B013C0180918205811509F4BF
:1026B000ADC02DA13EA14FA158A5B401C5010E94F6
:1026C000CE2F4B015C019601A701B201C3010E940C
:1026D000CD2F0E94D22F6B017C01B401C5010E9455
:1026E000D22FAB0160938E0250938F02C0928C0266
:1026F000D0928D02E0918005F0E0EE0FFF1FE15ACD
:10270000FE4FE0819A010E2E02C0359527950A945E
:10271000E2F7C6010E2E02C0959587950A94E2F75E
:10272000082F211581F0220E322F330F330B0E2E7E
:1027300002C0220F331F0A94E2F7421B530B40934F
:102740008E0250938F02011509F4F5C0380E982FB0
:10275000990F990B02C0880F991FEA95E2F7C81AE2
:10276000D90AC0928C02D0928D0200E010E009A339
:102770001AA33BA22CA286E0FE017F96DE011796EB
:1027800001900D928A95E1F786E0FE013796A9A5A2
:10279000BDA501900D928A95E1F786E0E9A5FDA51A
:1027A000DE01599601900D928A95E1F786E0FE01CF
:1027B0007996DE01179601900D928A95E1F786E0F1
:1027C000FE013796A4E2B5E001900D928A95E1F7FB
:1027D00086E0EEE1F5E0DE01179601900D928A9514
:1027E000E1F7809125059885892B80932505EBDB02
:1027F000811102C08091980210929802AD96E2E198
:102800000C949830A12CB12C450134CF9401A50132
:102810006DA17EA18FA198A50E94CD2F4B015C01D7
:102820009201A301B601C7010E94CE2F52CF20E032
:1028300030E040E05FE3B401C5010E94452F2091E4
:1028400088023091890240918A0250918B020E9445
:10285000CE2F4B015C016093880290928902809395
:102860008A02B0928B0220E030E040E05FE3B601E4
:10287000C7010E94452F209184023091850240912A
:102880008602509187020E94CE2F6B017C016093DB
:102890008402D092850280938602F0928702B4016E
:1028A000C5019F7720E030E040E85FE30E944030C0
:1028B00000E087FD1AC0B401C5010E94D22F062F87
:1028C000762F770F770B872F972F0E9405309B016C
:1028D000AC01B401C5010E94CD2F609388027093B2
:1028E000890280938A0290938B0220E030E040E8D6
:1028F0005FE3B601C7019F770E94403087FD1BC090
:10290000B601C7010E94D22F162F762F770F770BB3
:10291000872F972F0E9405309B01AC01B601C7019C
:102920000E94CD2F6093840270938502809386026B
:10293000909387021CCF10E01ACF80E05FCFAB01ED
:1029400024E630E0BC0188E70E949F2D9C0181E0D5
:10295000232B09F080E008958091A5048115F1F002
:102960000E947A0BDC01CB01805A9541AF4FBF4FDB
:102970008093A6049093A704A093A804B093A904FD
:102980008091A40481110AC062E070E08AE096E0C0
:10299000D6DF811519F081E08093A4040895809119
:1029A000A504811561F08091A404811541F062E0D5
:1029B00070E088E096E0C3DF81111092A4040895CE
:1029C000CF93DF93C091A102D091A2028A30C1F4CB
:1029D0004091AA04CE01835A9240642F70E00E9475
:1029E0006830481B842F66E00E94B330C82FC111A5
:1029F00003C0DF91CF910895C15080E2E1DFF7CFAE
:102A00008D30C1F4C35AD2404091AA04642F70E0C3
:102A1000CE010E946830481BCE01840F911D923078
:102A200010F080E090E08D559D4F8093A10290932F
:102A3000A202DFCF96E0FE01ADE7B2E001900D9279
:102A40009A95E1F7803E08F455C086E019928A9580
:102A5000E9F7C091A102D091A20246E050E0BE0188
:102A60008DE792E00E94FD309E01235A3240892B6F
:102A700041F1C90145E0969587954A95E1F741E016
:102A800050E0BA0102C0660F771F8A95E2F7CB01CA
:102A900060919F027091A002862B972BB9016B5F0A
:102AA0007F4FE5E076956795EA95E1F702C0440F20
:102AB000551F6A95E2F7842B952B80939F02909384
:102AC000A0022A5F3F4F4091AA04642F70E0C90121
:102AD0000E946830481B463010F4240F311D3230FC
:102AE00010F020E030E02D553D4F2093A1023093AF
:102AF000A2027FCF96E0899FB0011124645F794FD5
:102B000046E050E0CE010E94E730A3CFCF93DF93A1
:102B1000EC01FE018491811103C0DF91CF910895F2
:102B20004FDF2196F6CF0F931F93CF93DF93EC01E6
:102B3000FC0101900020E9F78F0101501109C01735
:102B4000D10728F0DF91CF911F910F9108958991BE
:102B500037DFF5CFACE0B0E0E0EBF5E10C947E3090
:102B60008091A504811509F471C183EA92E08093F4
:102B7000A1029093A20288EC95E0C8DF86EC95E074
:102B8000C5DFE0918005F0E0EE0FFF1FE15AFE4F38
:102B900010810181E0918105F0E0EE0FFF1FE55902
:102BA000FE4FB080A180E0917F05F0E0EE0FFF1FA7
:102BB000E75FFD4F81818F9380818F9387E291E062
:102BC0009F938F931F9285E08F936E018FEFC81AAA
:102BD000D80A3601DF92CF920E940A310F931F93D9
:102BE0008BE291E09F938F931F9283E08F937E01FE
:102BF0008AE0E80EF11C47019F92EF920E940A3191
:102C0000AF92BF928FE291E09F938F931F9284E0E7
:102C10008F938E010A5F1F4F5801BF920F930E943E
:102C20000A319091390580913805892B0E94B306AD
:102C30002DB73EB7285E3F4F0FB6F8943EBF0FBE8C
:102C40002DBF873008F018C1E82FF0E0EE5DFB4C97
:102C50000C94D23080EC95E059DF84E995E056DFA2
:102C600080918305811509F40AC182E995E04EDF60
:102C70008EE895E04BDFC60156DF8CE895E046DF35
:102C8000C70151DF8AE895E041DFC8014CDF809140
:102C90009F029091A002892B09F4BEC08091A504E7
:102CA000811509F4B9C08091A3048111B5C054DE27
:102CB00080919F029091A002009709F4ADC080FB23
:102CC000EE24E0F8F12C10E080FD10C041E050E06F
:102CD000212F2F5F122F7A0102C0EE0CFF1C2A95C4
:102CE000E2F7970128233923232B91F38091AB043A
:102CF00080FFC8C0912F990F990F990F392F395F15
:102D000080E023E09093020180930501309303015A
:102D10002093060124E630E047E050E060E071E0F7
:102D200088E70E94552D892B09F076C080E2189F14
:102D3000A00111248091AB0480FFB6C0EDE5F2E064
:102D400080E211928A95E9F736E4632E31E0732E22
:102D500082E491E04C016AE471E0D301ED913D0120
:102D6000D4010D914D01040F152F111DF0E0E35A10
:102D7000FD4F80E090E027E0A22EA81ABB24B39478
:102D8000082E01C0BB0C0A94EAF798012D553D4F5F
:102D90002901D12CD2012D912D012B21B22F2A2DC9
:102DA0002D19277030E0AB2F022E01C0AA0F0A9414
:102DB000EAF7CA2E31952195310927703327AB2FB9
:102DC00001C0A6952A95EAF7CA2A2081C22AC082A4
:102DD000D3942D2D2830F1F6019631968830910547
:102DE00051F66615770509F0B8CF04E610E020E249
:102DF0004DE552E060E488E70E94E52D892B61F4FF
:102E0000E094F09480919F029091A002E822F92230
:102E1000E0929F02F092A0028091A4048115B1F08B
:102E20000E947A0B0091A6041091A7042091A80497
:102E30003091A904DC01CB01801B910BA20BB30BD9
:102E40008F3F9F4FAF4FBF4708F4A9DD2C96E0E1BD
:102E50000C949A308AEB95E0FFCE84EB95E0FCCEA3
:102E60008EEA95E0F9CE88EA95E0F6CE82EA95E022
:102E7000F3CE8CE995E0F0CE86E995E0EDCE80E9E1
:102E800095E0F5CE20E2129FC0011124880F492F52
:102E9000441F550B5195242F912F9295990F9076A1
:102EA000392F315E842F2ECF4D555D4F04E610E053
:102EB00020E230E09FCFA0E1B0E0E1E6F7E10C9442
:102EC0007E30FE013196DF0180E11D928A95E9F79F
:102ED00008E010E09DE8A92E93E0B92E612C712C3A
:102EE00023014A189E2E8F2E6201730181E148163C
:102EF0005104610471041CF080E1C82ED12CA6019C
:102F0000B501892D982D0E94D433AC0CBD1C0D2C1D
:102F1000000C00084C185D08600870080150104053
:102F200019F76096E0E10C949A306FEF85E290E03B
:102F30000E94E3336FEF86E290E00E94E3336FEF8D
:102F400087E290E00E94E33360E088E290E00E9434
:102F5000E3330E94900FAFDF66E285E290E00E94CB
:102F6000E33362E086E290E00E94E33363E187E2CC
:102F700090E00C94E3331F921FB61F9211248F939D
:102F80009F93AF93BF938091AE04811113C0809142
:102F9000310290913202A0913302B09134024196F5
:102FA000A11DB11D8093310290933202A093330290
:102FB000B0933402BF91AF919F918F911F901FBE2C
:102FC0001F9018952FB7F89480913102909132029A
:102FD000A0913302B09134022FBF0895CF93DF93B5
:102FE000EC01F0DF8C1B9D0BDF91CF910895A0E0E9
:102FF000B0E0EDEFF7E10C947C304AEE54E00DE8E0
:1030000011E0D12C7D01E394FA01B190AF01DF0111
:103010001E92F80181918F01E82FE295EF70F0E0A8
:1030200021A18F70B70101C0660F8A95EAF7462E7D
:10303000262B21A322A1C62EC0942C2122A320EA54
:103040002A95F1F727E9222E21E0322E310160E0A6
:1030500070E0E301A9903E012A2D22952F70205E99
:1030600030E0E90128819C908A2D8F7002C035954F
:1030700027958A95E2F720FD91C02E2D062E01C0DE
:10308000220F0A94EAF729292C936F5F7F4F66304D
:103090007105F9F691A1C922C1A292A1842D892BB3
:1030A00082A381E09C919B1101C080E0D82A84E03A
:1030B0004F3E580709F0A8CF20E030E07901E394B3
:1030C00042E951E0F10181911F01E82FE295EF7093
:1030D000F0E061A18F70D70102C0AA0FBB1F8A95D3
:1030E000E2F72D016A2B61A372A16A2F6095762306
:1030F00072A370EA7A95F1F7AE2D022E01C0AA0FE5
:103100000A94EAF78A2E80947A2FADE8B1E00FEEA8
:1031100014E0C12CE80199908E017D90A72CA29417
:103120008FE0A82280E2A80EB12CE501A880872DAF
:103130008F7002C0B594A7948A95E2F7A0FC30C0C6
:10314000B92CB72A380181E0681A7108E301B88206
:10315000AA24A394B91001C0A12CCA284A175B075E
:10316000C9F691A1692361A392A1842D892B82A321
:10317000DC282F5F3F4F2630310509F0A3CFD11453
:1031800091F081E08093DF041DDF8093DD04909354
:10319000DE04CDB7DEB7E2E10C94983020E073CFC7
:1031A000B92CB820CFCF8091DF04811591F3C09165
:1031B000DD04D091DE0406DF8C1B9D0B059748F3E0
:1031C0004AE050E06AEE74E080EE94E00E94FD3048
:1031D000892B49F08AE0EAEEF4E0A0EEB4E0019039
:1031E0000D928A95E1F71092DF04D3CF90912D05CF
:1031F00090FF2EC0811569F1853168F58F73880FB6
:10320000880F90912D059370892B80932D05611562
:1032100021F08DE295E00E945C0E60912D0566958F
:10322000669570E04BE050E087E091E00E94F0305E
:10323000892B99F010922C0581E08093C80420E03E
:103240004091300560912F0580912E050C949A0EC7
:10325000089581E0D4CF84E1D2CF81E080932C0522
:10326000B1DE8093C5049093C604E6CF80912D050E
:10327000869586958F5F853108F081E061E0B6CF55
:1032800080912D0586958695815009F484E161E051
:10329000ADCF98DE9C019091200580912105982B5F
:1032A00021F02093D9043093DA0490912205809183
:1032B0002305982B21F02093D7043093D8048EE176
:1032C00095E00C94C30A611509F459C0E82FED5C30
:1032D000E33150F4F0E0E75DFB4C0C94D2300E94F7
:1032E0006F0A819580932105D4CF0E946F0AFACF8F
:1032F0000E946F0A819580932005F6CF0E946F0A85
:10330000FACF0E948F0A80932205EECF0E948F0A87
:103310008195F9CF0E948F0A819580932305E4CF90
:103320000E948F0AFACF482F415D550B21E001C062
:10333000220F4A95EAF790911F05922B90931F0553
:1033400040912505815D21E001C0220F8A95EAF7B1
:10335000822F611509F48AC0422B409325050C94F5
:10336000E30F80911D05816080931D05BDCF809185
:103370001D058260F9CF80911D058460F5CF909185
:103380002005482F50E08D3C59F42091210527FF5E
:103390000DC01092210591110BC010921C0508C0A0
:1033A0008E3CA9F42091210512169CF39115A9F0E9
:1033B0009091220520912305922B11F410921B0568
:1033C000415D51094830510508F4BACF8DCF8F3C8B
:1033D00039F497FFEBCF1092200590912105DBCFB8
:1033E000803D19F41916BCF3E1CF20912205893DE7
:1033F00029F41216DCF610922205D8CF8A3D19F472
:1034000027FFD4CFF8CF209123058B3D29F427FF48
:10341000CDCF10922305CACF8C3D19F41216CCF3F0
:10342000C5CF282F215D283070F4FA01E15D21E03D
:1034300001C0220FEA95EAF7209530911F0523235A
:1034400020931F05B3CF20911D052E7F8D3D59F090
:1034500020911D052D7F8E3D31F08F3D09F0A6CFC7
:1034600020911D052B7F20931D05A0CF809548231B
:1034700074CFCF93C82F8115A9F08450813AA0F45E
:10348000E8E1F2E08EE192E02081C217E9F13196A5
:103490008E179F07C9F76C2F86E192E00E94230BDD
:1034A0000E940910CF9108958C2F805E883060F4BF
:1034B000C77021E001C0220FCA95EAF78091350557
:1034C000822B80933505ECCF8C2F855A833030F4D6
:1034D0008C2F8452990B0E94D50AE4CFEC2FE85A26
:1034E000EB3150F4F0E0EE0FFF1FED52FE4F808104
:1034F00091810E94FC0AD6CF8C2F8D5C833190F68F
:1035000061E08C2FE0DECECF6C2F86E192E00E944E
:103510003E0B0E940910BFCF811581F1982F945066
:10352000913A38F4682F86E192E00E943E0B0C94A9
:103530000910982F905E983058F4982F81E091FDF3
:1035400084E090FD880F92FD82950E947607EFCF70
:10355000982F955A933020F480E090E00C94D50A8F
:10356000982F985A9B3120F480E090E00C94FC0A4C
:10357000982F9D5C933110F460E0A5CE08951F93C1
:10358000CF93DF93182FEB0174DF209731F4812F55
:10359000C3DFDF91CF911F9108958FE99FE00197DD
:1035A000F1F700C000002197F0CF10923505E8E157
:1035B000F2E086E011928A95E9F780E090E00E94BF
:1035C000D50A80E090E00E94FC0A10923D050E941E
:1035D0000910EEE1F5E086E011928A95E9F7109284
:1035E0001C0510921B0510921D0553CEDEDF8FEFD8
:1035F00094E32CE0815090402040E1F700C00000AF
:1036000088E19AE00FB6F894A895809360000FBE09
:1036100090936000FFCFA4E0B0E0E1E1FBE10C9407
:1036200081307C01FC018481811509F404C161E0D1
:10363000C7010E9436118C0101158EE7180709F0A9
:1036400062C0F7018581811509F180917F0590E0C5
:10365000019665E070E00E94683080937F0540919C
:103660007F055091800560918105709182058FE002
:1036700090E00E94F533E0917F05F0E0EE0FFF1F30
:10368000E75FFD4F808191810E943F0DF701958199
:10369000911509F456C4980137572038310508F0C0
:1036A00037C4003108F0B8C062E770E080E090E015
:1036B0000E9489118111B0C0A12CB12C45010111CA
:1036C00078C089829A82AB82BC828E010F5F1F4FC5
:1036D000C8010E949511B02EA12E813008F49CC023
:1036E00009F0C5C0C8010E949511813009F074C06D
:1036F000C8010E94951160E570E0893311F060E027
:1037000070E03DDFE5CF01308EE71807E1F4F70107
:103710008581811509F4BACF8091800590E00196EA
:1037200066E070E00E9468308093800540917F05DC
:103730005091800560918105709182058FE090E045
:103740000E94F533A3CF02308EE7180709F0C2C3F9
:10375000F7018581811509F499CF8091810590E069
:10376000019669E070E00E94683080938105DECFA9
:10377000F7018581811509F489CF8091810590E059
:103780000896EFCFF7018581811509F47FCF8091ED
:103790008205819580938205C9CFF70185818115C6
:1037A00009F474CF8091830591E089278093830584
:1037B0006DCF83E788169104A104B10469F1B401C7
:1037C000C5010E9489119FEF891A990AA90AB90AAD
:1037D0008111EFCF015073CF823029F4C8010E94CC
:1037E000951147DE75CF833029F4C8010E949511E9
:1037F00093DE6ECF843071F4C8010E949511C12C04
:10380000D12C282F2053330B2A303105C0F0C1149E
:10381000D10419F581115CCF80913A05877059F078
:10382000F7018581811539F080913C0582FF03C045
:1038300082E00E94B6092496EDE00C949D304AE0A7
:103840004C9DC0014D9D900D1124280F391F690119
:103850008B2D9A2D0E949511D4CFEFE9FFE031977F
:10386000F1F700C0000091E0C91AD108D0CFE82FCD
:10387000F0E0E755F34F9491792E282F2695269561
:10388000269530E0F901E756F34FC4908770D12CAC
:10389000082E02C0D594C7940A94E2F7F901E757BD
:1038A000F34FA490B12C082E02C0B594A7940A94AB
:1038B000E2F72758334FF9018490912C02C0959478
:1038C00087948A95E2F7C0FE02C081EED2DDA0FEA9
:1038D00002C086EECEDD60E070E0872D50DEA0FEF7
:1038E00002C086EE19DEC0FE02C081EE15DE80FE4B
:1038F000EFCE60E070E08CE204CF8272F801E0521B
:10390000F847EB30F10508F04CC0E45CFB4C0C943C
:10391000D23080912D0580FF0CC08E7F80932D05C5
:103920008DE295E00E945C0E10922C050E94030926
:1039300073CF816080932D0561E08695869556DC76
:103940006BCF811521F09CDC67CF8115E1F38EDC14
:1039500063CF811529F00E940B0F5ECF8115D9F33B
:103960000E94030F59CF811529F00E941E0F54CFDA
:103970008115D9F30E94130F4FCF811529F00E94B2
:10398000340F4ACF8115D9F30E94290F45CF8115F5
:1039900029F00E94900E40CF8115D9F30E94860E27
:1039A0003BCF07378CE71807F1F008378CE718078B
:1039B00019F19801205E32452032310510F5911140
:1039C00032C00F7181E090E002C0880F991F0A9504
:1039D000E2F78C01682F83E090E00E94E333802FB0
:1039E0000E94C50619CF81E00E94A20943E062E06F
:1039F00081E00E94CC0910CF82E0911509F485C2C4
:103A0000F3CF9115B9F10B358CE7180751F10C354F
:103A10008CE71807D9F00A358CE7180701F1013057
:103A20008CE7180731F103308CE71807E1F0011536
:103A30001C4701F5BADD8FEF94E32CE081509040F4
:103A40002040E1F700C000000E94860B80913C05F9
:103A5000002482FF0394802D0E94460EDDCE81E07B
:103A6000FBCF80E0F9CF6FEF7FEF80E090E00E9426
:103A7000FD33BCDDF70100811181911509F447C0C8
:103A8000C8010E940811D82E682FC8010E941D0786
:103A9000B8018D2D0E94ED100E947E07182FA92ECF
:103AA000F701C580D680D2948FE0D82280913A0564
:103AB000877001F1BC2CC114F1F0892F807F803414
:103AC00061F0812F805E8830A8F0892F807E80325F
:103AD00021F4123078F0D11469F080913C0582FF16
:103AE00009C082E00E94B60980913A058770BB2424
:103AF000B3948111B12CEA2DE295EF708A2D803CB0
:103B000008F067C0F0E0E95BFB4C0C94D230C801D0
:103B10000E943607D82EBCCF0A2D0F70803110F0CE
:103B20000295007FC114B9F0011569F0812F805E04
:103B3000883010F0111109C080913505802B8093D9
:103B400035050E940910812F3EC080913D05802BD4
:103B500080933D05F6CF812FDFDC0115D1F1812F58
:103B6000805E883010F0111104C0802F0E9476070B
:103B700006C0009580913D05802380933D050E94FD
:103B8000091027C00A2D0F70807F803211F0029536
:103B9000007F113040F009F463C0C11409F46EC015
:103BA000D11499F1D0CF80913C0582FD2AC0C11477
:103BB00061F0011539F080913505802B8093350532
:103BC0000E94091080E055DC04C080E0A5DC0111F2
:103BD000CCCFB11409F4AFC080913A0580FDABC0E1
:103BE000F70115828695869586950E94A209C701E0
:103BF00012DD80913A058695869586950E94AB09DF
:103C00009AC0C11499F0D11004C0802F0E944710AF
:103C1000E0CF8D2D8130E9F680913605902F9823E5
:103C20000917B9F2802B80933605D3CFD110D1CFAD
:103C3000802F0E94501090913605802F892329F003
:103C4000802F809589238093360580913705902FAA
:103C5000982309F4BECF0095082300933705B9CF08
:103C60008D2DC11421F0863008F0B3CFCECF853032
:103C700008F0AFCF802F0E945010ABCFD114D1F3FA
:103C8000193349F48FEF97EE23E0815090402040A4
:103C9000E1F700C00000812F3FDC9BCF8695869521
:103CA0008370813060F009F094CF812F9A2D93704A
:103CB000C11002C080E090E00E94FC0A8ACF812FF0
:103CC0009A2D9370C11002C080E090E00E94D50A46
:103CD00080CF6C2D812FF7DA7CCF8370E1F5C11096
:103CE00028C0812F829586958770880F880F412F75
:103CF0004F70082E01C0440F0A94EAF7212F20715B
:103D000014FF06C02FE001C0220F8A95EAF7209524
:103D10008A2D869586958370982F8230A1F0833006
:103D2000B9F080913805913059F0242B82230E94FC
:103D3000C5060E94B40A60E0C7010E9436117BCD1F
:103D4000842B822BF4CF242B809138058227EFCF50
:103D5000822F842BECCFC11459F1A0FEEACF812F22
:103D6000829586958770880F880F412F4F70082E97
:103D700001C0440F0A94EAF7212F207114FF06C0F6
:103D80002FE001C0220F8A95EAF720958A2D8695AB
:103D900086958370982F823091F08330A9F08091BE
:103DA0003905913049F0242B82230E949E09C1CF0E
:103DB000823008F4BECFD3CF842B822BF6CF242BB6
:103DC000809139058227F1CF822F842BEECF8F701F
:103DD000082FC11431F00E94A209812F0E944710C0
:103DE000A8CF812F0E945010802F0E94AB09A1CF35
:103DF000123F79F168F4103FC1F0113F89F0C1140E
:103E000009F455C0D11409F44FC0812F32DB91CF92
:103E1000133F29F1143F99F790913C0592FD2CC076
:103E20008A2D8F71C11409F317C08D2DC11479F03B
:103E3000853008F07ECF8A2D8F71282F81E001C058
:103E4000880F2A95EAF7909139058927AECF8630F9
:103E5000F0CF8F71C110C9CF0E94A2096ACF80E054
:103E6000C11409F4A2CF8A2D8F71982F81E001C06F
:103E7000880F9A95EAF799CFC11459F08F7192FF84
:103E8000EBCF982F990F990F990F936090933A0564
:103E9000E3CF81E00E94B6098D2D823008F449CF2E
:103EA00082E00E94B60945CF8A2D8F71D5CFD114FB
:103EB00071F0193349F48FEF97EE23E08150904071
:103EC0002040E1F700C00000812F26DB32CF8A2D91
:103ED0008F718BCF03308EE7180709F449CC063079
:103EE0008EE7180709F44ECC05308EE7180709F461
:103EF00054CC04308EE7180709F454CCC7CB0737ED
:103F00008CE7180709F051CD81E00E94AB096ECD16
:103F10008091350506312CE7120709F0EECC8A7A3C
:103F200091E0811101C090E090932A0565E3811131
:103F300001C069E286E192E00E94230B0E94091011
:103F40006BCC06318CE71807D1F680912A0565E322
:103F5000811101C069E286E192E00E943E0BEECF42
:103F600080917E05803170F480917D05811551F03E
:103F7000E0913F0520913E0530917905409178050B
:103F80002E1301C00895BF0187E0E89FF0011124BE
:103F9000DF01A05CBA4F14968C911497811551F1F2
:103FA00011968C911197831325C08C91841322C094
:103FB00015968C91159781111DC012968D919D912A
:103FC000A0917A05B0917B058A1B9B0B883C9105DB
:103FD00088F480917E058F70806180937E05EA5B16
:103FE000FA4F80818F708061808388E795E013DBD2
:103FF0000C946C076F5F7F4FFB01E770C1CFADE0A2
:10400000B0E0E5E0F0E20C9481308C0186E0F8014C
:10401000DE01189601900D928A95E1F7F801F5807E
:10402000848198E7892E95E0992E70907C05711017
:1040300017C0811591F0F11409F40EC1C8010E9456
:104040005E11811509F408C187E0F801A8E7B5E021
:1040500001900D928A95E1F783DFFF24F39455C018
:10406000D080A280B380C0907D0520917A053091E8
:104070007B05A501421B530BC11409F4BDC0483C8C
:10408000510508F076C0811541F380917905918042
:10409000E0907E059E2D903108F057C0981214C014
:1040A000809178058D1110C0F11049C08E2D8F7050
:1040B000806180937E0588E795E0ADDA80917E058A
:1040C000F8018683F12C21C0F11039C040E0692D40
:1040D0008D2D0E944D0740E0692D8D2D0E944D07CA
:1040E000F82E8111EFCF888599850E945311292FD1
:1040F00022952F70903470F49F70223098F09115B3
:10410000A9F0F8019681903188F48F2D2D96EDE07D
:104110000C949D302A5F2F70223060F0C8017BDA4A
:10412000FC2CF3CF911511F0811579F3805E883066
:1041300060F3F4CF803F48F3815F8330F9CF809103
:104140007E05816080937E05BDCF981237C0809137
:1041500078058D1133C0F11031C0E682C8015BDAF9
:1041600087E0F801A8E7B5E001900D928A95E1F7A4
:1041700074CFE0907E059E2D903148F488E795E05D
:104180004ADAF40187E011928A95E9F79BCF81150D
:1041900009F463CF90917905818198130FC08091C4
:1041A00078058D110BC0F11009C0E682C80133DA21
:1041B000F40187E011928A95E9F74FCFC8010E9478
:1041C0005E11811509F448C0F11409F445C08E2D23
:1041D000803208F439CF80917805909179058983F0
:1041E0009A83AB82BC827D821E8280917E058F8302
:1041F000CE01019610DA28CF483C510508F0C1CF16
:10420000811509F42ACFF11439F190917905818152
:10421000981318C0809178058D1114C080917E0587
:1042200080FD9ECF803108F49BCF8683807F803FC6
:1042300009F494CF8681982F907F905F8F70892B9F
:1042400086838CCFC8010E945E118111FDCE8091C2
:104250007E05816080937E05C801DDD9FECEABE18D
:10426000B0E0E5E3F1E20C948A304E8B5F8B688F0F
:10427000798F8A8F192F9B8F911110923D051D8A7E
:1042800086E0FE017696DE011F9601900D928A95DA
:10429000E1F70A8D011561F00B8B1C8B61E0CE01FB
:1042A0000F960E94361161E0CE010F960E943611E2
:1042B0000B8B1C8B87E0FE013F96DE011896019068
:1042C0000D928A95E1F7CE01089699DE81112EC0F4
:1042D00020913E0530913F0587E0AE01485F5F4F7A
:1042E000FA0147505109DA0101900D928A95E1F7E0
:1042F0008C858115D9F0822F90E08395877090E0AE
:10430000AC0134171506E1F097E0929FD00111241B
:10431000A05CBA4F9E012F5F3F4FF90101900D92B3
:104320009A95E1F740933E050E946C0780913F0506
:1043300090913E05891310C06B96E4E00C94A63072
:1043400034D910923E0510923F05E8E7F5E087E08A
:1043500011928A95E9F7EACF27E0829FC0011124E4
:10436000805C9A4F4CDE811539F380913F05909126
:1043700040050196877080933F05D8CFA6E0B0E056
:10438000E4ECF1E20C948A300E94E2178C018091F7
:10439000F4049091F5048017910771F019821A8244
:1043A0000E94E217BC0149815A8180E090E057DF0A
:1043B0000093F4041093F5042696E4E00C94A630E0
:1043C000AAE2B0E0E6EEF1E20C948B3081E292E0FA
:1043D000FC0101962091F100208322E089329207AE
:1043E000B9F780912202893009F459C0C8F48230AB
:1043F00009F4B7C0833009F486C0813089F1809117
:10440000E80083FFEBC080912102909122029A3054
:1044100008F0E4C0E92FF0E0ED5AFB4C0C94D230E8
:104420008A3009F48DC08B3051F78091210281329E
:1044300031F78091250290912602892B01F7809116
:10444000E800877F8093E8000E94250C81E090912E
:104450002302911101C080E080931401A6D8CFCF30
:1044600080912102813A59F68091E800877F8093FC
:10447000E8008091250290912602892B61F060E08E
:1044800080E090E070E00E94980B8091E8008B77CC
:104490008093E800B4CF68E089E292E0F3CF8091A6
:1044A0002102813209F0ABCF809125029091260242
:1044B0008D7F892B09F0A3CF8091E800877F8093BF
:1044C000E8008091E80082FF19C02091F3008091FC
:1044D000F200922F029731F48091F100813011F0B7
:1044E000863021F48091F100809313018091E800DF
:1044F0008B778093E8000E94250C81CF8091DC04AB
:104500008111DFCF7CCF80912102813A09F077CFF2
:104510008091250290912602892B09F070CF80911D
:10452000E800877F8093E8008091E80080FFFCCF5F
:10453000809114018093F1008091E8008E77D9CFAB
:1045400080912102813209F05ACF8091E800877F63
:104550008093E8000E94250C809124028093120130
:104560004ECF80912102813A09F049CF8091E80035
:10457000877F8093E8008091E80080FFFCCF8091E6
:104580001201D8CF803889F0823841F58091250218
:104590008F70873018F58093E9008091EB0085FBE0
:1045A000882780F91092E90006C08091AF04880F37
:1045B00090911E02892B9091E800977F9093E800DC
:1045C0008093F1001092F1008091E8008E7723C073
:1045D000811116C080912302813011F18091E80091
:1045E00083FF0AC08091E800877F8093E800809174
:1045F000EB0080628093EB00AA96E3E00C94A73076
:10460000823061F780912302811581F01092E900D8
:104610008091E800877F8093E8000E94250CDECF20
:10462000933009F080E08093AF04F0CF80912502B1
:104630008F70282F2150263088F68093E900209132
:10464000EB0020FFE3CF933031F48091EB008062E8
:104650008093EB00DBCF9091EB0090619093EB00A7
:1046600021E001C0220F8A95EAF72093EA00109218
:10467000EA008091EB008860EBCF8111AFCF809191
:1046800023028F77182F8091E3008078812B80930D
:10469000E3008091E800877F8093E8000E94250C6A
:1046A0008091E80080FFFCCF8091E30080688093D8
:1046B000E30083E0111101C082E08093DC048ECF1F
:1046C0008058823008F08ACF809123029091240292
:1046D0008C3D23E0920791F583E08A838AE2898307
:1046E0004FB7F894DE01139620E03EE051E2E32F4D
:1046F000F0E050935700849120FF03C082958F70A3
:104700003F5F8F708A30C0F0895C8D931D922F5F60
:10471000243169F74FBF8091E800877F8093E800DC
:104720006AE270E0CE0101960E94980B8091E80049
:104730008B778093E80052CF805DE7CF292F30E060
:104740002330310509F44DC078F52130310509F4E5
:104750007CC08BE590E0EDE8F1E02230310509F016
:104760003DCF2091E800277F2093E8002091270289
:10477000309128028217930708F49C0140E021152C
:10478000310509F067C0411165C08091E80082FDE4
:10479000CDCF8091DC04811549F2853039F28091CA
:1047A000E80083FFF2CFC2CF8091250290912602CC
:1047B00021323105D9F12232310509F00FCF833092
:1047C000910508F00BCFFC01EE0FFF1FEA5CFE4FD6
:1047D0000190F081E02D8D5C9E4FDC018C9190E08A
:1047E00011C0282F30E0813089F022303105B1F03E
:1047F000232B09F0F3CEE2E2F2E0E4918E2F90E079
:10480000E2E2F2E0009709F4E9CEABCFE4E1F2E0B6
:10481000E4918E2F90E0E4E1F2E0F4CFEAEFF1E0F2
:10482000E4918E2F90E0EAEFF1E0ECCF8330910538
:1048300008F0D4CE880F991FFC01E45CFE4F019074
:10484000F081E02D89E090E08CCF82E190E0E8EE0D
:10485000F1E087CF8091DC04811509F467CF8530C2
:1048600009F464CF8091E80083FD60CF8091E80077
:1048700082FD8BCF8091E80080FF81CF4091F300D3
:104880008091F200942F2115310519F0883091059F
:1048900050F041E0089709F040E08091E8008E7701
:1048A0008093E8006CCF44914093F1003196215001
:1048B00031090196E8CF803809F090CE8091E80068
:1048C000877F8093E80080911F028093F1007CCE67
:1048D000811184CE80912302182F823008F07ECE81
:1048E0008091E800877F8093E80010931F020E9468
:1048F000250C1115F9F084E08093DC0442E061ECB2
:1049000081E00E94F50B42E261EC84E00E94F50B2D
:1049100042E261EC82E00E94F50B42E260EC83E04F
:104920000E94F50B8091DC04843051F482E0809386
:10493000150154CE8091E30087FDDDCF81E0DCCF0F
:1049400081E0F5CFCDB7DEB7AE970FB6F894DEBFF6
:104950000FBECDBF85B7806885BF85B7806885BF2E
:1049600084B7877F84BF0FB6F894A89580916000C4
:10497000886180936000109260000FBE80E890E034
:104980000FB6F89480936100909361000FBE81E0B0
:104990008093150187E598E08093140290931502A7
:1049A0000E94C40C0E94750C8091E2008460809388
:1049B000E20078948091DC04811591F08091E90007
:1049C0001091EC008F7010FB112717F9182B109223
:1049D000E9008091E80083FDF3DC1F701093E9008B
:1049E00082E084BD93E095BD9AEF97BD80936E0001
:1049F0000E94B311811102C00E949517EEECF4E001
:104A000088E011928A95E9F781E08093CD0460E017
:104A100080E00E94360A61E080E00E94360A8FE85A
:104A200091E00197F1F700C0000010E08091CD0403
:104A3000181708F4E2C0EDE8F1E09F0141E0D90168
:104A40008D919D01A82FA295AF70B0E091966C91C9
:104A50008F70042F01C0000F8A95EAF7902F909570
:104A600096239C9311969C91802F892B8C9381E0A7
:104A70002739380721F727E931E0A90161E0DA0198
:104A80008D91AD01A82FA295AF70B0E091961C91C9
:104A90008F70E62E01C0EE0C8A95EAF79E2D909558
:104AA00091239C9311969C918E2D892B8C9381E060
:104AB0004D39580721F741E0D9018D919D01A82F6B
:104AC000A295AF70B0E091966C918F70042F01C0E9
:104AD000000F8A95EAF7902F909596239C93119654
:104AE0009C91802F892B8C9381E02D39380721F7F9
:104AF00041E08191A82FA295AF70B0E091962C91E2
:104B00008F70642F01C0660F8A95EAF7962F9095F3
:104B100092239C9311969C91862F892B8C9381E0F4
:104B2000E739F80731F7EAEEF4E08AE011928A9566
:104B3000E9F7E0EEF4E08AE011928A95E9F78FE078
:104B400090E00E94CA3360937F0570938005809344
:104B5000810590938205663010F00E94200D80E060
:104B600090E00E94CF33833E9E4F21F40E94B31108
:104B700081111FC063EE7EEF80E090E00E94FD3364
:104B800060E082E090E00E94E33381E080933805AA
:104B900061E083E090E00E94E33360E074E184E050
:104BA00090E00E94FD330E94760E0E9495170E94AD
:104BB000200D82E090E00E94C2338093BA0484E02A
:104BC00090E00E94CF3380933B0590933C050E9478
:104BD000F7178FE39CE90197F1F700C000000E94EE
:104BE000F7178091E00480FF1AC06FEF7FEF80E03D
:104BF00090E00E94FD330E94860B60E0812F0E94AE
:104C0000480A082F61E0812F0E94480AE12FF0E056
:104C1000E453FB4F880F802B80831F5F07CF83E017
:104C200090E00E94C2330E94C506809139050E941F
:104C300067091092AB0480E88093AA0403D76BE065
:104C400070E088E69CE00E949F148115E9F1809154
:104C5000AB0465E070E081FDF0C083E69CE00E945B
:104C60009F14811589F16DE070E081E59CE00E9460
:104C70009F14811549F10E947A0BDC01CB01805A07
:104C80009541AF4FBF4F8093A6049093A704A09384
:104C9000A804B093A904E3EAF2E0DF0180E092E027
:104CA0001D920197E9F7E093A102F093A2028FEF22
:104CB0009FEF80939F029093A00281E08093A504D0
:104CC0008093A4041092A3048091AC04811120C0AD
:104CD0008DE295E00E94561080912D05843030F4CD
:104CE0000E94760E8DE295E00E9456100E94EE081A
:104CF00010922C050E94540A80912D0580FF05C05A
:104D000060E0869586950E94F61881E08093AC0459
:104D10000E94980D811194C081E08093AD04E091D0
:104D20007F05F0E0EE0FFF1FE75FFD4F808191816F
:104D30000E943F0D60E982E20E94160D86E191E03B
:104D40008093F6049093F704332433947E018FEF1D
:104D5000E81AF80A8091DC0400E110E4B2E1DB2EED
:104D6000853009F4C8C00E94F717ABEB8A2EA4E087
:104D70009A2E80EE94E08DA79EA725EC34E0FC01EE
:104D8000D4019D9180812A173B0709F4BEC031965A
:104D90009817B9F300EB14E0712CEDA5FEA5619016
:104DA000EDA7FEA7F40141904F014614D1F146242E
:104DB000C12CD12C55245394842D852141F1262CCE
:104DC0002520F1E0AF2E0C2C01C0AA0C0A94EAF7C2
:104DD000F801808190E08A21892B91F4C9827A823E
:104DE0000E94E2178B839C833D8291E0211001C0D9
:104DF00090E09E8349815A816B817C818D812FDA7D
:104E0000211005C0A094F80180818A218083550C6F
:104E10008FEFC81AD80A86E0C816D10469F6F401E3
:104E2000629273940F5F1F4F872D8A3009F0B5CFC0
:104E30000E947A0BBB24B3946CC08EE59CE00FCF2C
:104E400083E06BCF8091DC04843039F10E94CF1471
:104E50000E94CA111092AE0488E190E00FB6F89457
:104E6000A895809360000FBE1093600083B7817F88
:104E7000846083BF83B7816083BF7894889583B74C
:104E80008E7F83BF0FB6F894A895809160008861EB
:104E900080936000109260000FBE0E94F717E0EE52
:104EA000F4E0A0EBB4E080E021912D9391E021119A
:104EB00001C090E0892B2AEE34E02E173F07A1F7BE
:104EC0008115C9F08091AF048115A9F009BDD9BC45
:104ED00009B400FEFDCF8091D8008F7D8093D8006B
:104EE0008091E00082608093E0008091E00081FD8D
:104EF000FCCF0E94D51A8091DC04853009F4A2CF42
:104F00000E94D51A0E94B40A2ECF981343CF36DAE6
:104F1000B12C80912C058115D9F180912B05E09160
:104F20002D05E695E695E81BE093C704823009F06D
:104F30003FC0F0E0EA58F34FE4910E2F10E0EAEEA4
:104F4000CE2EE9E0DE2E8091C804811561F010922A
:104F5000C8040E94E2178093C5049093C60410927F
:104F6000C9041092CA040E94E2172091C50430912E
:104F7000C604821B930B8F3F9F4750F4200F311FB5
:104F80002093C5043093C60485EC94E0F60109959E
:104F90008091D604811551F08091D0041092D604EE
:104FA0008093D1048091CE048093CF0400E060C050
:104FB00000ED17E069E5C62E68E0D62E853019F6BB
:104FC000E695F0E0ED58F34FE4910E2F10E075E018
:104FD000C72E7AE0D72EB7CFD090D1041091D0044D
:104FE00061E0802F0E94480AC82E60E0802F0E9456
:104FF000480ACC0C8C29202F30E0D901A453BB4F98
:10500000EC919E2F9370891791F1EE0FEE0FE82B24
:10501000EC93EF70F0E0E358FE4F25533B4F808157
:10502000F9019081890F84300CF44CC0412F50E07D
:10503000BA016395637070E0D616170679F0425393
:105040005B4F902F9F77FA0194831F5F137010932B
:10505000D0049091CE049F5F9093CE04982F990F27
:10506000990B64E070E00E94BF30F90180830F5F0C
:105070008091CD04081708F4AFCF10E05DEFC52E86
:105080005CEFD52E8091D1049091D004981709F44B
:105090004DC0E82FF0E0EE52FB4F0081102F1F773C
:1050A0008F5F83708093D1048091CF048F5F809352
:1050B000CF0407FD17C019A3DAA20E94E21723E06C
:1050C000A22E16C08D3F54F6412F50E0BA016395D1
:1050D000637070E0D616170609F242535B4F902FAB
:1050E0009068B1CF19A3CAA20E94E21732E0A32EA2
:1050F000BC018BA39CA3ADA23EA249A15AA18A2DBB
:1051000091E0ADD81FA307FF0FC0C8A60E94E21709
:10511000BC0189A79AA7ABA61CA64FA158A58A2DAA
:1051200090E09DD811E0AECFD8A6F0CF111519F0C0
:105130000E947A0BB12E0E94CA11811539F00E948B
:105140007A0B0E94AA150E94AC1404C00E94AA15F2
:10515000B110F9CF86E0EEE1F5E0D70101900D92B4
:105160008A95E1F7109220051092210510922205F0
:10517000109223058B819C81892B09F443C00091F7
:10518000D9041091DA040E94E217801B910B9C0154
:1051900090911C05911509F4B0C22531310590F1AB
:1051A0009F3F19F09F5F90931C051B81111559F0CB
:1051B0000E946F0A91E011160CF09FEF899F802DDD
:1051C0001124809320051C81111559F00E946F0A4B
:1051D00091E011160CF09FEF899F802D1124809390
:1051E000210580912005811569F010912105111587
:1051F00049F00E94610A80932005812F0E94610A74
:10520000809321058D819E81892B09F443C00091F3
:10521000D7041091D8040E94E217801B910B9C01C7
:1052200090911B05911509F463C22135310590F168
:105230009F3F19F09F5F90931B051D81111559F039
:105240000E948F0A91E011160CF09FEF899F802D2C
:105250001124809322051E81111559F00E948F0A96
:1052600091E011160CF09FEF899F802D11248093FF
:10527000230580912205811569F0109123051115F0
:1052800049F00E94610A80932205812F0E94610AE1
:1052900080932305B7018EE195E00E944A0B8111AE
:1052A0000CC08091200590912105892B90912205B9
:1052B000892B90912305892B11F00E94491986E0D2
:1052C000F701AEE1B5E001900D928A95E1F70E94F9
:1052D000B40A9091DB04891721F08093DB040E94CB
:1052E0007A0B8091DC04843009F034CD83E0809324
:1052F000E9008091E80082FF2DCD8091E80090E0E8
:1053000085FF05C00E94440C811591F091E08091C9
:10531000E8008B778093E800911509F41BCD898113
:10532000E82FE150E53168F5F0E0E35AFB4C3AC76D
:1053300080E2C82ED12C87018091E80085FD0AC04B
:105340008091E8008B778093E8000E94440C8115DF
:1053500099F3DCCF8091F100F801808381E0C81AD5
:10536000D108A1F20F5F1F4FE7CF1A828CE08B8329
:105370001AC08A81833081F138F4813029F182307A
:1053800051F08FEF89830FC08430D9F71B821C82C4
:105390001D821E8208C088E290E00E94C2331B82F8
:1053A0001C821D828E83E091F604F091F704309701
:1053B00009F4D0CC0284F385E02D309709F4CACCEF
:1053C00060E2C7010995C6CC0E947A0BF1D66B83C7
:1053D0007C838D839E83E7CF8B8190E0FE013496A2
:1053E0008A30910504F711920196FACF8A818230B2
:1053F00081F0853031F680912D0580FF14C08091B9
:105400002D058E7F80932D0510922C050E94030997
:10541000CACF6B817C818D819E81CAD688E290E063
:105420000E94E333C0CF816080932D0560E08695B4
:1054300086950E94F618B7CF4C816B818A810E94B5
:1054400095109827892798278D839E83ACCF2D812F
:105450003E813227232732274C816B818A810E942B
:105460003F0FA1CF0E94900F9ECF9A81923009F0FA
:1054700088CF8830D9F1893009F463C08B818330BB
:1054800089F1B0F48130E9F0823009F08CCF8C8161
:10549000811509F4B4CF80912D05816080932D058D
:1054A00060E0869586950E94F61860E08C81C1CFF9
:1054B000843009F078CF20E0409130056D818C81F7
:1054C0000EC08C8128E7829FC00111246FEF70E02D
:1054D000FFD5462F20E060912F0580912E050E9478
:1054E0009A0E61CF8C81809331055DCF8B818330A3
:1054F00029F168F48130A9F0823009F054CF80910D
:105500002D0580FF19C0869586958C834CCF8430FD
:1055100009F049CF80912E058C8380912F058D83D2
:1055200042CF809130052FEF829FC001112468E7A0
:1055300070E0CED56C8337CF80E0E7CF8091310526
:10554000E4CF0E94EE088DE295E00E945C0E2BCF26
:1055500080E18A8328CF1A8283E709CF8A809B80E3
:10556000982489249824A12CB12C67018C8187016F
:10557000080F111DC016D10609F415CF83E7881650
:105580009104A104B10480F4C40183579C4F0E948C
:10559000C233F60184838FEFC81AD80A8FEF881AB6
:1055A000980AA80AB80AE6CF80E0F3CFDC808A80A8
:1055B0009B80982489249824A12CB12C8701250153
:1055C00032014D1451046104710408F0ECCE83E7FC
:1055D00088169104A104B10438F4F8016481C4016F
:1055E00083579C4F0E94E3338FEF481A580A680A8A
:1055F000780A8FEF881A980AA80AB80A0F5F1F4F17
:10560000E0CF0E945B17CFCE87E0A3CFDC808A80FB
:105610009B80982489249824A12CB12C2501320147
:105620008E010B5F1F4F4D1451046104710408F08B
:10563000BACE88E4881683E09806A104B10490F4F9
:10564000C40189960E94C233F80181938F018FEFC4
:10565000481A580A680A780A8FEF881A980AA80A1E
:10566000B80AE1CF80E0F0CFDC808A809B8098246C
:1056700089249824A12CB12C8701250132014D14D5
:1056800051046104710408F08ECE88E4881683E02A
:105690009806A104B10430F4F8016481C40189962C
:1056A0000E94E3338FEF481A580A680A780A8FEF8E
:1056B000881A980AA80AB80A0F5F1F4FE0CF41E086
:1056C0008C81811101C040E06B818A810E94BF10F2
:1056D000B8CE2D813E8132272327322741E08C81AD
:1056E000811101C040E06B818A810E94650F5BCE11
:1056F0002B30310508F09ECDCDCD2B30310508F093
:1057000051CD80CD78941F921FB61F9211248F9394
:105710009F93AF93BF938091310290913202A091F9
:105720003302B09134020196A11DB11D8093310264
:1057300090933202A0933302B0933402BF91AF91A1
:105740009F918F911F901FBE1F9018951F920F92CF
:105750000FB60F9211242F933F934F935F936F9344
:105760007F938F939F93AF93BF93EF93FF9380911A
:10577000E10082FF09C08091E20082FF05C08091B4
:10578000E1008B7F8093E1008091DA0080FF24C0EC
:105790008091D80080FF20C08091DA008E7F8093B6
:1057A000DA008091D90080FFA9C080E189BD82E143
:1057B00089BD09B400FEFDCF81E08093DC048091B7
:1057C0002002811109C00E94C40C0E94750C8091B6
:1057D000E20084608093E2008091E10080FF1AC0C3
:1057E0008091E20080FF16C08091E2008E7F80935E
:1057F000E2008091E20080618093E2008091D80015
:1058000080628093D80019BC85E08093DC0483E03B
:10581000809315018091E10084FF2FC08091E20008
:1058200084FF2BC080E189BD82E189BD09B400FEFF
:10583000FDCF8091D8008F7D8093D8008091E100CA
:105840008F7E8093E1008091E2008F7E8093E20062
:105850008091E20081608093E20080911F028115B7
:1058600009F452C084E08093DC048091DC0484302D
:1058700009F052C082E0809315018091E10083FF1E
:105880002CC08091E20083FF28C08091E100877FD7
:105890008093E10082E08093DC0410921F028091EB
:1058A000E1008E7F8093E1008091E2008E7F809303
:1058B000E2008091E20080618093E20042E060E0DB
:1058C00080E00E94F50B8091F00088608093F000EA
:1058D00081E08093150180931401FF91EF91BF91B6
:1058E000AF919F918F917F916F915F914F913F9178
:1058F0002F910F900FBE0F901F90189519BC10920A
:10590000DC041092200268CF8091E30087FF02C080
:1059100083E0A9CF81E0A7CF81E0ADCF1F920F92A6
:105920000FB60F9211241F932F933F934F935F93C2
:105930006F937F938F939F93AF93BF93CF93DF9397
:10594000EF93FF93E9EEF0E080811091EC008F700F
:1059500010FB112717F9182B1082C0EFD0E08881B7
:10596000877F888378940E94E021E9EEF0E010823E
:105970008881886088831F701083FF91EF91DF9189
:10598000CF91BF91AF919F918F917F916F915F91D7
:105990004F913F912F911F910F900FBE0F901F902D
:1059A0001895EF92FF921F93CF93DF93182FEB017F
:1059B0001092BC0084EA8093BC000E94E2177C0134
:1059C0008091BC0087FF26C08091B900887F883015
:1059D00029F08091B900887F803189F51093BB0050
:1059E00084E88093BC000E94E2177C018091BC0097
:1059F00087FF1EC02091B900287F80E090E0283109
:105A000089F081E090E0203409F480E0919581955F
:105A1000910908C0C7010E94EE17C817D90780F680
:105A20008EEF9FEFDF91CF911F91FF90EF90089540
:105A3000C7010E94EE17C817D907C0F6F1CF8FEF44
:105A40009FEFF0CF1092B9008CE08093B8000895DA
:105A50000F931F93CF93DF93EB018093BB0084E8F8
:105A60008093BC000E94E2178C018091BC0087FFEC
:105A700010C02091B900287F81E090E0283209F41D
:105A800080E0919581959109DF91CF911F910F91C0
:105A90000895CF3FDC0749F3C8010E94EE17C817ED
:105AA000D90718F78EEF9FEFEFCFA0E0B0E0EAE55F
:105AB000FDE227C3982E862E772E6A0179010E9477
:105AC000E2175C0184E1E816F10410F18FEFE816AB
:105AD000FE0409F1C70164E170E0FAD2162F072F26
