:100000000C944E0B0C946B0B0C946B0B0C946B0BB5
:100010000C946B0B0C946B0B0C946B0B0C946B0B88
:100020000C946B0B0C946B0B0C946E310C9456323D
:100030000C9423310C946B0B0C946B0B0C946B0B8A
:100040000C946B0B0C946B0B0C946B0B0C946B0B58
:100050000C946B0B0C944A310C946B0B0C946B0B43
:100060000C946B0B0C946B0B0C946B0B0C946B0B38
:100070000C946B0B0C946B0B0C946B0B0C946B0B28
:100080000C946B0B0C946B0B0C946B0B0C946B0B18
:100090000C946B0B0C946B0B0C946B0B0C946B0B08
:1000A0000C946B0B0C946B0B0C946B0B05010902FD
:1000B000A10185020901A1000509190129081500FE
:1000C0002501950875018102050109300931158165
:1000D000257F95027508810609381581257F9501D0
:1000E00075088106050C0A38021581257F95017572
:1000F000088106C0C005010980A101850319012AF4
:10010000B700150126B700950175108100C0050CD8
:100110000901A101850419012AA002150126A002E6
:10012000950175108100C005010906A10105071997
:10013000E029E715002501950875018102950175F3
:100140000881010507190029FF150026FF00950603
:100150007508810005081901290515002501950577
:1001600075019102950175039101C009023B0002DE
:100170000100A0FA09040000010301010009211196
:100180000100012244000705810308000109040160
:10019000000103000000092111010001227B00077A
:1001A0000582032000011201000200000008271749
:1001B0000300010001020001180363006F006300E7
:1001C0006F0074003400360070006C00750073001E
:1001D00000000C0361006B00690032003700000072
:1001E00004030904000000000000000000000000FB
:1001F00000000000000000000000000000000000FF
:1002000000000000000000007E0F00D4FFFFFFC7C9
:100210000000007800000000000000002A2B2800E9
:1002200000000000000000000000000000000029A5
:10023000000000002C1E3420212224342627252EE5
:10024000362D3738271E1F2021222324252633331D
:10025000362E37381F0405060708090A0B0C0D0E49
:100260000F101112131415161718191A1B1C1D2F15
:100270003130232D350405060708090A0B0C0D0E35
:100280000F101112131415161718191A1B1C1D2FF5
:100290003130354CFFAA7F554000010101010101B9
:1002A000010101020202020202020202030303032D
:1002B00003030303040404040404040505050505FD
:1002C00006060606060707070707080808080909BB
:1002D00009090A0A0A0B0B0B0C0C0C0D0D0D0E0E66
:1002E0000E0F0F0F101011111112121313141415F9
:1002F0001516161717181819191A1A1B1B1C1D1D6D
:100300001E1E1F20202122222324242526262728C2
:1003100029292A2B2C2D2D2E2F30313232333435F2
:10032000363738393A3B3C3D3E3F404142434445F5
:10033000464748494A4C4D4E4F50515354555658D4
:10034000595A5B5D5E5F616264656668696B6C6D7E
:100350006F7072737577787A7B7D7E8082838587F4
:10036000888A8C8E8F91939596989A9C9EA0A2A332
:10037000A5A7A9ABADAFB1B3B5B7BABCBEC0C2C437
:10038000C6C9CBCDCFD1D4D6D8DBDDDFE2E4E7E9F7
:10039000EBEEF0F3F5F8FAFDFF643214783C1E2B17
:1003A0002814001A0008001500170029210400165F
:1003B00000070009000A0090241D001B0006001918
:1003C000000500520124522C2225524452D1000033
:1003D0000000004B0000004E00000031001300122E
:1003E000000C0018001C00340033000F000E000D3C
:1003F000000B009134380037003600100011005116
:1004000001E70028322A380000D200000000000076
:10041000000000000000002B2814001A000800153E
:10042000001700292104001600070009000A0090A7
:10043000241D001B000600190005002B0824522C67
:100440002226524052D100000000004B0000004E16
:100450000000003100130012000C0018001C0034D2
:100460000033000F000E000D000B009134380037F0
:10047000003600100011002B05E70028322A310059
:1004800000D2000000000000000000000000006634
:100490000C3A003B003C003D003E0001004400459A
:1004A000000000210A200A0100217820782F78001E
:1004B000002C090100010000000000D300500800DA
:1004C0000000002D0800002E08000000004300423C
:1004D00000410040003F00000000004F005200516A
:1004E0000050000100000000000000AD00AE000060
:1004F00000010001004C3800004F0800000000001F
:10050000000000000000000F083A003B003C003DE6
:10051000003E000100440045000000160A460801A4
:1005200000217820782F78000037080100010000B2
:100530000000004052B600000000002D0100002E17
:10054000010000000043004200410040003F000065
:100550000000004F00520051005000010000000058
:10056000000000AD00AE000000010001004C3100B1
:1005700000B7000000000000000000000000002B99
:10058000280C001A00427E437E447E29214A7E4B7D
:100590007E4C7E4D7E4E7E9024547E557E567E57F8
:1005A0007E587E520124522C2225524052D1000006
:1005B0000000002D0100002E0100000000497E48CF
:1005C0007E477E467E457E0000537E527E517E50A1
:1005D0007E4F7E91345D7E5C7E5B7E5A7E597E517D
:1005E00001E70028322A380000D200000000000095
:1005F0000000000000000000001E001F002000217D
:1006000000220001001E021F02200221022202011C
:10061000002D022E022D002E00000000000100001F
:100620000000004052D10000000000AA000000A914
:100630000000003500270026002500240023003597
:10064000022702260225022402230201003802307A
:10065000022F0230002F0000000100010001000005
:1006600000D20000000000000000000000000000B8
:10067000000000000000000000000000000000007A
:10068000000000000000000000000000000000006A
:10069000000000000000000000000000000000005A
:1006A000000000000000000000000000000000004A
:1006B000000000000000000000000000000000003A
:1006C000000000000000000000000000000000002A
:1006D000000000000000000000000000000000001A
:1006E000000000000000004E004B004E004B004E8A
:1006F000004B004E004B004E004B004E004B004E96
:10070000004B0002000300EFBD9C000000006E6182
:1007100067697461746573656E6E000000000403A0
:1007200000E280A6E280A6006E61676974656E745F
:10073000656E6E0000000000080300E3808A000080
:1007400000006E6167696B616B6B6F68696F0000B9
:100750000000200300E3808C000000006E616769E8
:100760006B616B6B6F6869750000000040030028C7
:100770000000000000006E6167696B616B6B6F6861
:10078000696B61000000001300E29482E294820031
:100790006E6167697461746573656E6E69000000EF
:1007A000002300E3808B000000006E6167696B61CD
:1007B0006B6B6F6D696F00000000008300E3808D3C
:1007C000000000006E6167696B616B6B6F6D69752E
:1007D00000000000000301290000000000006E611D
:1007E00067696B616B6B6F6D696B61000001000085
:1007F0000CEFBC8F000000006E6167696E616E6176
:100800006D6500000000001000000CE38087000010
:1008100000006E6167696D61727500000000000084
:10082000000004000CE38090000000006E61676926
:100830006B616B6B6F6869610000000008000CE37E
:100840008088000000006E6167696B616B6B6F6888
:1008500069690000000010000CE3808E00000000B9
:100860006E6167696B616B6B6F68696500000000A2
:1008700000100CE38091000000006E6167696B61FD
:100880006B6B6F6D69610000000000200CE38089D4
:10089000000000006E6167696B616B6B6F6D696969
:1008A0000000000000400CE3808F000000006E613B
:1008B00067696B616B6B6F6D696500000001000318
:1008C000000102E001014D0103E000000000000012
:1008D00000000000000000000000000400030064AD
:1008E00065786900000000000000000000000000C2
:1008F000000000000000000000080003000102E00A
:10090000730103E000000000000000000000000090
:1009100000000000000000001003003F010128005B
:1009200000000000000000000000000000000000C7
:100930000000000000000043002101012800000029
:1009400000000000000000000000000000000000A7
:100950000000002030000001014A000000000000FB
:100960000000000000000000000000000000000087
:1009700000403000000102E101014D0103E10101ED
:100980002A000000000000000000000000000080BD
:1009900030000001018A000000000000000000009B
:1009A0000000000000000000000000000000310016
:1009B0000001014C000000000000000000000000E9
:1009C00000000000000000000000000032000001F4
:1009D0000129010129010129000000000000000097
:1009E00000000000000000000000B000000101282D
:1009F00001014D00000000000000000000000000A8
:100A000000000000000000003008000102E0690161
:100A100003E00000000000000000000000000000F3
:100A200000000000000030000201014D0000000045
:100A300000000000000000000000000000000000B6
:100A4000000000003000200102E0750103E000001A
:100A50000000000000000000000000000000000096
:100A6000000400000C01014A01012801012C0101D0
:100A70002C01012C01014D000000000000000008C5
:100A800000000C01014A01012801012C01014D0067
:100A90000000000000000000000000000000400016
:100AA0000C01012C01012C01012C000000000000B0
:100AB00000000000000000000000002000C0000155
:100AC00002E101014A0103E1000000000000000012
:100AD0000000000000000000004000C0000102E033
:100AE000780103E0000000000000000000000000AA
:100AF000000000000000008000C0000102E076015C
:100B000003E0000000000000000000000000000002
:100B100000000000000001C0000102E0790103E0D4
:100B200000000000000000000000000000000000C5
:100B30000000000002C0000102E07A0103E00000B2
:100B400000000000000000000000000000000000A5
:100B5000000080C0000102E0630103E0000000002B
:100B60000000000000000000000000000000000085
:100B700000C4000102E001014B0103E0000000009D
:100B8000000000000000000000000000000000C89D
:100B9000000102E001014B01014B01014B01014B3E
:100BA00001014B0103E000000000000000C0020151
:100BB00002E101014D0103E100000000000000001E
:100BC0000000000000000000000000C0100102E072
:100BD00001014E0103E000000000000000000000E1
:100BE000000000000000000000C0200102E0010140
:100BF0004E01014E01014E01014E01014E0103E083
:100C00000000000000010003000102E30102E065B2
:100C10000103E00103E30000000000000000000009
:100C2000000000080003000102E3730103E3000079
:100C300000000000000000000000000000000000B4
:100C400000203000000102E0610103E0000000002C
:100C50000000000000000000000000000000004054
:100C60003000000102E10102E0650103E00103E15F
:100C700001012A0000000000000000000000300810
:100C8000000102E06B0103E0000000000000000032
:100C90000000000000000000000000003000020121
:100CA00002E0650103E00000000000000000000019
:100CB000000000000000000000003000200102E001
:100CC0006A0103E0000000000000000000000000D6
:100CD000000000000000000400000C0102E06101BF
:100CE00003E001012801012C01012C01012C01026A
:100CF000E0650103E00800000C0102E0610103E08F
:100D000001012801012C0102E0650103E00000005F
:100D10000000002000C0000102E10102E0610103C7
:100D2000E00103E1000000000000000000000000FE
:100D3000004000C0000102E3780103E3000000006E
:100D40000000000000000000000000000000008023
:100D500000C0000102E3760103E300000000000090
:100D6000000000000000000000000000000001C0C2
:100D7000000102E3790103E300000000000000002D
:100D800000000000000000000000000002C00001A0
:100D900002E37A0103E3000000000000000000000D
:100DA0000000000000000000000080C0000102E31D
:100DB000630103E3000000000000000000000000E9
:100DC000000000000000000000C40001014B000012
:100DD0000000000000000000000000000000000013
:100DE00000000000000000C80001014B01014B01A0
:100DF000014B01014B01014B00000000000000000D
:100E00000000000000C0020102E10102E0650103F0
:100E1000E00103E10000000000000000000000000D
:100E2000000000C01001014E0000000000000000A2
:100E300000000000000000000000000000000000B2
:100E400000C02001014E01014E01014E01014E0181
:100E5000014E000000000000000000000000000142
:100E600000610000000000000002006900000000B6
:100E70000000000400750000000000000100406553
:100E80000000000000000000426F000000000000B1
:100E90002000006B6100000000020000006B690090
:100EA000000000008000006B7500000000000800DA
:100EB000006B6500000000000080006B6F00000008
:100EC0000040000040736100000000080000007353
:100ED00069000000000001000073750000000000C0
:100EE00004004073650000000000000001736F0003
:100EF00000000000000002746100000000004000DB
:100F00004074690000000000000840747500000093
:100F10000004000000746500000000001000007470
:100F20006F00000000000000046E6100000000007F
:100F30001000406E6900000000000800406E75005F
:100F4000000000020000406E65000000000000018B
:100F5000406E6F000000000000400068610000006B
:100F600000000020006869000000000000204068C8
:100F700069000000000000005068750000000000DB
:100F800002000068650000000000001000686F00AB
:100F900000000000001040686F000000000020000A
:100FA000406D6100000000000000416D690000001C
:100FB00000000000486D7500000000080000406D52
:100FC0006500000000000002406D6F00000000009E
:100FD0008000407961000000000002004079750047
:100FE00000000080000040796F0000000000000059
:100FF00010726100000000040000407269000000EF
:1010000000800000007275000000000000002072E7
:101010006500000000000000607265000000000034
:10102000040000726F0000000000000440776100BF
:1010300000000000004040776F000000000000004A
:10104000086E6E00000000000008002D0000000087
:10105000000020010067610000000002000100673D
:10106000690000000000A00000677500000000009B
:1010700008010067650000000000008100676F0044
:10108000000000402000007A61000000000800011C
:10109000007A6900000000002100007A750000005D
:1010A00000000401007A6500000000000001017AE0
:1010B0006F000000000020000264610000000000DA
:1010C0004001006469000000000020080064750011
:1010D0000000000400010064650000000000100131
:1010E00000646F0000000000004100626100000029
:1010F0000000002100626900000000002000106272
:101100007500000000002200006265000000000081
:10111000001100626F0000000000200400767500DE
:10112000000000000040047061000000000000208A
:10113000047069000000000000801070750000005D
:1011400000000280007065000000000000100470C4
:101150006F0000000001800000787961000000014C
:101160008000407879610000000102000078797504
:101170000000000102004078797500000081000045
:101180000078796F0000008100004078796F0000DE
:1011900000010001007861000000000100014078BA
:1011A00061000000000100020078690000000001F9
:1011B000000240786900000000010004007875001A
:1011C000000000010100007865000000000101003E
:1011D0004078650000000001000002786F00000008
:1011E0000001000042786F00000000010004407818
:1011F000776100000000400000787475000000086E
:1012000080000073796100000008020000737975A6
:101210000000008800000073796F00000008800162
:10122000007A7961000000080201007A79750000F7
:1012300000880001007A796F000000028000006BD6
:101240007961000000020200006B797500000082E5
:101250000000006B796F0000000280010067796177
:1012600000000002020100677975000000820001A1
:101270000067796F00000000C00000747961000011
:101280000000420000747975000000804000007486
:10129000796F00000000C001006479610000000067
:1012A0004201006479750000008040010064796F9C
:1012B000000000009000006E796100000000120044
:1012C000006E7975000000801000006E796F0000DC
:1012D00000008020006879610000000002200068A2
:1012E00079750000008000200068796F0000000020
:1012F000802100627961000000000221006279759E
:101300000000008000210062796F00000000802052
:1013100004707961000000000220047079750000FB
:10132000008000200470796F000000008000016DD3
:101330007961000000000200016D797500000080F5
:101340000000016D796F0000000480000072796177
:1013500000000004020000727975000000840000A3
:101360000072796F000000040002047468690000D4
:1013700000040200047468750000000400030064A7
:101380006869000000040201006468750000000044
:10139000100404746F7875000000100500646F7805
:1013A0007500000801000473796500000000410029
:1013B00004747965000000080101007A7965000075
:1013C00000004101006479650000000000811066A2
:1013D000610000000000008210666900000000004B
:1013E00001801066650000000000008012666F003A
:1013F0000000000002801066797500000000018284
:101400000069786500000000008600776900000030
:101410000000018400776500000000000084027570
:10142000786F0000000020050076610000000000D9
:1014300020060076690000000000210400766500A7
:1014400000000000200402766F000000000022046B
:1014500000767578797500008081006B7578610081
:1014600000008082006B7578690000008180006B4D
:101470007578650000008080026B75786F00000051
:101480008084006B757877610000A0010067757833
:1014900061000000A0020067757869000000A100EB
:1014A0000067757865000000A000026775786F001E
:1014B0000000A0040067757877610000008900745F
:1014C000736100000000008A00747369000000006E
:1014D0000188007473650000000000880274736F57
:1014E000000000000000402000000000000100009B
:1014F00000000000000000000080402C0000000000
:1015000000000000442E01012800004000000001FE
:10151000012A0000000000800401012800000000F2
:10152000008044010128000000100003002F00008B
:101530000000001000000001017200000000000027
:10154000000000000000000000000000000000009B
:1015500000200000000101730000000000000000F6
:10156000000000000000000000000000000000007B
:1015700030010001017000000000000000000000C8
:101580000000000000000000000000000000300229
:10159000000102E10101700103E100000000000010
:1015A0000000000000000000000000003004000106
:1015B00001700101700101700101700101700000F2
:1015C0000000000000000000000030000401017174
:1015D000000000000000000000000000000000000B
:1015E00000000000000000003000080102E10101DD
:1015F000710103E100000000000000000000000095
:1016000000000000000030001001017101017101B3
:101610000171010171010171000000000000000072
:101620000000000000C1000101730101730101739A
:1016300001017301017300000000000000000000C0
:10164000000000C2000102E1010173010173010108
:10165000730101730101730103E100000000000048
:1016600000C00401017201017201017201017201E5
:10167000017200000000000000000000000000C037
:10168000080102E10101720101720101720101729E
:101690000101720103E100000000000011241FBEDF
:1016A000CFEFDAE0DEBFCDBF13E0A0E0B1E0E0E3D2
:1016B000FCE602C005900D92AC32B107D9F726E0E6
:1016C000ACE2B3E001C01D92A131B207E1F70E9484
:1016D0006A2C0C94C9350C940000CF93DF932091B1
:1016E0000A062115F9F0E6EFF5E0BC01EC01CC0F9C
:1016F000DD1F40E050E0DA01A60FB71F30E090E0B8
:101700001A9728F4DF01AC0FBD1F3D919C913083E7
:10171000918332964F5F5F4F4A30510561F7281B26
:1017200020930A06DF91CF910895E6EFF5E084E17A
:1017300011928A95E9F710920A0610928704109286
:1017400088041092860410928404109285040895EF
:1017500080933004909331040895CF93C1E061FDEC
:10176000C4E060FDCC0F62FDC29593E0769567956D
:101770009A95E1F7660F771F660F771F460F571F81
:10178000FA0140E050E090E06191DF019C01042EFD
:1017900002C0369527950A94E2F72695220B262754
:1017A0002C2326272E934F5F5F4F4430510561F75E
:1017B000CF910895A82FA77023E0969587952A9535
:1017C000E1F7880F991F880F991F680F791FFB0198
:1017D00040E050E080E0219130E00A2E02C03695D2
:1017E00027950A94E2F72170042E01C0220F0A9473
:1017F000EAF7822B4F5F5F4F4430510561F7089540
:10180000282F862F9A3068F4263050F4622F70E02B
:1018100026E0929F600D711D11244BEE53E09DCF89
:1018200008959C5F9230E0F7622F70E047EE53E03E
:10183000F6CF292F9A3058F4863080F490E06BEE82
:1018400073E036E0239F800D911D1124B3CF2C5FF0
:10185000223020F467EE73E090E0F8CF80E0089546
:10186000E091390490913804E91302C080E00895B2
:101870009F0157E0E59FF0011124E65CFB4F518189
:10188000561306C05081581303C05581541305C028
:101890002F5F3F4FF901E770E7CF81E00895809116
:1018A000390420913804281301C0089501968770E7
:1018B000FACF8095982F80912D04892380932D0451
:1018C0000895FC01F235B8F5F03508F0BBC0E03EF4
:1018D000F105F0F4ED3CF10508F092C0E83AF105AD
:1018E00070F4E53AF10508F07BC0E130F10529F02C
:1018F000CF010497813A910540F4CF010895CF01BB
:10190000885A91094B9708F46FC0E0E0F0E0F5CFFA
:10191000F03460F4F03208F0AAC0E83EF10568F354
:10192000CF0191509C0121153F41E6CFCF019F701F
:10193000906AFC01E2CFE03882E5F807C8F5E036AE
:1019400082E5F80708F064C0E03482E5F807D0F4D7
:10195000E03282E5F80708F055C02E2F269526952F
:1019600090E2299F900111248E2F837041E050E076
:1019700002C0440F551F8A95E2F7CA01822B932BB0
:101980009D68D7CF2E2F26952695277090E2299F08
:10199000900111248E2F837041E050E002C0440F6B
:1019A000551F8A95E2F7CA01822B932B9C68C1CF01
:1019B000E03C82E5F80748F42E2F2F71E03AF2451B
:1019C000E8F5922F84EF906AB4CFCF01805C924506
:1019D000809708F09ACF9E2F9F7180EF906AA9CFD1
:1019E000CF0184979064A5CF8E2F885AE82FF0E01E
:1019F000EE0FFF1FEB5CFD4F80819181946499CFC6
:101A0000F0657BCF8E2F8F71982F81EF906A91CFE9
:101A10002E2F26952695277090E2299F900111245C
:101A20008E2F837041E050E002C0440F551F8A950D
:101A3000E2F7CA01822B932B9A687BCF80E0922F2A
:101A4000906277CFCF0123E0880F991F2A95E1F7A5
:101A5000392F3F706E2F6F71462FE4FF04C080E175
:101A6000689FA0011124242FC901906962CFCF0182
:101A70009F71E6CF972F7A30C8F4663088F58730AB
:101A800090F570E026E0929F600D711D11249CE39B
:101A9000899F600D711D1124FB01EE0FFF1FE156A0
:101AA000FC4F85919591282F822F08957D3F59F401
:101AB000611116C08730B8F494E0899FF0011124B9
:101AC000E951F94FEECF7C3F59F4611109C08730DD
:101AD00050F494E0899FF0011124E751F94FE1CFD0
:101AE00020E090E0E1CF21E0FCCFCF92DF92FF92A7
:101AF0000F931F93CF93DF936C01009132041091E9
:101B000033048091300490913104082B192BCFE0DD
:101B1000D0E081E090E00C2E02C0880F991F0A945B
:101B2000E2F780239123892B61F4219790F7F12C20
:101B30008F2DDF91CF911F910F91FF90DF90CF906C
:101B40000895FC2EB6018C2F95DFBBDE019769F35B
:101B5000EFCF1F93CF93DF93FC012581C081D1810B
:101B6000CE01211571F0611561F0BFDF182F682FCC
:101B7000CE0146DEBE01812F7DDFDF91CF911F9127
:101B8000089557DE182FF6CFCF93DF93EC01ADDF2A
:101B9000BE0170DF96DEDF91CF910895FC012481B4
:101BA000211599F080819181EFDF282F92959F7008
:101BB000963099F060F4925F9F70923030F4203F3D
:101BC000B1F038F481E0283E38F080E008959A5F63
:101BD000F3CF81E0243FC9F7089591E0213F09F058
:101BE00090E081E0283E08F080E0892B089581E0B4
:101BF000089580E008950895CF92DF92EF92FF92CA
:101C00001F93CF93DF93462F172FE82FF0E0E7566F
:101C1000FD4F71110CC0E4918E2F7E2F6E2FDF913E
:101C2000CF911F91FF90EF90DF90CF900895F491A6
:101C3000EF2F86E0689FE00111242FEF30E0CE0106
:101C4000B9010E94CE34DB01CA01880F991F65E5F6
:101C50006A9FA0016B9F500D1124841B482F440FD5
:101C6000480FC901811B9109F89F7001F99FF00C81
:101C700011248F2D149FB0011124672F70E069018A
:101C8000C61AD70AB601F69F6001F79FD00C11243F
:101C9000A330B10549F1B901641B7109AB01149F6F
:101CA000B001159F700D1124672F70E0261B370BB4
:101CB000F29FA001F39F500D1124752FCC3FD3400C
:101CC00050F4A130B105A1F0129709F0A7CFEF2D84
:101CD000852F7F2FA3CFA430B10569F0169709F4A3
:101CE0009DCF7F2D8D2D9ACF7D2DEF2D8F2F96CFD0
:101CF0007F2FED2D93CFE52F7F2DF8CFCF93762F2C
:101D0000C22F682F842F78DF472F909119012C2F35
:101D1000291B922F282F892F90E065D1CF9108950C
:101D2000CF938091250480FF03C05ED5CF910895A5
:101D3000C0911B0180911C01C817B8F7809119014F
:101D40009C2F981B20E040E060E0892F90E04BD171
:101D5000CF5FF0CF0F931F93CF93DF93D82F162F22
:101D6000042F80912504C0911B0180FD10C0DF91DC
:101D7000CF911F910F910895809119019C2F981B6D
:101D8000202F412F6D2F892F90E02DD1CF5F809193
:101D90001C01C81788F3C4DFEACF0F931F93CF93BA
:101DA000DF93762F9091250490FF19C0493708F0F2
:101DB00048E7682F842F20DFD62F172F082FC0E089
:101DC000809119019C2F981B202F412F6D2F892F57
:101DD00090E009D18C2FC1E0813091F7A1DFDF9134
:101DE000CF911F910F910895CF93DF93D82FC92FD3
:101DF000892F90E028E0C11103C08D2F9C2F20E097
:101E0000AC0174E0569547957A95E1F74115510577
:101E100011F02C5FCA01AC01569547955695479530
:101E20004115510511F02E5FCA0196958795820FD5
:101E3000843049F1C8F48230F9F0833001F140E098
:101E400060E080E0AADF80E080937D0482E0809300
:101E50001B018CE080931C018AE080931D018D2F73
:101E60009C2FDF91CF910895853089F0863039F726
:101E70004FEF6FEF85E10EC04FEF6FEFE2CF4FEF07
:101E80006FEF85E5DFCF4FEF6FEF8BE2DBCF4FEFEB
:101E90006FEF80E882DF81E0D7CFA6DF8093320446
:101EA00090933304089521E030E002C0220F331FE5
:101EB0008A95E2F78091320490913304822B932B20
:101EC000ECCF21E030E002C0220F331F8A95E2F709
:101ED000209530958091320490913304822393238E
:101EE000DCCF909134048095892380933404282F8B
:101EF000277061F4891751F09091360492FF06C063
:101F0000869586958695DDDF109234040895CF93EB
:101F1000DF93EC018091250480FF0EC070912704AF
:101F200080912804893708F088E76C8165DE962F58
:101F3000672F482F892F0EDF8C818F5F8C83DF9175
:101F4000CF9108950F931F93CF938C01C0E06091C0
:101F50001D01C61768F0E4DEF8018481928190FFCC
:101F600020C08F5FF8018483CF911F910F91089556
:101F700020911B012C0F3327331F40912804493730
:101F800008F048E770E08FEF90E00E94E234F8013B
:101F90008481C69F800D112460912704AFDECF5F3E
:101FA000D6CF8150DFCF4AB183E9861B8F7021E005
:101FB00001C0220F8A95EAF7922F909594239AB93F
:101FC0009BB1822F892B8BB9089589B190E023E9C9
:101FD000261B2F7002C0959587952A95E2F7817090
:101FE0000895269A0895FC01EE0FFF1FE80FF91FD0
:101FF000EF5AFC4F6183408322830895382F25EBED
:102000003203C001112497FF04C080589109892F21
:10201000089580589F4FFBCF80910D0480FD14C020
:1020200081FD14C082FD16C080910C04811581F0E1
:102030008E3180F420E5829FC00111246EE170E0B2
:102040000E94E234862F089584E1089588E208957D
:1020500088E0089580E5089580910D0480FD17C003
:1020600081FD17C082FD19C080910B04811599F084
:10207000883298F428E0829FC001112468E270E061
:102080000E94E2346115710551F0862F089562E0D7
:10209000FCCF64E0FACF61E0F8CF68E0F6CF81E0F2
:1020A0000895E091DD03F091DE03309739F001905F
:1020B000F081E02D309711F00995089580E00895A2
:1020C000E091DD03F091DE03309759F026813781EE
:1020D000232B39F022E0DC012C930680F781E02DE0
:1020E00009950895A3E0B0E0E8E7F0E10C940B3522
:1020F00020914F033091500328173907B1F0809396
:102100004F0390935003E091DD03F091DE0330978D
:1021100061F00084F185E02D309739F023E02983C8
:102120008A839B83CE01019609952396E2E00C9465
:102130002735A3E0B0E0EFE9F0E10C940B352091F6
:102140004D0330914E0328173907B1F080934D03AA
:1021500090934E03E091DD03F091DE03309761F040
:102160000084F185E02D309739F024E029838A83BB
:102170009B83CE01019609952396E2E00C942735C6
:102180009C01FC01329680E09FEF4081461759F098
:1021900031969F3F19F4411101C0982F8F5F86300F
:1021A000A1F79F3F09F40895290F311D97FD3A9536
:1021B000F90162830895FC01329608962191261355
:1021C00002C0DF011E92E817F907C1F70895DC018C
:1021D000FB0111969C9111978181981322C0129650
:1021E0008C911297811519F0928189131AC0139658
:1021F0008C911397811519F09381891312C015964C
:102200008C911597811519F0958189130AC0149640
:102210009C91911521F081E02481291303C080E075
:1022200001C081E08170089580910C0108952FB75D
:10223000F8948091490390914A03A0914B03B09187
:102240004C032FBF0895F3DF9C01909110048091FF
:102250001104982B21F02093C1033093C203909175
:10226000120480911304982B21F02093BF03309324
:10227000C0038EE094E024CF2FB7F8946091490317
:1022800070914A0380914B0390914C032FBF0895A6
:102290000895FC0120913F03309140032617370732
:1022A00048F06115710529F49091E8009E779093AC
:1022B000E8009B0190E02115310541F4911106C021
:1022C0008091E80082FF32C080E0089580919703FA
:1022D0008115C1F18530C1F18091E80083FD30C0E6
:1022E0008091E80082FDECCF8091E80080FFE3CF91
:1022F0008091F3004091F200582F2115310519F01B
:102300004830510558F091E04830510509F090E00F
:102310004091E8004E774093E800CDCF81918093C3
:10232000F100215031094F5F5F4FE7CF8091970354
:10233000811541F0853041F08091E80083FFC0CFE6
:1023400081E0089582E0089583E00895982F9093A6
:10235000E900891771F07091EC002091ED00509127
:10236000F00021FD09C09F5F973089F78093E90055
:102370000895762F242F50E03091EB003E7F30936C
:10238000EB003091ED003D7F3093ED003091EB009C
:1023900031603093EB007093EC002093ED0050938C
:1023A000F0002091EE0027FDDECF089580913903E3
:1023B00087FF13C08091E80082FF06C08091E8008B
:1023C0008B778093E8000895809197038111F2CF75
:1023D0000895809197038115D9F38091E80080FFDB
:1023E000F8CF8091E8008E77ECCF2091E400309117
:1023F000E50095E6A9012091EC00822F817020FF75
:1024000006C08091E80080FF06C080E0089520911A
:10241000E80022FD1AC080919703811589F085306C
:1024200089F08091EB0085FD0FC02091E400309190
:10243000E50042175307F9F29150E1F684E0089560
:1024400082E0089583E0089581E00895CF93DF93BB
:10245000C8EDD0E088818F7E8883E7EDF0E0808151
:102460008160808384E082BF81E08093380388812B
:102470008E7F8883E2EE10821092DA00A1EEB0E047
:102480001C9288818F77888388818068888388817F
:102490008F7D888319BC1092970310923703109296
:1024A000960310923603A0EE8C918B7F8C938881DB
:1024B0008160888342E060E080E048DFA1EEB0E028
:1024C0008C918E7F8C93E2EEF0E08081816080833E
:1024D000808188608083E0EE80818E7F8083888128
:1024E00080618883DF91CF910895E8EDF0E08081ED
:1024F0008E7F80831092E2001092DA001092E10049
:10250000A0EEB0E08C9181608C9380818F77808386
:1025100019BCA7ED8C918E7F8C9380818F7E8083F8
:10252000109238030895A0E0B0E0E9E9F2E10C94DC
:1025300001356C018B017A01FB0101900020E9F764
:1025400031975F01A61AB70A6E177F0721F1EA01DA
:1025500009900020E9F72197C41BD50BB801C601EB
:102560000E946F354C010097B1F0BC016A0D7B1DD4
:10257000FB0101900020E9F76C01CC0EDD1EAF01DC
:10258000461B570BC6010E945E35AE01B701C40160
:102590000E945535E3CFCDB7DEB7ECE00C941D3586
:1025A000CF93DF9348E651E063E375E189E894E077
:1025B0000E943235CDE8D4E08091F30581FF20C040
:1025C0004EE151E062E271E0CE01ADDF46E251E062
:1025D0006AE271E0CE01A7DF4EE251E062E371E012
:1025E000CE01A1DF46E351E06AE371E0CE019BDF5B
:1025F0006E9685E0C53FD807F9F6DF91CF91089533
:102600004EE251E062E271E0CE018DDF46E351E03F
:102610006AE271E0CE0187DF46E251E062E371E0F9
:10262000CE0181DF4EE151E0DFCF24982C9880E08D
:1026300098E02A9825E02A95F1F7000022271C99B6
:102640002395880F822B2A9A25E02A95F1F700001E
:10265000915079F70895249A27E030E090E02A9885
:10266000AC01022E02C0559547950A94E2F740FF4F
:102670000EC02C9A4AE04A95F1F700C02A9A2150E0
:10268000310968F785E18A95F1F7000008952C98E3
:10269000F1CFCF93C62F2D988068DDDF8C2FDBDF45
:1026A0002D9ACF91089584E08093790480937A04E1
:1026B00082E080937B0481E080937C0410927D040F
:1026C00044E054E062E071E08FE090E00E94AD35BC
:1026D00060E070E0AB0183E190E00E94AD3560E91D
:1026E00082E2D7CF61E08D37910548F06DE0863DFD
:1026F00026E0920720F46DE770E00E94CE3460611E
:1027000089E1C7CFCF932D988091770381110EC0B7
:1027100083E6A1DF8ADFC82F88DF982F2D9A8C2FC0
:10272000C7FD806897FD9068CF91089580E090E0A4
:10273000FBCFACE0B0E0EFE9F3E10C9409354F8357
:102740005887162F072F8B879C87DCDF282F292B94
:1027500011F4902F812F89879A8786E0FE013796A2
:10276000DE01119601900D928A95E1F729813A8157
:102770004B815C816D817E8180E090E02C96E4E06D
:102780000C9425352D9867DF50DF95E09A95F1F789
:1027900000002D9A0895CF93DF93229A249A259AC8
:1027A0006AE58AE376DF8FE79FEA22E08150904076
:1027B0002040E1F700C0000010927703A3DF80E023
:1027C000E1DFC82F81E0DEDFD82F8EE3DBDFC2310F
:1027D00029F49D2FD13011F4863209F090E0892F31
:1027E0008170DF91CF91089535B13F7B25B1206491
:1027F0004FB7F89481E593E0FC010196508168E0C1
:1028000025B9000000C057FF35B9550F000000C0C2
:1028100000C000C035B900C06A9591F753E0853714
:10282000950751F74FBF8FE594E00197F1F700C08E
:10283000000008950F931F93CF93DF93EB018A015C
:1028400090919703943059F58093E9008FEF909120
:10285000E80095FD06C095ED9A95F1F700008150CE
:10286000B1F78091E80085FF1AC0BFDD811112C069
:102870008091E80085FD06C08091E8008E77809306
:10288000E800F3CF88818093F1000150104011F0EF
:102890002196EECF8091E8008E778093E800DF915B
:1028A000CF911F910F910895CF93DF93EC0148E0F2
:1028B00050E0BC0181E0BEDF88E0FE01A1E4B3E0AE
:1028C00001900D928A95E1F7DF91CF91089546E04E
:1028D00050E0BC0182E0AECF43E050E0BC0182E0BA
:1028E000A9CF9091360492FB222720F9281771F086
:1028F00080FB92F990933604609135047091360410
:1029000084E090E00E94B53582E0EBCA08950F9311
:10291000CF93DF93C5E2D4E0488159816A817B81FE
:1029200088E090E00E94AD356C81262F60E070E079
:10293000CB01622F83E20E949B35DF91CF910F91F3
:10294000089585E080932504109226048FEF8093EC
:10295000270488E7809328041092290485E294E0F4
:10296000D6CF80912904833018F48F5F8093290497
:1029700085E294E0CCCF80912904811519F0815033
:102980008093290485E294E0C2CFA0E0B0E0EBECB4
:10299000F4E10C940635082FE62E142FD22E8091E8
:1029A000250480FF24C0282F26952695E22FF0E0ED
:1029B000EE51FE4F9081909323048C7F8430E1F49C
:1029C000842F493708F088E7602F7E2D15D9962F80
:1029D000672F482F892FBED900932604E092270441
:1029E00010932804D11419F085E294E090DFCDB75C
:1029F000DEB7E7E00C942235923019F400912604FA
:102A0000EBCF9530D9F39B3039F785EFF82EF20EE6
:102A1000EF2DE695F0E0EC56FD4FD491C0E06091CB
:102A20001D01C61710F07CD9D7CFCD9FC00111244E
:102A300070E00E94CE34862F800FF0FE02C0802FFF
:102A4000861B20911B012C0F3327331F412F193771
:102A500008F048E76E2D52D9CF5FE1CFE5E2F4E010
:102A6000818121E043816281865F8FCFE5E2F4E0DE
:102A7000818121E0438162818A5087CFE5E2F4E0E1
:102A8000628121E1620F08F46FEF21E043818181CF
:102A90007CCFE5E2F4E0628121E1621B08F460E0B2
:102AA00021E04381818171CFE5E2F4E0438121E1BE
:102AB000420F08F44FEF21E06281818166CFE5E2A9
:102AC000F4E0438121E1421B08F440E021E062810F
:102AD00081815BCF6091F1058CE090E00C949B3597
:102AE000823041F0833051F0813039F482E08093BC
:102AF000F10502C01092F105EDCF089581E0F7CF06
:102B0000CF93DF93C2EFD5E088834091F2055091D7
:102B1000F3056091F4057091F50583E190E00E9462
:102B2000AD358881DDDFDF91CF910895CF936DE8DA
:102B300073E084E194E04BDBC82F811519F084E148
:102B400094E0BEDA9091150486E0E4E1F4E0282FE9
:102B500011922A95E9F790931504E4E1F4E0ADE8C9
:102B6000B3E001900D928A95E1F781E0911101C0E7
:102B700080E08C2BCF910895611509F450C0E82FA7
:102B8000ED5CE33148F4F0E0E652FA4C0C94F53495
:102B900043DA81958093110456CB3EDAFBCF3CDAC1
:102BA000819580931004F8CF37DAFBCF55DA809304
:102BB0001204F2CF51DA8195FACF4EDA81958093E3
:102BC0001304EACF49DAFBCF482F415D550B21E0D2
:102BD00001C0220F4A95EAF790910F04922B90932F
:102BE0000F0440911504815D21E001C0220F8A95F8
:102BF000EAF7822F611509F489C0422B409315042E
:102C000095CF80910D04816080930D04C5CF809194
:102C10000D048260F9CF80910D048460F5CF90910E
:102C20001004482F50E08D3C59F42091110427FFE7
:102C30000DC01092110491110BC010920C0408C029
:102C40008E3CA9F42091110412169CF39115A9F061
:102C50009091120420911304922B11F410920B0402
:102C6000415D51094830510508F4BBCF95CF8F3CE9
:102C700039F497FFEBCF1092100490911104DBCF41
:102C8000803D19F41916BCF3E1CF20911204893D5F
:102C900029F41216DCF610921204D8CF8A3D19F4EA
:102CA00027FFD4CFF8CF209113048B3D29F427FFC1
:102CB000CDCF10921304CACF8C3D19F41216CCF369
:102CC000C5CF282F215D283070F4FA01E15D21E0A5
:102CD00001C0220FEA95EAF7209530910F042323D3
:102CE00020930F04B3CF20910D042E7F8D3D59F01A
:102CF00020910D042D7F8E3D31F08F3D09F0A6CF40
:102D000020910D042B7F20930D04A0CF80954823A4
:102D100075CF80912D0490913704892B90912E04CA
:102D2000911589F0892B90E020E333E0F90140818F
:102D30002F5F3F4F41119F5F43E026333407B1F7C8
:102D4000911110922E0480932E0348E050E06FED15
:102D500073E08EE293E00E944835892BB9F088E059
:102D6000EEE2F3E0AFEDB3E001900D928A95E1F76A
:102D7000E091DD03F091DE03309741F00280F381B2
:102D8000E02D309719F08EE293E0099508951092A6
:102D90002D04E0E3F3E086E011928A95E9F780E004
:102DA00090E0A0D980E090E0C4D910923704B1DF60
:102DB000EEE0F4E086E011928A95E9F710920C04B7
:102DC00010920B0410920D043ECAE1DF8FEF94E3E2
:102DD0002CE0815090402040E1F700C0000088E1E5
:102DE0009AE00FB6F894A895809360000FBE909378
:102DF0006000FFCFAAE2B0E0E0E0F7E10C940A3512
:102E000089E393E0FC0101962091F100208323E007
:102E100081349207B9F780913A03893009F457C099
:102E2000C8F4823009F4B2C0833009F482C0813022
:102E300081F18091E80083FFE6C080913903909191
:102E40003A039A3008F0DFC0E92FF0E0E351FA4C82
:102E50000C94F5348A3009F489C08B3051F7809195
:102E60003903813231F780913D0390913E03892BE4
:102E700001F78091E800877F8093E80097DA81E08E
:102E800090913B03911101C080E080930D017FDFA1
:102E9000D0CF80913903813A61F68091E800877F35
:102EA0008093E80080913D0390913E03892B59F077
:102EB00060E080E090E070E0ECD98091E8008B77F2
:102EC0008093E800B6CF68E081E493E0F4CF80918E
:102ED0003903813209F0ADCF80913D0390913E03DB
:102EE000029708F0A6CF8091E800877F8093E800E2
:102EF0008091E80082FF18C02091F3008091F200D9
:102F0000922F029731F48091F100813011F08630D8
:102F100021F48091F10080930C018091E8008B777F
:102F20008093E80043DA85CF809197038111E0CF49
:102F300080CF80913903813A09F07BCF80913D03A6
:102F400090913E03892B09F074CF8091E800877F30
:102F50008093E8008091E80080FFFCCF80910D0114
:102F60008093F1008091E8008E77DACF8091390369
:102F7000813209F05ECF8091E800877F8093E8007E
:102F800015DA80913C0380930B0153CF8091390374
:102F9000813A09F04ECF8091E800877F8093E80066
:102FA0008091E80080FFFCCF80910B01D9CF803861
:102FB00089F0823841F580913D038F70873018F594
:102FC0008093E9008091EB0085FB882780F91092BF
:102FD000E90006C080919603880F90913603892BF3
:102FE0009091E800977F9093E8008093F100109211
:102FF000F1008091E8008E7723C0811116C0809186
:103000003B03813009F18091E80083FF0AC0809181
:10301000E800877F8093E8008091EB0080628093D6
:10302000EB00AA96E3E00C942635823061F780919C
:103030003B03811579F01092E9008091E800877FC9
:103040008093E800B3D9DFCF933009F080E080931C
:103050009603F1CF80913D038F70282F21502630A9
:1030600090F68093E9002091EB0020FFE4CF9330AD
:1030700031F48091EB0080628093EB00DCCF909183
:10308000EB0090619093EB0021E001C0220F8A9544
:10309000EAF72093EA001092EA008091EB00886042
:1030A000EBCF8111B0CF80913B038F77182F8091A8
:1030B000E3008078812B8093E3008091E800877F94
:1030C0008093E80073D98091E80080FFFCCF809165
:1030D000E30080688093E30083E0111101C082E087
:1030E0008093970390CF8058823008F08CCF209146
:1030F0003B0330913C032C3D83E0380789F583E0A6
:103100008A838AE289834FB7F894DE01139620E020
:103110003EE051E2E32FF0E050935700849120FF0E
:1031200003C082958F703F5F8F708A30B8F0895CE2
:103130008D931D922F5F243169F74FBF8091E80076
:10314000877F8093E8006AE270E0CE010196A1D803
:103150008091E8008B778093E80055CF805DE8CFC1
:10316000832F90E08330910519F160F4813091054F
:1031700009F46CC08230910509F045CF8BE3EBE692
:10318000F1E029C020913D0330913E038132910549
:1031900009F453C08232910509F035CF2130310551
:1031A00008F45CC009F02FCF8BE7ECEAF0E013C025
:1031B000822F90E0213099F182309105B9F100978A
:1031C00009F021CFE0EEF1E0E4918E2FE0EEF1E0A6
:1031D000009709F418CF2091E800277F2093E8009A
:1031E00020913F03309140038217930708F49C011C
:1031F00040E021153105B1F5411134C08091E8005E
:1032000082FDA6CF80919703811509F4A1CF853067
:1032100009F49ECF8091E80083FFF0CF99CFE2EDD3
:10322000F1E0E4918E2FE2EDF1E0D2CFE8EBF1E0B6
:10323000E4918E2FE8EBF1E0CBCF2130310550F057
:1032400009F0E1CE89E0E6E9F1E0C5CF82E1E6EA06
:10325000F1E0C1CF89E0EDE7F1E0BDCF84E4E7E242
:10326000F1E0B9CF80919703811509F471CF8530D2
:1032700009F46ECF8091E80083FD6ACF8091E80069
:1032800082FDBCCF8091E80080FFB3CF4091F30076
:103290008091F200942F2115310519F088309105A5
:1032A00050F041E0089709F040E08091E8008E7707
:1032B0008093E8009ECF44914093F10031962150D5
:1032C00031090196E8CF803809F09DCE8091E80061
:1032D000877F8093E800809137038093F10089CE47
:1032E000811191CE80913B03182F823008F08BCE54
:1032F0008091E800877F8093E8001093370356D8C9
:10330000111599F084E08093970342E061EC81E02D
:103310001DD842E261EC82E019D880919703843095
:1033200051F482E080930E016ECE8091E30087FD20
:10333000E9CF81E0E8CF81E0F5CFCF93C82F8115A9
:10334000A1F08450813A98F4E0E3F3E086E393E05F
:103350002081C217E1F131968E179F07C9F76C2FB4
:103360008EE293E00E94C010D4DCCF9108958C2FA0
:10337000805E883060F4C77021E001C0220FCA95DA
:10338000EAF780912D04822B80932D04EDCF8C2FB2
:10339000855A833030F48C2F8452990B0E9472101E
:1033A000E4CFEC2FE85AEB3150F4F0E0EE0FFF1FC2
:1033B000E559FD4F808191810E949910D6CF8C2FC5
:1033C0008D5C833190F661E08C2FD6DBCECF6C2FF5
:1033D0008EE293E00E94DB109CDCC1CF811579F175
:1033E000982F9450913A30F4682F8EE293E00E9427
:1033F000DB108FCC982F905E983058F4982F81E096
:1034000091FD84E090FD880F92FD82950E94590CF9
:10341000F0CF982F955A933020F480E090E00C94F0
:103420007210982F985A9B3120F480E090E00C9411
:103430009910982F9D5C933110F460E09DCB089516
:103440001F93CF93DF93182FC0E5D0E0893311F09D
:10345000C0E0D0E0812F71DF209731F4812FBEDFF3
:10346000DF91CF911F9108958FE99FE00197F1F7C8
:1034700000C000002197F0CF81E0809310061092E9
:103480000C0610920D0610920E0610920F060E9466
:10349000950B80910B060E94530F80E9D1DF8AE8DB
:1034A000CFCF1092100610920C0610920D061092BB
:1034B0000E0610920F060E94950B80910B060E943B
:1034C000610F81E9BDDF8BE8BBCFA0E0B0E0EBE6A8
:1034D000FAE10C940635E82FF0E0EC5EFD4F949194
:1034E000D92E282F26952695269530E0F901EC5FF8
:1034F000FD4F0491877010E0082E02C015950795C6
:103500000A94E2F7F901EC50FE4FE490F12C082EFA
:1035100002C0F594E7940A94E2F72C513E4FF9016A
:10352000C491D0E002C0D595C7958A95E2F700FF17
:1035300002C081EE02DFE0FE02C086EEFEDE8D2DCF
:10354000FCDE8D2D4BDFE0FE02C086EE47DF00FF84
:1035500002C081EE43DFC0FF02C08CE271DFCDB755
:10356000DEB7E7E00C9422359091F105923061F4DA
:103570008A3040F4875F90E06AE070E00E94E234B5
:10358000875A5ECF8650FDCF982F9A50963010F014
:10359000805D9BCF895AFDCFA0E0B0E0E2EDFAE17B
:1035A0000C9403355B016C01D091F1058CE1E82EA0
:1035B000F12C07E010E021E0C501D6010E2C04C07B
:1035C000B695A795979587950A94D2F7C82FCF708F
:1035D000211531F0D43041F4CA3030F080E0C4DF3E
:1035E0008C2FC2DF20E005C0C111FACF04301105D5
:1035F000BCF30150110984E0E81AF1080F3F1007ED
:10360000D9F6CDB7DEB7EAE00C941F35CF93DF9340
:10361000EC0188818130D0F009F03CC08981813093
:1036200021F48A8123960CDFF4CF823021F48A8141
:10363000239683DEEECF833021F48A812396CEDE7B
:10364000E8CF843031F022968111E3CFDF91CF9122
:1036500008958A81239620E030E09AE0482F405375
:10366000550B4A30510560F02115310569F3EFE93A
:10367000FFE03197F1F700C0000021503109F4CF8D
:10368000929FB001939F700D11249A01260F371F4E
:103690008991E4CF219619DFBCCFB8DF8091F30583
:1036A00080FD02C08CE2CCDE88E2CACE811531F00A
:1036B00090912D04982B90932D042BCB0895811578
:1036C00019F00E94590C25CB0895811531F0909185
:1036D0003704982B909337041CCB0895811539F04B
:1036E00080959091370489238093370412CB0895F5
:1036F000EF92FF920F931F93CF93DF93EC018B0117
:103700007C01FA948FE1F816D0F4CB3181E0D80730
:10371000C1F481E0DADF8C2F10DE0115110599F478
:103720008C2F5CDE8FE1F816B8F4CB31D140B1F4C8
:1037300081E0D4DFCDB7DEB7E6E00C94233580E03E
:10374000E9CF83E0E7CF8FE99FE00197F1F700C071
:10375000000001501109E1CF80E0EBCF83E0E9CF19
:103760008091F1058230C1F028F481110CC082EE05
:1037700035DE04C08430C1F08530C1F0809175031E
:1037800080932D0408958CE25BDE8091760381FFA7
:10379000F5CF89E355DEF2CF82EE20DE809176030D
:1037A00080FDECCF83E5F6CF88E2F4CF60E070E0F7
:1037B00088E290E09DDFE2CF0E9451108093760373
:1037C0009091F105913021F481FF02C089E338DE48
:1037D00080912D048093750310922D04109237046C
:1037E0008091F1058230B9F028F481110EC082EE8B
:1037F000A4DD04C0843001F1853011F18FE39CE930
:103800000197F1F700C00000089560E070E088E1E2
:1038100093E06EDFF3CF8091760380FD02C083E5F5
:103820000FDE82EE8ADD8FE39CE90197F1F700C09D
:10383000000087E505DEE2CF86EE02DE88E1FACF02
:1038400060E070E08BE191E053DF60E070E085E2E2
:1038500090E04EDF60E070E088E290E0DACF8F9297
:103860009F92AF92BF92CF92DF92EF92FF92CF934F
:10387000DF93EC01688161110BC0DF91CF91FF9064
:10388000EF90DF90CF90BF90AF909F908F90089572
:1038900067FD09C02196862E912CA12CB12C8CDFBE
:1038A000B401C5017BC08981962F907E903CB9F40C
:1038B0002296C62ED12CE12CF12CE6E0CC0CDD1C9E
:1038C000EE1CFF1CEA95D1F790ECC92297E0D922B3
:1038D000E12CF12C460157018F73882AE0CF962FF7
:1038E000907F903E09F05DC0E12CF12CD62EC12CCA
:1038F00064E0CC0CDD1CEE1CFF1C6A95D1F7E12CBA
:10390000F12C90E0D70176E0880F991FAA1FBB1F0A
:103910007A95D1F7807C9F70C82AD92A8A818F73C3
:10392000C82A239646015701C601D701985DA1090F
:10393000B1099830A105B10508F49CCF81E1E816E2
:10394000F1040CF097CF81E0E816F1040CF4A7CF56
:103950008091F105823009F48DCF2EDF8091F10541
:1039600081119ECF81E0E81AF1088D2D9E2DAF2D9B
:10397000B0E0A69597958795A695979587959852C7
:10398000AF4FBF4FBC01CD0107DE83E0D822E12C51
:10399000F12CB601C70174528F4F9F4FFDDDE0DE61
:1039A00069CF962F987F903F79F5653F68F5C62ED1
:1039B000D12C7601EE0CFF1CEE0CFF1CC12C9CE1FF
:1039C000E922F12CD601982F80E044E0880F991F5E
:1039D000AA1FBB1F4A95D1F7907FA370B0E0D92EE4
:1039E000EA2A8B818F73C82E8A8190E0A0E056E08E
:1039F000880F991FAA1FBB1F5A95D1F7807C9F7013
:103A0000C82AD92A24968ECF219634CFCF93DF931C
:103A1000EC018091F205833028F481110BC0DF9115
:103A2000CF910895E1F78BE80BDDCE0118DF8AE82E
:103A300007DDF5CFCE0113DF88E2FACFA2E4B0E0D4
:103A4000E4E2FDE10C9403355C01A6EFB5E000E093
:103A500010E068017601ED91FD91EE0FFF1FEE0F72
:103A6000FF1FE555F64F2081318142815381C22AE3
:103A7000D32AE42AF52A0F5F1F4FA016B10659F783
:103A8000C114D104E10480E4F80699F48091F605AC
:103A90009091F7058F359E4709F090C188E2D0DC00
:103AA000C5010E946D0B81E0CE5BDF4FEAE00C9414
:103AB0001F35611509F44CC080910C0690910D06DC
:103AC000A0910E06B0910F06B6FF02C06894F6F8FA
:103AD000592F40E0507360E070E04115504361059C
:103AE000710511F420E3D22A6A2F40E050E0607C97
:103AF00070E041155105604C710511F420ECE22A8B
:103B00006A2F40E050E0637070E04115510563405A
:103B1000710511F423E0E22A7B2F40E050E060E0E1
:103B20007C704115510561057C4011F42CE0F22AAE
:103B300095FF02C06894D5F8A0FF02C06894E0F831
:103B4000A7FF02C06894E7F8B2FF02C06894F2F8D9
:103B5000C11480E2D806E1048CE0F80609F471C0D3
:103B600078F5C11480E8D80681E0E806F10409F48C
:103B700043C082E0C816D104E1048CE0F80609F4E1
:103B800044C0C11480E6D806E104F104C1F13DE56A
:103B9000A32E3EE0B32E4AE050E0B501CE01C99617
:103BA0000E94323589AD9AADABADBCAD8C159D058B
:103BB000AE05BF0509F071C0CE01CD9627DD1DC051
:103BC000C114D10480E8E8068CE0F80609F452C07C
:103BD000C114D104E1048DE0F806C9F68091F20524
:103BE000823079F08D7F813009F0E6C08EE391E07C
:103BF0000DDF88E225DC01C03FDCC80152CF51DC7B
:103C0000FCCF80E691E049DDF8CF8091F20582306B
:103C100069F08D7F813009F0CFC088E211DC8DE43E
:103C20000FDC89E691E0F2DE86E4E4CF88E208DC8E
:103C30008DE406DC80E791E030DD8DE791E02DDD5D
:103C4000F3CF8091F205823069F08D7F813009F0E9
:103C5000B3C08AE891E0DADE88E2F2DB8EE891E038
:103C6000D5DECBCF82E991E018DD88E2E9DB8FE990
:103C700091E0C9CF8091F205823059F08D7F81307B
:103C800009F09AC08AE891E0C1DE88E2D9DB8CE2D3
:103C9000B1CF82E991E001DDF8CF8AE0A80EB11C36
:103CA00083E3A81685E1B80609F075CF8091F20587
:103CB000823091F12DEBA22E28E0B22E4EE150E0A1
:103CC000B501CE0101960E94323589819A81AB817E
:103CD000BC818C159D05AE05BF0591F18EE1A80E46
:103CE000B11C85E0A8168CE0B80641F7E9E8F4E0DD
:103CF00020E030E080819181A281B3818C159D0507
:103D0000AE05BF0549F54EE1429FC001439F900DAE
:103D1000112483579B4F52CF95E0A92E9CE0B92EDA
:103D20004EE150E0B501CE0101960E943235898105
:103D30009A81AB81BC818C159D05AE05BF0519F438
:103D4000CE0105963BCF8EE1A80EB11C8DE5A816DD
:103D50008EE0B80629F7AECF2F5F3F4F7E962C300E
:103D6000310541F683E0A82E87E0B82E4AE150E005
:103D7000B501CE014F960E9432358F8D98A1A9A131
:103D8000BAA18C159D05AE05BF0571F48091F205B1
:103D9000823039F08D7F813009F02FCFCE018396AC
:103DA0005FCFCE018A962FCF8AE1A80EB11C8DEB92
:103DB000A81688E0B806D1F680E076CE61117CCEF8
:103DC000E6CECF93DF93C0910A06D0E0209739F476
:103DD00081E090E00E946D0BDF91CF91089561E04A
:103DE000CE012CDE8111F8CF60E0CE0127DE8111FB
:103DF000F3CF2197EBCFA0E0B0E0E1E0FFE10C943E
:103E0000FB3441ED53E005E212E0D12C7D01E39457
:103E1000FA01B190AF01DF011E92F80181918F018B
:103E2000E82FE295EF70F0E021A18F70B70101C09B
:103E3000660F8A95EAF7462E262B21A322A1C62ECD
:103E4000C0942C2122A320EA2A95F1F72FE2222EFA
:103E500022E0322E310160E070E0E301A9903E01E2
:103E60002A2D22952F70205E30E0E90128819C9058
:103E70008A2D8F7002C0359527958A95E2F720FD2F
:103E800092C02E2D062E01C0220F0A94EAF729298E
:103E90002C936F5F7F4F66307105F9F691A1C922AF
:103EA000C1A292A1842D892B82A381E09C919B11B8
:103EB00001C080E0D82A83E0463D580709F0A8CF2A
:103EC00020E030E07901E3944AE252E0F10181918F
:103ED0001F01E82FE295EF70F0E061A18F70D7012C
:103EE00002C0AA0FBB1F8A95E2F72D016A2B61A3BE
:103EF00072A16A2F6095762372A370EA7A95F1F722
:103F0000AE2D022E01C0AA0F0A94EAF78A2E8094E1
:103F10007A2FA5E2B2E006ED13E0C12CE8019990FA
:103F20008E017D90A72CA2948FE0A82280E2A80E9B
:103F3000B12CE501A880872D8F7002C0B594A7949D
:103F40008A95E2F7A0FC31C0B92CB72A380181E08C
:103F5000681A7108E301B882AA24A394B91001C0B9
:103F6000A12CCA284A175B07C9F691A1692361A34E
:103F700092A1842D892B82A3DC282F5F3F4F26300E
:103F8000310509F0A3CFD11499F081E08093C603E5
:103F90000E9417118093C4039093C503CDB7DEB779
:103FA000E2E10C94173520E072CFB92CB820CECFC7
:103FB0008091C603811591F3C091C403D091C503CC
:103FC0000E9417118C1B9D0B059740F34AE050E0AF
:103FD00061ED73E087EC93E00E944835892B49F04E
:103FE0008AE0E1EDF3E0A7ECB3E001900D928A9551
:103FF000E1F71092C603D2CF8F929F92AF92BF92F9
:10400000CF92DF92EF92FF920F9388E090E00E94B0
:1040100091354B015C0160932504909226048093B6
:104020002704B09228041092290410922A041092B6
:104030002B0410922C0483E290E00E9489359401B5
:10404000A5018092250430932604A0922704509362
:1040500028048093290410922A0410922B041092B1
:104060002C040F91FF90EF90DF90CF90BF90AF9016
:104070009F908F900895ADE2B0E0E1E4F0E20C94FF
:10408000FB3480919403833009F0CAC24091140438
:1040900050911504609116047091170480911804D2
:1040A000909119040E9499132093140430931504DD
:1040B00040931604509317046093180470931904E6
:1040C00086E0E4E1F4E0DE01179601900D928A9516
:1040D000E1F70091160401951091170411950987D5
:1040E0001A8786E0FE013796DE011D9601900D923B
:1040F0008A95E1F786E0FE013D969E012F5F3F4FD6
:10410000D90101900D928A95E1F786E0F901A4E1C9
:10411000B4E001900D928A95E1F786E0E4E1F4E0E5
:10412000DE01179601900D928A95E1F786E0FE0177
:104130003796DE01539601900D928A95E1F786E05D
:10414000FE017396D90101900D928A95E1F786E000
:10415000F901A4E1B4E001900D928A95E1F786E0BF
:10416000E4E1F4E0DE015F9601900D928A95E1F7BB
:104170003090180420901904E0917B04F0E0EE0FD9
:10418000FF1FED5FFD4F6081718180E090E00E9434
:10419000693425E33AEF4EE85CE30E94AB334B0110
:1041A0005C01602F000F770B872F972F0E946B34D5
:1041B0002B013C01B401C5010E9499326B017C01C5
:1041C000612F110F770B872F972F0E946B346DA3F0
:1041D0007EA38FA398A7B401C50190580E94F7321F
:1041E00069A77AA78BA79CA79601A701B201C30173
:1041F0000E94AB334B015C0129A53AA54BA55CA5F8
:104200006DA17EA18FA198A50E94AB339B01AC014B
:10421000B401C5010E9433342AE939E949E95EE372
:104220000E94AB334B015C0123E333E343E35FE3E1
:10423000609188037091890380918A0390918B0328
:104240000E94AB339B01AC01B401C5010E94343420
:104250004B015C0129A53AA54BA55CA5B201C301A0
:104260000E94AB332B013C012DA13EA14FA158A5CB
:10427000B601C7010E94AB339B01AC01B201C3017F
:104280000E9434342AE939E949E95EE30E94AB33FC
:104290006B017C0123E333E343E35FE36091840339
:1042A0007091850380918603909187030E94AB33C0
:1042B0009B01AC01B601C7010E9434346B017C0143
:1042C0008092880390928903A0928A03B0928B0314
:1042D00060938403D092850380938603F0928703D2
:1042E00020E030E040EC5FE3B401C5010E94AB3355
:1042F0004B015C0120E030E040EC5FE3B601C70118
:104300000E94AB336B017C0180917D049E012F5F85
:104310003F4F29A73DA7811509F4FCC0B401C50191
:104320000E9438348B0177FF04C000271127061B39
:10433000170BB601C7010E943834AB01CB0177FFE0
:1043400004C088279927841B950B801791070CF0D0
:10435000CCC0E12CF12C6701609182037091830342
:10436000872F880F880B982F0E946B346DA37EA334
:104370008FA398A76091800370918103872F880F86
:10438000880B982F0E946B342B013C0180917C0498
:10439000811509F4AEC02DA13EA14FA158A5B401CD
:1043A000C5010E9434344B015C019601A701B201A2
:1043B000C3010E9433340E9438346B017C01B40184
:1043C000C5010E943834AB0160938203509383038C
:1043D000C0928003D0928103E0917A04F0E0EE0F66
:1043E000FF1FE950FE4FE0819A010E2E02C0359565
:1043F00027950A94E2F7C6010E2E02C0959587957F
:104400000A94E2F7082F211581F0220E322F330F84
:10441000330B0E2E02C0220F331F0A94E2F7421B09
:10442000530B4093820350938303011509F4F6C0A4
:10443000380E982F990F990B02C0880F991FEA9593
:10444000E2F7C81AD90AC0928003D092810300E033
:1044500010E009A31AA33BA22CA286E0FE017F96DE
:10446000DE01179601900D928A95E1F786E0FE0134
:104470003796A9A5BDA501900D928A95E1F786E032
:10448000E9A5FDA5DE01599601900D928A95E1F707
:1044900086E0FE017996DE01179601900D928A95CD
:1044A000E1F786E0FE013796A4E1B4E001900D92B9
:1044B0008A95E1F786E0EEE0F4E0DE0117960190E0
:1044C0000D928A95E1F7809115049885892B809348
:1044D00015040E949615811102C080918C031092E0
:1044E0008C03AD96E2E10C941735A12CB12C45015B
:1044F00033CF9401A5016DA17EA18FA198A50E9443
:1045000033344B015C019201A301B601C7010E9443
:10451000343451CF20E030E040E05FE3B401C50126
:104520000E94AB3320917C0330917D0340917E0348
:1045300050917F030E9434344B015C0160937C03F3
:1045400090927D0380937E03B0927F0320E030E061
:1045500040E05FE3B601C7010E94AB3320917803CE
:104560003091790340917A0350917B030E94343457
:104570006B017C0160937803D092790380937A0376
:10458000F0927B03B401C5019F7720E030E040E862
:104590005FE30E94A63400E087FD1AC0B401C501A4
:1045A0000E943834062F762F770F770B872F972F9F
:1045B0000E946B349B01AC01B401C5010E943334ED
:1045C00060937C0370937D0380937E0390937F03BD
:1045D00020E030E040E85FE3B601C7019F770E942A
:1045E000A63487FD1BC0B601C7010E943834162FC0
:1045F000762F770F770B872F972F0E946B349B01B5
:10460000AC01B601C7010E94333460937803709304
:10461000790380937A0390937B031BCF10E019CF2B
:1046200080E05FCF9091250490FF2EC0811569F145
:10463000853168F58F73880F880F909125049370EA
:10464000892B80932504611521F085E294E00E9476
:104650008714609125046695669570E04BE050E004
:1046600080E091E00E943B35892B99F01092240460
:1046700081E08093B00320E04091280460912704FA
:10468000809126040C94C514089581E0D4CF84E170
:10469000D2CF81E0809324040E9417118093AD0350
:1046A0009093AE03E5CF80912504869586958F5F24
:1046B000853108F081E061E0B5CF809125048695D1
:1046C0008695815009F484E161E0ACCFA0E0B0E0D0
:1046D000ECE6F3E20C9405357C01FC018481811544
:1046E00009F460C061E0C7010E94A90DEC01CA365F
:1046F0008EE7D807E1F1CB368EE7D80709F43EC044
:104700008091870490918804892BD1F480911006C0
:10471000811509F450C080910B06409132045091EC
:1047200033044115510509F054C0811509F45EC0E8
:104730000E94530F8091870490918804892BB9F1CE
:104740008091870490918804181619060CF04EC0C9
:1047500080910B064091320450913304411551056C
:1047600009F061C0811142C00E94610F3FC0F70192
:104770008581811541F00E94511A05C0F70185819C
:1047800081110E943C1A80913404877059F0F7011E
:104790008581811539F08091360482FF03C082E063
:1047A0000E94710FCDB7DEB7E8E00C9421358091FF
:1047B000100681111BC080910B064091320450916C
:1047C00033044115510511F5811110C00E94610F8C
:1047D000B7CF21E030E0082E02C0220F331F0A9429
:1047E000E2F724233523232B09F4A2CFF701958187
:1047F000911509F497C0FE01E056FE47EA30F10535
:1048000008F090C0E950FA4C0C94F53421E030E007
:10481000082E02C0220F331F0A94E2F72423352307
:10482000232B21F3D3CF21E030E0082E02C0220F4A
:10483000331F0A94E2F724233523232BB9F294CFB4
:104840000E94950BA0CF81E00E9480159CCF82E052
:10485000FBCF83E0F9CF9091F305892F8E7F90FFF6
:1048600081608093F3054091F2055091F3056091CA
:10487000F4057091F50583E190E00E94AD3583CF9A
:104880008091F2058230C9F0833029F1813021F422
:104890008CEA91E00E94061B8091F30581FF1EC007
:1048A00084EC91E00E94061B8091F30582FF19C001
:1048B00080ED91E00E94061B66CF80EB91E00E94A4
:1048C000061B8091F30580FF03C084EB91E0E2CFEB
:1048D00089EB91E0DFCF8EEB91E0DCCF8AEC91E0C9
:1048E000E1CF89ED91E0E6CF9091F305892F8D7F9F
:1048F00091FF82608093F3054091F2055091F3059A
:104900006091F4057091F50583E190E00E94AD356A
:104910000E94D01238CF9091F305892F8B7F92FFA0
:1049200084609FCF809110068111B8C020918404CB
:1049300030918504911509F49FC0809186048F5FA2
:104940008093860440911E0450911F042115310567
:1049500001F58130F1F4C417D507B1F0809120043E
:1049600090912104C817D90779F080911A04909189
:104970001B04C817D90741F080911C0490911D04B5
:10498000C817D90709F085C0C0938404D093850463
:10499000FACE8091200490912104C417D50761F4C8
:1049A0008217930779F40E943C1A109284041092A3
:1049B000850410928604E7CEC817D90719F4421768
:1049C0005307F0CF80911A0490911B0440911C046E
:1049D00050911D04C817D90731F44217530749F401
:1049E0000E94511AE2CFC417D50719F48217930712
:1049F000F6CF822F0E94201A109284041092850410
:104A000010928604F7019581C1158EE7D80709F049
:104A100055C1911509F18091790490E0019665E006
:104A200070E00E94CE3480937904409179045091D3
:104A30007A0460917B0470917C048FE090E00E9486
:104A4000AD35E0917904F0E0EE0FFF1FEF55FD4F1B
:104A5000808191810E947213F7018581C6309EE7A3
:104A6000D90709F048C1811509F45FC180917C0420
:104A7000819580937C04CDC4109286042115310564
:104A800041F0822F0E94201A109284041092850413
:104A90007ACE1092840410928504B4CFD93208F0F3
:104AA0006DC0C13088E2D80768F4D33208F062C024
:104AB000C13082E2D80730F4C83ED10518F5C03EB7
:104AC000D10530F12091870430918804911509F4C3
:104AD0006AC02F5F3F4F20938704309388048091F2
:104AE0000B060E94610FF7018581C3309EE7D9074D
:104AF00009F0B2CF811509F498C480917B0490E04D
:104B0000089681C49E01215031422F3F3105D0F2D9
:104B1000911157C0CE0180549E478032910508F014
:104B200071CF880F991F880F991F85559D4FFC01E4
:104B30004081518162817381409550956095709557
:104B400080910C0690910D06A0910E06B0910F0673
:104B500084239523A623B72380930C0690930D06F8
:104B6000A0930E06B0930F0680910A06811509F4F2
:104B70000ACE5FC09E0121503442C7CFD53378F4AE
:104B8000C13084E3D80708F09DCFD23320F4C13080
:104B900081E3D80796CF9E0121503243B6CF9E01C4
:104BA00021503843B2CF2150304011F00AF019C4DF
:104BB000109287041092880480910B060E94530F74
:104BC00092CFCE358EE7D807B0F5C0348EE7D80740
:104BD00008F418CF80910A06E82FF0E0EE0FFF1FCF
:104BE000EA50FA4FC083D1838F5F80930A06CC0FBF
:104BF000DD1FCC0FDD1FC555D64F40910C065091DF
:104C00000D0660910E0670910F06FB81EA81098006
:104C1000C881D02D4C2B5D2B6E2B7F2B40930C0627
:104C200050930D0660930E0670930F068A3008F4B9
:104C3000AACDC7D8A8CD9E012E553E4722303105BA
:104C4000E8F58091F30582FDC5CF80910A068115B4
:104C500049F0B7D810920C0610920D0610920E066D
:104C600010920F0680910A06E82FF0E0EE0FFF1F6A
:104C7000EA50FA4FC083D1838F5F80930A06CC0F2E
:104C8000DD1FCC0FDD1FC555D64F80910C069091CE
:104C90000D06A0910E06B0910F06488159816A81D8
:104CA0007B81842B952BA62BB72B80930C0690939E
:104CB0000D06A0930E06B0930F0665CDC1308EE7AA
:104CC000D80709F093C39115B1F080917A0490E070
:104CD000019666E070E00E94CE3480937A044091A1
:104CE000790450917A0460917B0470917C048FE088
:104CF00090E00E94AD35F7018581C5309EE7D90768
:104D000061F0C4308EE7D80709F08FC380917D042D
:104D100091E0892780937D0488C3811531F08091CB
:104D20007D0491E0892780937D04F70185818115B9
:104D3000C1F1D7FF36C00E94DC1BBE017F7780E047
:104D400090E00E94CC1A0E94B01BF701958191154A
:104D500009F494C080912D048272FE01E052F8475C
:104D6000EB30F10508F08AC0EF5FF94C0C94F53494
:104D7000C6338CE7D80789F0C7338CE7D80779F0BA
:104D8000C5338CE7D80789F683E066C31092F10536
:104D90000E946A15CACF82E05FC384E05DC385E0EC
:104DA0005BC3C6319CE7D90781F68115A1F08091DC
:104DB0002D048A7A91E0811101C090E09093220441
:104DC00065E3811101C069E28EE293E00E94C010A8
:104DD0000E948916D8CC8091220465E3811101C01C
:104DE00069E28EE293E00E94DB10F2CF809125040D
:104DF00080FF0CC08E7F8093250485E294E00E94A2
:104E00008714109224040E94900EBDCC8160809380
:104E1000250461E08695869505DCB5CC811521F0E9
:104E20004CDCB1CC8115E1F33EDCADCC811529F031
:104E30000E943615A8CC8115D9F30E942E15A3CC5B
:104E4000811529F00E9449159ECC8115D9F30E9445
:104E50003E1599CC811529F00E945F1594CC8115DF
:104E6000D9F30E9454158FCC811529F00E94BB14F0
:104E70008ACC8115D9F30E94B11485CC9E01205EA5
:104E8000324520323105A0F4911125C0CF7181E067
:104E900090E002C0880F991FCA95E2F7EC01682FD5
:104EA00083E090E00E949B35CE010E94A80B6BCC62
:104EB000911509F448C0CB358CE7D807D1F1CC3532
:104EC0008CE7D80759F1CA358CE7D80781F1C13092
:104ED0008CE7D807B1F1C3308CE7D80761F1C11571
:104EE000DC4789F50E94C7168FEF94E32CE08150D0
:104EF00090402040E1F700C0000087E797E78093EB
:104F000000089093010888E19AE00FB6F894A895FC
:104F1000809360000FBE90936000FFCF80913604B5
:104F2000002482FF0394802D0E9471142CCC81E018
:104F3000FBCF80E0F9CF6FEF7FEF80E090E00E9441
:104F4000B5350E94E516F70100811181911509F42C
:104F500045C0C8010E94750DC82F682FC8010E9466
:104F6000000CB8018C2F0E943A0D0E94610CD82FC2
:104F7000C92FF701D580068102950F708091340406
:104F8000877001F1CD2CD114F1F0892F807F80340E
:104F900061F08D2F805E8830A8F0892F807E80326E
:104FA00021F4D23078F0011569F08091360482FF47
:104FB00009C082E00E94710F809134048770CC2474
:104FC000C3948111C12CEC2FE295EF70C03C08F026
:104FD0006AC0F0E0E45FF94C0C94F534C8010E941B
:104FE000190CC82FBECF1C2F1F70C03110F01295A6
:104FF000107FD114B9F0111569F08D2F805E8830C3
:1050000010F0D11109C080912D04812B80932D04C3
:105010000E9489168D2F3FC080913704812B809389
:105020003704F6CF8D2F0E94EE191115E1F18D2F67
:10503000805E883010F0D11104C0812F0E94590C7D
:1050400006C01095809137048123809337040E9415
:10505000891629C01C2F1F70C07FC03211F0129515
:10506000107FD13040F009F463C0D11409F46DC051
:105070000115A9F1CFCF8091360482FD2CC0D11447
:1050800069F0111539F080912D04812B80932D0446
:105090000E94891680E00E949D1905C080E00E9450
:1050A000EE191111CACFC11409F4B8C080913404AB
:1050B00080FDB4C0F70115828695869586950E947D
:1050C000530FC70103DB809134048695869586953E
:1050D0000E94610FA3C0D11489F0013020F4812F08
:1050E0000E94561BE0CFF9F680912E04912F982351
:1050F0001917C9F2812B80932E04D5CF0111D3CF7C
:10510000812F0E945F1B90912E04812F892329F00B
:10511000812F8095892380932E0480912F04912FD5
:10512000982309F4C0CF1095182310932F04BBCFF8
:10513000D11421F0063008F0B6CFD1CF053008F0F9
:10514000B2CF812F0E945F1BAECF0115D1F3D933AF
:1051500049F48FEF97EE23E0815090402040E1F733
:1051600000C000008D2F0E94EE199DCF8C2F8695D8
:1051700086958370813060F009F095CF8D2F9C2F3C
:105180009370D11002C080E090E00E9499108BCF04
:105190008D2F9C2F9370D11002C080E090E00E9470
:1051A000721081CF6D2D8D2F0E94BC157CCF8C2F5E
:1051B000837009F046C0D1102FC04D2F42954695FF
:1051C0004770440F440F2D2F2F7030E0042E02C083
:1051D000220F331F0A94E2F780E090E0D4FF09C069
:1051E0008FE090E002C0880F991F4A95E2F7809502
:1051F0009095C695C695C370C230D1F0C330A9F062
:105200004091300450913104C13069F0822B932BCE
:10521000842395230E94A80B0E94511060E0C701CF
:105220000E94A90DBFCA242B352B822B932BF2CFC2
:10523000822B932B209130043091310482279327C5
:10524000E9CFD11491F1C0FFE7CF4D2F429546959C
:105250004770440F440F2D2F2F7030E0042E02C0F2
:10526000220F331F0A94E2F780E090E0D4FF09C0D8
:105270008FE090E002C0880F991F4A95E2F7809571
:105280009095C695C695C370C230C1F0C33099F0F1
:105290004091320450913304C13059F0822B932B4A
:1052A000842395230E944D0FB7CF823008F4B4CFEA
:1052B000CCCF242B352B822B932BF4CF822B932B0B
:1052C000209132043091330482279327EBCFCF70A3
:1052D000D11439F08C2F0E94530F8D2F0E94561B32
:1052E0009BCF8D2F0E945F1B8C2F0E94610F94CF4C
:1052F000D23F99F170F4D03FC9F0D13F91F0D11471
:1053000009F45BC0011509F455C08D2F0E949D1949
:1053100083CFD33F49F1D43F91F79091360492FD6A
:1053200031C08C2F8F71D11401F31BC0D11499F0AF
:10533000053008F071CFCF7181E090E002C0880F96
:10534000991FCA95E2F7EC018091320490913304E1
:105350008C279D27A7CF0630ECCF8C2F8F71D110D3
:10536000C4CF0E94530F58CF80E090E0D11409F4CD
:1053700099CFCF7181E090E002C0880F991FCA9544
:10538000E2F790CFD11461F08C2F8F7192FFE9CFAB
:10539000982F990F990F990F936090933404E1CF50
:1053A00081E00E94710F023008F436CF82E00E9443
:1053B000710F32CF8C2F8F71D4CF011579F0D93383
:1053C00049F48FEF97EE23E0815090402040E1F7C1
:1053D00000C000008D2F0E94EE191ECF8C2F8F7100
:1053E00084CF20938704309388047DCBF701858197
:1053F000C2309EE7D90709F076CB8115B1F08091D4
:105400007B0490E0019669E070E00E94CE348093C6
:105410007B044091790450917A0460917B047091EF
:105420007C048FE090E00E94AD35F7018581811505
:1054300009F47BCCC4338CE7D80709F4ACCC08F072
:1054400097CCC2338CE7D80709F4A0CCC3338CE7E0
:10545000D80709F06ACC81E08093F10599CC80915E
:105460007804803170F480917704811551F0E091D7
:1054700039042091380430917304409172042E1342
:1054800001C00895BF0187E0E89FF0011124DF010A
:10549000A65CBB4F14968C911497811551F111960F
:1054A0008C911197831325C08C91841322C015967B
:1054B0008C91159781111DC012968D919D91A0918F
:1054C0007404B09175048A1B9B0B883C910588F489
:1054D000809178048F70806180937804E05CFB4F4A
:1054E00080818F708061808382E794E0EFD80C9494
:1054F0004F0C6F5F7F4FFB01E770C1CFADE0B0E0B5
:10550000E4E8FAE20C9400358C0186E0F801DE0153
:10551000189601900D928A95E1F7F801F580C48004
:1055200082E7882E84E0982E7090760471101FC058
:10553000C114D1F0F11409F417C1C8010E94CE0DB5
:10554000811509F411C187E0F801D40101900D9291
:105550008A95E1F78C2D813031F48091720490911D
:1055600073040E94C40D7BDFFF24F39453C0E080DA
:10557000A280B380D09077048091740490917504D8
:105580009501281B390BD11409F4B6C0283C31050C
:1055900008F08DC0C11441F390917304C1808091D3
:1055A0007804803108F056C0C91213C0909172047B
:1055B0009E110FC0F11048C08F70806180937804F5
:1055C00082E794E083D880917804F8018683F12CF7
:1055D00021C0F11039C040E06C2D8E2D0E94300C9E
:1055E00040E06C2D8E2D0E94300CF82E8111EFCFF3
:1055F000888599850E94C40D292F22952F7090349B
:1056000070F49F70223098F09115A9F0F8019681FE
:10561000903188F48F2D2D96EDE00C941C352A5F87
:105620002F70223060F0C80151D8FD2CF3CF9115B6
:1056300011F0811579F3805E883060F3F4CF803FFC
:1056400048F3815F8330F9CF809178048160809343
:105650007804BDCFC91207C0909172049E1103C097
:10566000F11409F46AC0C8010E94CE0D811509F435
:105670007BC0F11409F478C080917804803270F016
:10568000209172043091730429833A83AB82BC82E7
:105690007D821E828F83CE01019618D887E0F801A3
:1056A000A2E7B4E001900D928A95E1F75CCF80917A
:1056B0007804803148F482E794E008D8F40187E068
:1056C00011928A95E9F783CFC11409F44DCF209147
:1056D000730491812913C7CF909172049E11C3CF97
:1056E000F110C1CF8683C8010E946623F40187E0D0
:1056F00011928A95E9F738CF283C3105F8F6C114A4
:1057000009F432CFF11481F19091730481819813DF
:1057100021C0809172048E111DC08091780480FD9B
:1057200010C0803170F08683807F803F39F08681A1
:10573000982F907F905F8F70892B8683C8010E947D
:10574000662387E0F801A2E7B4E001900D928A9504
:10575000E1F70ACFC8010E94CE0D81119FCF809141
:105760007804816080937804C8010E946623FCCE8F
:10577000ABE1B0E0EEEBFBE20C9409354E8B5F8BB6
:10578000688F798F8A8F192F9B8F91111092370410
:105790001D8A86E0FE017696DE011F9601900D922D
:1057A0008A95E1F70A8D011561F00B8B1C8B61E086
:1057B000CE010F960E94A90D61E0CE010F960E94C6
:1057C000A90D0B8B1C8B87E0FE013F96DE0118961E
:1057D00001900D928A95E1F7CE0108968FDE811136
:1057E0002EC0209138043091390487E0AE01485F23
:1057F0005F4FFA0147505109DA0101900D928A95E5
:10580000E1F78C858115D9F0822F90E08395877020
:1058100090E0AC0134171506E1F097E0929FD001BB
:105820001124A65CBB4F9E012F5F3F4FF9010190F1
:105830000D929A95E1F7409338040E944F0C8091A5
:10584000390490913804891311C06B96E4E00C94EC
:1058500025350E94C7161092380410923904E2E7E9
:10586000F4E087E011928A95E9F7E9CF27E0829F7B
:10587000C0011124865C9B4F41DE811531F380917C
:10588000390490913A040196877080933904D7CFF8
:10589000A6E0B0E0EEE4FCE20C9409350E9417119A
:1058A0008C018091DB039091DC038017910771F0EC
:1058B00019821A820E941711BC0149815A8180E025
:1058C00090E056DF0093DB031093DC032696E4E0C0
:1058D0000C942535CDB7DEB765970FB6F894DEBFCB
:1058E0000FBECDBF85B7806885BF85B7806885BF8F
:1058F00084B7877F84BF0FB6F894A8958091600025
:10590000886180936000109260000FBE80E890E094
:105910000FB6F89480936100909361000FBE81E010
:1059200080930E0189EF9DE080932C0390932D03CB
:105930000E9475120E9426128091E200846080937A
:10594000E200789480919703811599F08091E900A5
:105950001091EC008F7010FB112717F9182B109283
:10596000E9008091E80083FD0E94FA161F701093F1
:10597000E90082E084BD93E095BD9AEF97BD8093E6
:105980006E00E6EBF3E088E011928A95E9F781E09A
:105990008093B50360E080E00E94D30F61E080E077
:1059A0000E94D30F8FE891E00197F1F700C000004B
:1059B00010E08091B503181708F4DEC1E5E2F2E0CB
:1059C0002FE232E0AF0161E0DA018D91AD01A82F45
:1059D000A295AF70B0E091961C918F70E62E01C039
:1059E000EE0C8A95EAF79E2D909591239C93119643
:1059F0009C918E2D892B8C932417350729F72FE244
:105A000032E0A90161E0DA018D91AD01A82FA295E4
:105A1000AF70B0E091961C918F70E62E01C0EE0C35
:105A20008A95EAF79E2D909591239C9311969C91CF
:105A30008E2D892B8C9382E04533580721F741E066
:105A4000D9018D919D01A82FA295AF70B0E09196DC
:105A50006C918F70042F01C0000F8A95EAF7902F88
:105A6000909596239C9311969C91802F892B8C93D3
:105A700082E02533380721F741E08191A82FA295D4
:105A8000AF70B0E091962C918F70642F01C0660FBB
:105A90008A95EAF7962F909592239C9311969C9164
:105AA000862F892B8C9382E0EF32F80731F7E1EDF6
:105AB000F3E08AE011928A95E9F7E7ECF3E08AE0F7
:105AC00011928A95E9F78FE090E00E9491356093FA
:105AD000790470937A0480937B0490937C046630FD
