:1000000024C600003FC600003DC600003BC60000FD
:1000100039C6000037C6000035C6000033C60000F0
:1000200031C600002FC600000C943A2A0C94222BF3
:100030000C94FF1527C6000025C6000023C600004B
:1000400021C600001FC600001DC600001BC6000020
:1000500019C600000C94162A15C6000013C600002D
:1000600011C600000FC600000DC600000BC6000040
:1000700009C6000007C6000005C6000003C6000050
:1000800001C60000FFC50000FDC50000FBC5000063
:10009000F9C50000F7C50000F5C50000F3C5000074
:1000A000F1C50000EFC50000EDC500002C432B2179
:1000B00000002C432B28000004211600000005013D
:1000C0000902A10185020901A100050919012908F8
:1000D00015002501950875018102050109300931D6
:1000E0001581257F95027508810609381581257FC0
:1000F000950175088106050C0A38021581257F9542
:100100000175088106C0C005010980A10185031998
:10011000012AB700150126B700950175108100C0AE
:10012000050C0901A101850419012AA00215012667
:10013000A002950175108100C005010906A1010505
:100140000719E029E7150025019508750181029539
:1001500001750881010507190029FF150026FF0018
:100160009506750881000508190129051500250166
:10017000950575019102950175039101C009023B36
:1001800000020100A0FA09040000010301010009B6
:100190002111010001224400070581030800010923
:1001A0000401000103000000092111010001227B6C
:1001B0000007058203200001120100020000000870
:1001C00027170300010001020001180363006F00FC
:1001D00063006F0074003400360070006C0075001E
:1001E000730000000C0361006B00690032003700EF
:1001F0000000040309042F002F002F0043005300C8
:100200002F00556E6465660057696E5343004D615B
:10021000635343004C34202020004E756D20200095
:100220004E6167696E0057696E2020004D61632042
:1002300020002000808182838485868788898A8B3C
:100240008C8D8E8F9091929394A0A1A2A3A4A5A629
:10025000A7A8A9AAABACADAEAFB0B1B2B3B4C0C1A0
:10026000C2C3C4C5C6C7C8C9CACBCCCDCECFD0D1F6
:10027000D2D3D40000AE00AF0000000000003E5B0F
:100280004F5B3E003E6B4F6B3E001C3E7C3E1C00B5
:10029000183C7E3C18001C577D571C001C5E7F5E7E
:1002A0001C0000183C180000FFE7C3E7FF0000181F
:1002B00024180000FFE7DBE7FF0030483A060E0095
:1002C000262979292600407F05050700407F05255E
:1002D0003F005A3CE73C5A007F3E1C1C0800081CAB
:1002E0001C3E7F0014227F2214005F5F005F5F00CE
:1002F00006097F017F00006689956A006060606082
:10030000600094A2FFA2940008047E04080010205C
:100310007E20100008082A1C0800081C2A08080073
:100320001E10101010000C1E0C1E0C0030383E3831
:100330003000060E3E0E0600000000000000000027
:100340005F000000000700070000147F147F140006
:10035000242A7F2A1200231308646200364956209B
:100360005000000807030000001C2241000000416B
:10037000221C00002A1C7F1C2A0008083E080800D6
:100380000080703000000808080808000000606065
:1003900000002010080402003E5149453E00004282
:1003A0007F4000007249494946002141494D3300D0
:1003B0001814127F10002745454539003C4A494929
:1003C00031004121110907003649494936004649A3
:1003D00049291E0000001400000000403400000005
:1003E00000081422410014141414140000412214B3
:1003F00008000201590906003E415D594E007C1279
:1004000011127C007F49494936003E41414122009A
:100410007F4141413E007F49494941007F09090927
:1004200001003E41415173007F0808087F000041F0
:100430007F4100002040413F01007F08142241001D
:100440007F40404040007F021C027F007F04081074
:100450007F003E4141413E007F09090906003E41BF
:1004600051215E007F091929460026494949320079
:1004700003017F0103003F4040403F001F20402018
:100480001F003F4038403F0063140814630003041A
:10049000780403006159494D4300007F4141410008
:1004A000020408102000004141417F0004020102C3
:1004B0000400404040404000000307080000205472
:1004C000547840007F28444438003844444428008D
:1004D000384444287F0038545454180000087E09DA
:1004E00002001824241C78007F08040478000044CB
:1004F0007D4000002040403D00007F102844000067
:1005000000417F4000007C04780478007C080404EB
:1005100078003844444438007C18242418001824F7
:1005200024187C007C080404080048545454240017
:1005300004043F4424003C4040207C001C20402018
:100540001C003C4030403C004428102844004C90A3
:1005500090907C004464544C4400000836410000F4
:10056000000077000000004136080000020102048C
:1005700002003C2623263C00000000000000000092
:10058000C060C0D0C8E86C6464646C686898D0606F
:10059000008000000000000000000080808000005B
:1005A00000000000000080808000000000000000CB
:1005B00000008080800000000000000000008080BB
:1005C00000000000000000E0E0000000000000006B
:1005D00000C0E0E0E000000000000080E0E020005B
:1005E000000000000000000000000000000000000B
:1005F000000000000000E0F0F0F0E0ECEEF7F37037
:1006000020007C7C7C7E007E7E7E7F7F7F00008061
:10061000C0E07E5B4F5BFEC00000C000DCD7DEDECA
:10062000DED7DC00C0000000000000000000000079
:100630000000000000000000000000000000FC8737
:1006400078FEFE010178848202028686030187FF1C
:10065000FC03FE00000000FCFECF0303030387C77A
:10066000860078FEFF8703030303CFFEFC0038FEFD
:10067000FF8703030303C7868400FCFE870303038D
:100680000387FEFC300303FFFF8303000070787EC6
:100690006F6361FFFF606000F0FCFF0F0F0E8EFCC8
:1006A000F860003030303030FFFF30303030000044
:1006B0000000000000000F1F3F7F7F7F7F7F3F1EF5
:1006C0000C001F1F1F3F003F3F3F7F7F7F00307B9D
:1006D0007F7830202030787F3B0003000F7F0F0FA2
:1006E0000F7F0F000300000000000000000000006A
:1006F00000000000000000000000000000000003F7
:1007000004193F27425858D99999D85D5F6E2C1922
:100710000C070100000000000103030303030303AF
:1007200001000001010303030303030100000000B3
:100730000103030303030301000000010303030398
:100740000303010000000001030303000000000098
:100750000000000303000000000103030303030380
:100760000100000000000000030300000000000082
:100770000000000000000000000000000000000079
:100780000000000000000000000000000000000069
:100790000000000000000000000000000000000059
:1007A0000000000000000000000000000000000049
:1007B0000000000000000000FFAA7F55400001017A
:1007C0000101010101010102020202020202020210
:1007D00003030303030303030404040404040405E0
:1007E00005050505060606060607070707070808A4
:1007F0000808090909090A0A0A0B0B0B0C0C0C0D55
:100800000D0D0E0E0E0F0F0F1010111111121213ED
:10081000131414151516161717181819191A1A1B68
:100820001B1C1D1D1E1E1F202021222223242425C7
:100830002626272829292A2B2C2D2D2E2F30313200
:1008400032333435363738393A3B3C3D3E3F404110
:1008500042434445464748494A4C4D4E4F505153F8
:1008600054555658595A5B5D5E5F616264656668AF
:10087000696B6C6D6F7072737577787A7B7D7E8033
:1008800082838587888A8C8E8F91939596989A9C7F
:100890009EA0A2A3A5A7A9ABADAFB1B3B5B7BABC93
:1008A000BEC0C2C4C6C9CBCDCFD1D4D6D8DBDDDF64
:1008B000E2E4E7E9EBEEF0F3F5F8FAFDFF00DA0227
:1008C00081FFD9F1DB20A4A62EAF00A0C0D3000089
:1008D000A1C8D30000AED580A81F408D14200064AD
:1008E0003214783C1E000014001A0008001500178E
:1008F00000000004211600070009000A0090241DD2
:10090000221B00060019000500520129002C432B70
:10091000284152D200000000004B0000004E0000B1
:10092000000000130012000C0018001C000000332F
:10093000310F000E000D000B0091343842370036A5
:1009400000100011005101290028222A380000D18E
:100950000000000000000000000000000000001483
:10096000001A0008001500170000000421160007F7
:100970000009000A0090241D221B00060019000532
:10098000002B0829002C432B214052D200000000EC
:10099000004B0000004E0000000000130012000C8D
:1009A0000018001C00000033310F000E000D000B7A
:1009B000009134384237003600100011002B052911
:1009C0000028222A310000D10000000000000000B1
:1009D0000000000000000038002400250026002D43
:1009E00000000025022100220023002E0201002722
:1009F000221E001F0020002E00010001002C0037E5
:100A0000440100010000000000AA000000A900004D
:100A100000000000002B004C002A00000000000035
:100A2000004F00520051005000010000004D004BEB
:100A3000004E004A000100010028020100000001F0
:100A4000000000000000000000000000000000386E
:100A50000234021E022A00350200001F0234002167
:100A6000024C0038000100E1003500230231023160
:100A70000001000100010001000100010000000070
:100A800000010000000100000000002202270226F1
:100A9000022D0200000000E40030002F00000020C2
:100AA000020100245230022F02240225020100011B
:100AB0000001000100000001000000000000000033
:100AC00000000000000000A8004000410042004576
:100AD000000000AE003D003E003F0044000100ADBC
:100AE000003A003B003C004300010001000100010E
:100AF00000D3000100000000000100000001000020
:100B000000000000000000000000000000000000E5
:100B1000004F0052005100500001000000E200E0D0
:100B200000E30000000100010001000100000001DD
:100B300000000000000000000000000000007C0039
:100B400000200A210A220A0000000000002078008C
:100B500000E00000000100217820782F78067E2C2C
:100B600009660C010001000100D300010000000033
:100B7000002D0800002E0800000000007C0000018D
:100B800052005200000000000000000000000000C1
:100B9000000100000022782178000000000100011F
:100BA0000001000100000001000000000000000042
:100BB0000000000000007C00004608160A160A002B
:100BC0000000000000207800000B08000001002158
:100BD0007820782F78067E37080F08010001000181
:100BE00000D3000100000000002D0100002E0100D4
:100BF000000000007C0000015200520000000000D4
:100C00000000000000000000000100000022782128
:100C10007800000000010001000100010000000157
:100C20000000000000000000000000000050014F24
:100C30000150094F09A900AA004E004B004E004B7D
:100C4000002E082D082E012D010011241FBECFEF0C
:100C5000DAE0DEBFCDBF12E0A0E0B1E0E6EBF5E602
:100C600002C005900D92A831B107D9F726E0A8E19E
:100C7000B2E001C01D92A332B207E1F70E940D2538
:100C80000C948F32BDC9292F30E048E0911102C089
:100C90009C0140E0C90164E0969587956A95E1F76B
:100CA000009711F04C5F9C01C90196958795969528
:100CB0008795009711F04E5F9C01C9019695879525
:100CC000840F089580931406909315060895CF938A
:100CD000C1E061FDC4E060FDCC0F62FDC29593E010
:100CE000769567959A95E1F7660F771F660F771FE0
:100CF000460F571FFA0140E050E090E06191DF019C
:100D00009C01042E02C0369527950A94E2F7269599
:100D1000220B26272C2326272E934F5F5F4F44302C
:100D2000510561F7CF910895A82FA77023E09695FC
:100D300087952A95E1F7880F991F880F991F680FEB
:100D4000791FFB0140E050E080E0219130E00A2E65
:100D500002C0369527950A94E2F72170042E01C04F
:100D6000220F0A94EAF7822B4F5F5F4F4430510500
:100D700061F70895282F862F9A3068F4263050F4B2
:100D8000622F70E026E0929F600D711D11244CE5EA
:100D900055E09DCF08959C5F9230E0F7622F70E0A0
:100DA00048E555E0F6CF292F9A3058F4863080F484
:100DB00090E06CE575E036E0239F800D911D1124D5
:100DC000B3CF2C5F223020F468E575E090E0F8CFD7
:100DD00080E00895E091060590910505E91302C0B1
:100DE00080E008959F0159E0E59FF0011124E95F3B
:100DF000FA4F5181561306C05081581303C05581D4
:100E0000541305C02F5F3F4FF901E770E7CF81E032
:100E100008958091060520910505281301C00895C5
:100E200001968770FACF8095982F80919605892337
:100E3000809396050895FC01F235B8F5F03508F079
:100E4000BBC0E03EF105F0F4ED3CF10508F092C0C6
:100E5000E83AF10570F4E53AF10508F07BC0E130BD
:100E6000F10529F0CF010497813A910540F4CF01B3
:100E70000895CF01885A91094B9708F46FC0E0E0BC
:100E8000F0E0F5CFF03460F4F03208F0AAC0E83EAC
:100E9000F10568F3CF0191509C0121153F41E6CF48
:100EA000CF019F70906AFC01E2CFE03882E5F8073D
:100EB000C8F5E03682E5F80708F064C0E03482E562
:100EC000F807D0F4E03282E5F80708F055C02E2F7D
:100ED0002695269590E2299F900111248E2F8370EC
:100EE00041E050E002C0440F551F8A95E2F7CA0165
:100EF000822B932B9D68D7CF2E2F26952695277072
:100F000090E2299F900111248E2F837041E050E0E0
:100F100002C0440F551F8A95E2F7CA01822B932B1A
:100F20009C68C1CFE03C82E5F80748F42E2F2F7172
:100F3000E03AF245E8F5922F84EF906AB4CFCF0102
:100F4000805C9245809708F09ACF9E2F9F7180EF2A
:100F5000906AA9CFCF0184979064A5CF8E2F885A2D
:100F6000E82FF0E0EE0FFF1FEE55FE4F80819181DC
:100F7000946499CFF0657BCF8E2F8F71982F81EF7E
:100F8000906A91CF2E2F26952695277090E2299F63
:100F9000900111248E2F837041E050E002C0440F75
:100FA000551F8A95E2F7CA01822B932B9A687BCF53
:100FB00080E0922F906277CFCF0123E0880F991FB6
:100FC0002A95E1F7392F3F706E2F6F71462FE4FF9E
:100FD00004C080E1689FA0011124242FC9019069F9
:100FE00062CFCF019F71E6CF972F7A30C8F4663079
:100FF00088F5873090F570E026E0929F600D711DB6
:1010000011249CE3899F600D711D1124FB01EE0FDB
:10101000FF1FEB51F74F85919591282F822F08954F
:101020007D3F59F4611116C08730B8F494E0899F70
:10103000F0011124E35DF34FEECF7C3F59F46111D1
:1010400009C0873050F494E0899FF0011124E15DDC
:10105000F34FE1CF20E090E0E1CF21E0FCCFCF9251
:10106000DF92FF920F931F93CF93DF936C01009158
:101070001606109117068091140690911506082BFC
:10108000192BCFE0D0E081E090E00C2E02C0880F59
:10109000991F0A94E2F780239123892B61F4219709
:1010A00090F7F12C8F2DDF91CF911F910F91FF9031
:1010B000DF90CF900895FC2EB6018C2F95DFBBDE1C
:1010C000019769F3EFCF1F93CF93DF93FC01278143
:1010D00030852115310589F48581C081D181811543
:1010E00089F0611579F0CE01BADF182F682FCE0193
:1010F00041DEBE01812F78DF9C01C901DF91CF91D4
:101100001F910895CE014FDE182FF3CFCF93DF93B9
:10111000EC01A5DFBE0168DF8EDEDF91CF9108957F
:10112000FC0184818115A9F087819085009799F051
:1011300082DE92959F709630C9F088F4925F9F701E
:10114000923038F491E0803F79F058F491E0883E95
:1011500058F090E009C080819181D8DFEACF9A5F92
:10116000EECF91E0843FA9F7892F089591E0813F68
:1011700009F090E021E0883E08F020E0922BF4CFC7
:1011800080E008950895CF92DF92EF92FF921F932F
:10119000CF93DF93462F172FE82FF0E0E354F84F5B
:1011A00071110CC0E4918E2F7E2F6E2FDF91CF91A5
:1011B0001F91FF90EF90DF90CF900895F491EF2F63
:1011C00086E0689FE00111242FEF30E0CE01B901E5
:1011D0000E94FC2EDB01CA01880F991F65E56A9FFA
:1011E000A0016B9F500D1124841B482F440F480F02
:1011F000C901811B9109F89F7001F99FF00C11241E
:101200008F2D149FB0011124672F70E06901C61A59
:10121000D70AB601F69F6001F79FD00C1124A330C6
:10122000B10549F1B901641B7109AB01149FB0010B
:10123000159F700D1124672F70E0261B370BF29F4E
:10124000A001F39F500D1124752FCC3FD34050F4D3
:10125000A130B105A1F0129709F0A7CFEF2D852F8E
:101260007F2FA3CFA430B10569F0169709F49DCF65
:101270007F2D8D2D9ACF7D2DEF2D8F2F96CF7F2F08
:10128000ED2D93CFE52F7F2DF8CFCF93762FC22F63
:10129000682F842F78DF472F909136012C2F291B40
:1012A000922F282F892F90E045D1CF910895CF9389
:1012B00080918E0580FF03C0E5D4CF910895C09141
:1012C000380180913901C817B8F7809136019C2FF9
:1012D000981B20E040E060E0892F90E02BD1CF5FA9
:1012E000F0CF0F931F93CF93DF93D82F162F042F98
:1012F00080918E05C091380180FD10C0DF91CF91A3
:101300001F910F910895809136019C2F981B202FDB
:10131000412F6D2F892F90E00DD1CF5F8091390142
:10132000C81788F3C4DFEACF0F931F93CF93DF93DF
:10133000762F90918E0590FF19C0493708F048E745
:10134000682F842F20DFD62F172F082FC0E0809121
:1013500036019C2F981B202F412F6D2F892F90E055
:10136000E9D08C2FC1E0813091F7A1DFDF91CF91DF
:101370001F910F910895CF93DF93EC0184DC8430AB
:1013800059F1C0F48230F1F0833011F140E060E0B7
:1013900080E0CADF80E080931C0682E08093380101
:1013A0008CE0809339018AE080933A01CE01DF918D
:1013B000CF9108958530A1F0863041F74FEF6FEF60
:1013C00085E103C04FEF6FEF80E8AEDF81E0E3CF50
:1013D0004FEF6FEF8BE2DDCF4FEF6FEF85E5F5CF8E
:1013E0004FEF6FEF80E0F1CFC6DF8093160690934A
:1013F0001706089521E030E002C0220F331F8A95BE
:10140000E2F78091160690911706822B932BECCF72
:1014100021E030E002C0220F331F8A95E2F72095C9
:101420003095809116069091170682239323DCCF86
:10143000909199058095892380939905282F27708D
:1014400061F4891751F090919B0592FF06C0869533
:1014500086958695DDDF109299050895CF93DF93E9
:10146000EC0180918E0580FF0EC0709190058091F7
:101470009105893708F088E76C8185DE962F672F04
:10148000482F892F2EDF8C818F5F8C83DF91CF9146
:1014900008950F931F93CF938C01C0E060913A01A0
:1014A000C61768F004DFF8018481928190FF20C0A4
:1014B0008F5FF8018483CF911F910F910895209140
:1014C00038012C0F3327331F40919105493708F01D
:1014D00048E770E08FEF90E00E94532FF80184817D
:1014E000C69F800D112460919005CFDECF5FD6CFCF
:1014F0008150DFCF4AB183E9861B8F7021E001C0A4
:10150000220F8A95EAF7922F909594239AB99BB16E
:10151000822F892B8BB9089589B190E023E9261B8E
:101520002F7002C0959587952A95E2F781700895EE
:10153000269A0895FC01EE0FFF1FE80FF91FE25CE9
:10154000FD4F61834083228308951092A505109278
:10155000A60580912501811104C0109224011092EA
:10156000260180912C01811104C010922B01109250
:101570002D0180913301811104C01092320110922B
:1015800034010895AC018091A8056091A705982FBA
:10159000691301C00895292F30E0F901EE0FFF1FF4
:1015A000E356FA4F0190F081E02DE417F507B9F406
:1015B000E0E0F0E04330510540F467E0649FF00163
:1015C000659FF00D1124E05EFE4F41E044839813C7
:1015D000E1CF2F5F3F4F23702093A80508952395F7
:1015E000922F9370D5CF382F25EB3203C0011124F1
:1015F00097FF04C080589109892F089580589F4F04
:10160000FBCF80917E0580FD14C081FD14C082FD5A
:1016100016C080917D05811581F08E3180F420E522
:10162000829FC00111246EE170E00E94532F862F2B
:10163000089584E1089588E2089588E0089580E59A
:10164000089580917E0580FD17C081FD17C082FD41
:1016500019C080917C05811599F0883298F428E0B2
:10166000829FC001112468E270E00E94532F61152F
:10167000710551F0862F089562E0FCCF64E0FACF47
:1016800061E0F8CF68E0F6CF81E00895E091FB04D7
:10169000F091FC04309739F00190F081E02D309703
:1016A00011F00995089580E00895E091FB04F09110
:1016B000FC04309759F026813781232B39F022E042
:1016C000DC012C930680F781E02D09950895A3E0B5
:1016D000B0E0EDE6FBE00C94202F20913B0230912E
:1016E0003C0228173907B1F080933B0290933C02EB
:1016F000E091FB04F091FC04309761F00084F185E7
:10170000E02D309739F023E029838A839B83CE0133
:10171000019609952396E2E00C943C2FA3E0B0E0FB
:10172000E4E9FBE00C94202F2091390230913A0239
:1017300028173907B1F08093390290933A02E0916B
:10174000FB04F091FC04309761F00084F185E02DFA
:10175000309739F024E029838A839B83CE01019658
:1017600009952396E2E00C943C2F9C01FC013296F3
:1017700080E09FEF4081461759F031969F3F19F462
:10178000411101C0982F8F5F8630A1F79F3F09F468
:101790000895290F311D97FD3A95F9016283089547
:1017A000FC01329608962191261302C0DF011E9299
:1017B000E817F907C1F70895DC01FB0111969C9128
:1017C00011978181981322C012968C9112978115DE
:1017D00019F0928189131AC013968C911397811571
:1017E00019F09381891312C015968C911597811564
:1017F00019F0958189130AC014969C91911521F0D6
:1018000081E02481291303C080E001C081E0817060
:1018100008958091130108952FB7F89460913502CF
:101820007091360280913702909138022FBF08954F
:101830000895FC0120912B0230912C0226173707C6
:1018400048F06115710529F49091E8009E77909316
:10185000E8009B0190E02115310541F4911106C08B
:101860008091E80082FF32C080E008958091B50445
:101870008115C1F18530C1F18091E80083FD30C050
:101880008091E80082FDECCF8091E80080FFE3CFFB
:101890008091F3004091F200582F2115310519F085
:1018A0004830510558F091E04830510509F090E07A
:1018B0004091E8004E774093E800CDCF819180932E
:1018C000F100215031094F5F5F4FE7CF8091B504A0
:1018D000811541F0853041F08091E80083FFC0CF51
:1018E00081E0089582E0089583E00895982F909311
:1018F000E900891771F07091EC002091ED00509192
:10190000F00021FD09C09F5F973089F78093E900BF
:101910000895762F242F50E03091EB003E7F3093D6
:10192000EB003091ED003D7F3093ED003091EB0006
:1019300031603093EB007093EC002093ED005093F6
:10194000F0002091EE0027FDDECF08958091250262
:1019500087FF13C08091E80082FF06C08091E800F5
:101960008B778093E80008958091B5048111F2CFC0
:1019700008958091B5048115D9F38091E80080FF26
:10198000F8CF8091E8008E77ECCF2091E400309181
:10199000E50095E6A9012091EC00822F817020FFDF
:1019A00006C08091E80080FF06C080E00895209185
:1019B000E80022FD1AC08091B504811589F08530B8
:1019C00089F08091EB0085FD0FC02091E4003091FB
:1019D000E50042175307F9F29150E1F684E00895CB
:1019E00082E0089583E0089581E00895CF93DF9326
:1019F000C8EDD0E088818F7E8883E7EDF0E08081BC
:101A00008160808384E082BF81E0809324028881AA
:101A10008E7F8883E2EE10821092DA00A1EEB0E0B1
:101A20001C9288818F7788838881806888838881E9
:101A30008F7D888319BC1092B504109223021092F6
:101A4000B40410922202A0EE8C918B7F8C9388813B
:101A50008160888342E060E080E048DFA1EEB0E092
:101A60008C918E7F8C93E2EEF0E0808181608083A8
:101A7000808188608083E0EE80818E7F8083888192
:101A800080618883DF91CF910895E8EDF0E0808157
:101A90008E7F80831092E2001092DA001092E100B3
:101AA000A0EEB0E08C9181608C9380818F778083F1
:101AB00019BCA7ED8C918E7F8C9380818F7E808363
:101AC00010922402089524982C9880E098E02A9897
:101AD00025E02A95F1F7000022271C992395880F0D
:101AE000822B2A9A25E02A95F1F70000915079F788
:101AF0000895249A27E030E090E02A98AC01022E65
:101B000002C0559547950A94E2F740FF0EC02C9A03
:101B10004AE04A95F1F700C02A9A2150310968F746
:101B200085E18A95F1F7000008952C98F1CFCF93C5
:101B3000C62F2D988068DDDF8C2FDBDF2D9ACF91AB
:101B4000089584E0809318068093190682E08093BC
:101B50001A0681E080931B0610921C0644E054E0B4
:101B600062E071E08FE090E00E94733260E070E02C
:101B7000AB0183E190E00E94733260E982E2D7CF4B
:101B800061E08D37910548F06DE0863D26E09207D3
:101B900020F46DE770E00E94FC2E606189E1C7CF00
:101BA000CF932D988091880281110EC083E6A1DF2A
:101BB0008ADFC82F88DF982F2D9A8C2FC7FD806869
:101BC00097FD9068CF91089580E090E0FBCFACE066
:101BD000B0E0EDEEFDE00C941E2F4F835887162FDA
:101BE000072F8B879C87DCDF282F292B11F4902F60
:101BF000812F89879A8786E0FE013796DE0111964C
:101C000001900D928A95E1F729813A814B815C819F
:101C10006D817E8180E090E02C96E4E00C943A2F78
:101C20002D9867DF50DF95E09A95F1F700002D9A27
:101C30000895CF93DF93229A249A259A6AE58AE33E
:101C400076DF8FE79FEA22E0815090402040E1F765
:101C500000C0000010928802A3DF80E0E1DFC82FFF
:101C600081E0DEDFD82F8EE3DBDFC23129F49D2F48
:101C7000D13011F4863209F090E0892F8170DF9124
:101C8000CF91089535B13F7B25B120644FB7F894CB
:101C90008EE392E0FC010196508168E025B90000D6
:101CA00000C057FF35B9550F000000C000C000C08C
:101CB00035B900C06A9591F752E08236950751F721
:101CC0004FBF8FE594E00197F1F700C00000089541
:101CD0000F931F93CF93DF93EB018A019091B5048B
:101CE000943059F58093E9008FEF9091E80095FDCD
:101CF00006C095ED9A95F1F700008150B1F78091FB
:101D0000E80085FF1AC041DE811112C08091E80011
:101D100085FD06C08091E8008E778093E800F3CFC0
:101D200088818093F1000150104011F02196EECF90
:101D30008091E8008E778093E800DF91CF911F912A
:101D40000F910895CF93DF93EC0148E050E0BC0180
:101D500081E0BEDF88E0FE01ADE2B2E001900D92CD
:101D60008A95E1F7DF91CF91089546E050E0BC01FC
:101D700082E0AECF43E050E0BC0182E0A9CF909179
:101D80009B0592FB222720F9281771F080FB92F91E
:101D900090939B0560919A0570919B0584E090E07B
:101DA0000E947B3282E044CB08950F93CF93DF9360
:101DB000CEE8D5E0488159816A817B8188E090E056
:101DC0000E9473326C81262F60E070E0CB01622F9D
:101DD00083E20E946132DF91CF910F91089585E0F7
:101DE00080938E0510928F058FEF8093900588E782
:101DF00080939105109292058EE895E0D6CF809160
:101E00009205833018F48F5F809392058EE895E0F9
:101E1000CCCF80919205811519F081508093920565
:101E20008EE895E0C2CFA0E0B0E0E9E1FFE00C94DD
:101E30001B2F082FE62E142FD22E80918E0580FFA7
:101E400024C0282F26952695E22FF0E0E15BFE4F77
:101E5000908190938C058C7F8430E1F4842F4937F6
:101E600008F088E7602F7E2D8ED9962F672F482F98
:101E7000892F37DA00938F05E09290051093910532
:101E8000D11419F08EE895E090DFCDB7DEB7E7E02A
:101E90000C94372F923019F400918F05EBCF9530C9
:101EA000D9F39B3039F785EFF82EF20EEF2DE6953A
:101EB000F0E0E854F84FD491C0E060913A01C617C1
:101EC00010F0F5D9D7CFCD9FC001112470E00E944A
:101ED000FC2E862F800FF0FE02C0802F861B2091E3
:101EE00038012C0F3327331F412F193708F048E7EB
:101EF0006E2DCBD9CF5FE1CFEEE8F5E0818121E017
:101F000043816281865F8FCFEEE8F5E0818121E039
:101F1000438162818A5087CFEEE8F5E0628121E15A
:101F2000620F08F46FEF21E0438181817CCFEEE8FE
:101F3000F5E0628121E1621B08F460E021E0438169
:101F4000818171CFEEE8F5E0438121E1420F08F491
:101F50004FEF21E06281818166CFEEE8F5E04381B9
:101F600021E1421B08F440E021E0628181815BCFE6
:101F7000CF936EE972E085E895E01EDCC82F8115ED
:101F800019F085E895E091DB9091860586E0E5E81B
:101F9000F5E0282F11922A95E9F790938605E5E858
:101FA000F5E0AEE9B2E001900D928A95E1F781E0AB
:101FB000911101C080E08C2BCF91089580919605FE
:101FC00090919C05892B90919705911589F0892B0B
:101FD00090E02CE132E0F90140812F5F3F4F411149
:101FE0009F5F42E022323407B1F7911110929705BA
:101FF00080931A0248E050E06DEF74E08AE192E0CD
:102000000E948A2F892BB9F088E0EAE1F2E0ADEF77
:10201000B4E001900D928A95E1F7E091FB04F09114
:10202000FC04309741F00280F381E02D309719F0E5
:102030008AE192E009950895811531F09091960515
:10204000982B90939605BACF0895811519F00E94A8
:102050001307B4CF08958F929F92AF92BF92CF9201
:10206000DF92EF92FF920F9388E090E00E94573248
:102070004B015C0160938E0590928F0580939005D3
:10208000B0929105109292051092930510929405CA
:102090001092950583E290E00E944F329401A501D1
:1020A00080928E0530938F05A092900550939105F4
:1020B00080939205109293051092940510929505C5
:1020C0000F91FF90EF90DF90CF90BF90AF909F90D7
:1020D0008F900895ADE2B0E0E0E7F0E10C94102FAE
:1020E0008091B204833009F0C8C2409185055091B7
:1020F000860560918705709188058091890590918A
:102100008A0565DD20938505309386054093870514
:10211000509388056093890570938A0586E0E5E809
:10212000F5E0DE01179601900D928A95E1F7009196
:102130008705019510918805119509871A8786E012
:10214000FE013796DE011D9601900D928A95E1F70A
:1021500086E0FE013D969E012F5F3F4FD901019021
:102160000D928A95E1F786E0F901A5E8B5E00190C6
:102170000D928A95E1F786E0E5E8F5E0DE01179635
:1021800001900D928A95E1F786E0FE013796DE0117
:10219000539601900D928A95E1F786E0FE017396C1
:1021A000D90101900D928A95E1F786E0F901A5E841
:1021B000B5E001900D928A95E1F786E0E5E8F5E05B
:1021C000DE015F9601900D928A95E1F730908905C6
:1021D00020908A05E0911A06F0E0EE0FFF1FE0590B
:1021E000FE4F6081718180E090E00E94972E25E390
:1021F0003AEF4EE85CE30E94D92D4B015C01602F61
:10220000000F770B872F972F0E94992E2B013C01EF
:10221000B401C5010E94C72C6B017C01612F110F15
:10222000770B872F972F0E94992E6DA37EA38FA3E4
:1022300098A7B401C50190580E94252D69A77AA7D7
:102240008BA79CA79601A701B201C3010E94D92DBB
:102250004B015C0129A53AA54BA55CA56DA17EA10A
:102260008FA198A50E94D92D9B01AC01B401C50195
:102270000E94612E2AE939E949E95EE30E94D92DDD
:102280004B015C0123E333E343E35FE36091990295
:1022900070919A0280919B0290919C020E94D92D8C
:1022A0009B01AC01B401C5010E94622E4B015C018F
:1022B00029A53AA54BA55CA5B201C3010E94D92D61
:1022C0002B013C012DA13EA14FA158A5B601C7018C
:1022D0000E94D92D9B01AC01B201C3010E94622E64
:1022E0002AE939E949E95EE30E94D92D6B017C01B5
:1022F00023E333E343E35FE3609195027091960239
:1023000080919702909198020E94D92D9B01AC0177
:10231000B601C7010E94622E6B017C018092990276
:1023200090929A02A0929B02B0929C0260939502B6
:10233000D092960280939702F092980220E030E0CB
:1023400040EC5FE3B401C5010E94D92D4B015C0153
:1023500020E030E040EC5FE3B601C7010E94D92DD8
:102360006B017C0180911C069E012F5F3F4F29A7C6
:102370003DA7811509F4FBC0B401C5010E94662E7A
:102380008B0177FF04C000271127061B170BB6012E
:10239000C7010E94662EAB01CB0177FF04C08827DE
:1023A0009927841B950B801791070CF0CBC0E12C6B
:1023B000F12C67016091930270919402872F880F2E
:1023C000880B982F0E94992E6DA37EA38FA398A7A8
:1023D0006091910270919202872F880F880B982F3D
:1023E0000E94992E2B013C0180911B06811509F456
:1023F000ADC02DA13EA14FA158A5B401C5010E94B9
:10240000622E4B015C019601A701B201C3010E943B
:10241000612E0E94662E6B017C01B401C5010E94F1
:10242000662EAB016093930250939402C092910286
:10243000D0929202E0911906F0E0EE0FFF1FEC59E6
:10244000FE4FE0819A010E2E02C0359527950A9421
:10245000E2F7C6010E2E02C0959587950A94E2F721
:10246000082F211581F0220E322F330F330B0E2E41
:1024700002C0220F331F0A94E2F7421B530B409312
:10248000930250939402011509F4F5C0380E982F69
:10249000990F990B02C0880F991FEA95E2F7C81AA5
:1024A000D90AC0929102D092920200E010E009A3F2
:1024B0001AA33BA22CA286E0FE017F96DE011796AE
:1024C00001900D928A95E1F786E0FE013796A9A565
:1024D000BDA501900D928A95E1F786E0E9A5FDA5DD
:1024E000DE01599601900D928A95E1F786E0FE0192
:1024F0007996DE01179601900D928A95E1F786E0B4
:10250000FE013796A5E8B5E001900D928A95E1F7B6
:1025100086E0EFE7F5E0DE01179601900D928A95CF
:10252000E1F7809186059885892B8093860520DDCB
:10253000811102C080919D0210929D02AD96E2E150
:102540000C942C2FA12CB12C450134CF9401A50162
:102550006DA17EA18FA198A50E94612E4B015C0107
:102560009201A301B601C7010E94622E52CF20E062
:1025700030E040E05FE3B401C5010E94D92D209115
:102580008D0230918E0240918F02509190020E94F4
:10259000622E4B015C0160938D0290928E028093BB
:1025A0008F02B092900220E030E040E05FE3B6019D
:1025B000C7010E94D92D2091890230918A02409151
:1025C0008B0250918C020E94622E6B017C01609301
:1025D0008902D0928A0280938B02F0928C02B4011D
:1025E000C5019F7720E030E040E85FE30E94D42EF1
:1025F00000E087FD1AC0B401C5010E94662E062FB7
:10260000762F770F770B872F972F0E94992E9B019C
:10261000AC01B401C5010E94612E60938D027093DC
:102620008E0280938F029093900220E030E040E889
:102630005FE3B601C7019F770E94D42E87FD1BC0C0
:10264000B601C7010E94662E162F762F770F770BE3
:10265000872F972F0E94992E9B01AC01B601C701CD
:102660000E94612E6093890270938A0280938B028C
:1026700090938C021CCF10E01ACF80E05FCFAB01AB
:1026800024E630E0BC0188E70E94332C9C0181E005
:10269000232B09F080E008958091AA048115E9F0C8
:1026A000BBD8DC01CB01805A9541AF4FBF4F80931F
:1026B000AB049093AC04A093AD04B093AE048091AE
:1026C000A90481110AC062E070E086E792E0D7DFDA
:1026D000811519F081E08093A90408958091AA04DE
:1026E000811561F08091A904811541F062E070E0EC
:1026F00084E792E0C4DF81111092A9040895CF937A
:10270000DF93C091A602D091A7028A30C1F4409114
:10271000AF04CE01885A9240642F70E00E94FC2ED4
:10272000481B842F66E00E94472FC82FC11103C0A9
:10273000DF91CF910895C15080E2E1DFF7CF8D3076
:10274000C1F4C85AD2404091AF04642F70E0CE016A
:102750000E94FC2E481BCE01840F911D923010F078
:1027600080E090E088559D4F8093A6029093A70249
:10277000DFCF96E0FE01A2E8B2E001900D929A95BB
:10278000E1F7803E08F455C086E019928A95E9F792
:10279000C091A602D091A70246E050E0BE0182E8B7
:1027A00092E00E948A2F9E01285A3240892B41F1E3
:1027B000C90145E0969587954A95E1F741E050E0DB
:1027C000BA0102C0660F771F8A95E2F7CB016091CC
:1027D000A4027091A502862B972BB9016B5F7F4FE6
:1027E000E5E076956795EA95E1F702C0440F551F3D
:1027F0006A95E2F7842B952B8093A4029093A5020F
:102800002A5F3F4F4091AF04642F70E0C9010E94DE
:10281000FC2E481B463010F4240F311D323010F0CE
:1028200020E030E028553D4F2093A6023093A702C8
:102830007FCF96E0899FB001112468587D4F46E014
:1028400050E0CE010E94742FA3CFCF93DF93EC0111
:10285000FE018491811103C0DF91CF9108954FDF74
:102860002196F6CF0F931F93CF93DF93EC01FC01DA
:1028700001900020E9F78F0101501109C017D1071D
:1028800028F0DF91CF911F910F910895899137DF43
:10289000F5CFACE0B0E0EFE4F4E10C94122F8091BE
:1028A000AA04811509F476C188EA92E08093A60211
:1028B0009093A70284E392E0C8DF82E392E0C5DF51
:1028C000E0911906F0E0EE0FFF1FEC59FE4F10816A
:1028D0000181E0911A06F0E0EE0FFF1FE059FE4F74
:1028E000B080A180E0911806F0E0EE0FFF1FE25FDC
:1028F000FD4F81818F9380818F938BE391E09F9334
:102900008F931F9285E08F936E018FEFC81AD80ABC
:102910003601DF92CF920E94972F0F931F938FE380
:1029200091E09F938F931F9283E08F937E018AE0C3
:10293000E80EF11C47019F92EF920E94972FAF92F1
:10294000BF9283E491E09F938F931F9284E08F93D3
:102950008E010A5F1F4F5801BF920F930E94972F5D
:102960002091160630911706809114069091150655
:10297000822B932B0E9443062DB73EB7285E3F4F14
:102980000FB6F8943EBF0FBE2DBF873008F018C1B8
:10299000E82FF0E0E056FD4C0C94662F8CE292E0BC
:1029A00054DF80E092E051DF80911C06811509F42C
:1029B0000AC18EEF91E049DF8AEF91E046DFC60160
:1029C00051DF88EF91E041DFC7014CDF86EF91E0F6
:1029D0003CDFC80147DF8091A4029091A502892BBA
:1029E00009F4BEC08091AA04811509F4B9C0809190
:1029F000A8048111B5C050DE8091A4029091A50277
:102A0000009709F4ADC080FBEE24E0F8F12C10E053
:102A100080FD10C041E050E0212F2F5F122F7A017E
:102A200002C0EE0CFF1C2A95E2F7970128233923F8
:102A3000232B91F38091B00480FFC8C0912F990F90
:102A4000990F990F392F395F80E023E090930201AD
:102A500080930501309303012093060124E630E0C2
:102A600047E050E060E071E088E70E94E92B892BA5
:102A700009F076C080E2189FA00111248091B00473
:102A800080FFB6C0E2E6F2E080E211928A95E9F7B3
:102A90003BE4632E31E0732E87E491E04C016FE458
:102AA00071E0D301ED913D01D4010D914D01040F71
:102AB000152F111DF0E0EE59FD4F80E090E027E06A
:102AC000A22EA81ABB24B394082E01C0BB0C0A94F2
:102AD000EAF7980128553D4F2901D12CD2012D91BB
:102AE0002D012B21B22F2A2D2D19277030E0AB2F6D
:102AF000022E01C0AA0F0A94EAF7CA2E3195219539
:102B0000310927703327AB2F01C0A6952A95EAF724
:102B1000CA2A2081C22AC082D3942D2D2830F1F6F2
:102B2000019631968830910551F66615770509F0C2
:102B3000B8CF04E610E020E242E652E060E488E725
:102B40000E94792C892B61F4E094F0948091A40286
:102B50009091A502E822F922E092A402F092A50247
:102B60008091A9048115B1F00E940C0C0091AB0476
:102B70001091AC042091AD043091AE04DC01CB0186
:102B8000801B910BA20BB30B8F3F9F4FAF4FBF47E3
:102B900008F4A4DD2C96E0E10C942E2F86E292E05E
:102BA000FFCE80E292E0FCCE8AE192E0F9CE84E1B1
:102BB00092E0F6CE8EE092E0F3CE88E092E0F0CEA6
:102BC00082E092E0EDCE8CEF91E0F5CE20E2129F14
:102BD000C0011124880F492F441F550B5195242FF4
:102BE000912F9295990F9076392F315E842F2ECFA9
:102BF00048555D4F04E610E020E230E09FCF1F9281
:102C00001FB61F9211248F939F93AF93BF93809110
:102C1000B304811113C08091350290913602A091C6
:102C20003702B09138024196A11DB11D8093350243
:102C300090933602A0933702B0933802BF91AF91C0
:102C40009F918F911F901FBE1F9018952FB7F894DA
:102C50008091350290913602A0913702B0913802EE
:102C60002FBF0895CF93DF93EC01F0DF8C1B9D0BFA
:102C7000DF91CF910895A0E0B0E0E1E4F6E10C949B
:102C8000102F4FEE54E002E911E0D12C7D01E394C6
:102C9000FA01B190AF01DF011E92F80181918F011D
:102CA000E82FE295EF70F0E021A18F70B70101C02D
:102CB000660F8A95EAF7462E262B21A322A1C62E5F
:102CC000C0942C2122A320EA2A95F1F72CE9222E88
:102CD00021E0322E310160E070E0E301A9903E0175
:102CE0002A2D22952F70205E30E0E90128819C90EA
:102CF0008A2D8F7002C0359527958A95E2F720FDC1
:102D000091C02E2D062E01C0220F0A94EAF7292920
:102D10002C936F5F7F4F66307105F9F691A1C92240
:102D2000C1A292A1842D892B82A381E09C919B1149
:102D300001C080E0D82A84E0443F580709F0A8CFBA
:102D400020E030E07901E39447E951E0F10181911D
:102D50001F01E82FE295EF70F0E061A18F70D701BD
:102D600002C0AA0FBB1F8A95E2F72D016A2B61A34F
:102D700072A16A2F6095762372A370EA7A95F1F7B3
:102D8000AE2D022E01C0AA0F0A94EAF78A2E809473
:102D90007A2FA2E9B1E004EF14E0C12CE801999088
:102DA0008E017D90A72CA2948FE0A82280E2A80E2D
:102DB000B12CE501A880872D8F7002C0B594A7942F
:102DC0008A95E2F7A0FC30C0B92CB72A380181E01F
:102DD000681A7108E301B882AA24A394B91001C04B
:102DE000A12CCA284A175B07C9F691A1692361A3E0
:102DF00092A1842D892B82A3DC282F5F3F4F2630A0
:102E0000310509F0A3CFD11491F081E08093E4045F
:102E10001DDF8093E2049093E304CDB7DEB7E2E1D7
:102E20000C942C2F20E073CFB92CB820CFCF8091F9
:102E3000E404811591F3C091E204D091E30406DF2C
:102E40008C1B9D0B059748F34AE050E06FEE74E051
:102E500085EE94E00E948A2F892B49F08AE0EFEEFC
:102E6000F4E0A5EEB4E001900D928A95E1F710929E
:102E7000E404D3CF90918E0590FF2EC0811569F1A7
:102E8000853168F58F73880F880F90918E05937048
:102E9000892B80938E05611521F08EE895E00E94C4
:102EA000D50E60918E056695669570E04BE050E01A
:102EB00087E091E00E947D2F892B99F010928D057B
:102EC00081E08093CE0420E04091910560919005CF
:102ED00080918F050C94130F089581E0D4CF84E185
:102EE000D2CF81E080938D05B1DE8093CB049093A7
:102EF000CC04E6CF80918E05869586958F5F8531CF
:102F000008F081E061E0B6CF80918E0586958695C8
:102F1000815009F484E161E0ADCF98DE9C0190918D
:102F2000810580918205982B21F02093DF04309356
:102F3000E0049091830580918405982B21F02093E3
:102F4000DD043093DE048FE795E00C94550B61159A
:102F500009F459C0E82FED5CE33150F4F0E0E95595
:102F6000FD4C0C94662F0E94010B81958093820585
:102F7000D4CF0E94010BFACF0E94010B8195809360
:102F80008105F6CF0E94010BFACF0E94210B80939E
:102F90008305EECF0E94210B8195F9CF0E94210B72
:102FA000819580938405E4CF0E94210BFACF482FAE
:102FB000415D550B21E001C0220F4A95EAF790913F
:102FC0008005922B9093800540918605815D21E0DC
:102FD00001C0220F8A95EAF7822F611509F48AC091
:102FE000422B409386050C94B80F80917E0581603A
:102FF00080937E05BDCF80917E058260F9CF809160
:103000007E058460F5CF90918105482F50E08D3C7E
:1030100059F42091820527FF0DC01092820591116D
:103020000BC010927D0508C08E3CA9F4209182054A
:1030300012169CF39115A9F09091830520918405B7
:10304000922B11F410927C05415D510948305105D5
:1030500008F4BACF8DCF8F3C39F497FFEBCF1092A5
:10306000810590918205DBCF803D19F41916BCF3E0
:10307000E1CF20918305893D29F41216DCF61092E8
:103080008305D8CF8A3D19F427FFD4CFF8CF2091FC
:1030900084058B3D29F427FFCDCF10928405CACF3C
:1030A0008C3D19F41216CCF3C5CF282F215D2830A2
:1030B00070F4FA01E15D21E001C0220FEA95EAF720
:1030C000209530918005232320938005B3CF209154
:1030D0007E052E7F8D3D59F020917E052D7F8E3D02
:1030E00031F08F3D09F0A6CF20917E052B7F2093F4
:1030F0007E05A0CF8095482374CFCF93C82F81152C
:10310000A9F08450813AA0F4ECE1F2E082E292E08E
:103110002081C217E9F131968E179F07C9F76C2FEE
:103120008AE192E00E94B50B0E94DE0FCF910895D4
:103130008C2F805E883060F4C77021E001C0220FC0
:10314000CA95EAF780919605822B80939605ECCF7D
:103150008C2F855A833030F48C2F8452990B0E9427
:10316000670BE4CFEC2FE85AEB3150F4F0E0EE0FB0
:10317000FF1FE852FE4F808191810E948E0BD6CFB7
:103180008C2F8D5C833190F661E08C2FE0DECECF0A
:103190006C2F8AE192E00E94D00B0E94DE0FBFCF1D
:1031A000811581F1982F9450913A38F4682F8AE173
:1031B00092E00E94D00B0C94DE0F982F905E983016
:1031C00058F4982F81E091FD84E090FD880F92FDE6
:1031D00082950E941307EFCF982F955A933020F4D1
:1031E00080E090E00C94670B982F985A9B3120F464
:1031F00080E090E00C948E0B982F9D5C933110F43E
:1032000060E0A5CE089510929605ECE1F2E086E02C
:1032100011928A95E9F780E090E00E94670B80E0C8
:1032200090E00E948E0B10929C050E94DE0FEFE74B
:10323000F5E086E011928A95E9F710927D051092EB
:103240007C0510927E0569CEDEDF8FEF94E32CE0E3
:10325000815090402040E1F700C0000088E19AE0F2
:103260000FB6F894A895809360000FBE909360000D
:10327000FFCFA0E0B0E0EFE3F9E10C941A2F7C015E
:10328000FC018481811509F4D7C361E0C7010E9464
:103290006308EC01C1158EE7D807C1F5F7018581F8
:1032A000811509F18091180690E0019665E070E0C3
:1032B0000E94FC2E80931806409118065091190622
:1032C00060911A0670911B068FE090E00E947332A5
:1032D000E0911806F0E0EE0FFF1FE25FFD4F8081E6
:1032E00091810E94C00DF7019581911509F4B5C037
:1032F000809196058272FE01E052F847EB30F105AD
:1033000008F0ABC0E654FD4C0C94662FC1308EE73C
:10331000D807D9F4F7018581811529F38091190621
:1033200090E0019666E070E00E94FC2E8093190602
:10333000409118065091190660911A0670911B066B
:103340008FE090E00E947332CECFC2308EE7D80774
:1033500009F032C3F7018581811529F280911A069F
:1033600090E0019669E070E00E94FC2E80931A06BE
:10337000DFCFF7018581811509F4B5CF80911A0659
:1033800090E00896EFCFF7018581811509F4ABCF66
:1033900080911B06819580931B06CACFF70185811A
:1033A000811509F4A0CF80911C0691E089278093B4
:1033B0001C0699CF80918B0565E3811101C069E2FC
:1033C0008AE192E00E94D00B26C380918E0580FF97
:1033D0000CC08E7F80938E058EE895E00E94D50EFE
:1033E00010928D050E94570918C3816080938E0545
:1033F00061E0869586953EDD10C3811521F084DD60
:103400000CC38115E1F376DD08C3811529F00E9414
:10341000840F03C38115D9F30E947C0FFEC281156E
:1034200029F00E94970FF9C28115D9F30E948C0FE1
:10343000F4C2811529F00E94AD0FEFC28115D9F3B6
:103440000E94A20FEAC2811529F00E94090FE5C26D
:103450008115D9F30E94FF0EE0C29E01205E324525
:1034600020323105A0F4911125C0CF7181E090E0A8
:1034700002C0880F991FCA95E2F7EC01682F83E01C
:1034800090E00E946132CE010E946206C6C2911590
:1034900009F446C0CB358CE7D807C9F1CC358CE7A9
:1034A000D80751F1CA358CE7D80779F1C1308CE7DC
:1034B000D807A9F1C3308CE7D80759F1C115DC470B
:1034C00079F5A1DE8FEF94E32CE08150904020400D
:1034D000E1F700C0000087E797E78093000890932A
:1034E000010888E19AE00FB6F894A89580936000EF
:1034F0000FBE90936000FFCF80919B05002482FF58
:103500000394802D0E94BF0E88C281E0FBCF80E033
:10351000F9CF6FEF7FEF80E090E00E947B3294DE86
:10352000F7012781308521153105D1F1C9010E94AC
:103530001B07D82FC92FF701D580068102950F7080
:1035400080919905877001F1CD2CD114F1F0892F6C
:10355000807F803461F08D2F805E8830A8F0892FC5
:10356000807E803221F4D23078F0011569F08091AC
:103570009B0582FF09C082E00E94180A809199058C
:103580008770CC24C3948111C12CEC2FE295EF708D
:10359000C03C08F078C0F0E0EB53FD4C0C94662F73
:1035A00000811181911569F0C8010E942F08C82F70
:1035B000682FC8010E94BA06B8018C2F0E94F40738
:1035C000B6CFC8010E94D306C82FF6CF1C2F1F709C
:1035D000C03110F01295107FD114B9F0111569F0B7
:1035E0008D2F805E883010F0D11109C08091960532
:1035F000812B809396050E94DE0F8D2F3EC0809117
:103600009C05812B80939C05F6CF8D2FC9DD11156C
:10361000D1F18D2F805E883010F0D11104C0812F40
:103620000E94130706C0109580919C05812380930A
:103630009C050E94DE0F27C01C2F1F70C07FC03268
:1036400011F01295107FD13040F009F461C0D1140F
:1036500009F46BC0011599F1D0CF80919B0582FDD3
:103660002AC0D11461F0111539F080919605812B93
:10367000809396050E94DE0F80E03FDD04C080E06D
:103680008FDD1111CCCFC11409F4B6C0809199051A
:1036900080FDB2C0F70115828695869586950E94B9
:1036A000FA09C701E6DD809199058695869586958C
:1036B0000E94080AA1C0D11489F0013020F4812FA2
:1036C0000E941C10E0CFF9F680919705912F982366
:1036D0001917C9F2812B80939705D5CF0111D3CF4C
:1036E000812F0E94251090919705812F892329F021
:1036F000812F809589238093970580919805912F3C
:10370000982309F4C0CF1095182310939805BBCFC8
:10371000D11421F0063008F0B6CFD1CF053008F033
:10372000B2CF812F0E942510AECF0115D1F3D9332E
:1037300049F48FEF97EE23E0815090402040E1F76D
:1037400000C000008D2F2CDD9ECF8C2F8695869596
:103750008370813060F009F096CF8D2F9C2F93708D
:10376000D11002C080E090E00E948E0B8CCF8D2F94
:103770009C2F9370D11002C080E090E00E94670BF4
:1037800082CF6D2D8D2FE3DB7ECF8C2F837009F0E0
:1037900046C0D1102FC04D2F429546954770440F1B
:1037A000440F2D2F2F7030E0042E02C0220F331F44
:1037B0000A94E2F780E090E0D4FF09C08FE090E047
:1037C00002C0880F991F4A95E2F780959095C6959B
:1037D000C695C370C230D1F0C330A9F04091140631
:1037E00050911506C13069F0822B932B84239523C9
:1037F0000E9462060E94460B60E0C7010E946308B7
:103800001BC1242B352B822B932BF2CF822B932B96
:10381000209114063091150682279327E9CFD11401
:1038200091F1C0FFE7CF4D2F429546954770440F69
:10383000440F2D2F2F7030E0042E02C0220F331FB3
:103840000A94E2F780E090E0D4FF09C08FE090E0B6
:1038500002C0880F991F4A95E2F780959095C6950A
:10386000C695C370C230B9F0C33091F040911606CE
:1038700050911706C13051F0822B932B842395234E
:103880000E94F409B7CF823070F6B4CF242B352BC9
:10389000822B932BF5CF822B932B20911606309100
:1038A000170682279327ECCFCF70D11439F08C2FD5
:1038B0000E94FA098D2F0E941C109CCF8D2F0E9410
:1038C00025108C2F0E94080A95CFD23F91F168F401
:1038D000D03FC1F0D13F89F0D11409F45AC001158D
:1038E00009F454C08D2F09DC85CFD33F49F1D43F73
:1038F00099F790919B0592FD31C08C2F8F71D11457
:1039000009F31BC0D11499F0053008F073CFCF71C3
:1039100081E090E002C0880F991FCA95E2F7EC01A0
:1039200080911606909117068C279D27A9CF063007
:10393000ECCF8C2F8F71D110C5CF0E94FA095ACFCE
:1039400080E090E0D11409F49BCFCF7181E090E04A
:1039500002C0880F991FCA95E2F792CFD11461F087
:103960008C2F8F7192FFE9CF982F990F990F990F94
:10397000936090939905E1CF81E00E94180A02308C
:1039800008F438CF82E00E94180A34CF8C2F8F7150
:10399000D4CF011571F0D93349F48FEF97EE23E0BE
:1039A000815090402040E1F700C000008D2FF8DBEF
:1039B00021CF8C2F8F7186CFC3308EE7D80709F4C3
:1039C000D8CCC6308EE7D80709F4DDCCC5308EE7F9
:1039D000D80709F4E3CCC4308EE7D80709F4E3CC68
:1039E000C6318CE7D80709F07ECCF70185818115B7
:1039F00009F4E0CC809196058A7A91E0811101C0AA
:103A000090E090938B0565E3811101C069E28AE142
:103A100092E00E94B50B0E94DE0F8091990587709D
:103A200059F0F7018581811539F080919B0582FF5E
:103A300003C082E00E94180ACDB7DEB7E8E00C941C
:103A4000362F80915505803170F480915405811591
:103A500051F0E09106052091050530915005409107
:103A60004F052E1301C00895BF0189E0E89FF001C2
:103A70001124DF01A95FBA4F14968C911497811518
:103A800051F111968C911197831325C08C91841359
:103A900022C015968C91159781111DC012968D919B
:103AA0009D91A0915105B09152058A1B9B0B883CBA
:103AB000910588F4809155058F708061809355053C
:103AC000E35FFA4F80818F70806180838FE495E09F
:103AD000D0DB0C9409076F5F7F4FFB01E770C1CF0C
:103AE000AFE0B0E0E6E7FDE10C94152F8C0186E035
:103AF000F801DE011A9601900D928A95E1F7F8011E
:103B0000F580C4808FE4882E85E0982E7090530550
:103B100071101FC0C114D1F0F11409F442C1C801E1
:103B20000E949008811509F43CC189E0F801D40194
:103B300001900D928A95E1F78C2D813031F48091BE
:103B40004F05909150050E9486087BDFFF24F39477
:103B50005CC0E080A280B380D09054058091510574
:103B6000909152059501281B390BD11409F4E2C03C
:103B7000283C310508F0B0C0C11441F390915005C4
:103B8000C18080915505803108F05FC0C9121CC00A
:103B900090914F059E1118C04091560550915705C0
:103BA000278130854217530779F4F11048C08F7090
:103BB0008061809355058FE495E05BDB809155052E
:103BC000F8018683F12C21C0F11039C040E06C2D42
:103BD0008E2D0E94EA0640E06C2D8E2D0E94EA0692
:103BE000F82E8111EFCF8A859B850E948608292FA8
:103BF00022952F70903470F49F70223098F09115B8
:103C0000A9F0F8019681903188F48F2D2F96EDE080
:103C10000C94312F2A5F2F70223060F0C80129DB0D
:103C2000FD2CF3CF911511F0811579F3805E88306A
:103C300060F3F4CF803F48F3815F8330F9CF809108
:103C40005505816080935505BDCFC9121BC0909169
:103C50004F059E1117C04091560550915705278179
:103C600030854217530771F4F1100CC08683C801E8
:103C700000DB89E0F801AFE4B5E001900D928A9590
:103C8000E1F764CFC8010E949008811509F489C04A
:103C9000F11409F486C0809155058032A0F020917E
:103CA0004F053091500529833A83AB82BC827D82D7
:103CB0001E828F838091560590915705888799873A
:103CC000CE010196D6DA89E0F801AFE4B5E00190C3
:103CD0000D928A95E1F739CF80915505803148F4EE
:103CE0008FE495E0C6DAF40189E011928A95E9F74C
:103CF00069CFC11409F42ACF20915005918129136D
:103D0000C1CF90914F059E11BDCF40915605509166
:103D10005705278130854217530709F0B3CFF110BB
:103D2000B1CF8683C801A5DAF40189E011928A95A2
:103D3000E9F70CCF283C3105B0F6C11409F406CFE1
:103D4000F11479F1909150058181981320C08091F0
:103D50004F058E111CC02091560530915705878163
:103D600090852817390799F49091550590FD81CFDA
:103D7000903108F47ECF892F9683907F903F09F48D
:103D800076CF982F907F905F8F70892B6FCFC8016F
:103D90000E949008811197CF809155058160809392
:103DA0005505C80166DAD2CEA2E1B0E0EAEDFEE147
:103DB0000C941E2F0A871B872C873D874E875F87B1
:103DC000688B798B8A8BCE010A968ADE81112EC090
:103DD000209105053091060589E0AE01465F5F4FF1
:103DE000FA0149505109DA0101900D928A95E1F7E3
:103DF0008E858115D9F0822F90E08395877090E0B1
:103E0000AC0134171506E1F099E0929FD00111241E
:103E1000A95FBA4F9E012F5F3F4FF90101900D92AC
:103E20009A95E1F7409305050E94090780910605E0
:103E300090910505891310C06296E4E00C943A2F26
:103E4000E2D91092050510920605EFE4F5E089E04D
:103E500011928A95E9F7EACF29E0829FC0011124E7
:103E6000895F9A4F3DDE811539F380910605909167
:103E700007050196877080930605D8CFA9E0B0E0CA
:103E8000E4E4FFE10C941C2F7C01FC01828193810E
:103E9000892B91F0FE01319687E011928A95E9F71E
:103EA0000E9426169C01F7017281838109811A8183
:103EB00044E05E816F8178DFF70115822996E6E0A4
:103EC0000C94382FEF92FF920F931F93CF93DF93B1
:103ED00080911106E0913D02CDE0811130C0CDB757
:103EE000DEB7E6E00C94382FDE2FDF5FD0933D0283
:103EF000EE2EF12CCE9FF0011124E755FA4F84816C
:103F00008115E1F087819085892B21F48185928547
:103F1000019651F4008111812281338144815581C0
:103F200066817781808540DFCE9DF001CF9DF00DC9
:103F30001124E755FA4F148210929C05ED2F8091C1
:103F40001106E81788F21092110610923D02C7CFB1
:103F50004F925F927F928F929F92AF92BF92CF9239
:103F6000DF92EF92FF920F931F93CF93DF93C09155
:103F7000A80591E0E92EF12C8091A7058C1313C0C0
:103F8000A1DF0E94A50ADF91CF911F910F91FF90B1
:103F9000EF90DF90CF90BF90AF909F908F907F90E9
:103FA0005F904F900895D0E0FE01EE0FFF1FE356A3
:103FB000FA4F00811181A0E0B0E00330110540F418
:103FC00087E0809FD001819FB00D1124A05EBE4F7D
:103FD00014968C911497811159C07090110649EA7A
:103FE00055E020E030E0A12C271508F04CC0FA0184
:103FF00043845484CD90DD90129799249A94892C0F
:10400000B12C8B2D90E0F601EB0DF11DEB0DF11DA8
:10401000659175914616570609F0C401672B19F092
:10402000B3944C01EECF8F3F9807A9F1B70101C0BF
:10403000660F8A95EAF7A62AC7010B2C02C0880FE3
:10404000991F0A94E2F70197A816190611F512961E
:104050008D919D914DE0429FF001439FF00D112401
:10406000E755FA4F8783908784E08483108211821A
:104070000187128781E011968C9315978B2D8130E3
:1040800011F4CD01FBDEC8010E94C20AC395C370C2
:1040900073CFFA0114822F5F3F4F435F5F4FA4CF6E
:1040A0001092120610921306109235018091A70506
:1040B0008093A8050E94A50A05CFAEE1B0E0E3E633
:1040C000F0E20C94102F4B8B5C8B6D8B7E8B8F8B67
:1040D000792E988F911110929C05188A198A1A8A44
:1040E00086E0FE017396DE011A9601900D928A9584
:1040F000E1F76F886114E1F06E867F8661E0CE01A2
:104100000A960E94630861E0CE010A960E94630845
:1041100061E0CE010A960E9463086C0180E5C81632
:104120008CE7D80689F4711421F181E08093350180
:104130006E867F860A851B852C853D85A30168894F
:1041400079898A8931DEC3C081E5C8168CE7D80633
:1041500021F4711471F0A4DFEBCF82E5C8168CE76F
:10416000D80639F4711429F0809135018111F3CF0B
:10417000DCCF00E211E0412CA12CB12C450183944D
:10418000F801208131816FEF80E09FEFE82EF12C64
:10419000F901E80FF11DE80FF11D45915591C41685
:1041A000D50611F0E62EF92E452B21F08F5F6E2DEE
:1041B0009F2DECCF9FEFE916FE0409F448C1F801EA
:1041C0004481509035014111512CF8013580968180
:1041D000711409F403C1511409F400C1311014C061
:1041E00021E00E2C01C0220F0A94EAF7922B96834D
:1041F0002091A5053091A6052233310528F422E34C
:104200002093A5051092A605940102C0220F331F2A
:104210008A95E2F7C9010197F80126812817190646
:1042200009F0C3C0E0901206F0901306E114F10407
:1042300009F451C00E9426168E199F09C39708F4ED
:104240004AC081E0F8018483482A8FEFA81AB80A8F
:10425000095F1F4F83E0A816B10409F091CF7114D4
:1042600009F4F7C0411409F4F4C00E9426168093A3
:1042700012069093130680911106883040F5982F0E
:104280009F5F9093110699E0FE013A969E012F5F81
:104290003F4FD90101900D929A95E1F76D827E8290
:1042A0002DE0829FC001112487559A4F29E0AE016D
:1042B0004F5F5F4FFA01DC0101900D922A95E1F703
:1042C0002FEF3FEFFC0121873287C386D4866E969D
:1042D000E2E10C942C2F9091A8058091A705292F3D
:1042E000A0E0B0E037E061E0981709F44DC0492F35
:1042F00050E0998F1A8EFA01EE0FFF1FE356FA4F26
:1043000040815181A0E0B0E04330510538F4349F42
:10431000D001359FB00D1124A05EBE4F4D915D912F
:1043200012974D8F5E8FE12C70E0F12CED8DFE8D9C
:10433000EF0DF11DEF0DF11D259035902114310485
:10434000D9F0F801408151814B8F5C8F70E007C03C
:10435000E1E02416350609F0E0E0EE2A7F5FEB8D00
:10436000FC8DE70FF11DE70FF11D459155914115AA
:10437000510571F7F394DACFE11469F17F15B8F4C0
:10438000F80191E09483D8012093A805A017B10704
:1043900061F090E0FC01EE0FFF1FE356FA4FA082A0
:1043A000B182019683708093A705852D4DCF10971C
:1043B00061F014966C931497A017B10729F3921328
:1043C00004C0A9014395242F2370498D5A8D43952C
:1043D000942F937089CFA0E0B0E0F7CF292F30E081
:1043E00031101FC0B40102C0660F771F8A95E2F733
:1043F000CB0101978217930771F0512CC40102C0C1
:10440000880F991FEA94E2F77C01E094F801868115
:104410008E218683CACF411589F3C5010E94C20A45
:10442000ECCFA9010E2C02C0559547950A94E2F7EE
:10443000C901019782239323892B31F440FF04C0E3
:10444000C8011CDD532CDACF4170542ED7CF80E049
:10445000FBCE9091A8058091A705981731F078DDE3
:10446000842D813009F433CF63CE2CDD10921206F7
:10447000109213060E94A50AF3CFA6E0B0E0E3E491
:10448000F2E20C941E2F0E9426168C018091F904F2
:104490009091FA048017910771F019821A820E9494
:1044A0002616BC0149815A8180E090E006DE009327
:1044B000F9041093FA042696E4E00C943A2FAAE249
:1044C000B0E0E5E6F2E20C941F2F85E292E0FC01F9
:1044D00001962091F100208322E08D329207B9F7F6
:1044E00080912602893009F45AC0C8F4823009F458
:1044F000B7C0833009F486C0813091F18091E80023
:1045000083FFEBC080912502909126029A3008F03B
:10451000E4C0E92FF0E0EF52FD4C0C94662F8A3096
:1045200009F48DC08B3051F780912502813231F72B
:104530008091290290912A02892B01F78091E8004D
:10454000877F8093E8000E94A60C81E0909127026B
:10455000911101C080E0809314010E940319CECF15
:1045600080912502813A51F68091E800877F8093FF
:10457000E8008091290290912A02892B61F060E085
:1045800080E090E070E00E94190C8091E8008B7749
:104590008093E800B3CF68E08DE292E0F3CF8091A2
:1045A0002502813209F0AACF8091290290912A0236
:1045B000029708F0A3CF8091E800877F8093E800FE
:1045C0008091E80082FF19C02091F3008091F200F1
:1045D000922F029731F48091F100813011F08630F2
:1045E00021F48091F100809313018091E8008B7792
:1045F0008093E8000E94A60C81CF8091B5048111C0
:10460000DFCF7CCF80912502813A09F077CF80916E
:10461000290290912A02892B09F070CF8091E8003D
:10462000877F8093E8008091E80080FFFCCF809135
:1046300014018093F1008091E8008E77D9CF8091AA
:104640002502813209F05ACF8091E800877F80935C
:10465000E8000E94A60C80912802809312014ECFA0
:1046600080912502813A09F049CF8091E800877F47
:104670008093E8008091E80080FFFCCF80911201D8
:10468000D8CF803889F0823841F5809129028F7027
:10469000873018F58093E9008091EB0085FB88272F
:1046A00080F91092E90006C08091B404880F9091BF
:1046B0002202892B9091E800977F9093E8008093E5
:1046C000F1001092F1008091E8008E7723C08111F3
:1046D00016C080912702813011F18091E80083FF9C
:1046E0000AC08091E800877F8093E8008091EB000A
:1046F00080628093EB00AA96E3E00C943B2F82301B
:1047000061F780912702811581F01092E900809174
:10471000E800877F8093E8000E94A60CDECF9330EC
:1047200009F080E08093B404F0CF809129028F706B
:10473000282F2150263088F68093E9002091EB0045
:1047400020FFE3CF933031F48091EB0080628093BF
:10475000EB00DBCF9091EB0090619093EB0021E0B8
:1047600001C0220F8A95EAF72093EA001092EA002E
:104770008091EB008860EBCF8111AFCF8091270251
:104780008F77182F8091E3008078812B8093E3004E
:104790008091E800877F8093E8000E94A60C8091BA
:1047A000E80080FFFCCF8091E30080688093E30005
:1047B00083E0111101C082E08093B5048ECF805850
:1047C000823008F08ACF20912702309128022C3DB8
:1047D00083E0380791F583E08A838AE289834FB7C3
:1047E000F894DE01139620E03EE051E2E32FF0E082
:1047F00050935700849120FF03C082958F703F5FD4
:104800008F708A30C0F0895C8D931D922F5F2431A8
:1048100069F74FBF8091E800877F8093E8006AE2E4
:1048200070E0CE0101960E94190C8091E8008B7710
:104830008093E80052CF805DE7CF832F90E08330F4
:10484000910519F160F48130910509F46CC0823052
:10485000910509F042CF8BE3EDE7F1E029C020910B
:10486000290230912A028132910509F453C0823223
:10487000910509F032CF2130310508F45CC009F010
:104880002CCF8BE7EEEBF0E013C0822F90E02130CD
:1048900099F182309105B9F1009709F01ECFE2EF4E
:1048A000F1E0E4918E2FE2EFF1E0009709F415CFEB
:1048B0002091E800277F2093E80020912B0230917F
:1048C0002C028217930708F49C0140E02115310562
:1048D000B1F5411134C08091E80082FDA6CF8091EE
:1048E000B504811509F4A1CF853009F49ECF8091DC
:1048F000E80083FFF0CF99CFE4EEF1E0E4918E2F52
:10490000E4EEF1E0D2CFEAECF1E0E4918E2FEAECB4
:10491000F1E0CBCF2130310550F009F0DECE89E057
:10492000E8EAF1E0C5CF82E1E8EBF1E0C1CF89E050
:10493000EFE8F1E0BDCF84E4E9E3F1E0B9CF8091A5
:10494000B504811509F471CF853009F46ECF8091DB
:10495000E80083FD6ACF8091E80082FDBCCF8091A2
:10496000E80080FFB3CF4091F3008091F200942FD4
:104970002115310519F08830910550F041E0089774
:1049800009F040E08091E8008E778093E8009ECFA8
:1049900044914093F1003196215031090196E8CFBE
:1049A000803809F09ACE8091E800877F8093E800F4
:1049B000809123028093F10086CE81118ECE80916A
:1049C0002702182F823008F088CE8091E800877F78
:1049D0008093E800109323020E94A60C1115A9F001
:1049E00084E08093B50442E061EC81E00E94760CA3
:1049F00042E261EC82E00E94760C8091B504843042
:104A000051F482E08093150168CE8091E30087FD28
:104A1000E7CF81E0E6CF81E0F5CFCDB7DEB7659790
:104A20000FB6F894DEBF0FBECDBF85B7806885BFD7
:104A300085B7806885BF84B7877F84BF0FB6F89439
:104A4000A89580916000886180936000109260005A
:104A50000FBE80E890E00FB6F894809361009093C9
:104A600061000FBE81E08093150180EC98E0809397
:104A70001802909319020E94450D0E94F60C809135
:104A8000E20084608093E20078948091B5048115FF
:104A900091F08091E9001091EC008F7010FB1127CC
:104AA00017F9182B1092E9008091E80083FD07DDCB
:104AB0001F701093E90082E084BD93E095BD9AEFEA
:104AC00097BD80936E00E4EDF4E088E011928A9542
:104AD000E9F781E08093D30460E080E00E947A0AE5
:104AE00061E080E00E947A0A8FE891E00197F1F797
:104AF00000C0000010E08091D304181708F4EAC148
:104B0000E2E9F1E09F0141E0D9018D919D01A82FDB
:104B1000A295AF70B0E091966C918F70042F01C098
:104B2000000F8A95EAF7902F909596239C93119603
:104B30009C91802F892B8C9381E02C39380721F7A9
:104B40002CE931E0A90161E0DA018D91AD01A82FD6
:104B5000A295AF70B0E091961C918F70E62E01C0C7
:104B6000EE0C8A95EAF79E2D909591239C931196D1
:104B70009C918E2D892B8C9381E0423A580721F726
:104B800041E0D9018D919D01A82FA295AF70B0E0B1
:104B900091966C918F70042F01C0000F8A95EAF7EF
:104BA000902F909596239C9311969C91802F892B02
:104BB0008C9381E0223A380721F741E08191A82FB8
:104BC000A295AF70B0E091962C918F70642F01C0C8
:104BD000660F8A95EAF7962F909592239C931196EB
:104BE0009C91862F892B8C9381E0EC39F80731F763
:104BF000EFEEF4E08AE011928A95E9F7E5EEF4E051
:104C00008AE011928A95E9F78FE090E00E9457328E
:104C1000609318067093190680931A0690931B06EA
:104C2000663010F00E94A10D80E090E00E945C329E
:104C3000833E9E4FF9F063EE7EEF80E090E00E94AD
:104C40007B3260E082E090E00E94613281E090E09F
:104C5000809314061092150661E083E00E94613291
:104C600060E074E184E090E00E947B320E94EF0EED
:104C70000E94A10D82E090E00E944F328093C00418
:104C800084E090E00E945C3280939A0590939B05AB
:104C900083E090E00E944F3290E00E946206809193
:104CA0001606909117060E94BB091092B00480E886
:104CB0008093AF045BD56BE070E084ED98E00E94D8
:104CC0003F138115E9F18091B00465E070E081FD4A
:104CD00013C18FEC98E00E943F13811589F16DE0BC
:104CE00070E08DEB98E00E943F13811549F10E941E
:104CF0000C0CDC01CB01805A9541AF4FBF4F809324
:104D0000AB049093AC04A093AD04B093AE04E8EA76
:104D1000F2E0DF0180E092E01D920197E9F7E09375
:104D2000A602F093A7028FEF9FEF8093A4029093C7
:104D3000A50281E08093AA048093A9041092A8049C
:104D40008091B10481112FC08EE895E00E942B1054
:104D500080918E05843008F0D2C00E94EF0E8EE85C
:104D600095E00E942B1080918E05843008F0C7C01A
:104D70008370846080938E0580919105893718F047
:104D800088E78093910510928D050E94980A809182
:104D90008E0580FF05C060E0869586950E943A17D3
:104DA00081E08093B1040E94190E8111B0C081E0AE
:104DB0008093B204E0911806F0E0EE0FFF1FE25F6F
:104DC000FD4F808191810E94C00D60E982E20E94C6
:104DD000970D86E191E08093FB049093FC04CE0153
:104DE0000196282E9B8BACEF4A2EA1E05A2E809183
:104DF000B50400E110E4F2E1FF2E853009F4E2C0D1
:104E00000E943B16E1EC8E2EE4E09E2E85EE94E0AF
:104E10008C8B9D8BFC01D4019D9180812BEC34E027
:104E20002A173B0709F4D8C031969817A9F306EB67
:104E300014E0D12CEC89FD89C190EC8BFD8BF40141
:104E400061904F016C14D1F16C24E12CF12C77248A
:104E50007394862D872141F13C2C372071E0A72ED9
:104E60000E2C01C0AA0C0A94EAF7F801808190E0A8
:104E70008A21892B91F4E982DA820E9426168B839B
:104E80009C835D8291E0311001C090E09E83498156
:104E90005A816B817C818D8110D9311005C0A0941D
:104EA000F80180818A218083770C8FEFE81AF80A55
:104EB00086E0E816F10469F6F401C292D3940F5F1C
:104EC0001F4F8D2D8A3009F0B5CF0E940C0CDD24C8
:104ED000D39486C060E0812F0E948C0A082F61E085
:104EE000812F0E948C0AE12FF0E0EE52FB4F880FD9
:104EF000802B80831F5FFFCD8AEC98E0ECCE809101
:104F00008E05843508F438CF8370806533CF83E015
:104F10004FCF8091B504843039F10E946E130E9406
:104F20006A101092B30488E190E00FB6F894A89547
:104F3000809360000FBE1093600083B7817F846010
:104F400083BF83B7816083BF7894889583B78E7F52
:104F500083BF0FB6F894A895809160008861809314
:104F60006000109260000FBE0E943B16E5EEF4E078
:104F7000A6EBB4E080E021912D9391E0211101C0D6
:104F800090E0892B2FEE34E02E173F07A1F7811513
:104F9000C9F08091B4048115A9F009BDF9BC09B428
:104FA00000FEFDCF8091D8008F7D8093D800809146
:104FB000E00082608093E0008091E00081FDFCCF02
:104FC0000E9403198091B504853009F4A2CF0E9494
:104FD00003190E94460B14CF981329CF4EDAD12C17
:104FE00080913501811519F1009112061091130677
:104FF00001151105E1F00E942616801B910B2091EE
:10500000A5053091A6052817390788F49091A805C1
:105010008091A705981709F459C00E94A81F109203
:10502000A5051092A6051092120610921306809103
:105030008D058115D9F180918C05E0918E05E6955D
:10504000E695E81BE093CD04823009F048C0F0E01B
:10505000EE51F74FE4910E2F10E06EE2E62E6AE07B
:10506000F62E8091CE04811561F01092CE040E943C
:1050700026168093CB049093CC041092CF04109208
:10508000D0040E9426162091CB043091CC04821BC0
:10509000930B8F3F9F4750F4200F311F2093CB0479
:1050A0003093CC048BEC94E0F70109958091DC04FB
:1050B000811551F08091D6041092DC048093D704BE
:1050C0008091D4048093D50400E069C00E94621FDF
:1050D00010921206109213060E94A50AA8CF00EDA6
:1050E00017E042ECE42E48E0F42E853009F0B9CF09
:1050F000E695F0E0E152F74FE4910E2F10E059E40D
:10510000E52E5AE0F52EADCFF090D7041091D604DD
:1051100061E0802F0E948C0AE82E60E0802F0E94C0
:105120008C0AEE0C8E29202F30E0D901AE52BB4FF5
:10513000EC919E2F9370891789F1EE0FEE0FE82BFB
:10514000EC93EF70F0E0EE57FE4F2F523B4F808113
:10515000F9019081890F84300CF448C0412F50E050
:10516000BA016395637070E0F616170679F04C5239
:105170005B4F902F9F77FA0194831F5F13701093FA
:10518000D6049091D4049F5F9093D404982F990FE4
:10519000990B64E070E087D6F90180830F5F8091FE
:1051A000D304081708F4B0CF00E01DEF8091D704B6
:1051B0009091D604981709F44FC0E82FF0E0E85218
:1051C000FB4FF0800F2D0F778F5F83708093D70494
:1051D0008091D5048F5F8093D504F7FC17C00F83AF
:1051E00048860E94261623E0E22E16C08D3F74F6F4
:1051F000412F50E0BA016395637070E0F616170610
:1052000029F24C525B4F902F9068B5CF0F831887CF
:105210000E94261632E0E32EBC0189879A87EB862E
:105220005C864F8158858E2D91E00E945D200D8710
:10523000F7FE10C01E870E942616BC018F87988B30
:10524000E98A1A8A4D855E858E2D90E00E945D2048
:1052500001E0ACCF4E86EFCF011519F00E940C0C87
:10526000D02E0E946A10811539F00E940C0C0E9409
:1052700049140E944C1304C00E944914D110F9CF64
:1052800086E0EFE7F5E0A22DBB8901900D928A95AB
:10529000E1F7109281051092820510928305109219
:1052A00084058B819C81892B09F443C00091DF0424
:1052B0001091E0040E942616801B910B9C01909196
:1052C0007D05911509F4ADC02531310590F19F3F61
:1052D00019F09F5F90937D051B81111559F00E9475
:1052E000010B91E011160CF09FEF899F802D112486
:1052F000809381051C81111559F00E94010B91E0EA
:1053000011160CF09FEF899F802D11248093820548
:1053100080918105811569F010918205111549F080
:105320000E94F30A80938105812F0E94F30A8093E3
:1053300082058D819E81892B09F443C00091DD0493
:105340001091DE040E942616801B910B9C01909107
:105350007C05911509F460C02135310590F19F3F1E
:1053600019F09F5F90937C051D81111559F00E94E3
:10537000210B91E011160CF09FEF899F802D1124D5
:10538000809383051E81111559F00E94210B91E035
:1053900011160CF09FEF899F802D112480938405B6
:1053A00080918305811569F010918405111549F0EC
:1053B0000E94F30A80938305812F0E94F30A809351
:1053C0008405622D7B898FE795E00E94DC0B8111BB
:1053D0000CC08091810590918205892B9091830565
:1053E000892B90918405892B11F00E948D1786E0FE
:1053F000E22DFB89AFE7B5E001900D928A95E1F7C8
:105400000E94460B9091E104891709F4F0CC809337
:10541000E1040E940C0CE7CC2B30310508F0A1CF41
:10542000D0CF2B30310508F054CF83CF78941F9222
:105430001FB61F9211248F939F93AF93BF938091B8
:10544000350290913602A0913702B0913802019650
:10545000A11DB11D8093350290933602A0933702AF
:10546000B0933802BF91AF919F918F911F901FBE53
:105470001F9018951F920F920FB60F9211242F9321
:105480003F934F935F936F937F938F939F93AF93CC
:10549000BF93EF93FF938091E10082FF09C0809159
:1054A000E20082FF05C08091E1008B7F8093E100E4
:1054B0008091DA0080FF24C08091D80080FF20C056
:1054C0008091DA008E7F8093DA008091D90080FF8E
:1054D000A9C080E189BD82E189BD09B400FEFDCF8C
:1054E00081E08093B50480912402811109C00E945B
:1054F000450D0E94F60C8091E20084608093E200EA
:105500008091E10080FF1AC08091E20080FF16C008
:105510008091E2008E7F8093E2008091E2008061C2
:105520008093E2008091D80080628093D80019BCFB
:1055300085E08093B50483E0809315018091E100BC
:1055400084FF2FC08091E20084FF2BC080E189BDE1
:1055500082E189BD09B400FEFDCF8091D8008F7D26
:105560008093D8008091E1008F7E8093E10080914C
:10557000E2008F7E8093E2008091E2008160809360
:10558000E20080912302811509F452C084E08093E7
:10559000B5048091B504843009F052C082E0809354
:1055A00015018091E10083FF2CC08091E20083FF10
:1055B00028C08091E100877F8093E10082E08093A2
:1055C000B504109223028091E1008E7F8093E10068
:1055D0008091E2008E7F8093E2008091E200806102
:1055E0008093E20042E060E080E00E94760C8091CF
:1055F000F00088608093F00081E080931501809333
:105600001401FF91EF91BF91AF919F918F917F9185
:105610006F915F914F913F912F910F900FBE0F901F
:105620001F90189519BC1092B5041092240268CFEF
:105630008091E30087FF02C083E0A9CF81E0A7CF7C
:1056400081E0ADCF1F920F920FB60F9211241F93DE
:105650002F933F934F935F936F937F938F939F937A
:10566000AF93BF93CF93DF93EF93FF93E9EEF0E017
:1056700080811091EC008F7010FB112717F9182B07
:105680001082C0EFD0E08881877F888378940E9461
:105690005F22E9EEF0E010828881886088831F70C5
:1056A0001083FF91EF91DF91CF91BF91AF919F91C7
:1056B0008F917F916F915F914F913F912F911F91AA
:1056C0000F900FBE0F901F901895EF92FF921F93AF
:1056D000CF93DF93182FEB011092BC0084EA8093E4
:1056E000BC000E9426167C018091BC0087FF26C06A
:1056F0008091B900887F883029F08091B900887F37
:10570000803189F51093BB0084E88093BC000E942F
:1057100026167C018091BC0087FF1EC02091B90035
:10572000287F80E090E0283189F081E090E020340B
:1057300009F480E091958195910908C0C7010E9404
:105740003216C817D90780F68EEF9FEFDF91CF9101
:105750001F91FF90EF900895C7010E943216C8175D
:10576000D907C0F6F1CF8FEF9FEFF0CF1092B900BD
:105770008CE08093B80008950F931F93CF93DF932D
:10578000EB018093BB0084E88093BC000E94261646
:105790008C018091BC0087FF10C02091B900287F48
:1057A00081E090E0283209F480E09195819591099B
:1057B000DF91CF911F910F910895CF3FDC0749F3FF
:1057C000C8010E943216C817D90718F78EEF9FEF4D
:1057D000EFCFA0E0B0E0EEEEFBE227C3982E862EDE
:1057E000772E6A0179010E9426165C0184E1E81691
:1057F000F10410F18FEFE816FE0409F1C70164E12E
:1058000070E0FAD2162F072F612F702F892D5DDFE0
:10581000EC01892BB1F4082D172DC00ED11E0C15EB
:105820001D0511F02097C1F084E98093BC00CE01E2
:10583000CDB7DEB7EDE015C311E000E0E5CF15E030
:10584000FCCF8FEFE816FE04F9F2C5010E94321674
:10585000E816F906C8F6DFCFB701F80181918F018C
:105860008BDFEC01DCCFA0E0B0E0E8E3FCE2DDC2DE
:10587000982E862E772E6A0189010E9426165C01D9
:105880000431110500F10F3F100701F1C80164E177
:1058900070E0B2D2EB01BE01892D17DF7C01892BAC
:1058A000B9F4C82DD72DCC0EDD1ECC15DD0519F0B1
:1058B000E114F104B9F084E98093BC00C701CDB7CD
:1058C000DEB7EDE0CEC2C1E0D0E0E5CFC5E0FCCF71
:1058D0000F3F100701F3C5010E9432160817190780
:1058E000D0F6DFCFFE018491B80146DF7C0121961E
:1058F000DCCFA0E0B0E0EEE7FCE296C2982E862E68
:10590000742E652E6901E8010E9426165C0104319F
:10591000110508F10F3F100711F1C80164E170E0B3
:105920006BD2F62EE72E6F2D7E2D892DCEDE8C01CB
:10593000892BC1F0CF3FDC07B1F3C5010E943216BD
:10594000C817D90780F784E98093BC00C801CDB798
:10595000DEB7EEE085C2FF24F394E12CE4CF85E0CE
:10596000F82EFBCFBE01882D07DF8C01E72CF62C2B
:10597000CE0CDF1CEC14FD0431F30115110519F7F1
:10598000BE01F70181917F01F7DE8C01F3CF03D0D7
:10599000E39528C0D4C03FD0E8F3E894E0E0BB270B
:1059A0009F57F0F02AED3FE049EC06C0EE0FBB0F29
:1059B000661F771F881F28F0B23A620773078407B3
:1059C00028F0B25A620B730B840BE3959A9572F729
:1059D000803830F49A95BB0F661F771F881FD2F767
:1059E0009048A1C0EF93E0FF06C0A2EA2AED3FE095
:1059F00049EC5FEB3DD0C5D00F90039401FC90586B
:105A0000E2E2F5E69FC057FD9058440F551F59F04C
:105A10005F3F71F04795880F97FB991F61F09F3F9B
:105A200079F087950895121613061406551FF2CFC4
:105A30004695F1DF08C0161617061806991FF1CF14
:105A4000869571056105089408959F93A4DF0F90D2
:105A500007FCEE5FC7CF87D030F08CD020F031F458
:105A60009F3F11F41EF46BC00EF4E095E7FB53C0AA
:105A7000E92FC9DF80F3BA17620773078407950718
:105A800018F071F49EF58EC00EF4E0950B2EBA2F2F
:105A9000A02D0B01B90190010C01CA01A001112434
:105AA000FF27591B99F0593F50F4503E68F11A16E0
:105AB000F040A22F232F342F4427585FF3CF469571
:105AC00037952795A795F0405395C9F77EF41F1693
:105AD000BA0B620B730B840BBAF09150A1F0FF0F5D
