:10000000A6C60000C1C60000BFC60000BDC60000F5
:10001000BBC60000B9C60000B7C60000B5C60000E8
:10002000B3C60000B1C600000C94992C0C94812D2D
:100030000C94DA13A9C60000A7C60000A5C60000EC
:10004000A3C60000A1C600009FC600009DC6000018
:100050009BC600000C94752C97C6000095C6000046
:1000600093C6000091C600008FC600008DC6000038
:100070008BC6000089C6000087C6000085C6000048
:1000800083C6000081C600007FC600007DC6000058
:100090007BC6000079C6000077C6000075C6000068
:1000A00073C6000071C600006FC600002C432B21F0
:1000B00000002C432B280000D300D20000000800D1
:1000C0001500000005010902A10185020901A10036
:1000D00005091901290815002501950875018102F6
:1000E0000501093009311581257F950275088106C2
:1000F00009381581257F950175088106050C0A3898
:10010000021581257F950175088106C0C00501098A
:1001100080A101850319012AB700150126B70095B2
:100120000175108100C0050C0901A10185041901A8
:100130002AA002150126A002950175108100C005B4
:10014000010906A101050719E029E7150025019518
:1001500008750181029501750881010507190029BB
:10016000FF150026FF009506750881000508190196
:100170002905150025019505750191029501750365
:100180009101C009023B00020100A0FA090400002D
:1001900001030101000921110100012244000705AA
:1001A0008103080001090401000103000000092186
:1001B00011010001227B00070582032000011201CA
:1001C00000020000000827170300010001020001DF
:1001D000180363006F0063006F0074003400360082
:1001E00070006C007500730000000C0361006B0070
:1001F0006900320037000000040309042F002F00BB
:100200002F00430053002F00556E646566004D6F4C
:100210007573650057696E5343004D616353430026
:100220004C34202020004E756D2020004E616769FF
:100230006E0057696E2020004D6163202000200071
:10024000808182838485868788898A8B8C8D8E8F36
:100250009091929394A0A1A2A3A4A5A6A7A8A9AAAD
:10026000ABACADAEAFB0B1B2B3B4C0C1C2C3C4C524
:10027000C6C7C8C9CACBCCCDCECFD0D1D2D3D4007B
:1002800000AE00AF0000000000003E5B4F5B3E0090
:100290003E6B4F6B3E001C3E7C3E1C00183C7E3C7F
:1002A00018001C577D571C001C5E7F5E1C00001848
:1002B0003C180000FFE7C3E7FF0000182418000007
:1002C000FFE7DBE7FF0030483A060E0026297929D0
:1002D0002600407F05050700407F05253F005A3C6A
:1002E000E73C5A007F3E1C1C0800081C1C3E7F0097
:1002F00014227F2214005F5F005F5F0006097F0108
:100300007F00006689956A0060606060600094A26A
:10031000FFA2940008047E04080010207E20100034
:1003200008082A1C0800081C2A0808001E101010C3
:1003300010000C1E0C1E0C0030383E383000060E2B
:100340003E0E060000000000000000005F000000FC
:10035000000700070000147F147F1400242A7F2A5E
:10036000120023130864620036495620500000082A
:1003700007030000001C224100000041221C000075
:100380002A1C7F1C2A0008083E08080000807030E4
:100390000000080808080800000060600000201045
:1003A000080402003E5149453E0000427F400000E3
:1003B0007249494946002141494D33001814127FC2
:1003C00010002745454539003C4A49493100412143
:1003D00011090700364949493600464949291E0096
:1003E0000000140000000040340000000008142247
:1003F00041001414141414000041221408000201D6
:10040000590906003E415D594E007C1211127C00D4
:100410007F49494936003E41414122007F414141E7
:100420003E007F49494941007F09090901003E41D9
:10043000415173007F0808087F0000417F410000A0
:100440002040413F01007F08142241007F4040408E
:1004500040007F021C027F007F0408107F003E41A5
:1004600041413E007F09090906003E4151215E00DD
:100470007F091929460026494949320003017F01B5
:1004800003003F4040403F001F2040201F003F40EE
:1004900038403F0063140814630003047804030029
:1004A0006159494D4300007F414141000204081059
:1004B0002000004141417F0004020102040040404D
:1004C00040404000000307080000205454784000DA
:1004D0007F284444380038444444280038444428A1
:1004E0007F0038545454180000087E090200182474
:1004F000241C78007F080404780000447D4000003C
:100500002040403D00007F102844000000417F4013
:1005100000007C04780478007C08040478003844E7
:10052000444438007C1824241800182424187C0023
:100530007C080404080048545454240004043F4434
:1005400024003C4040207C001C2040201C003C40FB
:1005500030403C004428102844004C9090907C008F
:100560004464544C44000008364100000000770009
:1005700000000041360800000201020402003C268F
:1005800023263C000000000000000000C060C0D036
:10059000C8E86C6464646C686898D060008000008F
:1005A00000000000000000808080000000000000CB
:1005B00000008080800000000000000000008080BB
:1005C00080000000000000000000808000000000AB
:1005D000000000E0E00000000000000000C0E0E0DB
:1005E000E000000000000080E0E0200000000000CB
:1005F00000000000000000000000000000000000FB
:100600000000E0F0F0F0E0ECEEF7F37020007C7C0E
:100610007C7E007E7E7E7F7F7F000080C0E07E5BF0
:100620004F5BFEC00000C000DCD7DEDEDED7DC00A2
:10063000C0000000000000000000000000000000FA
:1006400000000000000000000000FC8778FEFE01B2
:100650000178848202028686030187FFFC03FE0084
:10066000000000FCFECF0303030387C7860078FE6B
:10067000FF8703030303CFFEFC0038FEFF8703035D
:100680000303C7868400FCFE870303030387FEFC85
:10069000300303FFFF8303000070787E6F6361FF08
:1006A000FF606000F0FCFF0F0F0E8EFCF860003062
:1006B00030303030FFFF30303030000000000000BC
:1006C00000000F1F3F7F7F7F7F7F3F1E0C001F1F9B
:1006D0001F3F003F3F3F7F7F7F00307B7F78302090
:1006E0002030787F3B0003000F7F0F0F0F7F0F003C
:1006F00003000000000000000000000000000000F7
:1007000000000000000000000000000304193F2763
:10071000425858D99999D85D5F6E2C190C07010081
:1007200000000000010303030303030301000001B1
:10073000010303030303030100000000010303039B
:10074000030303010000000103030303030301008B
:10075000000000010303030000000000000000038C
:100760000300000000010303030303030100000072
:100770000000000003030000000000000000000073
:100780000000000000000000000000000000000069
:100790000000000000000000000000000000000059
:1007A0000000000000000000000000000000000049
:1007B0000000000000000000000000000000000039
:1007C00000000000FFAA7F55400001010101010166
:1007D00001010102020202020202020203030303F8
:1007E00003030303040404040404040505050505C8
:1007F0000606060606070707070708080808090986
:1008000009090A0A0A0B0B0B0C0C0C0D0D0D0E0E30
:100810000E0F0F0F101011111112121313141415C3
:100820001516161717181819191A1A1B1B1C1D1D37
:100830001E1E1F202021222223242425262627288D
:1008400029292A2B2C2D2D2E2F30313232333435BD
:10085000363738393A3B3C3D3E3F404142434445C0
:10086000464748494A4C4D4E4F505153545556589F
:10087000595A5B5D5E5F616264656668696B6C6D49
:100880006F7072737577787A7B7D7E8082838587BF
:10089000888A8C8E8F91939596989A9C9EA0A2A3FD
:1008A000A5A7A9ABADAFB1B3B5B7BABCBEC0C2C402
:1008B000C6C9CBCDCFD1D4D6D8DBDDDFE2E4E7E9C2
:1008C000EBEEF0F3F5F8FAFDFF00DA0281FFD9F163
:1008D000DB20A4A62EAF00A0C0D30000A1C8D30087
:1008E00000AED580A81F408D142000643214783CDF
:1008F0001E000014001A0008001500170000000474
:10090000211600070009000A0090241D221B000682
:100910000019000500520129002C432B284152D216
:1009200000000000004B0000004E0000000000131B
:100930000012000C0018001C00000033310F000EE4
:10094000000D000B009134384237003600100011C2
:10095000005101290028222A380000D1000000009F
:10096000000000000000000000000014001A000851
:100970000015001700000004211600070009000AF6
:100980000090241D221B000600190005002B0829D9
:10099000002C432B214052D200000000004B0000ED
:1009A000004E0000000000130012000C0018001C94
:1009B00000000033310F000E000D000B00913438A1
:1009C0004237003600100011002B05290028222A8A
:1009D000310000D100000000000000000000000015
:1009E00000000038002400250026002D000000250E
:1009F000022100220023002E02010027221E001FD8
:100A00000020002E00010001002C003744010001ED
:100A10000000000000AA000000A900000000000083
:100A2000002B004C002A000000000000004F005284
:100A30000051005000010000004D004B004E004AE4
:100A40000001000100280201000000010000000078
:100A50000000000000000000000000380234021E08
:100A6000022A00350200001F02340021024C003827
:100A7000000100E1003500230231023100010001D4
:100A80000001000100010001000000000001000061
:100A9000000100000000002202270226022D0200B1
:100AA000000000E40030002F0000002002010024BC
:100AB0005230022F02240225020100010001000130
:100AC0000000000100000000000000000000000025
:100AD000000000A80040004100420045000000AEB8
:100AE000003D003E003F0044000100AD003A003BE5
:100AF000003C0043000100010001000100D300019F
:100B000000000000000100000001000000000000E3
:100B1000000000000000000000000000004F005234
:100B2000005100500001000000E200E000E300007E
:100B300000010001000100010000000100000000B0
:100B4000000000000000000000007C0000200A21DE
:100B50000A220A00000000000020780000E00000E7
:100B6000000100217820782F78067E2C09660C0180
:100B70000001000100D3000100000000002D08006A
:100B8000002E0800000000007C000001520052000E
:100B90000000000000000000000000000001000054
:100BA000002278217800000000010001000100010E
:100BB0000000000100000000000000000000000034
:100BC00000007C00004608160A160A00000000001B
:100BD00000207800000B0800000100217820782F09
:100BE00078067E37080F08010001000100D30001DC
:100BF00000000000002D0100002E01000000000098
:100C00007C000001520052000000000000000000C3
:100C100000000000000100000022782178000000A0
:100C200000010001000100010000000100000000BF
:100C3000000000000000000000010001000100D3DE
:100C400000D200D1000100010001000100010001FB
:100C5000000100010001000100010001000100018C
:100C600000010001000100D20000000000010000AE
:100C7000000100000001000100010001000100016D
:100C8000000100010001000100010001000100015C
:100C9000000100010001000100010001000100014C
:100CA000000000D100000000000000000000000073
:100CB00000010001000100D300D200D100010001B9
:100CC000000100010001000100010001000100011C
:100CD000000100010001000100010001000100D23B
:100CE0000000000000010000000100000001000100
:100CF00000010001000100010001000100010001EC
:100D000000010001000100010001000100010001DB
:100D10000001000100010001000000D100000000FE
:100D200000000000000000000050014F0150094F7A
:100D300009A900AA004E004B004E004B002E082DC2
:100D4000082E012D01D900DA00D900DA00001124A3
:100D50001FBECFEFDAE0DEBFCDBF12E0A0E0B1E012
:100D6000E4E8FAE602C005900D92A033B107D9F786
:100D700026E0A0E3B2E001C01D92AB33B207E1F779
:100D80000E945A270C94EE343BC9292F30E048E0EA
:100D9000911102C09C0140E0C90164E096958795DD
:100DA0006A95E1F7009711F04C5F9C01C901969597
:100DB000879596958795009711F04E5F9C01C90124
:100DC00096958795840F089580932C0690932D0611
:100DD0000895CF93C1E061FDC4E060FDCC0F62FDDA
:100DE000C29593E0769567959A95E1F7660F771F20
:100DF000660F771F460F571FFA0140E050E090E062
:100E00006191DF019C01042E02C0369527950A945A
:100E1000E2F72695220B26272C2326272E934F5FB9
:100E20005F4F4430510561F7CF910895A82FA77007
:100E300023E0969587952A95E1F7880F991F880FEB
:100E4000991F680F791FFB0140E050E080E021917D
:100E500030E00A2E02C0369527950A94E2F72170F9
:100E6000042E01C0220F0A94EAF7822B4F5F5F4FD6
:100E70004430510561F70895282F862F9A3068F481
:100E8000263050F4622F70E026E0929F600D711DB5
:100E9000112444E755E09DCF08959C5F9230E0F720
:100EA000622F70E040E755E0F6CF292F9A3058F4D2
:100EB000863080F490E064E775E036E0239F800D93
:100EC000911D1124B3CF2C5F223020F460E775E030
:100ED00090E0F8CF80E00895E0911E0590911D0507
:100EE000E91302C080E008959F0159E0E59FF001F9
:100EF0001124E15EFA4F5181561306C050815813F8
:100F000003C05581541305C02F5F3F4FF901E770AF
:100F1000E7CF81E0089580911E0520911D052813DB
:100F200001C0089501968770FACF8095982F80911F
:100F3000AE0589238093AE050895FC01F235B8F51E
:100F4000F03508F0BBC0E03EF105F0F4ED3CF105F2
:100F500008F092C0E83AF10570F4E53AF10508F0BE
:100F60007BC0E130F10529F0CF010497813A91056A
:100F700040F4CF010895CF01885A91094B9708F4A6
:100F80006FC0E0E0F0E0F5CFF03460F4F03208F04C
:100F9000AAC0E83EF10568F3CF0191509C012115EC
:100FA0003F41E6CFCF019F70906AFC01E2CFE0386D
:100FB00082E5F807C8F5E03682E5F80708F064C076
:100FC000E03482E5F807D0F4E03282E5F80708F073
:100FD00055C02E2F2695269590E2299F9001112429
:100FE0008E2F837041E050E002C0440F551F8A9558
:100FF000E2F7CA01822B932B9D68D7CF2E2F26951F
:101000002695277090E2299F900111248E2F8370DE
:1010100041E050E002C0440F551F8A95E2F7CA0133
:10102000822B932B9C68C1CFE03C82E5F80748F403
:101030002E2F2F71E03AF245E8F5922F84EF906A57
:10104000B4CFCF01805C9245809708F09ACF9E2F55
:101050009F7180EF906AA9CFCF0184979064A5CF4C
:101060008E2F885AE82FF0E0EE0FFF1FE754FE4F57
:1010700080819181946499CFF0657BCF8E2F8F71A1
:10108000982F81EF906A91CF2E2F26952695277065
:1010900090E2299F900111248E2F837041E050E04F
:1010A00002C0440F551F8A95E2F7CA01822B932B89
:1010B0009A687BCF80E0922F906277CFCF0123E0B8
:1010C000880F991F2A95E1F7392F3F706E2F6F71A6
:1010D000462FE4FF04C080E1689FA0011124242F63
:1010E000C901906962CFCF019F71E6CF972F7A3007
:1010F000C8F4663088F5893090F570E026E0929F5C
:10110000600D711D11249CE3899F600D711D1124D8
:10111000FB01EE0FFF1FEF50F74F85919591282FA0
:10112000822F08957D3F59F4611116C08930B8F4BB
:1011300094E0899FF0011124E75DF24FEECF7C3FF0
:1011400059F4611109C0893050F494E0899FF0018D
:101150001124E55DF24FE1CF20E090E0E1CF21E006
:10116000FCCFCF92DF92FF920F931F93CF93DF9329
:101170006C0100912E0610912F0680912C06909103
:101180002D06082B192BCFE0D0E081E090E00C2E4B
:1011900002C0880F991F0A94E2F780239123892BBC
:1011A00061F4219790F7F12C8F2DDF91CF911F9152
:1011B0000F91FF90DF90CF900895FC2EB6018C2FF9
:1011C00095DFBBDE019769F3EFCF1F93CF93DF93DA
:1011D000FC01278130852115310589F48581C08185
:1011E000D181811589F0611579F0CE01BADF182F10
:1011F000682FCE0141DEBE01812F78DF9C01C9013D
:10120000DF91CF911F910895CE014FDE182FF3CFBC
:10121000CF93DF93EC01A5DFBE0168DF8EDEDF91A7
:10122000CF910895FC0184818115A9F08781908573
:10123000009799F082DE92959F709630C9F088F4FD
:10124000925F9F70923038F491E0803F79F058F4CB
:1012500091E0883E58F090E009C080819181D8DF0C
:10126000EACF9A5FEECF91E0843FA9F7892F0895E6
:1012700091E0813F09F090E021E0883E08F020E015
:10128000922BF4CF80E00895089580912901811177
:1012900014C080912B01811110C080912A0181110D
:1012A0000CC09091B10596959695969581E0209108
:1012B0002101921380E08170089581E0FCCF80913C
:1012C0002A0191E0892780932A0110922701109228
:1012D0002801089590912B01811541F09F5F909313
:1012E0002B01109227011092280108959150F7CFF9
:1012F000CF92DF92EF92FF921F93CF93DF93462F0F
:10130000172FE82FF0E0E753F84F71110CC0E4916C
:101310008E2F7E2F6E2FDF91CF911F91FF90EF9038
:10132000DF90CF900895F491EF2F86E0689FE00161
:1013300011242FEF30E0CE01B9010E945B31DB01B7
:10134000CA01880F991F65E56A9FA0016B9F500D28
:101350001124841B482F440F480FC901811B910998
:10136000F89F7001F99FF00C11248F2D149FB0018C
:101370001124672F70E06901C61AD70AB601F69FDB
:101380006001F79FD00C1124A330B10549F1B901D8
:10139000641B7109AB01149FB001159F700D1124DE
:1013A000672F70E0261B370BF29FA001F39F500DB3
:1013B0001124752FCC3FD34050F4A130B105A1F0DA
:1013C000129709F0A7CFEF2D852F7F2FA3CFA43041
:1013D000B10569F0169709F49DCF7F2D8D2D9ACF19
:1013E0007D2DEF2D8F2F96CF7F2FED2D93CFE52FD6
:1013F0007F2DF8CFCF93762FC22F682F842F78DFE1
:10140000472F90914D012C2F291B922F282F892F88
:1014100090E03DD1CF910895CF938091A60580FFB4
:1014200003C0D1D4CF910895C0914F018091500154
:10143000C817B8F780914D019C2F981B20E040E021
:1014400060E0892F90E023D1CF5FF0CF0F931F93FF
:10145000CF93DF93D82F162F042F8091A605C0912C
:101460004F0180FD10C0DF91CF911F910F91089522
:1014700080914D019C2F981B202F412F6D2F892F7C
:1014800090E005D1CF5F80915001C81788F3C4DF89
:10149000EACF0F931F93CF93DF93762F9091A605FA
:1014A00090FF19C0493708F048E7682F842F20DFE4
:1014B000D62F172F082FC0E080914D019C2F981B2D
:1014C000202F412F6D2F892F90E0E1D08C2FC1E08C
:1014D000813091F7A1DFDF91CF911F910F91089596
:1014E000CF93DF93EC0151DC8250873040F4E82F3A
:1014F000F0E0E150FB4C4FEF6FEF0C94C53140E052
:1015000060E080E0C6DF80E08093340682E0809374
:101510004F018CE0809350018AE080935101CE010D
:10152000DF91CF91089580E8B4DF81E0EDCF8BE2C9
:10153000E9CF85E5F9CF80E0F7CF85E1F5CF8AEAFD
:10154000E1CFCEDF80932E0690932F06089521E001
:1015500030E002C0220F331F8A95E2F780912E06F9
:1015600090912F06822B932BECCF21E030E002C02C
:10157000220F331F8A95E2F72095309580912E0631
:1015800090912F0682239323DCCF9091B105809513
:1015900089238093B105282F277061F4891751F0B2
:1015A0009091B30592FF06C0869586958695DDDFFE
:1015B0001092B1050895CF93DF93EC018091A605B9
:1015C00080FF0EC07091A8058091A905893708F0A9
:1015D00088E76C818DDE962F672F482F892F36DFA5
:1015E0008C818F5F8C83DF91CF9108950F931F9330
:1015F000CF938C01C0E060915101C61768F00CDFF9
:10160000F8018481928190FF20C08F5FF80184836C
:10161000CF911F910F91089520914F012C0F3327E7
:10162000331F4091A905493708F048E770E08FEF74
:1016300090E00E94B231F8018481C69F800D112490
:101640006091A805D7DECF5FD6CF8150DFCF4AB1FA
:1016500083E9861B8F7021E001C0220F8A95EAF78B
:10166000922F909594239AB99BB1822F892B8BB995
:10167000089589B190E023E9261B2F7002C095954B
:1016800087952A95E2F781700895269A0895FC01BE
:10169000EE0FFF1FE80FF91FEA5AFD4F61834083E9
:1016A000228308951092BD051092BE05E0E3F1E09B
:1016B0008581811102C014821682379681E0EC3454
:1016C000F807B1F70895AC018091C0056091BF059E
:1016D000982F691301C00895292F30E0F901EE0F0A
:1016E000FF1FEB54FA4F0190F081E02DE417F5074E
:1016F000B9F4E0E0F0E04430510540F467E0649F65
:10170000F001659FF00D1124E05DFE4F41E0448340
:101710009813E1CF2F5F3F4F23702093C0050895AA
:101720002395922F9370D5CF382F25EB3203C0012C
:10173000112497FF04C080589109892F089580587B
:101740009F4FFBCF8091960580FD14C081FD14C092
:1017500082FD16C080919505811581F08E3180F44F
:1017600020E5829FC00111246EE170E00E94B23139
:10177000862F089584E1089588E2089588E0089509
:1017800080E508958091960580FD17C081FD17C002
:1017900082FD19C080919405811599F0883298F4E2
:1017A00028E0829FC001112468E270E00E94B231FB
:1017B0006115710551F0862F089562E0FCCF64E059
:1017C000FACF61E0F8CF68E0F6CF81E00895E091CC
:1017D0001305F0911405309739F00190F081E02D58
:1017E000309711F00995089580E00895E091130570
:1017F000F0911405309759F026813781232B39F069
:1018000022E0DC012C930680F781E02D09950895F4
:10181000A3E0B0E0EEE0FCE00C947F3120915302B5
:101820003091540228173907B1F0809353029093F6
:101830005402E0911305F0911405309761F0008493
:10184000F185E02D309739F023E029838A839B834B
:10185000CE01019609952396E2E00C949B31A3E01A
:10186000B0E0E5E3FCE00C947F312091510230912F
:10187000520228173907B1F0809351029093520217
:10188000E0911305F0911405309761F00084F18523
:10189000E02D309739F024E029838A839B83CE01A1
:1018A000019609952396E2E00C949B319C01FC0182
:1018B000329680E09FEF4081461759F031969F3F66
:1018C00019F4411101C0982F8F5F8630A1F79F3F17
:1018D00009F40895290F311D97FD3A95F9016283A6
:1018E0000895FC01329608962191261302C0DF016B
:1018F0001E92E817F907C1F70895DC01FB01119664
:101900009C9111978181981322C012968C91129705
:10191000811519F0928189131AC013968C9113972F
:10192000811519F09381891312C015968C91159722
:10193000811519F0958189130AC014969C9191150F
:1019400021F081E02481291303C080E001C081E0FF
:10195000817008958091130108952FB7F8946091D4
:101960004D0270914E0280914F02909150022FBF14
:1019700008950895FC0120914302309144022617F6
:10198000370748F06115710529F49091E8009E77BA
:101990009093E8009B0190E02115310541F49111ED
:1019A00006C08091E80082FF32C080E008958091F7
:1019B000CD048115C1F18530C1F18091E80083FD2E
:1019C00030C08091E80082FDECCF8091E80080FF7C
:1019D000E3CF8091F3004091F200582F211531059B
:1019E00019F04830510558F091E04830510509F0A0
:1019F00090E04091E8004E774093E800CDCF819190
:101A00008093F100215031094F5F5F4FE7CF809104
:101A1000CD04811541F0853041F08091E80083FFCD
:101A2000C0CF81E0089582E0089583E00895982F63
:101A30009093E900891771F07091EC002091ED000E
:101A40005091F00021FD09C09F5F973089F7809386
:101A5000E9000895762F242F50E03091EB003E7F6F
:101A60003093EB003091ED003D7F3093ED003091ED
:101A7000EB0031603093EB007093EC002093ED00AD
:101A80005093F0002091EE0027FDDECF0895809165
:101A90003D0287FF13C08091E80082FF06C080915D
:101AA000E8008B778093E80008958091CD04811140
:101AB000F2CF08958091CD048115D9F38091E8008B
:101AC00080FFF8CF8091E8008E77ECCF2091E40082
:101AD0003091E50095E6A9012091EC00822F8170FC
:101AE00020FF06C08091E80080FF06C080E00895D6
:101AF0002091E80022FD1AC08091CD04811589F063
:101B0000853089F08091EB0085FD0FC02091E400C5
:101B10003091E50042175307F9F29150E1F684E065
:101B2000089582E0089583E0089581E00895CF93B9
:101B3000DF93C8EDD0E088818F7E8883E7EDF0E009
:101B400080818160808384E082BF81E080933C0259
:101B500088818E7F8883E2EE10821092DA00A1EEF7
:101B6000B0E01C9288818F77888388818068888321
:101B700088818F7D888319BC1092CD0410923B021E
:101B80001092CC0410923A02A0EE8C918B7F8C9331
:101B900088818160888342E060E080E048DFA1EED8
:101BA000B0E08C918E7F8C93E2EEF0E080818160DA
:101BB0008083808188608083E0EE80818E7F808357
:101BC000888180618883DF91CF910895E8EDF0E00E
:101BD00080818E7F80831092E2001092DA00109252
:101BE000E100A0EEB0E08C9181608C9380818F77D2
:101BF000808319BCA7ED8C918E7F8C9380818F7E22
:101C0000808310923C02089524982C9880E098E0FC
:101C10002A9825E02A95F1F7000022271C992395A0
:101C2000880F822B2A9A25E02A95F1F7000091501F
:101C300079F70895249A27E030E090E02A98AC01E3
:101C4000022E02C0559547950A94E2F740FF0EC058
:101C50002C9A4AE04A95F1F700C02A9A215031099E
:101C600068F785E18A95F1F7000008952C98F1CF87
:101C7000CF93C62F2D988068DDDF8C2FDBDF2D9A68
:101C8000CF91089584E0809330068093310682E0FE
:101C90008093320681E0809333061092340644E04C
:101CA00054E062E071E08FE090E00E94D23460E0A6
:101CB00070E0AB0183E190E00E94D23460E982E2FF
:101CC000D7CF61E08D37910548F06DE0863D26E085
:101CD000920720F46DE770E00E945B31606189E15A
:101CE000C7CFCF932D988091A00281110EC083E6BB
:101CF000A1DF8ADFC82F88DF982F2D9A8C2FC7FD90
:101D0000806897FD9068CF91089580E090E0FBCFC8
:101D1000ACE0B0E0EEE8FEE00C947D314F835887F4
:101D2000162F072F8B879C87DCDF282F292B11F498
:101D3000902F812F89879A8786E0FE013796DE01F2
:101D4000119601900D928A95E1F729813A814B8194
:101D50005C816D817E8180E090E02C96E4E00C94C3
:101D600099312D9867DF50DF95E09A95F1F70000E3
:101D70002D9A0895CF93DF93229A249A259A6AE5A3
:101D80008AE376DF8FE79FEA22E08150904020408F
:101D9000E1F700C000001092A002A3DF80E0E1DFC5
:101DA000C82F81E0DEDFD82F8EE3DBDFC23129F4DC
:101DB0009D2FD13011F4863209F090E0892F817087
:101DC000DF91CF91089535B13F7B25B120644FB7A6
:101DD000F89486E592E0FC010196508168E025B90F
:101DE000000000C057FF35B9550F000000C000C00B
:101DF00000C035B900C06A9591F752E08A3795075F
:101E000051F74FBF8FE594E00197F1F700C0000054
:101E100008950F931F93CF93DF93EB018A01909165
:101E2000CD04943059F58093E9008FEF9091E8004C
:101E300095FD06C095ED9A95F1F700008150B1F738
:101E40008091E80085FF1AC041DE811112C08091A7
:101E5000E80085FD06C08091E8008E778093E80059
:101E6000F3CF88818093F1000150104011F021964A
:101E7000EECF8091E8008E778093E800DF91CF91DC
:101E80001F910F910895CF93DF93EC0148E050E04C
:101E9000BC0181E0BEDF88E0FE01A5E4B2E0019074
:101EA0000D928A95E1F7DF91CF91089546E050E0D9
:101EB000BC0182E0AECF43E050E0BC0182E0A9CF9C
:101EC0009091B30592FB222720F9281771F080FB2F
:101ED00092F99093B3056091B2057091B30584E0D7
:101EE00090E00E94DA3482E050CB08950F93CF93B4
:101EF000DF93C6EAD5E0488159816A817B8188E019
:101F000090E00E94D2346C81262F60E070E0CB011B
:101F1000622F83E20E94C034DF91CF910F91089528
:101F200085E08093A6051092A7058FEF8093A80502
:101F300088E78093A9051092AA0586EA95E0D6CF96
:101F40008091AA05833018F48F5F8093AA0586EAF2
:101F500095E0CCCF8091AA05811519F0815080932E
:101F6000AA0586EA95E0C2CFA0E0B0E0EAEBFFE088
:101F70000C947A31082FE62E142FD22E8091A605CC
:101F800080FF24C0282F26952695E22FF0E0EA59FD
:101F9000FE4F90819093A4058C7F8430E1F4842FD0
:101FA000493708F088E7602F7E2DA2D9962F672F3A
:101FB000482F892F4BDA0093A705E092A8051093CC
:101FC000A905D11419F086EA95E090DFCDB7DEB708
:101FD000E7E00C949631923019F40091A705EBCF0D
:101FE0009530D9F39B3039F785EFF82EF20EEF2DAF
:101FF000E695F0E0EC53F84FD491C0E060915101C8
:10200000C61710F009DAD7CFCD9FC001112470E0B8
:102010000E945B31862F800FF0FE02C0802F861B4E
:1020200020914F012C0F3327331F412F193708F010
:1020300048E76E2DDFD9CF5FE1CFE6EAF5E0818199
:1020400021E043816281865F8FCFE6EAF5E08181FE
:1020500021E0438162818A5087CFE6EAF5E0628120
:1020600021E1620F08F46FEF21E0438181817CCF91
:10207000E6EAF5E0628121E1621B08F460E021E01C
:102080004381818171CFE6EAF5E0438121E1420F8E
:1020900008F44FEF21E06281818166CFE6EAF5E046
:1020A000438121E1421B08F440E021E0628181810B
:1020B0005BCFCF9366EB72E08DE995E01EDCC82F15
:1020C000811519F08DE995E091DB90919E0586E0F0
:1020D000EDE9F5E0282F11922A95E9F790939E05F6
:1020E000EDE9F5E0A6EBB2E001900D928A95E1F7FB
:1020F00081E0911101C080E08C2BCF910895E9E23D
:10210000F1E083E011928A95E9F7E5E2F1E084E0FD
:1021100011928A95E9F708958091AE059091B405E2
:10212000892B9091AF05911589F0892B90E024E3DC
:1021300032E0F90140812F5F3F4F41119F5F42E044
:102140002A333407B1F791111092AF058093320210
:1021500048E050E065E175E082E392E00E94E931F9
:10216000892BB9F088E0E2E3F2E0A5E1B5E0019067
:102170000D928A95E1F7E0911305F09114053097DF
:1021800041F00280F381E02D309719F082E392E074
:1021900009950895811531F09091AE05982B909393
:1021A000AE05BACF0895811519F00E949507B4CFF6
:1021B00008958F929F92AF92BF92CF92DF92EF924B
:1021C000FF920F9388E090E00E94B6344B015C01CF
:1021D0006093A6059092A7058093A805B092A905E3
:1021E0001092AA051092AB051092AC051092AD05A5
:1021F00083E290E00E94AE349401A5018092A6058E
:102200003093A705A092A8055093A9058093AA052D
:102210001092AB051092AC051092AD050F91FF9096
:10222000EF90DF90CF90BF90AF909F908F900895E8
:10223000AB0124E630E0BC0188E70E94922E9C01AD
:1022400081E0232B09F080E008958091C20481157C
:10225000E9F083DBDC01CB01805A9541AF4FBF4FE2
:102260008093C3049093C404A093C504B093C604A0
:102270008091C10481110AC062E070E082E892E0BE
:10228000D7DF811519F081E08093C1040895809112
:10229000C204811561F08091C104811541F062E0B2
:1022A00070E080E892E0C4DF81111092C1040895CB
:1022B000CF93DF93C091BE02D091BF028A30C1F4A8
:1022C0004091C704CE01805C9240642F70E00E9470
:1022D0005B31481B842F66E00E94A631C82FC111D4
:1022E00003C0DF91CF910895C15080E2E1DFF7CFC5
:1022F0008D30C1F4C05CD2404091C704642F70E0BF
:10230000CE010E945B31481BCE01840F911D92309B
:1023100010F080E090E080549D4F8093BE02909337
:10232000BF02DFCF96E0FE01AAE9B2E001900D9274
:102330009A95E1F7803E08F455C086E019928A9597
:10234000E9F7C091BE02D091BF0246E050E0BE0165
:102350008AE992E00E94E9319E01205C3240892B9B
:1023600041F1C90145E0969587954A95E1F741E02D
:1023700050E0BA0102C0660F771F8A95E2F7CB01E1
:102380006091BC027091BD02862B972BB9016B5FE7
:102390007F4FE5E076956795EA95E1F702C0440F37
:1023A000551F6A95E2F7842B952B8093BC0290937E
:1023B000BD022A5F3F4F4091C704642F70E0C901FE
:1023C0000E945B31481B463010F4240F311D32301F
:1023D00010F020E030E020543D4F2093BE023093B7
:1023E000BF027FCF96E0899FB00111246C577D4FCB
:1023F00046E050E0CE010E94D331A3CFCF93DF93CC
:10240000EC01FE018491811103C0DF91CF91089509
:102410004FDF2196F6CF0F931F93CF93DF93EC01FD
:10242000FC0101900020E9F78F0101501109C0174C
:10243000D10728F0DF91CF911F910F9108958991D5
:1024400037DFF5CFACE0B0E0E8E2F2E10C947131B7
:102450008091C204811509F475C180EC92E08093EB
:10246000BE029093BF0280E492E0C8DF8EE392E068
:10247000C5DFE0913106F0E0EE0FFF1FE558FE4F9B
:1024800010810181E0913206F0E0EE0FFF1FE95765
:10249000FE4FB080A180E0913006F0E0EE0FFF1F0C
:1024A000EB5DFD4F81818F9380818F9382E591E079
:1024B0009F938F931F9285E08F936E018FEFC81AC1
:1024C000D80A3601DF92CF920E94F6310F931F9304
:1024D00086E591E09F938F931F9283E08F937E0117
:1024E0008AE0E80EF11C47019F92EF920E94F631BC
:1024F000AF92BF928AE591E09F938F931F9284E001
:102500008F938E010A5F1F4F5801BF920F930E9455
:10251000F63120912E0630912F0680912C06909155
:102520002D06822B932B0E94C5062DB73EB7285E41
:102530003F4F0FB6F8943EBF0FBE2DBF883008F056
:102540001AC1E82FF0E0EA5FFA4C0C94C53188E339
:1025500092E054DF86E092E051DF809134068115ED
:1025600009F40CC184E092E049DF80E092E046DFAC
:10257000C60151DF8EEF91E041DFC7014CDF8CEFE8
:1025800091E03CDFC80147DF8091BC029091BD0221
:10259000892B09F4BEC08091C204811509F4B9C029
:1025A0008091C0048111B5C050DE8091BC02909131
:1025B000BD02009709F4ADC080FBEE24E0F8F12CD9
:1025C00010E080FD10C041E050E0212F2F5F122F5E
:1025D0007A0102C0EE0CFF1C2A95E2F7970128232E
:1025E0003923232B91F38091C80480FFCAC0912F17
:1025F000990F990F990F392F395F80E023E090935D
:10260000020180930501309303012093060124E623
:1026100030E047E050E060E071E088E70E94482E3B
:10262000892B09F076C080E2189FA00111248091C7
:10263000C80480FFB8C0EAE7F2E080E211928A9510
:10264000E9F732E6632E31E0732E8EE591E04C011E
:1026500066E671E0D301ED913D01D4010D914D018C
:10266000040F152F111DF0E0E658FD4F80E090E0BB
:1026700027E0A22EA81ABB24B394082E01C0BB0CDD
:102680000A94EAF7980120543D4F2901D12CD20138
:102690002D912D012B21B22F2A2D2D19277030E0DD
:1026A000AB2F022E01C0AA0F0A94EAF7CA2E319569
:1026B0002195310927703327AB2F01C0A6952A95A4
:1026C000EAF7CA2A2081C22AC082D3942D2D28304D
:1026D000F1F6019631968830910551F66615770529
:1026E00009F0B8CF04E610E020E24AE752E060E4E7
:1026F00088E70E94D82E892B61F4E094F0948091B1
:10270000BC029091BD02E822F922E092BC02F09254
:10271000BD028091C1048115A9F01FD90091C304A5
:102720001091C4042091C5043091C604DC01CB0192
:10273000801B910BA20BB30B8F3F9F4FAF4FBF4737
:1027400008F4A5DD2C96E0E10C948D3182E392E053
:1027500000CF8CE292E0FDCE86E292E0FACE80E2FB
:1027600092E0F7CE8AE192E0F4CE84E192E0F1CEFD
:102770008EE092E0EECE88E092E0EBCE82E092E056
:10278000F3CE20E2129FC0011124880F492F441F6D
:10279000550B5195242F912F9295990F9076392FA3
:1027A000315E842F2CCF40545D4F04E610E020E2D0
:1027B00030E09DCF1F921FB61F9211248F939F93DD
:1027C000AF93BF938091CB04811113C080914D02D0
:1027D00090914E02A0914F02B09150024196A11DDE
:1027E000B11D80934D0290934E02A0934F02B0937F
:1027F0005002BF91AF919F918F911F901FBE1F906C
:1028000018952FB7F89480914D0290914E02A091A7
:102810004F02B09150022FBF0895CF93DF93EC0188
:10282000F0DF8C1B9D0BDF91CF910895A0E0B0E00D
:10283000ECE1F4E10C946F3147E055E009EA11E076
:10284000D12C7D01E394FA01B190AF01DF011E921A
:10285000F80181918F01E82FE295EF70F0E021A15E
:102860008F70B70101C0660F8A95EAF7462E262BB6
:1028700021A322A1C62EC0942C2122A320EA2A95AE
:10288000F1F723EB222E21E0322E310160E070E0DF
:10289000E301A9903E012A2D22952F70205E30E0A1
:1028A000E90128819C908A2D8F7002C0359527956B
:1028B0008A95E2F720FD91C02E2D062E01C0220F31
:1028C0000A94EAF729292C936F5F7F4F66307105D0
:1028D000F9F691A1C922C1A292A1842D892B82A3CC
:1028E00081E09C919B1101C080E0D82A85E04C30AA
:1028F000580709F0A8CF20E030E07901E3944EEAD0
:1029000051E0F10181911F01E82FE295EF70F0E0B5
:1029100061A18F70D70102C0AA0FBB1F8A95E2F791
:102920002D016A2B61A372A16A2F6095762372A391
:1029300070EA7A95F1F7AE2D022E01C0AA0F0A9423
:10294000EAF78A2E80947A2FA9EAB1E00CE015E02C
:10295000C12CE80199908E017D90A72CA2948FE064
:10296000A82280E2A80EB12CE501A880872D8F70E7
:1029700002C0B594A7948A95E2F7A0FC30C0B92CA8
:10298000B72A380181E0681A7108E301B882AA24E5
:10299000A394B91001C0A12CCA284A175B07C9F635
:1029A00091A1692361A392A1842D892B82A3DC28A4
:1029B0002F5F3F4F2630310509F0A3CFD11491F09E
:1029C00081E08093FC041DDF8093FA049093FB0464
:1029D000CDB7DEB7E2E10C948B3120E073CFB92C98
:1029E000B820CFCF8091FC04811591F3C091FA04F7
:1029F000D091FB0406DF8C1B9D0B059748F34AE042
:102A000050E067E075E08DEF94E00E94E931892B9A
:102A100049F08AE0E7E0F5E0ADEFB4E001900D9217
:102A20008A95E1F71092FC04D3CFADE2B0E0EBE180
:102A3000F5E10C946F318091CA04833009F081C3B1
:102A400040919D0550919E0560919F057091A00554
:102A50008091A1059091A2055BD920939D053093AB
:102A60009E0540939F055093A0056093A105709328
:102A7000A20586E0EDE9F5E0DE01179601900D92E2
:102A80008A95E1F700919F0501951091A005119598
:102A900009871A8786E0FE013796DE011D960190B0
:102AA0000D928A95E1F786E0FE013D969E012F5F2B
:102AB0003F4FD90101900D928A95E1F786E0F90127
:102AC000ADE9B5E001900D928A95E1F786E0EDE978
:102AD000F5E0DE01179601900D928A95E1F786E008
:102AE000FE013796DE01539601900D928A95E1F72B
:102AF00086E0FE017396D90101900D928A95E1F767
:102B000086E0F901ADE9B5E001900D928A95E1F713
:102B100086E0EDE9F5E0DE015F9601900D928A9581
:102B2000E1F72090A1053090A205E0913206F0E097
:102B3000EE0FFF1FE957FE4F6081718180E090E04A
:102B40000E94F63025E33AEF4EE85CE30E9438300D
:102B50004B015C01602F000F770B872F972F0E948E
:102B6000F8302B013C01B401C5010E94262F6B01F6
:102B70007C01612F110F770B872F972F0E94F83060
:102B80006DA37EA38FA398A7B401C50190580E949E
:102B9000842F69A77AA78BA79CA79601A701B201EA
:102BA000C3010E9438304B015C0129A53AA54BA511
:102BB0005CA56DA17EA18FA198A50E9438309B01D4
:102BC000AC01B401C5010E94C0302AE939E949E9E4
:102BD0005EE30E9438304B015C0123E333E343E3BF
:102BE0005FE36091B1027091B2028091B302909163
:102BF000B4020E9438309B01AC01B401C5010E94AF
:102C0000C1304B015C0129A53AA54BA55CA5B201D9
:102C1000C3010E9438302B013C012DA13EA14FA1E0
:102C200058A5B601C7010E9438309B01AC01B20122
:102C3000C3010E94C1302AE939E949E95EE30E94F3
:102C400038306B017C0123E333E343E35FE36091BE
:102C5000AD027091AE028091AF029091B0020E94DD
:102C600038309B01AC01B601C7010E94C1306B0135
:102C70007C018092B1029092B202A092B302B09213
:102C8000B4026093AD02D092AE028093AF02F09294
:102C9000B00220E030E040EC5FE3B401C5010E94E7
:102CA00038304B015C0120E030E040EC5FE3B601DE
:102CB000C7010E9438306B017C01809134069E016F
:102CC0002F5F3F4F29A73DA7811509F457C1B401D4
:102CD000C5010E94C5308B0177FF04C00027112772
:102CE000061B170BB601C7010E94C530AB01CB0113
:102CF00077FF04C088279927841B950B80179107BD
:102D00000CF027C1E12CF12C67016091AB027091AE
:102D1000AC02872F880F880B982F0E94F8306DA384
:102D20007EA38FA398A76091A9027091AA02872F12
:102D3000880F880B982F0E94F8302B013C0180915E
:102D40003306811509F409C12DA13EA14FA158A553
:102D5000B401C5010E94C1304B015C019601A7017D
:102D6000B201C3010E94C0300E94C5306B017C01DA
:102D7000B401C5010E94C530AB016093AB02509312
:102D8000AC02C092A902D092AA02E0913106F0E012
:102D9000EE0FFF1FE558FE4FE0819A010E2E02C094
:102DA000359527950A94E2F7C6010E2E02C0959537
:102DB00087950A94E2F7182F211581F0320E322FF1
:102DC000330F330B0E2E02C0220F331F0A94E2F78B
:102DD000421B530B4093AB025093AC02111509F404
:102DE00051C1280E982F990F990B02C0880F991F77
:102DF000EA95E2F7C81AD90AC092A902D092AA02AB
:102E000000E010E019A30AA32BA23CA286E0FE0179
:102E10007F96DE01179601900D928A95E1F786E084
:102E2000FE013796A9A5BDA501900D928A95E1F7FF
:102E300086E0E9A5FDA5DE01599601900D928A95DF
:102E4000E1F786E0FE017996DE01179601900D927A
:102E50008A95E1F786E0FE013796ADE9B5E001908D
:102E60000D928A95E1F780912001811509F41BC12B
:102E7000F0909E05C0902501D0902601C2DC2091E3
:102E800024018C199D092817190608F00CC1C0905F
:102E90002701D0902801B5DC8C199D09893C91054A
:102EA00008F401C180912C01180F10932C0180911E
:102EB0002D01080F00932D0180912F01380E3092C3
:102EC0002F0180912E01280E20922E0117FD1195C1
:102ED0001B3008F0D9C007FD01950B3008F0D4C0B5
:102EE00037FC3194832D8B3008F0CEC027FC219421
:102EF000822D8B3008F0C8C081E0F11001C080E065
:102F00008170809329010E94450900912E0610913D
:102F10002F06811509F4E2C010922C0110922D01A8
:102F200010922E0110922F016CDC8093250190935A
:102F3000260110922701109228018091210101158C
:102F4000110509F0A3C0811509F4ADC00E94A70ABC
:102F5000AAC0A12CB12C4501D8CE9401A5016DA128
:102F60007EA18FA198A50E94C0304B015C01920107
:102F7000A301B601C7010E94C130F6CE20E030E0C7
:102F800040E05FE3B401C5010E9438302091A50202
:102F90003091A6024091A7025091A8020E94C13030
:102FA0004B015C016093A5029092A6028093A70258
:102FB000B092A80220E030E040E05FE3B601C70134
:102FC0000E9438302091A1023091A2024091A302C8
:102FD0005091A4020E94C1306B017C016093A10258
:102FE000D092A2028093A302F092A402B401C50180
:102FF0009F7720E030E040E85FE30E94333110E04B
:1030000087FD1AC0B401C5010E94C530162F762F66
:10301000770F770B872F972F0E94F8309B01AC0119
:10302000B401C5010E94C0306093A5027093A6024E
:103030008093A7029093A80220E030E040E85FE38D
:10304000B601C7019F770E94333187FD1BC0B601CF
:10305000C7010E94C530062F762F770F770B872F79
:10306000972F0E94F8309B01AC01B601C7010E9466
:10307000C0306093A1027093A2028093A302909348
:10308000A402C0CE00E0BECE81E03ACF21E030E025
:10309000082E02C0220F331F0A94E2F720233123A7
:1030A000232B09F453CF86E0E7E9F5E0DE0117961C
:1030B00001900D928A95E1F780919E059885892B64
:1030C00080939E050E945910811102C08091B50223
:1030D0001092B502AD96E2E10C948B312091210162
:1030E0000115110509F52111DECF0091250110917F
:1030F000260187DB801B910B209122013091230157
:103100002817390780F6809121010E94B50A109294
:1031100025011092260110922C0110922D0110927F
:103120002E0110922F01BFCF81E090E002C0880FE6
:10313000991F2A95E2F780239123892B09F4B3CFB5
:10314000D4CF80E0C7CF9091A60590FF2EC0811507
:1031500069F1853168F58F73880F880F9091A60506
:103160009370892B8093A605611521F086EA95E07E
:103170000E94760F6091A6056695669570E04BE01B
:1031800050E087E091E00E94DC31892B99F01092A9
:10319000A50581E08093E60420E04091A9056091B7
:1031A000A8058091A7050C94B40F089581E0D4CFB1
:1031B00084E1D2CF81E08093A50523DB8093E304F3
:1031C0009093E404E6CF8091A605869586958F5F5F
:1031D000853108F081E061E0B6CF8091A605869543
:1031E0008695815009F484E161E0ADCF0ADB9C0152
:1031F0009091990580919A05982B21F02093F704DE
:103200003093F80490919B0580919C05982B21F0B8
:103210002093F5043093F60487E995E00C94F60BBF
:10322000611509F459C0E82FED5CE33150F4F0E08A
:10323000E25FFA4C0C94C5310E94A20B81958093F9
:103240009A05D4CF0E94A20BFACF0E94A20B8195BF
:1032500080939905F6CF0E94A20BFACF0E94C20B71
:1032600080939B05EECF0E94C20B8195F9CF0E94FF
:10327000C20B819580939C05E4CF0E94C20BFACFCC
:10328000482F415D550B21E001C0220F4A95EAF716
:1032900090919805922B9093980540919E05815DA1
:1032A00021E001C0220F8A95EAF7822F611509F407
:1032B0008AC0422B40939E050C945910809196052C
:1032C000816080939605BDCF809196058260F9CF8D
:1032D000809196058460F5CF90919905482F50E034
:1032E0008D3C59F420919A0527FF0DC010929A0544
:1032F00091110BC01092950508C08E3CA9F4209145
:103300009A0512169CF39115A9F090919B052091B6
:103310009C05922B11F410929405415D510948309F
:10332000510508F4BACF8DCF8F3C39F497FFEBCF1E
:103330001092990590919A05DBCF803D19F41916EA
:10334000BCF3E1CF20919B05893D29F41216DCF6F0
:1033500010929B05D8CF8A3D19F427FFD4CFF8CF20
:1033600020919C058B3D29F427FFCDCF10929C0521
:10337000CACF8C3D19F41216CCF3C5CF282F215D8E
:10338000283070F4FA01E15D21E001C0220FEA95D6
:10339000EAF7209530919805232320939805B3CF21
:1033A000209196052E7F8D3D59F0209196052D7F19
:1033B0008E3D31F08F3D09F0A6CF209196052B7FF1
:1033C00020939605A0CF8095482374CFCF93C82F24
:1033D0008115A9F08450813AA0F4E4E3F2E08AE395
:1033E00092E02081C217E9F131968E179F07C9F745
:1033F0006C2F82E392E00E94560C0E948C10CF91B9
:1034000008958C2F805E883060F4C77021E001C081
:10341000220FCA95EAF78091AE05822B8093AE0504
:10342000ECCF8C2F855A833030F48C2F8452990B3B
:103430000E94080CE4CFEC2FE85AEB3150F4F0E096
:10344000EE0FFF1FE151FE4F808191810E942F0CF2
:10345000D6CF8C2F8D5C833190F661E08C2FE0DE2F
:10346000CECF6C2F82E392E00E94710C0E948C10F0
:10347000BFCF811581F1982F9450913A38F4682F7D
:1034800082E392E00E94710C0C948C10982F905E55
:10349000983058F4982F81E091FD84E090FD880FDA
:1034A00092FD82950E949507EFCF982F955A933001
:1034B00020F480E090E00C94080C982F985A9B31EF
:1034C00020F480E090E00C942F0C982F9D5C9331B9
:1034D00010F460E0A5CE08951092AE05E4E3F2E0AA
:1034E00086E011928A95E9F780E090E00E94080C4E
:1034F00080E090E00E942F0C1092B4050E948C1086
:10350000E7E9F5E086E011928A95E9F710929505D2
:10351000109294051092960569CEDEDF8FEF94E34A
:103520002CE0815090402040E1F700C0000088E18D
:103530009AE00FB6F894A895809360000FBE909320
:103540006000FFCFA0E0B0E0E8EAFAE10C94793146
:103550008C01FC018481811509F4BBC461E0C801C0
:103560000E94E508EC0180912001811509F469C0F1
:10357000C03282E5D80708F050C0D23508F0C8C084
:10358000D03508F03FC0D03408F0E6C0D03208F0A3
:10359000E9C0C83ED10588F5C03ED10508F04CC051
:1035A000F8018481811509F447C0C4308EE7D8073B
:1035B00009F4C7C0CE018D5C9109439708F4C1C0DE
:1035C0000E944509811138C0F8018581811579F083
:1035D0008091210140912E0650912F0641155105F1
:1035E00009F0C4C0811509F4CEC00E947F1009D92A
:1035F00080932701909328011FC0CE0191509F31E5
:10360000D8F0CECFCE0155E0969587955A95E1F743
:103610008F7090E02091210190C0C03882E5D807DA
:1036200008F04CC0C03682E5D80708F071C0C0343D
:1036300082E5D80708F47CC080912B0187FD1092A9
:103640002B01C1158EE7D80709F0A0C0F8018581CC
:10365000811509F18091300690E0019665E070E0F7
:103660000E945B31809330064091300650913106C4
:1036700060913206709133068FE090E00E94D23460
:10368000E0913006F0E0EE0FFF1FEB5DFD4F808113
:1036900091810E94610EF8019581911509F41FC175
:1036A0008091AE058272FE01E052F847EB30F105E1
:1036B00008F015C1EF5DFA4C0C94C531C03E82E5AF
:1036C000D80708F5C03C82E5D80708F4B5CF2091AB
:1036D00021018C2F8F7190E02817190609F0ACCFCB
:1036E000F80185810E946A09F8018681807F803512
:1036F00009F0A2CF8581811549F180912B0181507C
:1037000080932B0199CFCE01805E9245809778CF30
:10371000209121018C2F8F7190E02817190609F054
:103720008BCFF8018581811187CF0E945F0984CFFB
:10373000209121018C2F8F7190E02817190609F034
:103740007BCFF80185810E946A0976CF0E945F09CC
:1037500080912B018F5FD4CFF8018681803110F4E6
:103760008D2F56CFF801868180314ACF21E030E09D
:10377000082E02C0220F331F0A94E2F724233523B8
:10378000232B09F432CF0E94B50A2FCFC1308EE728
:10379000D807E1F4F8018581811509F47CCF809187
:1037A000310690E0019666E070E00E945B31809304
:1037B0003106409130065091310660913206709189
:1037C00033068FE090E00E94D23465CFC2308EE79E
:1037D000D80709F03EC3F8018581811509F45BCF54
:1037E0008091320690E0019669E070E00E945B31C2
:1037F00080933206DECFF8018581811509F44BCF25
:103800008091320690E00896EFCFF801858181150E
:1038100009F441CF80913306819580933306C9CF57
:10382000F8018581811509F436CF8091340691E045
:103830008927809334062FCF8091A30565E38111FA
:1038400001C069E282E392E00E94710C31C3809171
:10385000A60580FF0CC08E7F8093A60586EA95E0C2
:103860000E94760F1092A5050E940C0A23C3816066
:103870008093A60561E08695869565DC1BC381155E
:1038800021F0ABDC17C38115E1F39DDC13C3811577
:1038900029F00E9425100EC38115D9F30E941D1036
:1038A00009C3811529F00E94381004C38115D9F38A
:1038B0000E942D10FFC2811529F00E944E10FAC2FD
:1038C0008115D9F30E944310F5C2811529F00E9499
:1038D000AA0FF0C28115D9F30E94A00FEBC29E017E
:1038E000205E324520323105A0F4911125C0CF7100
:1038F00081E090E002C0880F991FCA95E2F7EC01C1
:10390000682F83E090E00E94C034CE010E94E4065C
:10391000D1C2911509F446C0CB358CE7D807C9F15F
:10392000CC358CE7D80751F1CA358CE7D80779F147
:10393000C1308CE7D807A9F1C3308CE7D80759F11B
:10394000C115DC4779F5C8DD8FEF94E32CE0815099
:1039500090402040E1F700C0000087E797E78093A0
:1039600000089093010888E19AE00FB6F894A895B2
:10397000809360000FBE90936000FFCF8091B305ED
:10398000002482FF0394802D0E94600F93C281E087
:10399000FBCF80E0F9CF6FEF7FEF80E090E00E94F7
:1039A000DA34BBDDF8012781308521153105D9F1E5
:1039B000C9010E949D07D82FC92FF801D580E68044
:1039C000E2942FE0E2228091B105877001F1CD2CC5
:1039D000D114F1F0892F807F803461F08D2F805ECB
:1039E0008830A8F0892F807E803221F4D23078F0A0
:1039F000E11469F08091B30582FF09C082E00E9462
:103A0000C50A8091B1058770CC24C3948111C12C63
:103A1000EC2FE295EF70C03C08F07CC0F0E0E45D74
:103A2000FA4C0C94C531E080F180911569F0C70122
:103A30000E94B108C82F682FC7010E943C07B70138
:103A40008C2F0E947608B5CFC7010E945507C82F5A
:103A5000F6CF8C2F8F70F82EC03118F0F29490EFC3
:103A6000F922D114B9F0F11469F08D2F805E8830FD
:103A700010F0D11109C08091AE058F298093AE0559
:103A80000E948C108D2F40C08091B4058F298093A7
:103A9000B405F6CF8D2FEDDCF114E1F18D2F805EB2
:103AA000883010F0D11104C08F2D0E94950706C0F8
:103AB000F0948091B4058F218093B4050E948C10FE
:103AC00029C08C2F8F70F82EC07FC03219F0F2946D
:103AD00080EFF822D13040F009F463C0D11409F42A
:103AE0006EC0E11499F1CECF8091B30582FD2AC05A
:103AF000D11461F0F11439F08091AE058F298093D3
:103B0000AE050E948C1080E061DC04C080E0B1DC76
:103B1000F110CACFC11409F4B9C08091B10580FD7C
:103B2000B5C0F80115828695869586950E94A70AEC
:103B3000C80108DD8091B1058695869586950E941D
:103B4000B50AA4C0D11499F0E11004C08F2D0E94D1
:103B5000CA10E0CF8E2D8130E9F68091AF059F2D00
:103B60009823F916B9F28F298093AF05D3CFE110CE
:103B7000D1CF8F2D0E94D3109091AF058F2D892327
:103B800029F08F2D809589238093AF058091B00512
:103B90009F2D982309F4BECFF094F822F092B0053F
:103BA000B9CF8E2DD11421F0863008F0B3CFCECF0F
:103BB000853008F0AFCF8F2D0E94D310ABCFE1142A
:103BC000D1F3D93349F48FEF97EE23E08150904041
:103BD0002040E1F700C000008D2F4BDC9BCF8C2FE5
:103BE000869586958370813060F009F093CF8D2F94
:103BF0009C2F9370D11002C080E090E00E942F0CA7
:103C000089CF8D2F9C2F9370D11002C080E090E05F
:103C10000E94080C7FCF6D2D8D2F02DB7BCF8C2F68
:103C2000837009F046C0D1102FC04D2F42954695A4
:103C30004770440F440F2D2F2F7030E0042E02C028
:103C4000220F331F0A94E2F780E090E0D4FF09C00E
:103C50008FE090E002C0880F991F4A95E2F78095A7
:103C60009095C695C695C370C230D1F0C330A9F007
:103C700040912C0650912D06C13069F0822B932B78
:103C8000842395230E94E4060E94E70B60E0C801AC
:103C90000E94E5081EC1242B352B822B932BF2CFDB
:103CA000822B932B20912C0630912D06822793276F
:103CB000E9CFD11491F1C0FFE7CF4D2F4295469542
:103CC0004770440F440F2D2F2F7030E0042E02C098
:103CD000220F331F0A94E2F780E090E0D4FF09C07E
:103CE0008FE090E002C0880F991F4A95E2F7809517
:103CF0009095C695C695C370C230C1F0C33099F097
:103D000040912E0650912F06C13059F0822B932BF3
:103D1000842395230E94A10AB7CF823008F4B4CF40
:103D2000CCCF242B352B822B932BF4CF822B932BB0
:103D300020912E0630912F0682279327EBCFCF704C
:103D4000D11439F08C2F0E94A70A8D2F0E94CA101F
:103D50009BCF8D2F0E94D3108C2F0E94B50A94CF39
:103D6000D23F99F168F4D03FC1F0D13F89F0D1142E
:103D700009F45CC0E11409F456C08D2F27DB84CF11
:103D8000D33F51F1D43F99F79091B30592FD32C0E2
:103D90008C2F8F71D11409F31CC08E2DD11499F082
:103DA000853008F071CFCF7181E090E002C0880FBC
:103DB000991FCA95E2F7EC0180912E0690912F068B
:103DC0008C279D27A7CF8630ECCF8C2F8F71D110F9
:103DD000C4CF0E94A70A58CF80E090E0D11409F424
:103DE00099CFCF7181E090E002C0880F991FCA95EA
:103DF000E2F790CFD11461F08C2F8F7192FFE9CF51
:103E0000982F990F990F990F93609093B105E1CF77
:103E100081E00E94C50A8E2D823008F435CF82E001
:103E20000E94C50A31CF8C2F8F71D3CFE11471F06E
:103E3000D93349F48FEF97EE23E081509040204032
:103E4000E1F700C000008D2F14DB1ECF8C2F8F7187
:103E500084CFC3308EE7D80709F4CDCCC6308EE7C7
:103E6000D80709F4D2CCC5308EE7D80709F4D8CCEE
:103E7000C4308EE7D80709F4D8CCC6318CE7D80710
:103E800009F009CCF8018581811509F4D5CC809120
:103E9000AE058A7A91E0811101C090E09093A3056C
:103EA00065E3811101C069E282E392E00E94560C51
:103EB0000E948C108091B105877059F0F8018581BE
:103EC000811539F08091B30582FF03C082E00E9422
:103ED000C50ACDB7DEB7E8E00C94953180916D0549
:103EE000803170F480916C05811551F0E0911E05D0
:103EF00020911D0530916805409167052E1301C082
:103F00000895BF0189E0E89FF0011124DF01A15E5F
:103F1000BA4F14968C911497811551F111968C918A
:103F20001197831325C08C91841322C015968C9110
:103F3000159781111DC012968D919D91A0916905D3
:103F4000B0916A058A1B9B0B883C910588F480918F
:103F50006D058F70806180936D05EB5DFA4F8081F8
:103F60008F708061808387E695E0ECDA0C948B0794
:103F70006F5F7F4FFB01E770C1CFAFE0B0E0E3ECD4
:103F8000FFE10C9474318C0186E0F801DE011A9691
:103F900001900D928A95E1F7F801F580C48087E6DB
:103FA000882E85E0982E70906B0571101FC0C1148B
:103FB000D1F0F11409F442C1C8010E94120981151F
:103FC00009F43CC189E0F801D40101900D928A9571
:103FD000E1F78C2D813031F480916705909168056F
:103FE0000E9408097BDFFF24F3945CC0E080A2807C
:103FF000B380D0906C058091690590916A05950118
:10400000281B390BD11409F4E2C0283C310508F013
:10401000B0C0C11441F390916805C18080916D05D5
:10402000803108F05FC0C9121CC0909167059E11D5
:1040300018C040916E0550916F0527813085421759
:10404000530779F4F11048C08F70806180936D053B
:1040500087E695E077DA80916D05F8018683F12C8B
:1040600021C0F11039C040E06C2D8E2D0E946C07EC
:1040700040E06C2D8E2D0E946C07F82E8111EFCF41
:104080008A859B850E940809292F22952F709034DC
:1040900070F49F70223098F09115A9F0F801968184
:1040A000903188F48F2D2F96EDE00C9490312A5F9B
:1040B0002F70223060F0C80145DAFD2CF3CF911546
:1040C00011F0811579F3805E883060F3F4CF803F82
:1040D00048F3815F8330F9CF80916D0581608093D3
:1040E0006D05BDCFC9121BC0909167059E1117C009
:1040F00040916E0550916F05278130854217530717
:1041000071F4F1100CC08683C8011CDA89E0F80153
:10411000A7E6B5E001900D928A95E1F764CFC8015A
:104120000E941209811509F489C0F11409F486C0AE
:1041300080916D058032A0F020916705309168056F
:1041400029833A83AB82BC827D821E828F838091D9
:104150006E0590916F0588879987CE010196F2D9F7
:1041600089E0F801A7E6B5E001900D928A95E1F7A4
:1041700039CF80916D05803148F487E695E0E2D92A
:10418000F40189E011928A95E9F769CFC11409F425
:104190002ACF2091680591812913C1CF909167059D
:1041A0009E11BDCF40916E0550916F0527813085DE
:1041B0004217530709F0B3CFF110B1CF8683C8017E
:1041C000C1D9F40189E011928A95E9F70CCF283C16
:1041D0003105B0F6C11409F406CFF11479F19091CC
:1041E00068058181981320C0809167058E111CC0DD
:1041F00020916E0530916F058781908528173907CA
:1042000099F490916D0590FD81CF903108F47ECFA7
:10421000892F9683907F903F09F476CF982F907FD7
:10422000905F8F70892B6FCFC8010E941209811196
:1042300097CF80916D05816080936D05C80182D90B
:10424000D2CEA2E1B0E0E7E2F1E20C947D310A8740
:104250001B872C873D874E875F87688B798B8A8B7E
:10426000CE010A968ADE81112EC020911D05309163
:104270001E0589E0AE01465F5F4FFA0149505109C2
:10428000DA0101900D928A95E1F78E858115D9F0BA
:10429000822F90E08395877090E0AC01341715066B
:1042A000E1F099E0929FD0011124A15EBA4F9E01E6
:1042B0002F5F3F4FF90101900D929A95E1F74093DE
:1042C0001D050E948B0780911E0590911D05891385
:1042D00010C06296E4E00C949931FED810921D054E
:1042E00010921E05E7E6F5E089E011928A95E9F75C
:1042F000EACF29E0829FC0011124815E9A4F3DDE02
:10430000811539F380911E0590911F0501968770E4
:1043100080931E05D8CFA9E0B0E0E1E9F1E20C946A
:104320007B317C01FC0182819381892B91F0FE011C
:10433000319687E011928A95E9F70E9401149C0159
:10434000F7017281838109811A8144E05E816F8166
:1043500078DFF70115822996E6E00C949731EF9209
:10436000FF920F931F93CF93DF9380912906E091E3
:104370005502CDE0811130C0CDB7DEB7E6E00C9438
:104380009731DE2FDF5FD0935502EE2EF12CCE9FBA
:10439000F0011124EF53FA4F84818115E1F08781F8
:1043A0009085892B21F481859285019651F40081B5
:1043B0001181228133814481558166817781808595
:1043C00040DFCE9DF001CF9DF00D1124EF53FA4F49
:1043D00014821092B405ED2F80912906E81788F217
:1043E0001092290610925502C7CF4F925F927F928A
:1043F0008F929F92AF92BF92CF92DF92EF92FF92F5
:104400000F931F93CF93DF93C091C00591E0E92EE6
:10441000F12C8091BF058C1313C0A1DF0E94520BB9
:10442000DF91CF911F910F91FF90EF90DF90CF9090
:10443000BF90AF909F908F907F905F904F90089526
:10444000D0E0FE01EE0FFF1FEB54FA4F0081118107
:10445000A0E0B0E00430110540F487E0809FD00177
:10446000819FB00D1124A05DBE4F14968C911497BE
:10447000811159C07090290641EC55E020E030E0F0
:10448000A12C271508F04CC0FA0143845484CD9028
:10449000DD90129799249A94892CB12C8B2D90E061
:1044A000F601EB0DF11DEB0DF11D659175914616B1
:1044B000570609F0C401672B19F0B3944C01EECFF5
:1044C0008F3F9807A9F1B70101C0660F8A95EAF7F7
:1044D000A62AC7010B2C02C0880F991F0A94E2F785
:1044E0000197A816190611F512968D919D914DE030
:1044F000429FF001439FF00D1124EF53FA4F878341
:10450000908784E08483108211820187128781E082
:1045100011968C9315978B2D813011F4CD01FBDE14
:10452000C8010E94630BC395C37073CFFA01148254
:104530002F5F3F4F435F5F4FA4CF10922A06109228
:104540002B0610924C018091BF058093C0050E94FC
:10455000520B05CFAEE1B0E0E0EBF2E20C946F312C
:104560004B8B5C8B6D8B7E8B8F8B792E988F911103
:104570001092B405188A198A1A8A86E0FE01739689
:10458000DE011A9601900D928A95E1F76F88611409
:10459000E1F06E867F8661E0CE010A960E94E50812
:1045A00061E0CE010A960E94E50861E0CE010A961C
:1045B0000E94E5086C0180E5C8168CE7D80689F4EE
:1045C000711421F181E080934C016E867F860A850B
:1045D0001B852C853D85A301688979898A8931DE0F
:1045E000C3C081E5C8168CE7D80621F4711471F0B8
:1045F000A4DFEBCF82E5C8168CE7D80639F4711436
:1046000029F080914C018111F3CFDCCF00E311E060
:10461000412CA12CB12C45018394F80120813181DA
:104620006FEF80E09FEFE82EF12CF901E80FF11D0C
:10463000E80FF11D45915591C416D50611F0E62EEF
:10464000F92E452B21F08F5F6E2D9F2DECCF9FEF24
:10465000E916FE0409F448C1F801448150904C0168
:104660004111512CF80135809681711409F403C170
:10467000511409F400C1311014C021E00E2C01C006
:10468000220F0A94EAF7922B96832091BD05309170
:10469000BE052233310528F422E32093BD05109294
:1046A000BE05940102C0220F331F8A95E2F7C901AB
:1046B0000197F80126812817190609F0C3C0E09078
:1046C0002A06F0902B06E114F10409F451C00E946F
:1046D00001148E199F09C39708F44AC081E0F801BC
:1046E0008483482A8FEFA81AB80A095F1F4F84E015
:1046F000A816B10409F091CF711409F4F7C0411460
:1047000009F4F4C00E94011480932A0690932B06AA
:1047100080912906883040F5982F9F5F9093290655
:1047200099E0FE013A969E012F5F3F4FD90101901B
:104730000D929A95E1F76D827E822DE0829FC001F5
:1047400011248F539A4F29E0AE014F5F5F4FFA015A
:10475000DC0101900D922A95E1F72FEF3FEFFC016C
:1047600021873287C386D4866E96E2E10C948B3122
:104770009091C0058091BF05292FA0E0B0E037E0FF
:1047800061E0981709F44DC0492F50E0998F1A8EB7
:10479000FA01EE0FFF1FEB54FA4F40815181A0E068
:1047A000B0E04430510538F4349FD001359FB00D4E
:1047B0001124A05DBE4F4D915D9112974D8F5E8F7C
:1047C000E12C70E0F12CED8DFE8DEF0DF11DEF0D64
:1047D000F11D2590359021143104D9F0F801408164
:1047E00051814B8F5C8F70E007C0E1E024163506E5
:1047F00009F0E0E0EE2A7F5FEB8DFC8DE70FF11D05
:10480000E70FF11D459155914115510571F7F3944D
:10481000DACFE11469F17F15B8F4F80191E09483DF
:10482000D8012093C005A017B10761F090E0FC010A
:10483000EE0FFF1FEB54FA4FA082B18201968370F6
:104840008093BF05852D4DCF109761F014966C9322
:104850001497A017B10729F3921304C0A901439537
:10486000242F2370498D5A8D4395942F937089CFAF
:10487000A0E0B0E0F7CF292F30E031101FC0B40125
:1048800002C0660F771F8A95E2F7CB010197821766
:10489000930771F0512CC40102C0880F991FEA944C
:1048A000E2F77C01E094F80186818E218683CACFED
:1048B000411589F3C5010E94630BECCFA9010E2CB1
:1048C00002C0559547950A94E2F7C90101978223E2
:1048D0009323892B31F440FF04C0C8011CDD532C05
:1048E000DACF4170542ED7CF80E0FBCE9091C00537
:1048F0008091BF05981731F078DD842D813009F45F
:1049000033CF63CE2CDD10922A0610922B060E9424
:10491000520BF3CFA6E0B0E0E0E9F4E20C947D3175
:104920000E9401148C01809111059091120580174D
:10493000910771F019821A820E940114BC01498109
:104940005A8180E090E006DE009311051093120575
:104950002696E4E00C949931AAE2B0E0E2EBF4E2AE
:104960000C947E318DE392E0FC0101962091F100E0
:10497000208322E085349207B9F780913E02893086
:1049800009F45AC0C8F4823009F4B7C0833009F47E
:1049900086C0813091F18091E80083FFEBC0809167
:1049A0003D0290913E029A3008F0E4C0E92FF0E019
:1049B000E85CFA4C0C94C5318A3009F48DC08B3018
:1049C00051F780913D02813231F7809141029091FF
:1049D0004202892B01F78091E800877F8093E800ED
:1049E0000E94470D81E090913F02911101C080E04B
:1049F000809314010E946C1ACECF80913D02813ABF
:104A000051F68091E800877F8093E8008091410211
:104A100090914202892B61F060E080E090E070E0CC
:104A20000E94BA0C8091E8008B778093E800B3CFA6
:104A300068E085E492E0F3CF80913D02813209F095
:104A4000AACF8091410290914202029708F0A3CF31
:104A50008091E800877F8093E8008091E80082FFE2
:104A600019C02091F3008091F200922F029731F447
:104A70008091F100813011F0863021F48091F100B5
:104A8000809313018091E8008B778093E8000E9467
:104A9000470D81CF8091CD048111DFCF7CCF8091F4
:104AA0003D02813A09F077CF809141029091420214
:104AB000892B09F070CF8091E800877F8093E80010
:104AC0008091E80080FFFCCF809114018093F10079
:104AD0008091E8008E77D9CF80913D02813209F034
:104AE0005ACF8091E800877F8093E8000E94470DAD
:104AF00080914002809312014ECF80913D02813A15
:104B000009F049CF8091E800877F8093E800809189
:104B1000E80080FFFCCF80911201D8CF803889F067
:104B2000823841F5809141028F70873018F580936B
:104B3000E9008091EB0085FB882780F91092E9005D
:104B400006C08091CC04880F90913A02892B9091F5
:104B5000E800977F9093E8008093F1001092F100B5
:104B60008091E8008E7723C0811116C080913F02AA
:104B7000813011F18091E80083FF0AC08091E80044
:104B8000877F8093E8008091EB0080628093EB0048
:104B9000AA96E3E00C949A31823061F780913F024B
:104BA000811581F01092E9008091E800877F809361
:104BB000E8000E94470DDECF933009F080E080933B
:104BC000CC04F0CF809141028F70282F21502630E5
:104BD00088F68093E9002091EB0020FFE3CF93302B
:104BE00031F48091EB0080628093EB00DBCF9091F9
:104BF000EB0090619093EB0021E001C0220F8A95B9
:104C0000EAF72093EA001092EA008091EB008860B6
:104C1000EBCF8111AFCF80913F028F77182F80911A
:104C2000E3008078812B8093E3008091E800877F08
:104C30008093E8000E94470D8091E80080FFFCCF40
:104C40008091E30080688093E30083E0111101C04C
:104C500082E08093CD048ECF8058823008F08ACFD6
:104C600020913F02309140022C3D83E0380791F5BE
:104C700083E08A838AE289834FB7F894DE01139632
:104C800020E03EE051E2E32FF0E0509357008491A2
:104C900020FF03C082958F703F5F8F708A30C0F015
:104CA000895C8D931D922F5F243169F74FBF8091EE
:104CB000E800877F8093E8006AE270E0CE01019609
:104CC0000E94BA0C8091E8008B778093E80052CF65
:104CD000805DE7CF832F90E08330910519F160F478
:104CE0008130910509F46CC08230910509F042CF02
:104CF0008BE3E3E8F1E029C02091410230914202C8
:104D00008132910509F453C08232910509F032CF06
:104D10002130310508F45CC009F02CCF8BE7E4ECBE
:104D2000F0E013C0822F90E0213099F1823091059C
:104D3000B9F1009709F01ECFE8EFF1E0E4918E2F72
:104D4000E8EFF1E0009709F415CF2091E800277F04
:104D50002093E80020914302309144028217930788
:104D600008F49C0140E021153105B1F5411134C032
:104D70008091E80082FDA6CF8091CD04811509F4D1
:104D8000A1CF853009F49ECF8091E80083FFF0CF5A
:104D900099CFEAEEF1E0E4918E2FEAEEF1E0D2CF86
:104DA000E0EDF1E0E4918E2FE0EDF1E0CBCF2130AA
:104DB000310550F009F0DECE89E0EEEAF1E0C5CF32
:104DC00082E1EEEBF1E0C1CF89E0E5E9F1E0BDCFB2
:104DD00084E4EFE3F1E0B9CF8091CD04811509F4CB
:104DE00071CF853009F46ECF8091E80083FD6ACFE2
:104DF0008091E80082FDBCCF8091E80080FFB3CFB6
:104E00004091F3008091F200942F2115310519F0A3
:104E10008830910550F041E0089709F040E080911A
:104E2000E8008E778093E8009ECF44914093F10094
:104E30003196215031090196E8CF803809F09ACE99
:104E40008091E800877F8093E80080913B02809307
:104E5000F10086CE81118ECE80913F02182F8230D4
:104E600008F088CE8091E800877F8093E800109357
:104E70003B020E94470D1115A9F084E08093CD04F8
:104E800042E061EC81E00E94170D42E261EC82E0B9
:104E90000E94170D8091CD04843051F482E08093FC
:104EA000150168CE8091E30087FDE7CF81E0E6CF72
:104EB00081E0F5CFCDB7DEB765970FB6F894DEBFCA
:104EC0000FBECDBF85B7806885BF85B7806885BFB9
:104ED00084B7877F84BF0FB6F894A895809160004F
:104EE000886180936000109260000FBE80E890E0BF
:104EF0000FB6F89480936100909361000FBE81E03B
:104F00008093150182E499E08093300290933102FE
:104F10000E94E60D0E94970D8091E20084608093CC
:104F2000E20078948091CD04811591F08091E900A0
:104F30001091EC008F7010FB112717F9182B1092AD
:104F4000E9008091E80083FD07DD1F701093E90000
:104F500082E084BD93E095BD9AEF97BD80936E008B
:104F6000ECEEF4E088E011928A95E9F781E0809315
:104F7000EB0460E080E00E94270B61E080E00E948B
:104F8000270B8FE891E00197F1F700C0000010E0D7
:104F90008091EB04181708F4FCC1E9EAF1E09F01E5
:104FA00041E0D9018D919D01A82FA295AF70B0E08D
:104FB00091966C918F70042F01C0000F8A95EAF7CB
:104FC000902F909596239C9311969C91802F892BDE
:104FD0008C9381E0233B380721F743EB51E029EB29
:104FE00031E0BA0101E0DB018D91BD01A82FA2954E
:104FF000AF70B0E09196FC908F70C02E01C0CC0CC9
:105000008A95EAF79C2D90959F219C9311969C91EF
:105010008C2D892B8C932617370729F721E0DA018D
:105020008D91AD01A82FA295AF70B0E091966C91D3
:105030008F70022F01C0000F8A95EAF7902F90958C
:1050400096239C9311969C91802F892B8C9381E0C1
:10505000493B580721F741E08191A82FA295AF70F5
:10506000B0E091962C918F70642F01C0660F8A95E5
:10507000EAF7962F909592239C9311969C91862FF8
:10508000892B8C9381E0E33BF80731F7E7E0F5E00B
:105090008AE011928A95E9F7EDEFF4E08AE0119247
:1050A0008A95E9F78FE090E00E94B634609330066D
:1050B000709331068093320690933306663010F079
:1050C0000E94420E80E090E00E94BB34833E9E4FDF
:1050D000F9F063EE7EEF80E090E00E94DA3460E069
:1050E00082E090E00E94C03481E090E080932C0642
:1050F00010922D0661E083E00E94C03460E074E10C
:1051000084E090E00E94DA340E94900F0E94420EE8
:1051100082E090E00E94AE348093D80484E090E076
:105120000E94BB348093B2059093B30583E090E076
:105130000E94AE3490E00E94E40680912E06909189
:105140002F060E94700A1092C80480E88093C7045A
:105150006CD56BE070E080EE98E00E94181181152C
:10516000E9F18091C80465E070E081FD24C18BED18
:1051700098E00E941811811589F16DE070E089ECCA
:1051800098E00E941811811549F10E94AD0CDC01D4
:10519000CB01805A9541AF4FBF4F8093C30490938A
:1051A000C404A093C504B093C604E0ECF2E0DF01B0
:1051B00080E092E01D920197E9F7E093BE02F09340
:1051C000BF028FEF9FEF8093BC029093BD0281E0FE
:1051D0008093C2048093C1041092C0048091C904DA
:1051E00081112FC086EA95E00E94D9108091A60512
:1051F000843008F0E3C00E94900F86EA95E00E9498
:10520000D9108091A605843008F0D8C083708460DE
:105210008093A6058091A905893718F088E78093C7
:10522000A9051092A5050E94450B8091A60580FF57
:1052300005C060E0869586950E94A31881E0809362
:10524000C9040E94BA0E8111C1C081E08093CA04D2
:10525000E0913006F0E0EE0FFF1FEB5DFD4F808127
:1052600091810E94610E60E982E20E94380E809175
:10527000200181110DC011E0109320010E947F10C8
:1052800080912001811104C0109320010E947F10A1
:1052900086E191E08093130590931405CE01019669
:1052A000282E9B8BACEF4A2EA1E05A2E8091CD0484
:1052B00000E110E4F2E1FF2E853009F4E2C00E9423
:1052C0001614E9ED8E2EE4E09E2E8DEF94E08C8B8B
:1052D0009D8BFC01D4019D91808123EE34E02A173F
:1052E0003B0709F4D8C031969817A9F30EEC14E0E7
:1052F000D12CEC89FD89C190EC8BFD8BF401619080
:105300004F016C14D1F16C24E12CF12C77247394AF
:10531000862D872141F13C2C372071E0A72E0E2CE1
:1053200001C0AA0C0A94EAF7F801808190E08A2172
:10533000892B91F4E982DA820E9401148B839C8389
:105340005D8291E0311001C090E09E8349815A81D5
:105350006B817C818D81FED8311005C0A094F8014D
:1053600080818A218083770C8FEFE81AF80A86E023
:10537000E816F10469F6F401C292D3940F5F1F4F4F
:105380008D2D8A3009F0B5CF0E94AD0CDD24D39469
:1053900086C060E0812F0E94390B082F61E0812FC9
:1053A0000E94390BE12FF0E0E651FB4F880F802B74
:1053B00080831F5FEDCD86ED98E0DBCE8091A60562
:1053C000843508F427CF8370806522CF83E03ECFF9
:1053D0008091CD04843039F10E9447110E94151547
:1053E0001092CB0488E190E00FB6F894A8958093D2
:1053F00060000FBE1093600083B7817F846083BF1D
:1054000083B7816083BF7894889583B78E7F83BF8D
:105410000FB6F894A8958091600088618093600031
:10542000109260000FBE0E941614EDEFF4E0AEEC97
:10543000B4E080E021912D9391E0211101C090E032
:10544000892B27E035E02E173F07A1F78115C9F01A
:105450008091CC048115A9F009BDF9BC09B400FE06
:10546000FDCF8091D8008F7D8093D8008091E0009F
:1054700082608093E0008091E00081FDFCCF0E947B
:105480006C1A8091CD04853009F4A2CF0E946C1A69
:105490000E94E70B14CF981329CF3CDAD12C8091CE
:1054A0004C01811519F100912A0610912B06011566
:1054B0001105E1F00E940114801B910B2091BD05A4
:1054C0003091BE052817390788F49091C005809166
:1054D000BF05981709F459C00E94F5211092BD0527
:1054E0001092BE0510922A0610922B068091A505F7
:1054F0008115D9F18091A405E091A605E695E69580
:10550000E81BE093E504823009F048C0F0E0E25186
:10551000F74FE4910E2F10E06BEDE62E6AE0F62EC9
:105520008091E604811561F01092E6040E94011456
:105530008093E3049093E4041092E7041092E8044B
:105540000E9401142091E3043091E404821B930B28
:105550008F3F9F4750F4200F311F2093E304309377
:10556000E40483EE94E0F70109958091F404811539
:1055700051F08091EE041092F4048093EF04809136
:10558000EC048093ED0400E069C00E94AF2110920A
:105590002A0610922B060E94520BA8CF00ED17E0AE
:1055A00044E4E42E49E0F42E853009F0B9CFE695C5
:1055B000F0E0E551F74FE4910E2F10E056EFE52EA5
:1055C0005AE0F52EADCFF090EF041091EE0461E0BB
:1055D000802F0E94390BE82E60E0802F0E94390B4B
:1055E000EE0C8E29202F30E0D901A651BB4FEC9153
:1055F0009E2F9370891789F1EE0FEE0FE82BEC9335
:10560000EF70F0E0E756FE4F27513B4F8081F901E4
:105610009081890F84300CF448C0412F50E0BA01CA
:105620006395637070E0F616170679F044515B4F8E
:10563000902F9F77FA0194831F5F13701093EE04ED
:105640009091EC049F5F9093EC04982F990F990B25
:1056500064E070E087D6F90180830F5F8091EB04EE
:10566000081708F4B0CF00E01DEF8091EF0490918F
:10567000EE04981709F44FC0E82FF0E0E051FB4F1B
:10568000F0800F2D0F778F5F83708093EF048091F0
:10569000ED048F5F8093ED04F7FC17C00F834886FD
:1056A0000E94011423E0E22E16C08D3F74F6412FB4
:1056B00050E0BA016395637070E0F616170629F2A0
:1056C00044515B4F902F9068B5CF0F8318870E948D
:1056D000011432E0E32EBC0189879A87EB865C8651
:1056E0004F8158858E2D91E00E94AA220D87F7FEEA
:1056F00010C01E870E940114BC018F87988BE98A15
:105700001A8A4D855E858E2D90E00E94AA2201E0C6
:10571000ACCF4E86EFCF011519F00E94AD0CD02E04
:105720000E941515811539F00E94AD0C0E942212BD
:105730000E94251104C00E942212D110F9CF86E0E8
:10574000E7E9F5E0A22DBB8901900D928A95E1F77A
:105750001092990510929A0510929B0510929C0543
:105760008B819C81892B09F443C00091F70410912F
:10577000F8040E940114801B910B9C0190919505E7
:10578000911509F4ADC02531310590F19F3F19F015
:105790009F5F909395051B81111559F00E94A20BF4
:1057A00091E011160CF09FEF899F802D11248093BA
:1057B00099051C81111559F00E94A20B91E0111658
:1057C0000CF09FEF899F802D112480939A05809182
:1057D0009905811569F010919A05111549F00E94FB
:1057E000940B80939905812F0E94940B80939A05C6
:1057F0008D819E81892B09F443C00091F50410919D
:10580000F6040E940114801B910B9C019091940559
:10581000911509F460C02135310590F19F3F19F0D1
:105820009F5F909394051D81111559F00E94C20B42
:1058300091E011160CF09FEF899F802D1124809329
:105840009B051E81111559F00E94C20B91E01116A3
:105850000CF09FEF899F802D112480939C058091EF
:105860009B05811569F010919C05111549F00E9466
:10587000940B80939B05812F0E94940B80939C0531
:10588000622D7B8987E995E00E947D0C81110CC017
:105890008091990590919A05892B90919B05892B70
:1058A00090919C05892B11F00E94F61886E0E22D5C
:1058B000FB89A7E9B5E001900D928A95E1F70E9476
:1058C000E70B9091F904891709F4F0CC8093F9045F
:1058D0000E94AD0CE7CC2B30310508F0A1CFD0CF22
:1058E0002B30310508F054CF83CF78941F921FB628
:1058F0001F9211248F939F93AF93BF9380914D027A
:1059000090914E02A0914F02B09150020196A11DBC
:10591000B11D80934D0290934E02A0934F02B0931D
:105920005002BF91AF919F918F911F901FBE1F900A
:1059300018951F920F920FB60F9211242F933F9339
:105940004F935F936F937F938F939F93AF93BF9387
:10595000EF93FF938091E10082FF09C08091E20004
:1059600082FF05C08091E1008B7F8093E1008091F0
:10597000DA0080FF24C08091D80080FF20C0809191
:10598000DA008E7F8093DA008091D90080FFA9C071
:1059900080E189BD82E189BD09B400FEFDCF81E0CF
:1059A0008093CD0480913C02811109C00E94E60DD4
:1059B0000E94970D8091E20084608093E2008091C4
:1059C000E10080FF1AC08091E20080FF16C0809144
:1059D000E2008E7F8093E2008091E20080618093FC
:1059E000E2008091D80080628093D80019BC85E0E5
:1059F0008093CD0483E0809315018091E10084FFC2
:105A00002FC08091E20084FF2BC080E189BD82E13C
:105A100089BD09B400FEFDCF8091D8008F7D8093B1
:105A2000D8008091E1008F7E8093E1008091E200B8
:105A30008F7E8093E2008091E20081608093E2009B
:105A400080913B02811509F452C084E08093CD041B
:105A50008091CD04843009F052C082E0809315011A
:105A60008091E10083FF2CC08091E20083FF28C079
:105A70008091E100877F8093E10082E08093CD04F4
:105A800010923B028091E1008E7F8093E100809133
:105A9000E2008E7F8093E2008091E200806180933B
:105AA000E20042E060E080E00E94170D8091F0008B
:105AB00088608093F00081E0809315018093140149
:105AC000FF91EF91BF91AF919F918F917F916F91D6
:105AD0005F914F913F912F910F900FBE0F901F90AC
