:100000000AC7000025C7000023C7000021C7000061
:100010001FC700001DC700001BC7000019C7000054
:1000200017C7000015C700000C94BF290C94A72A1D
:100030000C9474290DC700000BC7000009C700000D
:1000400007C7000005C7000003C7000001C7000084
:10005000FFC600000C949B29FBC60000F9C60000F7
:10006000F7C60000F5C60000F3C60000F1C60000A8
:10007000EFC60000EDC60000EBC60000E9C60000B8
:10008000E7C60000E5C60000E3C60000E1C60000C8
:10009000DFC60000DDC60000DBC60000D9C60000D8
:1000A000D7C60000D5C60000D3C60000050109026E
:1000B000A10185020901A1000509190129081500FE
:1000C0002501950875018102050109300931158165
:1000D000257F95027508810609381581257F9501D0
:1000E00075088106050C0A38021581257F95017572
:1000F000088106C0C005010980A101850319012AF4
:10010000B700150126B700950175108100C0050CD8
:100110000901A101850419012AA002150126A002E6
:10012000950175108100C005010906A10105071997
:10013000E029E715002501950875018102950175F3
:100140000881010507190029FF150026FF00950603
:100150007508810005081901290515002501950577
:1001600075019102950175039101C009023B0002DE
:100170000100A0FA09040000010301010009211196
:100180000100012244000705810308000109040160
:10019000000103000000092111010001227B00077A
:1001A0000582032000011201000200000008271749
:1001B0000300010001020001180363006F006300E7
:1001C0006F0074003400360070006C00750073001E
:1001D00000000C0361006B00690032003700000072
:1001E00004030904000000000000000000000000FB
:1001F00000000000000000000000000000000000FF
:1002000000000000000000007E0F00D4FFFFFFC7C9
:100210000000007800000000000000002A2B2800E9
:1002200000000000000000000000000000000029A5
:10023000000000002C1E3420212224342627252EE5
:10024000362D3738271E1F2021222324252633331D
:10025000362E37381F0405060708090A0B0C0D0E49
:100260000F101112131415161718191A1B1C1D2F15
:100270003130232D350405060708090A0B0C0D0E35
:100280000F101112131415161718191A1B1C1D2FF5
:100290003130354CFFAA7F554000010101010101B9
:1002A000010101020202020202020202030303032D
:1002B00003030303040404040404040505050505FD
:1002C00006060606060707070707080808080909BB
:1002D00009090A0A0A0B0B0B0C0C0C0D0D0D0E0E66
:1002E0000E0F0F0F101011111112121313141415F9
:1002F0001516161717181819191A1A1B1B1C1D1D6D
:100300001E1E1F20202122222324242526262728C2
:1003100029292A2B2C2D2D2E2F30313232333435F2
:10032000363738393A3B3C3D3E3F404142434445F5
:10033000464748494A4C4D4E4F50515354555658D4
:10034000595A5B5D5E5F616264656668696B6C6D7E
:100350006F7072737577787A7B7D7E8082838587F4
:10036000888A8C8E8F91939596989A9C9EA0A2A332
:10037000A5A7A9ABADAFB1B3B5B7BABCBEC0C2C437
:10038000C6C9CBCDCFD1D4D6D8DBDDDFE2E4E7E9F7
:10039000EBEEF0F3F5F8FAFDFF643214783C1E2B17
:1003A0002814001A0008001500170029210400165F
:1003B00000070009000A0090241D001B0006001918
:1003C0000005005201E1002C4325524152D10000AA
:1003D0000000004B0000004E00000031001300122E
:1003E000000C0018001C00340033000F000E000D3C
:1003F000000B009134380037003600100011005116
:1004000001E50028382A380000D200000000000072
:10041000000000000000002B2814001A000800153E
:10042000001700292104001600070009000A0090A7
:10043000241D001B000600190005002B08E1002CFC
:100440004326524052D100000000004B0000004EF5
:100450000000003100130012000C0018001C0034D2
:100460000033000F000E000D000B009134380037F0
:10047000003600100011002B05E50028382A310055
:1004800000D2000000000000000000000000002B6F
:1004900028407E417E427E437E447E29214A7E4B17
:1004A0007E4C7E4D7E4E7E9024547E557E567E57E9
:1004B0007E587E697E26525E7E01000100D10000DA
:1004C0000000002D0100002E0100000100497E48BF
:1004D0007E477E467E457E0100537E527E517E5091
:1004E0007E4F7E91345D7E5C7E5B7E5A7E597E516E
:1004F00001E7005F7E01000000D200000000000064
:100500000000000000000000001E001F002000216D
:1005100000220001001E021F02200221022202010D
:10052000002D022E022D002E000000000001000010
:100530000000004052D10000000000AA000000A905
:100540000000003500270026002500240023003588
:10055000022702260225022402230201003802306B
:10056000022F0230002F00000001000100010000F6
:1005700000D20000000000000000000000000000A9
:10058000000000000000000000000000000000006B
:10059000000000000000000000000000000000005B
:1005A000000000000000000000000000000000004B
:1005B000000000000000000000000000000000003B
:1005C000000000000000000000000000000000002B
:1005D000000000000000000000000000000000001B
:1005E000000000000000000000000000000000000B
:1005F00000000000000000660C3A003B003C003D9B
:10060000003E000100440045000000210A200A01CC
:1006100000217820782F7800002C090100010000CB
:10062000000000D3005008000000002D0800002E3C
:10063000080000000043004200410040003F00006D
:100640000000004F005200510050000100007E01E8
:100650007E0000AD00AE000000010001004C38003B
:10066000004F080000000000000000000000000F24
:10067000083A003B003C003D003E000100440045BC
:10068000000000160A46080100217820782F780023
:100690000037080100010000000000D300B6000090
:1006A0000000002D0100002E010000000043004268
:1006B00000410040003F00000000004F0052005188
:1006C0000050000100000000000000AD00AE00007E
:1006D00000010001004C310000B7000000000000E4
:1006E000000000000000004E004B004E004B004E8A
:1006F000004B004E004B004E004B004E004B004E96
:10070000004B00000001006100000000000000023A
:1007100000690000000000000004007500000000F7
:100720000000010040650000000000000000426F72
:100730000000000000002000006B610000000002CB
:100740000000006B6900000000008000006B750075
:10075000000000000800006B650000000000008041
:10076000006B6F000000004000004073610000005B
:100770000008000000736900000000000100007321
:1007800075000000000004004073650000000000D8
:10079000000001736F00000000000000027461009F
:1007A00000000000400040746900000000000004E8
:1007B0004074750000000004000000746500000033
:1007C0000000100000746F00000000000000046EC4
:1007D0006100000000001000406E69000000000091
:1007E0000000416E7500000000080000406E6500CA
:1007F000000000000001406E6F000000000000409B
:10080000006861000000000000200068690000002E
:1008100000000020406869000000000000084068F7
:100820007500000000000200006865000000000084
:10083000001000686F0000000000001040686F00AA
:10084000000000002000406D610000000000080072
:10085000406D6900000000000000486D7500000058
:1008600000020000406D6500000000000002406DC5
:100870006F0000000000800040796100000000006F
:1008800002004079750000000080000040796F0090
:100890000000000000001072610000000004000071
:1008A00040726900000000800000007275000000C6
:1008B000000000002072650000000000000060726F
:1008C000650000000000040000726F0000000000DE
:1008D00000005077610000000000004040776F008A
:1008E000000000000000086E6E000000000000081C
:1008F000002D0000000000002001006761000000E2
:10090000000200010067690000000000A00000670D
:10091000750000000000080100676500000000008D
:10092000008100676F00000000402000007A610035
:10093000000000080001007A6900000000002100AA
:10094000007A7500000000000401007A65000000D4
:1009500000000001017A6F00000000002000026426
:100960006100000000004001006469000000000018
:1009700020080064750000000004000100646500A8
:1009800000000000100100646F0000000000004142
:1009900000626100000000000021006269000000A8
:1009A00000002000106275000000000022000062BC
:1009B000650000000000001100626F0000000000F0
:1009C0002004007675000000000000400470610003
:1009D000000000000020047069000000000000809A
:1009E00010707500000000000280007065000000BB
:1009F0000000001004706F0000000001800000780B
:100A000079610000000180004078796100000001F8
:100A100002000078797500000001020040787975C5
:100A20000000008100000078796F00000081000064
:100A30004078796F0000000100010078610000003B
:100A40000001000140786100000000010002007810
:100A50006900000000010002407869000000000108
:100A600000040078750000000001010000786500B6
:100A70000000000101004078650000000001000056
:100A800002786F0000000001000042786F00000053
:100A90000001000440787761000000004000007809
:100AA0007475000000088000007379610000000880
:100AB0000200007379750000008800000073796FF0
:100AC000000000088001007A79610000000802013E
:100AD000007A7975000000880001007A796F0000C3
:100AE00000028000006B7961000000020200006BD0
:100AF0007975000000820000006B796F0000000231
:100B000080010067796100000002020100677975C9
:100B10000000008200010067796F00000000C00043
:100B200000747961000000004200007479750000D3
:100B3000008040000074796F00000000C001006474
:100B400079610000000042010064797500000080B6
:100B500040010064796F000000009000006E796130
:100B6000000000001200006E797500000080100087
:100B7000006E796F0000000080200068796100003D
:100B800000000220006879750000008000200068E5
:100B9000796F000000008021006279610000000090
:100BA0000221006279750000008000210062796FE7
:100BB0000000000080200470796100000000022025
:100BC000047079750000008000200470796F0000C7
:100BD00000008000016D7961000000000200016DDD
:100BE0007975000000800000016D796F000000043D
:100BF00080000072796100000004020000727975C3
:100C00000000008400000072796F00000004000200
:100C10000474686900000004020004746875000030
:100C2000000400030064686900000004020100641D
:100C3000687500000000100404746F7875000000EF
:100C4000100500646F787500000801000473796571
:100C500000000000410004747965000000080101F3
:100C6000007A7965000000004101006479650000A8
:100C70000000008110666100000000000082106624
:100C8000690000000000018010666500000000009F
:100C9000008012666F000000000002801066797507
:100CA00000000000018200697865000000000086F5
:100CB00000776900000000000184007765000000F3
:100CC000000000840275786F0000000020050076A7
:100CD00061000000000020060076690000000000AE
:100CE00021040076650000000000200402766F00F9
:100CF000000000002204007675787975000080817C
:100D0000006B7578610000008082006B7578690067
:100D100000008180006B7578650000008080026BA8
:100D200075786F0000008084006B75787761000033
:100D3000A0010067757861000000A0020067757867
:100D400069000000A1000067757865000000A00040
:100D5000026775786F000000A004006775787761FE
:100D6000000000890074736100000000008A0074B4
:100D700073690000000001880074736500000000C2
:100D800000880274736F0000000000004020000023
:100D900000000001000000000000000000000080D2
:100DA000402C0000000000000000442E010128003B
:100DB000004000000001012A000000000080040142
:100DC00001280000000000804401012800000010FC
:100DD0000003002F0000000000100000000101725D
:100DE0000000000000000000000000000000000003
:100DF000000000000000002000000001017300005E
:100E000000000000000000000000000000000000E2
:100E100000000000000011241FBECFEFDAE0DEBFAB
:100E2000CDBF12E0A0E0B1E0E2EDFCE502C005902C
:100E30000D92AE3BB107D9F725E0AEEBB2E001C0B1
:100E40001D92A03AB207E1F70E94CB240C941A2E0F
:100E5000D7C8CF93DF93209199052115F9F0E5E8E4
:100E6000F5E0BC01EC01CC0FDD1F40E050E0DA0101
:100E7000A60FB71F30E090E01A9728F4DF01AC0FFF
:100E8000BD1F3D919C913083918332964F5F5F4FA0
:100E90004A30510561F7281B20939905DF91CF91C6
:100EA0000895E5E8F5E084E111928A95E9F710925A
:100EB00099051092170410921804109216041092BB
:100EC00014041092150408958093C0039093C103F5
:100ED0000895CF93C1E061FDC4E060FDCC0F62FDD9
:100EE000C29593E0769567959A95E1F7660F771F1F
:100EF000660F771F460F571FFA0140E050E090E061
:100F00006191DF019C01042E02C0369527950A9459
:100F1000E2F72695220B26272C2326272E934F5FB8
:100F20005F4F4430510561F7CF910895A82FA77006
:100F300023E0969587952A95E1F7880F991F880FEA
:100F4000991F680F791FFB0140E050E080E021917C
:100F500030E00A2E02C0369527950A94E2F72170F8
:100F6000042E01C0220F0A94EAF7822B4F5F5F4FD5
:100F70004430510561F70895282F862F9A3068F480
:100F8000263050F4622F70E026E0929F600D711DB4
:100F900011244BE753E09DCF08959C5F9230E0F71A
:100FA000622F70E047E753E0F6CF292F9A3058F4CC
:100FB000863080F490E06BE773E036E0239F800D8D
:100FC000911D1124B3CF2C5F223020F467E773E02A
:100FD00090E0F8CF80E00895E091C9039091C803B4
:100FE000E91302C080E008959F0157E0E59FF001FA
:100FF0001124E653FC4F5181561306C050815813FB
:1010000003C05581541305C02F5F3F4FF901E770AE
:10101000E7CF81E008958091C9032091C803281388
:1010200001C0089501968770FACF8095982F80911E
:10103000BD0389238093BD030895FC01F235B8F503
:10104000F03508F0BBC0E03EF105F0F4ED3CF105F1
:1010500008F092C0E83AF10570F4E53AF10508F0BD
:101060007BC0E130F10529F0CF010497813A910569
:1010700040F4CF010895CF01885A91094B9708F4A5
:101080006FC0E0E0F0E0F5CFF03460F4F03208F04B
:10109000AAC0E83EF10568F3CF0191509C012115EB
:1010A0003F41E6CFCF019F70906AFC01E2CFE0386C
:1010B00082E5F807C8F5E03682E5F80708F064C075
:1010C000E03482E5F807D0F4E03282E5F80708F072
:1010D00055C02E2F2695269590E2299F9001112428
:1010E0008E2F837041E050E002C0440F551F8A9557
:1010F000E2F7CA01822B932B9D68D7CF2E2F26951E
:101100002695277090E2299F900111248E2F8370DD
:1011100041E050E002C0440F551F8A95E2F7CA0132
:10112000822B932B9C68C1CFE03C82E5F80748F402
:101130002E2F2F71E03AF245E8F5922F84EF906A56
:10114000B4CFCF01805C9245809708F09ACF9E2F54
:101150009F7180EF906AA9CFCF0184979064A5CF4B
:101160008E2F885AE82FF0E0EE0FFF1FE953FE4F55
:1011700080819181946499CFF0657BCF8E2F8F71A0
:10118000982F81EF906A91CF2E2F26952695277064
:1011900090E2299F900111248E2F837041E050E04E
:1011A00002C0440F551F8A95E2F7CA01822B932B88
:1011B0009A687BCF80E0922F906277CFCF0123E0B7
:1011C000880F991F2A95E1F7392F3F706E2F6F71A5
:1011D000462FE4FF04C080E1689FA0011124242F62
:1011E000C901906962CFCF019F71E6CF972F7A3006
:1011F000C8F4663088F5873090F570E026E0929F5D
:10120000600D711D11249CE3899F600D711D1124D7
:10121000FB01EE0FFF1FE156FC4F85919591282FA2
:10122000822F08957D3F59F4611116C08730B8F4BC
:1012300094E0899FF0011124E951F94FEECF7C3FF2
:1012400059F4611109C0873050F494E0899FF0018E
:101250001124E751F94FE1CF20E090E0E1CF21E008
:10126000FCCFCF92DF92FF920F931F93CF93DF9328
:101270006C010091C2031091C3038091C00390914F
:10128000C103082B192BCFE0D0E081E090E00C2EB9
:1012900002C0880F991F0A94E2F780239123892BBB
:1012A00061F4219790F7F12C8F2DDF91CF911F9151
:1012B0000F91FF90DF90CF900895FC2EB6018C2FF8
:1012C00095DFBBDE019769F3EFCF1F93CF93DF93D9
:1012D000FC012581C081D181CE01211571F06115FC
:1012E00061F0BFDF182F682FCE0146DEBE01812FCF
:1012F0007DDFDF91CF911F91089557DE182FF6CF34
:10130000CF93DF93EC01ADDFBE0170DF96DEDF919E
:10131000CF910895FC012481211599F0808191815C
:10132000EFDF282F92959F70963099F060F4925FCE
:101330009F70923030F4203FB1F038F481E0283EC5
:1013400038F080E008959A5FF3CF81E0243FC9F739
:10135000089591E0213F09F090E081E0283E08F0F7
:1013600080E0892B089581E0089580E00895089534
:10137000CF92DF92EF92FF921F93CF93DF93462F8E
:10138000172FE82FF0E0E756FD4F71110CC0E491E4
:101390008E2F7E2F6E2FDF91CF911F91FF90EF90B8
:1013A000DF90CF900895F491EF2F86E0689FE001E1
:1013B00011242FEF30E0CE01B9010E941F2DDB0177
:1013C000CA01880F991F65E56A9FA0016B9F500DA8
:1013D0001124841B482F440F480FC901811B910918
:1013E000F89F7001F99FF00C11248F2D149FB0010C
:1013F0001124672F70E06901C61AD70AB601F69F5B
:101400006001F79FD00C1124A330B10549F1B90157
:10141000641B7109AB01149FB001159F700D11245D
:10142000672F70E0261B370BF29FA001F39F500D32
:101430001124752FCC3FD34050F4A130B105A1F059
:10144000129709F0A7CFEF2D852F7F2FA3CFA430C0
:10145000B10569F0169709F49DCF7F2D8D2D9ACF98
:101460007D2DEF2D8F2F96CF7F2FED2D93CFE52F55
:101470007F2DF8CFCF93762FC22F682F842F78DF60
:10148000472F909119012C2F291B922F282F892F3C
:1014900090E066D1CF910895CF938091B50380FFFE
:1014A00003C06DD5CF910895C0911B0180911C019F
:1014B000C817B8F7809119019C2F981B20E040E0D5
:1014C00060E0892F90E04CD1CF5FF0CF0F931F9356
:1014D000CF93DF93D82F162F042F8091B503C0919F
:1014E0001B0180FD10C0DF91CF911F910F910895D6
:1014F000809119019C2F981B202F412F6D2F892F30
:1015000090E02ED1CF5F80911C01C81788F3C4DF13
:10151000EACF0F931F93CF93DF93762F9091B5036C
:1015200090FF19C0493708F048E7682F842F20DF63
:10153000D62F172F082FC0E0809119019C2F981BE0
:10154000202F412F6D2F892F90E00AD18C2FC1E0E1
:10155000813091F7A1DFDF91CF911F910F91089515
:10156000CF93DF93D82FC92F892F90E028E0C111A6
:1015700003C08D2F9C2F20E0AC0174E05695479559
:101580007A95E1F74115510511F02C5FCA01AC01C4
:1015900056954795569547954115510511F02E5F83
:1015A000CA0196958795820F843051F1C8F4823034
:1015B000F9F0833009F140E060E080E0AADF80E0EC
:1015C00080930D0482E080931B018CE080931C01CA
:1015D0008AE080931D018D2F9C2FDF91CF9108957C
:1015E000853091F0863039F74FEF6FEF85E50FC00A
:1015F0004FEF6FEF8BE2E2CF4FEF6FEF80E8DECF80
:101600004FEF6FEF85E1DACF4FEF6FEF80E081DFD3
:1016100081E0D6CFA5DF8093C2039093C3030895E2
:1016200021E030E002C0220F331F8A95E2F780915B
:10163000C2039091C303822B932BECCF21E030E0C7
:1016400002C0220F331F8A95E2F7209530958091D2
:10165000C2039091C30382239323DCCF9091C403F0
:10166000809589238093C403282F277061F48917FC
:1016700051F09091C60392FF06C086958695869597
:10168000DDDF1092C4030895CF93DF93EC018091C6
:10169000B50380FF0EC07091B7038091B8038937FE
:1016A00008F088E76C8164DE962F672F482F892F1A
:1016B0000DDF8C818F5F8C83DF91CF9108950F9325
:1016C0001F93CF938C01C0E060911D01C61768F095
:1016D000E3DEF8018481928190FF20C08F5FF801E2
:1016E0008483CF911F910F91089520911B012C0F9E
:1016F0003327331F4091B803493708F048E770E0BB
:101700008FEF90E00E94332DF8018481C69F800DF9
:1017100011246091B703AEDECF5FD6CF8150DFCF0B
:101720004AB183E9861B8F7021E001C0220F8A95A0
:10173000EAF7922F909594239AB99BB1822F892B27
:101740008BB9089589B190E023E9261B2F7002C060
:10175000959587952A95E2F781700895269A0895C0
:10176000FC01EE0FFF1FE80FF91FED51FD4F6183E4
:10177000408322830895382F25EB3203C0011124C2
:1017800097FF04C080589109892F089580589F4F72
:10179000FBCF80919D0380FD14C081FD14C082FDAC
:1017A00016C080919C03811581F08E3180F420E574
:1017B000829FC00111246EE170E00E94332D862FBC
:1017C000089584E1089588E2089588E0089580E509
:1017D000089580919D0380FD17C081FD17C082FD93
:1017E00019C080919B03811599F0883298F428E004
:1017F000829FC001112468E270E00E94332D6115C0
:10180000710551F0862F089562E0FCCF64E0FACFB5
:1018100061E0F8CF68E0F6CF81E00895E0916D03D4
:10182000F0916E03309739F00190F081E02D309700
:1018300011F00995089580E00895E0916D03F0910D
:101840006E03309759F026813781232B39F022E03F
:10185000DC012C930680F781E02D09950895A3E023
:10186000B0E0E5E3FCE00C945C2D2091E1023091C6
:10187000E20228173907B1F08093E1029093E20267
:10188000E0916D03F0916E03309761F00084F18573
:10189000E02D309739F023E029838A839B83CE01A2
:1018A000019609952396E2E00C94782DA3E0B0E030
:1018B000ECE5FCE00C945C2D2091DF023091E0021D
:1018C00028173907B1F08093DF029093E002E0918E
:1018D0006D03F0916E03309761F00084F185E02D87
:1018E000309739F024E029838A839B83CE010196C7
:1018F00009952396E2E00C94782D9C01FC01329628
:1019000080E09FEF4081461759F031969F3F19F4D0
:10191000411101C0982F8F5F8630A1F79F3F09F4D6
:101920000895290F311D97FD3A95F90162830895B5
:10193000FC01329608962191261302C0DF011E9207
:10194000E817F907C1F70895DC01FB0111969C9196
:1019500011978181981322C012968C91129781154C
:1019600019F0928189131AC013968C9113978115DF
:1019700019F09381891312C015968C9115978115D2
:1019800019F0958189130AC014969C91911521F044
:1019900081E02481291303C080E001C081E08170CF
:1019A000089580910C0108952FB7F8948091DB027F
:1019B0009091DC02A091DD02B091DE022FBF08956C
:1019C000F3DF9C019091A0038091A103982B21F05B
:1019D00020935103309352039091A2038091A3036B
:1019E000982B21F020934F03309350038EE993E01E
:1019F00024CF2FB7F8946091DB027091DC028091C4
:101A0000DD029091DE022FBF08950895FC01209120
:101A1000D1023091D2022617370748F061157105BF
:101A200029F49091E8009E779093E8009B0190E064
:101A30002115310541F4911106C08091E80082FF23
:101A400032C080E00895809127038115C1F185306F
:101A5000C1F18091E80083FD30C08091E80082FDF3
:101A6000ECCF8091E80080FFE3CF8091F3004091BC
:101A7000F200582F2115310519F04830510558F062
:101A800091E04830510509F090E04091E8004E7730
:101A90004093E800CDCF81918093F100215031092E
:101AA0004F5F5F4FE7CF80912703811541F085306D
:101AB00041F08091E80083FFC0CF81E0089582E08B
:101AC000089583E00895982F9093E900891771F0A5
:101AD0007091EC002091ED005091F00021FD09C0C3
:101AE0009F5F973089F78093E9000895762F242F20
:101AF00050E03091EB003E7F3093EB003091ED00F1
:101B00003D7F3093ED003091EB0031603093EB007E
:101B10007093EC002093ED005093F0002091EE00C4
:101B200027FDDECF08958091CB0287FF13C08091FF
:101B3000E80082FF06C08091E8008B778093E80080
:101B40000895809127038111F2CF08958091270392
:101B50008115D9F38091E80080FFF8CF8091E800EB
:101B60008E77ECCF2091E4003091E50095E6A90155
:101B70002091EC00822F817020FF06C08091E80048
:101B800080FF06C080E008952091E80022FD1AC081
:101B900080912703811589F0853089F08091EB00D1
:101BA00085FD0FC02091E4003091E50042175307F6
:101BB000F9F29150E1F684E0089582E0089583E01F
:101BC000089581E00895CF93DF93C8EDD0E0888138
:101BD0008F7E8883E7EDF0E080818160808384E000
:101BE00082BF81E08093CA0288818E7F8883E2EE83
:101BF00010821092DA00A1EEB0E01C9288818F77FB
:101C0000888388818068888388818F7D888319BCD8
:101C1000109227031092C902109226031092C80254
:101C2000A0EE8C918B7F8C9388818160888342E0C9
:101C300060E080E048DFA1EEB0E08C918E7F8C9375
:101C4000E2EEF0E080818160808380818860808323
:101C5000E0EE80818E7F8083888180618883DF9140
:101C6000CF910895E8EDF0E080818E7F808310921F
:101C7000E2001092DA001092E100A0EEB0E08C9148
:101C800081608C9380818F77808319BCA7ED8C91C4
:101C90008E7F8C9380818F7E80831092CA020895FC
:101CA0008093810540918105509182056091830563
:101CB0007091840583E190E00C94FE2DA0E0B0E0EB
:101CC000E4E6FEE00C94522D6C018B017A01FB01DD
:101CD00001900020E9F731975F01A61AB70A6E1745
:101CE0007F0721F1EA0109900020E9F72197C41B41
:101CF000D50BB801C6010E94C02D4C010097B1F070
:101D0000BC016A0D7B1DFB0101900020E9F76C010D
:101D1000CC0EDD1EAF01461B570BC6010E94AF2D36
:101D2000AE01B701C4010E94A62DE3CFCDB7DEB747
:101D3000ECE00C946E2DCF93DF9348E651E069ED13
:101D40007DE089E194E00E94832DCDE1D4E0809193
:101D5000820581FF20C04EE151E062E271E0CE01D8
:101D6000ADDF46E251E06AE271E0CE01A7DF4EE26C
:101D700051E062E371E0CE01A1DF46E351E06AE3A6
:101D800071E0CE019BDF6E9685E0C538D807F9F685
:101D9000DF91CF9108954EE251E062E271E0CE0111
:101DA0008DDF46E351E06AE271E0CE0187DF46E273
:101DB00051E062E371E0CE0181DF4EE151E0DFCF1F
:101DC00024982C9880E098E02A9825E02A95F1F74D
:101DD000000022271C992395880F822B2A9A25E040
:101DE0002A95F1F70000915079F70895249A27E099
:101DF00030E090E02A98AC01022E02C0559547953C
:101E00000A94E2F740FF0EC02C9A4AE04A95F1F797
:101E100000C02A9A2150310968F785E18A95F1F7C7
:101E2000000008952C98F1CFCF93C62F2D9880688D
:101E3000DDDF8C2FDBDF2D9ACF91089584E0809336
:101E4000090480930A0482E080930B0481E080936C
:101E50000C0410920D0444E054E062E071E08FE065
:101E600090E00E94FE2D60E070E0AB0183E190E025
:101E70000E94FE2D60E982E2D7CF61E08D379105A7
:101E800048F06DE0863D26E0920720F46DE770E0B3
:101E90000E941F2D606189E1C7CFCF932D9880915B
:101EA000070381110EC083E6A1DF8ADFC82F88DF18
:101EB000982F2D9A8C2FC7FD806897FD9068CF9141
:101EC000089580E090E0FBCFACE0B0E0EAE6FFE010
:101ED0000C945A2D4F835887162F072F8B879C877A
:101EE000DCDF282F292B11F4902F812F89879A87E7
:101EF00086E0FE013796DE01119601900D928A95DB
:101F0000E1F729813A814B815C816D817E8180E09E
:101F100090E02C96E4E00C94762D2D9867DF50DF4E
:101F200095E09A95F1F700002D9A0895CF93DF93ED
:101F3000229A249A259A6AE58AE376DF8FE79FEA58
:101F400022E0815090402040E1F700C00000109254
:101F50000703A3DF80E0E1DFC82F81E0DEDFD82FB9
:101F60008EE3DBDFC23129F49D2FD13011F48632AC
:101F700009F090E0892F8170DF91CF91089535B1FC
:101F80003F7B25B120644FB7F89483EE92E0FC01CB
:101F90000196508168E025B9000000C057FF35B9AF
:101FA000550F000000C000C000C035B900C06A95E0
:101FB00091F753E08730950751F74FBF8FE594E0D5
:101FC0000197F1F700C0000008950F931F93CF937E
:101FD000DF93EB018A0190912703943059F58093A8
:101FE000E9008FEF9091E80095FD06C095ED9A9578
:101FF000F1F700008150B1F78091E80085FF1AC029
:10200000B1DD811112C08091E80085FD06C080918C
:10201000E8008E778093E800F3CF88818093F10009
:102020000150104011F02196EECF8091E8008E779C
:102030008093E800DF91CF911F910F910895CF9386
:10204000DF93EC0148E050E0BC0181E0BEDF88E0B6
:10205000FE01A3EDB2E001900D928A95E1F7DF91C8
:10206000CF91089546E050E0BC0182E0AECF43E05E
:1020700050E0BC0182E0A9CF9091C60392FB2227D9
:1020800020F9281771F080FB92F99093C6036091B4
:10209000C5037091C60384E090E00E94062E82E0A2
:1020A000DDCA08950F93CF93DF93C5EBD3E048814A
:1020B00059816A817B8188E090E00E94FE2D6C81CD
:1020C000262F60E070E0CB01622F83E20E94EC2DAE
:1020D000DF91CF910F91089585E08093B503109221
:1020E000B6038FEF8093B70388E78093B80310920D
:1020F000B90385EB93E0D6CF8091B903833018F410
:102100008F5F8093B90385EB93E0CCCF8091B903C7
:10211000811519F081508093B90385EB93E0C2CF0C
:10212000A0E0B0E0E6E9F0E10C94572D082FE62E90
:10213000142FD22E8091B50380FF24C0282F26951E
:102140002695E22FF0E0EC58FE4F90819093B30378
:102150008C7F8430E1F4842F493708F088E7602FC2
:102160007E2D06D9962F672F482F892FAFD9009340
:10217000B603E092B7031093B803D11419F085EBBE
:1021800093E090DFCDB7DEB7E7E00C94732D92308B
:1021900019F40091B603EBCF9530D9F39B3039F7A2
:1021A00085EFF82EF20EEF2DE695F0E0EC56FD4FA0
:1021B000D491C0E060911D01C61710F06DD9D7CF42
:1021C000CD9FC001112470E00E941F2D862F800F2B
:1021D000F0FE02C0802F861B20911B012C0F33279D
:1021E000331F412F193708F048E76E2D43D9CF5FD1
:1021F000E1CFE5EBF3E0818121E043816281865FFD
:102200008FCFE5EBF3E0818121E0438162818A5049
:1022100087CFE5EBF3E0628121E1620F08F46FEF15
:1022200021E0438181817CCFE5EBF3E0628121E114
:10223000621B08F460E021E04381818171CFE5EB0E
:10224000F3E0438121E1420F08F44FEF21E0628186
:10225000818166CFE5EBF3E0438121E1421B08F485
:1022600040E021E0628181815BCFCF936DE173E03B
:1022700084EA93E069DBC82F811519F084EA93E0C2
:10228000DCDA9091A50386E0E4EAF3E0282F1192CE
:102290002A95E9F79093A503E4EAF3E0ADE1B3E012
:1022A00001900D928A95E1F781E0911101C080E0E3
:1022B0008C2BCF910895611509F450C0E82FED5C87
:1022C000E33148F4F0E0E55DF14D0C94462D61DA20
:1022D00081958093A10374CB5CDAFBCF5ADA8195A8
:1022E0008093A003F8CF55DAFBCF73DA8093A20373
:1022F000F2CF6FDA8195FACF6CDA81958093A303E0
:10230000EACF67DAFBCF482F415D550B21E001C0D2
:10231000220F4A95EAF790919F03922B90939F0387
:102320004091A503815D21E001C0220F8A95EAF763
:10233000822F611509F489C0422B4093A50395CFE4
:1023400080919D03816080939D03C5CF80919D0303
:102350008260F9CF80919D038460F5CF9091A003B6
:10236000482F50E08D3C59F42091A10327FF0DC068
:102370001092A10391110BC010929C0308C08E3CD7
:10238000A9F42091A10312169CF39115A9F0909144
:10239000A2032091A303922B11F410929B03415DA1
:1023A00051094830510508F4BBCF95CF8F3C39F423
:1023B00097FFEBCF1092A0039091A103DBCF803D5C
:1023C00019F41916BCF3E1CF2091A203893D29F439
:1023D0001216DCF61092A203D8CF8A3D19F427FF1B
:1023E000D4CFF8CF2091A3038B3D29F427FFCDCF85
:1023F0001092A303CACF8C3D19F41216CCF3C5CFAB
:10240000282F215D283070F4FA01E15D21E001C040
:10241000220FEA95EAF7209530919F03232320931A
:102420009F03B3CF20919D032E7F8D3D59F02091C6
:102430009D032D7F8E3D31F08F3D09F0A6CF209179
:102440009D032B7F20939D03A0CF8095482375CFBC
:102450008091BD039091C703892B9091BE03911584
:1024600089F0892B90E022EC32E0F90140812F5F66
:102470003F4F41119F5F42E0283C3407B1F7911173
:102480001092BE038093C00248E050E06FE673E014
:1024900080EC92E00E94992D892BB9F088E0E0EC65
:1024A000F2E0AFE6B3E001900D928A95E1F7E0919A
:1024B0006D03F0916E03309741F00280F381E02DBF
:1024C000309719F080EC92E0099508951092BD03C1
:1024D000E2ECF2E086E011928A95E9F780E090E084
:1024E000BED980E090E0E2D91092C703B1DFEEE9F7
:1024F000F3E086E011928A95E9F710929C0310921E
:102500009B0310929D035CCAE1DF8FEF94E32CE004
:10251000815090402040E1F700C0000088E19AE03F
:102520000FB6F894A895809360000FBE909360005A
:10253000FFCFAAE2B0E0EFE9F2E10C945B2D8BEC67
:1025400092E0FC0101962091F100208322E0833D7E
:102550009207B9F78091CC02893009F457C0C8F4CA
:10256000823009F4B2C0833009F482C0813081F135
:102570008091E80083FFE6C08091CB029091CC026D
:102580009A3008F0DFC0E92FF0E0E25CF14D0C94E6
:10259000462D8A3009F489C08B3051F78091CB02E7
:1025A000813231F78091CF029091D002892B01F7CF
:1025B0008091E800877F8093E800B5DA81E0909110
:1025C000CD02911101C080E080930D017FDFD0CF5B
:1025D0008091CB02813A61F68091E800877F8093F9
:1025E000E8008091CF029091D002892B59F060E0F1
:1025F00080E090E070E00ADA8091E8008B778093C9
:10260000E800B6CF68E083ED92E0F4CF8091CB0292
:10261000813209F0ADCF8091CF029091D002029724
:1026200008F0A6CF8091E800877F8093E800809132
:10263000E80082FF18C02091F3008091F200922FF1
:10264000029731F48091F100813011F0863021F44D
:102650008091F10080930C018091E8008B7780934A
:10266000E80061DA85CF809127038111E0CF80CF28
:102670008091CB02813A09F07BCF8091CF0290917B
:10268000D002892B09F074CF8091E800877F809376
:10269000E8008091E80080FFFCCF80910D018093DD
:1026A000F1008091E8008E77DACF8091CB02813201
:1026B00009F05ECF8091E800877F8093E80033DAED
:1026C0008091CE0280930B0153CF8091CB02813A4F
:1026D00009F04ECF8091E800877F8093E8008091D9
:1026E000E80080FFFCCF80910B01D9CF803889F0C2
:1026F000823841F58091CF028F70873018F5809332
:10270000E9008091EB0085FB882780F91092E900B1
:1027100006C080912603880F9091C802892B909162
:10272000E800977F9093E8008093F1001092F10009
:102730008091E8008E7723C0811116C08091CD0270
:10274000813009F18091E80083FF0AC08091E800A0
:10275000877F8093E8008091EB0080628093EB009C
:10276000AA96E3E00C94772D823061F78091CD0238
:10277000811579F01092E9008091E800877F8093BD
:10278000E800D1D9DFCF933009F080E080932603B1
:10279000F1CF8091CF028F70282F2150263090F6F4
:1027A0008093E9002091EB0020FFE4CF933031F4D7
:1027B0008091EB0080628093EB00DCCF9091EB0086
:1027C00090619093EB0021E001C0220F8A95EAF717
:1027D0002093EA001092EA008091EB008860EBCF32
:1027E0008111B0CF8091CD028F77182F8091E300B7
:1027F0008078812B8093E3008091E800877F80932D
:10280000E80091D98091E80080FFFCCF8091E3003F
:1028100080688093E30083E0111101C082E080931F
:10282000270390CF8058823008F08CCF2091CD02C2
:102830003091CE022C3D83E0380789F583E08A830E
:102840008AE289834FB7F894DE01139620E03EE0D8
:1028500051E2E32FF0E050935700849120FF03C032
:1028600082958F703F5F8F708A30B8F0895C8D934E
:102870001D922F5F243169F74FBF8091E800877F59
:102880008093E8006AE270E0CE010196BFD88091A3
:10289000E8008B778093E80055CF805DE8CF832FE9
:1028A00090E08330910519F160F48130910509F4CD
:1028B0006CC08230910509F045CF8BE3EBE6F1E087
:1028C00029C02091CF023091D0028132910509F4C4
:1028D00053C08232910509F035CF2130310508F41B
:1028E0005CC009F02FCF8BE7ECEAF0E013C0822F39
:1028F00090E0213099F182309105B9F1009709F00B
:1029000021CFE0EEF1E0E4918E2FE0EEF1E00097D0
:1029100009F418CF2091E800277F2093E800209148
:10292000D1023091D2028217930708F49C0140E053
:1029300021153105B1F5411134C08091E80082FDC7
:10294000A6CF80912703811509F4A1CF853009F422
:102950009ECF8091E80083FFF0CF99CFE2EDF1E0C8
:10296000E4918E2FE2EDF1E0D2CFE8EBF1E0E491DB
:102970008E2FE8EBF1E0CBCF2130310550F009F09C
:10298000E1CE89E0E6E9F1E0C5CF82E1E6EAF1E0F7
:10299000C1CF89E0EDE7F1E0BDCF84E4E7E2F1E00B
:1029A000B9CF80912703811509F471CF853009F4DF
:1029B0006ECF8091E80083FD6ACF8091E80082FDB0
:1029C000BCCF8091E80080FFB3CF4091F3008091AD
:1029D000F200942F2115310519F08830910550F03F
:1029E00041E0089709F040E08091E8008E778093FD
:1029F000E8009ECF44914093F10031962150310977
:102A00000196E8CF803809F09DCE8091E800877F5D
:102A10008093E8008091C9028093F10089CE8111F2
:102A200091CE8091CD02182F823008F08BCE80910C
:102A3000E800877F8093E8001093C90274D81115CD
:102A400099F084E08093270342E061EC81E03BD879
:102A500042E261EC82E037D880912703843051F460
:102A600082E080930E016ECE8091E30087FDE9CF76
:102A700081E0E8CF81E0F5CFCF93C82F8115A1F099
:102A80008450813A98F4E2ECF2E088EC92E0208104
:102A9000C217E1F131968E179F07C9F76C2F80ECB2
:102AA00092E00E947D0CD4DCCF9108958C2F805E43
:102AB000883060F4C77021E001C0220FCA95EAF7A0
:102AC0008091BD03822B8093BD03EDCF8C2F855A5F
:102AD000833030F48C2F8452990B0E942F0CE4CF5A
:102AE000EC2FE85AEB3150F4F0E0EE0FFF1FE3500B
:102AF000FE4F808191810E94560CD6CF8C2F8D5C29
:102B0000833190F661E08C2FD6DBCECF6C2F80EC3A
:102B100092E00E94980C9CDCC1CF811579F1982F2E
:102B20009450913A30F4682F80EC92E00E94980C17
:102B30008FCC982F905E983058F4982F81E091FDBB
:102B400084E090FD880F92FD82950E941508F0CFD9
:102B5000982F955A933020F480E090E00C942F0C3D
:102B6000982F985A9B3120F480E090E00C94560CFA
:102B7000982F9D5C933110F460E09DCB08951F93D6
:102B8000CF93DF93182FC0E5D0E0893311F0C0E078
:102B9000D0E0812F71DF209731F4812FBEDFDF91EC
:102BA000CF911F9108958FE99FE00197F1F700C041
:102BB00000002197F0CF81E080939F0510929B0544
:102BC00010929C0510929D0510929E050E9451073F
:102BD00080919A050E94100B80E9D1DF8AE8CFCF5F
:102BE00010929F0510929B0510929C0510929D05D6
:102BF00010929E050E94510780919A050E941E0B1B
:102C000081E9BDDF8BE8BBCF811531F09091BD0329
:102C1000982B9093BD031CCC0895811519F00E9448
:102C2000150816CC0895A0E0B0E0E9E1F6E10C94B7
:102C30004C2D41E653E007EB11E0D12C7D01E394EC
:102C4000FA01B190AF01DF011E92F80181918F016D
:102C5000E82FE295EF70F0E021A18F70B70101C07D
:102C6000660F8A95EAF7462E262B21A322A1C62EAF
:102C7000C0942C2122A320EA2A95F1F721EC222EE0
:102C800021E0322E310160E070E0E301A9903E01C5
:102C90002A2D22952F70205E30E0E90128819C903A
:102CA0008A2D8F7002C0359527958A95E2F720FD11
:102CB00092C02E2D062E01C0220F0A94EAF7292970
:102CC0002C936F5F7F4F66307105F9F691A1C92291
:102CD000C1A292A1842D892B82A381E09C919B119A
:102CE00001C080E0D82A83E04636580709F0A8CF13
:102CF00020E030E07901E3944CEB51E0F101819167
:102D00001F01E82FE295EF70F0E061A18F70D7010D
:102D100002C0AA0FBB1F8A95E2F72D016A2B61A39F
:102D200072A16A2F6095762372A370EA7A95F1F703
:102D3000AE2D022E01C0AA0F0A94EAF78A2E8094C3
:102D40007A2FA7EBB1E006E613E0C12CE8019990D9
:102D50008E017D90A72CA2948FE0A82280E2A80E7D
:102D6000B12CE501A880872D8F7002C0B594A7947F
:102D70008A95E2F7A0FC31C0B92CB72A380181E06E
:102D8000681A7108E301B882AA24A394B91001C09B
:102D9000A12CCA284A175B07C9F691A1692361A330
:102DA00092A1842D892B82A3DC282F5F3F4F2630F0
:102DB000310509F0A3CFD11499F081E08093560337
:102DC0000E94D40C8093540390935503CDB7DEB783
:102DD000E2E10C94682D20E072CFB92CB820CECF60
:102DE00080915603811591F3C0915403D0915503FE
:102DF0000E94D40C8C1B9D0B059740F34AE050E0D9
:102E000061E673E087E593E00E94992D892B49F0F4
:102E10008AE0E1E6F3E0A7E5B3E001900D928A9540
:102E2000E1F710925603D2CF8F929F92AF92BF924A
:102E3000CF92DF92EF92FF920F9388E090E00E9492
:102E4000E22D4B015C016093B5039092B603809331
:102E5000B703B092B8031092B9031092BA0310925C
:102E6000BB031092BC0383E290E00E94DA2D940130
:102E7000A5018092B5033093B603A092B703509397
:102E8000B8038093B9031092BA031092BB03109257
:102E9000BC030F91FF90EF90DF90CF90BF90AF9069
:102EA0009F908F900895ADE2B0E0E9E5F7E10C94D2
:102EB0004C2D80912403833009F0CAC24091A403B1
:102EC0005091A5036091A6037091A7038091A80378
:102ED0009091A9030E94640F2093A4033093A5034B
:102EE0004093A6035093A7036093A8037093A9038C
:102EF00086E0E4EAF3E0DE01179601900D928A95F0
:102F0000E1F70091A60301951091A7031195098798
:102F10001A8786E0FE013796DE011D9601900D921C
:102F20008A95E1F786E0FE013D969E012F5F3F4FB7
:102F3000D90101900D928A95E1F786E0F901A4EAA2
:102F4000B3E001900D928A95E1F786E0E4EAF3E0C0
:102F5000DE01179601900D928A95E1F786E0FE0159
:102F60003796DE01539601900D928A95E1F786E03F
:102F7000FE017396D90101900D928A95E1F786E0E2
:102F8000F901A4EAB3E001900D928A95E1F786E099
:102F9000E4EAF3E0DE015F9601900D928A95E1F795
:102FA0003090A8032090A903E0910B04F0E0EE0F0D
:102FB000FF1FEB56FE4F6081718180E090E00E9420
:102FC000BA2C25E33AEF4EE85CE30E94FC2B4B0160
:102FD0005C01602F000F770B872F972F0E94BC2C6E
:102FE0002B013C01B401C5010E94EA2A6B017C015E
:102FF000612F110F770B872F972F0E94BC2C6DA389
:103000007EA38FA398A7B401C50190580E94482BB6
:1030100069A77AA78BA79CA79601A701B201C30154
:103020000E94FC2B4B015C0129A53AA54BA55CA590
:103030006DA17EA18FA198A50E94FC2B9B01AC01E4
:10304000B401C5010E94842C2AE939E949E95EE30B
:103050000E94FC2B4B015C0123E333E343E35FE37A
:10306000609118037091190380911A0390911B03CA
:103070000E94FC2B9B01AC01B401C5010E94852C70
:103080004B015C0129A53AA54BA55CA5B201C30182
:103090000E94FC2B2B013C012DA13EA14FA158A564
:1030A000B601C7010E94FC2B9B01AC01B201C30118
:1030B0000E94852C2AE939E949E95EE30E94FC2B4C
:1030C0006B017C0123E333E343E35FE3609114038B
:1030D0007091150380911603909117030E94FC2BA9
:1030E0009B01AC01B601C7010E94852C6B017C01DC
:1030F0008092180390921903A0921A03B0921B03B6
:1031000060931403D092150380931603F092170373
:1031100020E030E040EC5FE3B401C5010E94FC2BED
:103120004B015C0120E030E040EC5FE3B601C701F9
:103130000E94FC2B6B017C0180910D049E012F5F8E
:103140003F4F29A73DA7811509F4FCC0B401C50173
:103150000E94892C8B0177FF04C000271127061BD2
:10316000170BB601C7010E94892CAB01CB0177FF79
:1031700004C088279927841B950B801791070CF0B2
:10318000CCC0E12CF12C6701609112037091130304
:10319000872F880F880B982F0E94BC2C6DA37EA3CD
:1031A0008FA398A76091100370911103872F880F48
:1031B000880B982F0E94BC2C2B013C0180910C04A1
:1031C000811509F4AEC02DA13EA14FA158A5B401AF
:1031D000C5010E94852C4B015C019601A701B2013B
:1031E000C3010E94842C0E94892C6B017C01B401D4
:1031F000C5010E94892CAB01609312035093130305
:10320000C0921003D0921103E0910A04F0E0EE0F97
:10321000FF1FE757FE4FE0819A010E2E02C0359541
:1032200027950A94E2F7C6010E2E02C09595879560
:103230000A94E2F7082F211581F0220E322F330F66
:10324000330B0E2E02C0220F331F0A94E2F7421BEB
:10325000530B4093120350931303011509F4F6C066
:10326000380E982F990F990B02C0880F991FEA9575
:10327000E2F7C81AD90AC0921003D092110300E0F5
:1032800010E009A31AA33BA22CA286E0FE017F96C0
:10329000DE01179601900D928A95E1F786E0FE0116
:1032A0003796A9A5BDA501900D928A95E1F786E014
:1032B000E9A5FDA5DE01599601900D928A95E1F7E9
:1032C00086E0FE017996DE01179601900D928A95AF
:1032D000E1F786E0FE013796A4EAB3E001900D9293
:1032E0008A95E1F786E0EEE9F3E0DE0117960190BA
:1032F0000D928A95E1F78091A5039885892B80939B
:10330000A5030E943511811102C080911C03109207
:103310001C03AD96E2E10C94682DA12CB12C450163
:1033200033CF9401A5016DA17EA18FA198A50E9424
:10333000842C4B015C019201A301B601C7010E94DC
:10334000852C51CF20E030E040E05FE3B401C501BF
:103350000E94FC2B20910C0330910D0340910E0331
:1033600050910F030E94852C4B015C0160930C036C
:1033700090920D0380930E03B0920F0320E030E093
:1033800040E05FE3B601C7010E94FC2B20910803D7
:103390003091090340910A0350910B030E94852C40
:1033A0006B017C0160930803D092090380930A03A8
:1033B000F0920B03B401C5019F7720E030E040E8B4
:1033C0005FE30E94F72C00E087FD1AC0B401C5013D
:1033D0000E94892C062F762F770F770B872F972F38
:1033E0000E94BC2C9B01AC01B401C5010E94842C3D
:1033F00060930C0370930D0380930E0390930F035F
:1034000020E030E040E85FE3B601C7019F770E940B
:10341000F72C87FD1BC0B601C7010E94892C162F0F
:10342000762F770F770B872F972F0E94BC2C9B014D
:10343000AC01B601C7010E94842C6093080370930D
:10344000090380930A0390930B031BCF10E019CF5D
:1034500080E05FCF9091B50390FF2EC0811569F198
:10346000853168F58F73880F880F9091B50393703D
:10347000892B8093B503611521F085EB93E00E94C1
:1034800052106091B5036695669570E04BE050E090
:1034900080E091E00E948C2D892B99F01092B4036A
:1034A00081E08093400320E04091B8036091B7032E
:1034B0008091B6030C949010089581E0D4CF84E1FC
:1034C000D2CF81E08093B4030E94D40C80933D035B
:1034D00090933E03E5CF8091B503869586958F5FE7
:1034E000853108F081E061E0B5CF8091B503869524
:1034F0008695815009F484E161E0ACCFA0E0B0E0B2
:10350000E4E8FAE10C94552DEC0198819130D0F06B
:1035100009F03EC08981813021F48A8123962FDB16
:10352000F4CF823021F48A812396A6DAEECF83305D
:1035300021F48A812396F1DAE8CF843041F0229693
:103540008111E3CFCDB7DEB7E9E00C94712D8A810C
:10355000239620E030E09AE0482F4053550B4A3044
:10356000510560F02115310559F3EFE9FFE031977E
:10357000F1F700C0000021503109F4CF929FB00153
:10358000939F700D11249A01260F371F8991E4CF64
:103590002196E92FF0E0EC5EFD4F8491B82E292FA3
:1035A00026952695269530E0F901EC5FFD4FE490D5
:1035B0009770F12C092E02C0F594E7940A94E2F773
:1035C000F901EC50FE4FC490D12C092E02C0D594C5
:1035D000C7940A94E2F72C513E4FF901049110E090
:1035E00002C0159507959A95E2F7E0FE02C081EEBC
:1035F00043DAC0FE02C086EE3FDA8B2D3DDA8B2D1A
:103600008CDAC0FE02C086EE88DAE0FE02C081EEEF
:1036100084DA00FF7ACF8CE282CFAAE0B0E0E3E167
:10362000FBE10C94542D5C01A5E8B5E000E010E04E
:1036300068017601ED91FD91EE0FFF1FEE0FFF1F68
:10364000E35CF64F2081318142815381C22AD32A23
:10365000E42AF52A0F5F1F4FA016B10659F7C114CF
:10366000D104E10480E4F80691F4809185059091FD
:1036700086058F359E4709F05CC088E280DAC50177
:103680000E94290781E02A96EAE00C94702D6115CA
:10369000D1F180919B0590919C05A0919D05B091E1
:1036A0009E05B6FF02C06894F6F895FF02C06894C4
:1036B000D5F8A0FF02C06894E0F8A7FF02C06894A4
:1036C000E7F8B2FF20C06894F2F8C114D104E10415
:1036D00086E0F80609F183E0A82E87E0B82E4AE0DC
:1036E00050E0B501CE0101960E94832D89819A8117
:1036F000AB81BC818C159D05AE05BF0581F4CE0163
:103700000596FCDE0AC0C114D10480E8E80681E019
:10371000F806D9F665DA01C04EDAC801B1CF8AE001
:10372000A80EB11C89EDA8168DE0B806C1F680E0A0
:10373000AACF6111AECFCFCFCF93DF93C0919905C0
:10374000D0E0C33009F04AC0E5E8F5E04FEF5FEFA5
:10375000CA019A01C0E0D0E061917191DB01AE55E0
:10376000BE47129708F443C061357E4709F041C057
:10377000CE012196C330D10579F72F3F320771F181
:10378000BC01642B752B77FD29C0440F551FFA012E
:10379000EB57FA4F408151814A356EE7560721F0C9
:1037A00040356EE75607D1F4220F331FF901EB576E
:1037B000FA4F20813181880F991FFC01EB57FA4F96
:1037C00080819181209385053093860580938705BC
:1037D000909388054093890550938A05209759F462
:1037E00081E090E00E942907DF91CF9108959E012A
:1037F000C0CFAE01BECF61E0CE010FDF8111F4CFAB
:1038000060E0CE010ADF8111EFCF2197E7CFA0E082
:10381000B0E0EDE0FCE10C94562D7C01FC018481CC
:10382000811509F45EC061E0C7010E946509EC01E1
:10383000CA368EE7D807E1F1CB368EE7D80709F410
:103840003DC08091170490911804892BD1F4809188
:103850009F05811509F44EC080919A054091C203DD
:103860005091C3034115510509F052C0811509F467
:103870005CC00E94100B8091170490911804892B52
:10388000A9F18091170490911804181619060CF0EC
:103890004CC080919A054091C2035091C3034115D9
:1038A000510509F05FC0811140C00E941E0B3DC050
:1038B000F7018581811531F093D904C0F701858125
:1038C000811179D98091C403877059F0F7018581FE
:1038D000811539F08091C60382FF03C082E00E9407
:1038E0002E0BCDB7DEB7E8E00C94722D80919F05CA
:1038F00081111BC080919A054091C2035091C3036E
:103900004115510511F5811110C00E941E0BB9CF50
:1039100021E030E0082E02C0220F331F0A94E2F7A4
:1039200024233523232B09F4A4CFF7012581211566
:1039300009F493C0FE01E056FE47EA30F10508F0B5
:103940008CC0E85BF14D0C94462D21E030E0082E50
:1039500002C0220F331F0A94E2F724233523232BBE
:1039600021F3D3CF21E030E0082E02C0220F331F15
:103970000A94E2F724233523232BB9F296CF0E9431
:103980005107A0CF81E00E94500E9CCF82E0FBCF78
:1039900083E0F9CF90918205892F8E7F90FF81601F
:1039A0008093820540918105509182056091830545
:1039B0007091840583E190E00E94FE2D83CF809179
:1039C00081058230B1F0833009F1813019F48EE342
:1039D00091E094DD8091820581FF1BC086E591E036
:1039E0008DDD8091820582FF17C082E691E086DD41
:1039F00069CF82E491E082DD8091820580FF03C07F
:103A000086E491E0E6CF8BE491E0E3CF80E591E0BE
:103A1000E0CF8CE591E0E4CF8BE691E0E8CF9091A8
:103A20008205892F8D7F91FF82608093820540916E
:103A3000810550918205609183057091840583E131
:103A400090E00E94FE2D0E949B0E3CCF909182053B
:103A5000892F8B7F92FF8460A3CF80919F05811176
:103A6000BFC08091140490911504211509F4A8C0D9
:103A7000209116042F5F209316044091AE035091BD
:103A8000AF03009701F52130F1F4C417D507B1F069
:103A90008091B0039091B103C817D90779F0809154
:103AA000AA039091AB03C817D90741F08091AC03EA
:103AB0009091AD03C817D90709F08DC0C0931404C5
:103AC000D0931504FFCE2091B0033091B103C417F9
:103AD000D50759F42817390771F46DD810921404DA
:103AE0001092150410921604EDCEC217D30719F4E4
:103AF00048175907F1CF2091AA033091AB034091A9
:103B0000AC035091AD03C217D30729F448175907E6
:103B100041F466D8E3CFC417D50719F4281739073D
:103B2000F7CF2DD810921404109215041092160499
:103B3000C1158EE7D80709F0F3C0F701858181151B
:103B400009F18091090490E0019665E070E00E941F
:103B50001F2D809309044091090450910A0460913B
:103B60000B0470910C048FE090E00E94FE2DE09118
:103B70000904F0E0EE0FFF1FED5CFD4F80819181A5
:103B80000E943D0FF7018581C6319CE7D90709F0F6
:103B9000B6C4811509F484C18091BD038A7A91E08D
:103BA000811101C090E09093B20365E3811101C0DF
:103BB00069E280EC92E00E947D0C0E94281282CE85
:103BC00010921604009739F00E94BF151092140449
:103BD0001092150477CE1092140410921504A8CFF9
:103BE000D93208F06DC0C13088E2D80768F4D3320A
:103BF00008F062C0C13082E2D80730F4C83ED10577
:103C000018F5C03ED10530F1809117049091180449
:103C1000211509F46AC00196809317049093180443
:103C200080919A050E941E0BC6308EE7D80709F4D2
:103C300020C1C5308EE7D80709F426C1C4308EE70D
:103C4000D80709F426C19ECFCE01815091428F3F03
:103C50009105D0F2211156C0CE0180549E4780328A
:103C6000910508F065CF880F991F880F991F835C15
:103C70009D4FFC0140815181628173814095509537
:103C80006095709580919B0590919C05A0919D05F4
:103C9000B0919E0584239523A623B72380939B058B
:103CA00090939C05A0939D05B0939E0580919905E6
:103CB000811509F407CECBC0CE0181509442C7CF05
:103CC000D53378F4C13084E3D80708F09DCFD233E0
:103CD00020F4C13081E3D80796CFCE0181509243C2
:103CE000B6CFCE0181509843B2CF019711F00AF0C0
:103CF000DDC3109217041092180480919A050E9457
:103D0000100B92CFCE358EE7D80758F5C0348EE72A
:103D1000D80708F06DC0C1158EE7D80709F411CF98
:103D2000C1308EE7D80709F0C6C3F7018581811538
:103D300009F428CF80910A0490E0019666E070E0D3
:103D40000E941F2D80930A044091090450910A0497
:103D500060910B0470910C048FE090E00E94FE2DA6
:103D600011CFCE018E559E47029708F0A9C38091CE
:103D70009905909182058E0100541E47000F111F76
:103D8000000F111F92FD0DC0811549F0D5DC109276
:103D90009B0510929C0510929D0510929E058091A6
:103DA0009905E82FF0E0EE0FFF1FEB57FA4FC083A5
:103DB000D1838F5F80939905F801E35CFD4F80917B
:103DC0009B0590919C05A0919D05B0919E05408119
:103DD000518162817381842B952BA62BB72B809305
:103DE0009B0590939C05A0939D05B0939E056ACD7D
:103DF00080919905E82FF0E0EE0FFF1FEB57FA4F87
:103E0000C083D1838F5F80939905CC0FDD1FCC0FCA
:103E1000DD1FC35CD64F40919B0550919C0560917E
:103E20009D0570919E05FB81EA810980C881D02D96
:103E30004C2B5D2B6E2B7F2B40939B0550939C0549
:103E400060939D0570939E058A3008F43BCD74DC29
:103E500039CDF7018581811509F494CE80910B0449
:103E600090E0019669E070E00E941F2D80930B04A2
:103E70006BCFF7018581811509F441C380910C0452
:103E8000819580930C042FC3F7018581811509F476
:103E900036C380910D0491E0892780930D042FC3D0
:103EA0008091B20365E3811101C069E280EC92E088
:103EB0000E94980C82CE8091B50380FF0CC08E7F4B
:103EC0008093B50385EB93E00E9452101092B403E7
:103ED0000E944C0AF7CC81608093B50361E086951F
:103EE0008695B8DAEFCC811521F0FFDAEBCC81159D
:103EF000E1F3F1DAE7CC811529F00E940111E2CC5F
:103F00008115D9F30E94F910DDCC811529F00E94AA
:103F10001411D8CC8115D9F30E940911D3CC811585
:103F200029F00E942A11CECC8115D9F30E941F11CD
:103F3000C9CC811529F00E948610C4CC8115D9F313
:103F40000E947C10BFCC9E01205E3245203231059C
:103F5000A0F4911125C0CF7181E090E002C0880FDC
:103F6000991FCA95E2F7EC01682F83E090E00E9468
:103F7000EC2DCE010E946407A5CC911509F448C030
:103F8000CB358CE7D807D1F1CC358CE7D80759F180
:103F9000CA358CE7D80781F1C1308CE7D807B1F179
:103FA000C3308CE7D80761F1C115DC4789F50E9461
:103FB00066128FEF94E32CE0815090402040E1F7AF
:103FC00000C0000087E797E78093000890930108FE
:103FD00088E19AE00FB6F894A895809360000FBE30
:103FE00090936000FFCF8091C603002482FF03946A
:103FF000802D0E943C1066CC81E0FBCF80E0F9CFA1
:104000006FEF7FEF80E090E00E94062E0E94841206
:10401000F70100811181911509F445C0C8010E9482
:104020003109C82F682FC8010E94BC07B8018C2F26
:104030000E94F6080E941D08D82FC92FF701D580CD
:10404000068102950F708091C403877001F1CD2C19
:10405000D114F1F0892F807F803461F08D2F805E44
:104060008830A8F0892F807E803221F4D23078F019
:10407000011569F08091C60382FF09C082E00E94A9
:104080002E0B8091C4038770CC24C3948111C12C62
:10409000EC2FE295EF70C03C08F06AC0F0E0EE5AF9
:1040A000F14D0C94462DC8010E94D507C82FBECFF4
:1040B0001C2F1F70C03110F01295107FD114B9F071
:1040C000111569F08D2F805E883010F0D11109C074
:1040D0008091BD03812B8093BD030E9428128D2FF8
:1040E0003FC08091C703812B8093C703F6CF8D2FEC
:1040F0000E948D151115E1F18D2F805E883010F032
:10410000D11104C0812F0E94150806C0109580911E
:10411000C70381238093C7030E94281229C01C2F44
:104120001F70C07FC03211F01295107FD13040F067
:1041300009F463C0D11409F46DC00115A9F1CFCF02
:104140008091C60382FD2CC0D11469F0111539F09D
:104150008091BD03812B8093BD030E94281280E0D3
:104160000E943C1505C080E00E948D151111CACF38
:10417000C11409F4B8C08091C40380FDB4C0F70134
:1041800015828695869586950E94100BC7013FDBA8
:104190008091C4038695869586950E941E0BA3C0C8
:1041A000D11489F0013020F4812F0E940416E0CF51
:1041B000F9F68091BE03912F98231917C9F2812B2C
:1041C0008093BE03D5CF0111D3CF812F0E940D164E
:1041D0009091BE03812F892329F0812F8095892317
:1041E0008093BE038091BF03912F982309F4C0CF21
:1041F000109518231093BF03BBCFD11421F00630C4
:1042000008F0B6CFD1CF053008F0B2CF812F0E9491
:104210000D16AECF0115D1F3D93349F48FEF97EED8
:1042200023E0815090402040E1F700C000008D2F36
:104230000E948D159DCF8C2F869586958370813039
:1042400060F009F095CF8D2F9C2F9370D11002C094
:1042500080E090E00E94560C8BCF8D2F9C2F9370A6
:10426000D11002C080E090E00E942F0C81CF6D2D14
:104270008D2F0E945B117CCF8C2F837009F046C07C
:10428000D1102FC04D2F429546954770440F440FD3
:104290002D2F2F7030E0042E02C0220F331F0A94FE
:1042A000E2F780E090E0D4FF09C08FE090E002C028
:1042B000880F991F4A95E2F780959095C695C69507
:1042C000C370C230D1F0C330A9F04091C003509107
:1042D000C103C13069F0822B932B842395230E9464
:1042E00064070E940E0C60E0C7010E946509F9CACC
:1042F000242B352B822B932BF2CF822B932B2091C7
:10430000C0033091C10382279327E9CFD11491F1E3
:10431000C0FFE7CF4D2F429546954770440F440F9D
:104320002D2F2F7030E0042E02C0220F331F0A946D
:10433000E2F780E090E0D4FF09C08FE090E002C097
:10434000880F991F4A95E2F780959095C695C69576
:10435000C370C230C1F0C33099F04091C203509194
:10436000C303C13059F0822B932B842395230E94E1
:104370000A0BB7CF823008F4B4CFCCCF242B352B27
:10438000822B932BF4CF822B932B2091C20330915D
:10439000C30382279327EBCFCF70D11439F08C2F32
:1043A0000E94100B8D2F0E9404169BCF8D2F0E9410
:1043B0000D168C2F0E941E0B94CFD23F99F170F4F2
:1043C000D03FC9F0D13F91F0D11409F45BC0011581
:1043D00009F455C08D2F0E943C1583CFD33F49F17E
:1043E000D43F91F79091C60392FD31C08C2F8F710D
:1043F000D11401F31BC0D11499F0053008F071CF2E
:10440000CF7181E090E002C0880F991FCA95E2F752
:10441000EC018091C2039091C3038C279D27A7CF05
:104420000630ECCF8C2F8F71D110C4CF0E94100BAF
:1044300058CF80E090E0D11409F499CFCF7181E09A
:1044400090E002C0880F991FCA95E2F790CFD1146F
:1044500061F08C2F8F7192FFE9CF982F990F990FF0
:10446000990F93609093C403E1CF81E00E942E0BDB
:10447000023008F436CF82E00E942E0B32CF8C2F10
:104480008F71D4CF011579F0D93349F48FEF97EEBE
:1044900023E0815090402040E1F700C000008D2FC4
:1044A0000E948D151ECF8C2F8F7184CF809317049F
:1044B00090931804B9CBC2308EE7D80709F4C9CC61
:1044C000C3308EE7D80709F0AFCBF701858181159E
:1044D000B1F080910B0490E0089669E070E00E94D2
:1044E0001F2D80930B044091090450910A046091A0
:1044F0000B0470910C048FE090E00E94FE2DF701F8
:104500009581911509F41FCD8091BD038272FE0142
:10451000E052F847EB30F10508F015CDE25AF14DC5
:104520000C94462D80910804803170F4809107042A
:10453000811551F0E091C9032091C8033091030423
:10454000409102042E1301C00895BF0187E0E89F47
:10455000F0011124DF01A653BC4F14968C911497DF
:10456000811551F111968C911197831325C08C916F
:10457000841322C015968C91159781111DC0129637
:104580008D919D91A0910404B09105048A1B9B0B11
:10459000883C910588F4809108048F708061809335
:1045A0000804E053FC4F80818F708061808382E03B
:1045B00094E02DD90C940B086F5F7F4FFB01E770DF
:1045C000C1CFADE0B0E0E7EEF2E20C94512D8C01EA
:1045D00086E0F801DE01189601900D928A95E1F7C8
:1045E000F801F580C48082E0882E84E0982E7090D7
:1045F000060471101FC0C114D1F0F11409F415C1E3
:10460000C8010E948A09811509F40FC187E0F801E9
:10461000D40101900D928A95E1F78C2D813031F40F
:1046200080910204909103040E9480097BDFFF24A3
:10463000F39453C0E080A280B380D09007048091AF
:104640000404909105049501281B390BD11409F439
:10465000B5C0283C310508F08DC0C11441F39091DC
:104660000304C18080910804803108F056C0C9124B
:1046700013C0909102049E110FC0F11048C08F70BA
:1046800080618093080482E094E0C1D8809108049E
:10469000F8018683F12C21C0F11039C040E06C2D67
:1046A0008E2D0E94EC0740E06C2D8E2D0E94EC07B1
:1046B000F82E8111EFCF888599850E948009292FD6
:1046C00022952F70903470F49F70223098F09115DD
:1046D000A9F0F8019681903188F48F2D2D96EDE0A8
:1046E0000C946D2D2A5F2F70223060F0C8018FD896
:1046F000FD2CF3CF911511F0811579F3805E883090
:1047000060F3F4CF803F48F3815F8330F9CF80912D
:104710000804816080930804BDCFC91207C090913E
:1047200002049E1103C0F11409F469C0C8010E947B
:104730008A09811509F479C0F11409F476C08091D1
:104740000804803270F02091020430910304298320
:104750003A83AB82BC827D821E828F83CE0101961A
:1047600056D887E0F801A2E0B4E001900D928A9556
:10477000E1F75CCF80910804803148F482E094E056
:1047800046D8F40187E011928A95E9F783CFC114E6
:1047900009F44DCF2091030491812913C7CF909143
:1047A00002049E11C3CFF110C1CF8683C8012FD858
:1047B000F40187E011928A95E9F739CF283C310559
:1047C00000F7C11409F433CFF11479F19091030487
:1047D0008181981320C0809102048E111CC08091A9
:1047E000080480FD0FC0803168F08683807F803FA1
:1047F00039F08681982F907F905F8F70892B868308
:10480000C80105D887E0F801A2E0B4E001900D925C
:104810008A95E1F70CCFC8010E948A098111A1CFC6
:1048200080910804816080930804C8010E94071CDD
:10483000FECEABE1B0E0EFE1F4E20C945A2D4E8BEA
:104840005F8B688F798F8A8F192F9B8F91111092B0
:10485000C7031D8A86E0FE017696DE011F96019051
:104860000D928A95E1F70A8D011561F00B8B1C8B77
:1048700061E0CE010F960E94650961E0CE010F96BE
:104880000E9465090B8B1C8B87E0FE013F96DE01C1
:10489000189601900D928A95E1F7CE01089691DE67
:1048A00081112EC02091C8033091C90387E0AE0169
:1048B000485F5F4FFA0147505109DA0101900D92AC
:1048C0008A95E1F78C858115D9F0822F90E0839548
:1048D000877090E0AC0134171506E1F097E0929FE5
:1048E000D0011124A653BC4F9E012F5F3F4FF90109
:1048F00001900D929A95E1F74093C8030E940B082E
:104900008091C9039091C803891311C06B96E4E0AC
:104910000C94762D0E9466121092C8031092C9035F
:10492000E2E0F4E087E011928A95E9F7E9CF27E029
:10493000829FC001112486539C4F43DE811531F3C1
:104940008091C9039091CA03019687708093C9032F
:10495000D7CFA6E0B0E0EFEAF4E20C945A2D0E9423
:10496000D40C8C0180916B0390916C03801791079C
:1049700071F019821A820E94D40CBC0149815A81BB
:1049800080E090E056DF00936B0310936C03269653
:10499000E4E00C94762DCDB7DEB765970FB6F894AA
:1049A000DEBF0FBECDBF85B7806885BF85B7806885
:1049B00085BF84B7877F84BF0FB6F894A895809190
:1049C0006000886180936000109260000FBE80E8F4
:1049D00090E00FB6F89480936100909361000FBE51
:1049E00081E080930E0185EB99E08093BE02909365
:1049F000BF020E94320E0E94E30D8091E2008460AB
:104A00008093E200789480912703811599F080913A
:104A1000E9001091EC008F7010FB112717F9182B8B
:104A20001092E9008091E80083FD0E9499121F70A6
:104A30001093E90082E084BD93E095BD9AEF97BDA5
:104A400080936E00E6E4F3E088E011928A95E9F73E
:104A500081E08093450360E080E00E94900B61E07C
:104A600080E00E94900B8FE891E00197F1F700C081
:104A7000000010E080914503181708F4CEC1E7EB61
:104A8000F1E021EC31E0AF0161E0DA018D91AD019F
:104A9000A82FA295AF70B0E091961C918F70E62E72
:104AA00001C0EE0C8A95EAF79E2D909591239C9378
:104AB00011969C918E2D892B8C932417350729F7FD
:104AC00021EC31E0A90161E0DA018D91AD01A82F5F
:104AD000A295AF70B0E091961C918F70E62E01C048
:104AE000EE0C8A95EAF79E2D909591239C93119652
:104AF0009C918E2D892B8C9381E0473C580721F7A0
:104B000041E0D9018D919D01A82FA295AF70B0E031
:104B100091966C918F70042F01C0000F8A95EAF76F
:104B2000902F909596239C9311969C91802F892B82
:104B30008C9381E0273C380721F741E08191A82F31
:104B4000A295AF70B0E091962C918F70642F01C048
:104B5000660F8A95EAF7962F909592239C9311966B
:104B60009C91862F892B8C9381E0E13CF80731F7EB
:104B7000E1E6F3E08AE011928A95E9F7E7E5F3E0F0
:104B80008AE011928A95E9F78FE090E00E94E22D89
:104B90006093090470930A0480930B0490930C04AF
:104BA000663010F00E941E0F82E080939A0581E12A
:104BB00090E08093AE031092AF0380E18093B00346
:104BC0001092B10389E18093AA031092AB0385E0B0
:104BD0008093AC031092AD0383E1F4D76093810519
:104BE00070938205809383059093840561506330B0
:104BF00088F081E080938105776070938205409111
:104C0000810550918205609183057091840583E14F
:104C100090E0F4D70E949B0E80E090E0D8D7833ECE
:104C20009E4FD9F063EE7EEF80E090E0EFD760E03A
:104C300082E090E0D1D781E090E08093C0031092B1
:104C4000C10361E083E0C8D760E074E184E090E0F4
:104C5000DDD70E946C100E941E0F82E090E0AAD760
:104C60008093320384E090E0B2D78093C5039093A1
:104C7000C60383E090E09ED790E00E946407809195
:104C8000C2039091C3030E94B00A80912303811153
:104C90002FC085EB93E00E9414178091B5038430F8
:104CA00008F0CDC00E946C1085EB93E00E941417B1
:104CB0008091B503843008F0C2C083708460809313
:104CC000B5038091B803893718F088E78093B8035B
:104CD0001092B4030E94AE0B8091B50380FF05C013
:104CE00060E0869586950E942A1A81E080932303CE
:104CF0000E94960F8111ABC081E080932403E09164
:104D00000904F0E0EE0FFF1FED5CFD4F8081918103
:104D10000E943D0F60E982E20E94140F8FE091E053
:104D200080936D0390936E03CE010196282E9B8B8A
:104D30006CEF462E61E0562E8091270300E110E4CF
:104D400052E1F52E853009F4DBC00E94131643E3CF
:104D5000842E43E0942E87E593E08C8B9D8BFC01A1
:104D6000D4019D9180812DE333E02A173B0709F49C
:104D7000D1C031969817A9F308E213E0D12CEC8941
:104D8000FD89C190EC8BFD8BF40161904F016C1497
:104D9000D1F16C24E12CF12C77247394862D87219A
:104DA00041F13C2C372031E0A32E0E2C01C0AA0C7F
:104DB0000A94EAF7F801808190E08A21892B91F426
:104DC000E982DA820E94D40C8B839C835D8291E01D
:104DD000311001C090E09E8349815A816B817C81B2
:104DE0008D8127DD311005C0A094F80180818A21D2
:104DF0008083770C8FEFE81AF80A86E0E816F10452
:104E000069F6F401C292D3940F5F1F4F8D2D8A3043
:104E100009F0B5CF0E94F90C80C060E0812F0E949C
:104E2000A20B082F61E0812F0E94A20BE12FF0E07E
:104E3000EC5BFC4F880F802B80831F5F1BCE809123
:104E4000B503843508F43DCF8370806538CF83E0A7
:104E500054CF80912703843029F10E945317109278
:104E6000250388E190E00FB6F894A8958093600040
:104E70000FBE1093600083B7817F846083BF83B7C8
:104E8000816083BF7894889583B78E7F83BF0FB688
:104E9000F894A895809160008861809360001092DA
:104EA00060000FBE0E941316E7E5F3E0A8E2B3E04E
:104EB00080E021912D9391E0211101C090E0892B98
:104EC00021E633E02E173F07A1F78115C9F0809145
:104ED00026038115A9F009BDF9BC09B400FEFDCF78
:104EE0008091D8008F7D8093D8008091E00082600F
:104EF0008093E0008091E00081FDFCCF0E9466126B
:104F000080912703853009F4A4CF0E9466120E9485
:104F10000E0C1BCF981330CF1CDD8091B40381158C
:104F2000D9F18091B303E091B503E695E695E81BCE
:104F3000E0933F03823009F03FC0F0E0E456FC4FBD
:104F4000E4910E2F10E024E4E22E2BE0F22E80916B
:104F50004003811561F0109240030E94D40C8093AD
:104F60003D0390933E0310924103109242030E942E
:104F7000D40C20913D0330913E03821B930B8F3F55
:104F80009F4750F4200F311F20933D0330933E0381
:104F90008DE393E0F701099580914E03811551F05F
:104FA0008091480310924E038093490380914603F9
:104FB0008093470300E060C0853061F4E695F0E03F
:104FC000E756FC4FE4910E2F10E09FE5E92E9BE0A1
:104FD000F92EBDCF00ED17E087EBE82E89E0F82E23
:104FE000B6CFF09049031091480361E0802F0E94F2
:104FF000A20BE82E60E0802F0E94A20BEE0C8E29FF
:10500000202F30E0D901AC5BBC4FEC919E2F937008
:10501000891789F1EE0FEE0FE82BEC93EF70F0E0BB
:10502000E955FE4F2D5B3C4F8081F9019081890F3E
:1050300084300CF448C0412F50E0BA01639563708E
:1050400070E0F616170679F04A5B5C4F902F9F7759
:10505000FA0194831F5F13701093480390914603E5
:105060009F5F90934603982F990F990B64E070E02F
:10507000FAD4F90180830F5F80914503081708F483
:10508000B0CF90E01DEF809149032091480328178D
:1050900009F44CC0E82FF0E0E65BFC4FE080FE2C0A
:1050A000E894F7F88F5F83708093490380914703FA
:1050B0008F5F80934703E7FC16C0FF8248860E94FB
:1050C000D40C03E015C08D3F74F6412F50E0BA01B7
:1050D0006395637070E0F616170629F24A5B5C4F21
:1050E000902F9068B5CFFF8218870E94D40C02E001
:1050F000BC0189879A870B875C864F815885802FF2
:1051000091E097DBFD86E7FE0FC01E870E94D40C5E
:10511000BC018F87988B098B1A8A4D855E85802FFD
:1051200090E087DB91E0AFCF4E86F0CF91110E94E7
:10513000F90C0E94531781110E94F90C86E0EEE9E8
:10514000F3E0A22DBB8901900D928A95E1F71092B0
:10515000A0031092A1031092A2031092A3038B81CB
:105160009C81892B09F443C0009151031091520393
:105170000E94D40C801B910B9C0190919C03911573
:1051800009F4ADC02531310590F19F3F19F09F5FC3
:1051900090939C031B81111559F00E94C90B91E05B
:1051A00011160CF09FEF899F802D11248093A0038E
:1051B0001C81111559F00E94C90B91E011160CF0D9
:1051C0009FEF899F802D11248093A1038091A003DC
:1051D000811569F01091A103111549F00E94BB0BD4
:1051E0008093A003812F0E94BB0B8093A1038D812C
:1051F0009E81892B09F443C000914F031091500305
:105200000E94D40C801B910B9C0190919B039115E3
:1052100009F460C02135310590F19F3F19F09F5F7F
:1052200090939B031D81111559F00E94E90B91E0A9
:1052300011160CF09FEF899F802D11248093A203FB
:105240001E81111559F00E94E90B91E011160CF026
:105250009FEF899F802D11248093A3038091A20347
:10526000811569F01091A303111549F00E94BB0B41
:105270008093A203812F0E94BB0B8093A303622D16
:105280007B898EE993E00E94A40C81110CC080916F
:10529000A0039091A103892B9091A203892B909157
:1052A000A303892B11F00E94E00C86E0E22DFB891C
:1052B000AEE9B3E001900D928A95E1F70E940E0CE1
:1052C00090915303891709F437CD809353030E94BB
:1052D000F90C2ECD2B30310508F0A1CFD0CF2B30DB
:1052E000310508F054CF83CF1F921FB61F921124AF
:1052F0008F939F93AF93BF9380912503811113C028
:105300008091DB029091DC02A091DD02B091DE027F
:105310004196A11DB11D8093DB029093DC02A09306
:10532000DD02B093DE02BF91AF919F918F911F90EC
:105330001FBE1F90189578941F921FB61F921124BC
:105340008F939F93AF93BF938091DB029091DC0288
:10535000A091DD02B091DE020196A11DB11D8093E6
:10536000DB029093DC02A093DD02B093DE02BF91DA
:10537000AF919F918F911F901FBE1F9018951F9204
:105380000F920FB60F9211242F933F934F935F9379
:105390006F937F938F939F93AF93BF93EF93FF93FD
:1053A0008091E10082FF09C08091E20082FF05C088
:1053B0008091E1008B7F8093E1008091DA0080FF93
:1053C00024C08091D80080FF20C08091DA008E7FB9
:1053D0008093DA008091D90080FFA9C080E189BD67
:1053E00082E189BD09B400FEFDCF81E080932703EF
:1053F0008091CA02811109C00E94320E0E94E30D01
:105400008091E20084608093E2008091E10080FF5F
:105410001AC08091E20080FF16C08091E2008E7F6A
:105420008093E2008091E20080618093E2008091AD
:10543000D80080628093D80019BC85E08093270350
:1054400083E080930E018091E10084FF2FC0809162
:10545000E20084FF2BC080E189BD82E189BD09B4EF
:1054600000FEFDCF8091D8008F7D8093D800809181
:10547000E1008F7E8093E1008091E2008F7E809337
:10548000E2008091E20081608093E2008091C90295
:10549000811509F452C084E080932703809127038B
:1054A000843009F052C082E080930E018091E100C7
:1054B00083FF2CC08091E20083FF28C08091E1002F
:1054C000877F8093E10082E0809327031092C902D6
:1054D0008091E1008E7F8093E1008091E2008E7FD9
:1054E0008093E2008091E20080618093E20042E0DC
:1054F00060E080E00E94630D8091F00088608093FE
:10550000F00081E080930E0180930D01FF91EF91F7
:10551000BF91AF919F918F917F916F915F914F91CB
:105520003F912F910F900FBE0F901F90189519BCAF
:10553000109227031092CA0268CF8091E30087FF80
:1055400002C083E0A9CF81E0A7CF81E0ADCF1F9259
:105550000F920FB60F9211241F932F933F934F93E7
:105560005F936F937F938F939F93AF93BF93CF93EB
:10557000DF93EF93FF93E9EEF0E080811091EC0070
:105580008F7010FB112717F9182B1082C0EFD0E095
:105590008881877F888378940E949912E9EEF0E0F1
:1055A00010828881886088831F701083FF91EF913B
:1055B000DF91CF91BF91AF919F918F917F916F912B
:1055C0005F914F913F912F911F910F900FBE0F90C0
:1055D0001F90189503D0E39528C0D4C03FD0E8F3BE
:1055E000E894E0E0BB279F57F0F02AED3FE049EC5C
:1055F00006C0EE0FBB0F661F771F881F28F0B23A58
:1056000062077307840728F0B25A620B730B840B8E
:10561000E3959A9572F7803830F49A95BB0F661F20
:10562000771F881FD2F79048A1C0EF93E0FF06C014
:10563000A2EA2AED3FE049EC5FEB3DD0C5D00F90E8
:10564000039401FC9058E8E3FCE59FC057FD905897
:10565000440F551F59F05F3F71F04795880F97FB36
:10566000991F61F09F3F79F08795089512161306F0
:105670001406551FF2CF4695F1DF08C0161617061F
:105680001806991FF1CF8695710561050894089554
:105690009F93A4DF0F9007FCEE5FC7CF87D030F059
:1056A0008CD020F031F49F3F11F41EF46BC00EF447
:1056B000E095E7FB53C0E92FC9DF80F3BA17620713
:1056C00073078407950718F071F49EF58EC00EF4E9
:1056D000E0950B2EBA2FA02D0B01B90190010C0102
:1056E000CA01A0011124FF27591B99F0593F50F41A
:1056F000503E68F11A16F040A22F232F342F442772
:10570000585FF3CF469537952795A795F040539569
:10571000C9F77EF41F16BA0B620B730B840BBAF039
:105720009150A1F0FF0FBB1F661F771F881FC2F7A4
:105730000EC0BA0F621F731F841F48F487957795B8
:105740006795B795F7959E3F08F0B3CF9395880F6F
:1057500008F09927EE0F97958795089597F99F6719
:1057600080E870E060E008959F3F31F0915020F4B0
:10577000879577956795B795880F911D969587952D
:1057800097F908959FEF80EC08959F938F937F93EF
:105790006F93FF93EF939B01AC012ED0EF91FF919C
:1057A0008ED02F913F914F915F9126C000240A9493
:1057B0001616170618060906089500240A941216EC
:1057C0001306140605060895092E0394000C11F41F
:1057D000882352F0BB0F40F4BF2B11F460FF04C0CC
:1057E0006F5F7F4F8F4F9F4F0895E894BB276627C9
:1057F0007727CB0197F908950BD0E6CFD7DF28F0B4
:10580000DCDF18F0952309F0A9CFBCCF1124EECF2F
:105810001DDFA0F3959FD1F3950F50E0551F629FB8
:10582000F001729FBB27F00DB11D639FAA27F00DF9
:10583000B11DAA1F649F6627B00DA11D661F829F20
:105840002227B00DA11D621F739FB00DA11D621F05
:10585000839FA00D611D221F749F3327A00D611D22
:10586000231F849F600D211D822F762F6A2F112404
:105870009F5750408AF0E1F088234AF0EE0FFF1F57
:10588000BB1F661F771F881F91505040A9F79E3F8E
:10589000510570F063CFAACF5F3FECF3983EDCF385
:1058A000869577956795B795F795E7959F5FC1F7CB
:1058B000FE2B880F911D9695879597F90895DF9394
:1058C000CF931F930F93FF92EF92DF927B018C0196
:1058D000689405C0DA2EEF019BDFFE01E894A591E4
:1058E0002591359145915591AEF3EF01E4DEFE012E
:1058F0009701A801DA9479F7DF90EF90FF900F916C
:105900001F91CF91DF9108955058BB27AA27D3DE6E
:105910005BCF04D06894B11169CF08959FDE88F001
:105920009F5790F0B92F9927B751A0F0D1F0660F8B
:10593000771F881F991F1AF0BA95C9F712C0B130A6
:1059400081F053DFB1E0089550CF672F782F88277B
:10595000B85F39F0B93FCCF3869577956795B395E5
:10596000D9F73EF490958095709561957F4F8F4F54
:105970009F4F0895E89409C097FB3EF49095809559
:10598000709561957F4F8F4F9F4F9923A9F0F92F05
:1059900096E9BB279395F695879577956795B79583
:1059A000F111F8CFFAF4BB0F11F460FF1BC06F5F69
:1059B0007F4F8F4F9F4F16C0882311F096E911C07B
:1059C000772321F09EE8872F762F05C0662371F09C
:1059D00096E8862F70E060E02AF09A95660F771FB0
:1059E000881FDAF7880F9695879597F9089503D061
:1059F00008F48FEF0895990F0008550FAA0BE0E8FF
:105A0000FEEF16161706E807F907C0F01216130680
:105A1000E407F50798F0621B730B840B950B39F4C0
:105A20000A2661F0232B242B252B21F408950A2626
:105A300009F4A140A6958FEF811D811D0895AA1B31
:105A4000BB1B51E107C0AA1FBB1FA617B70710F069
:105A5000A61BB70B881F991F5A95A9F7809590959B
:105A6000BC01CD01089597FB072E16F4009406D0D3
:105A700077FD08D0E4DF07FC05D03EF490958195D2
:105A80009F4F0895709561957F4F0895EE0FFF1F0A
:105A90000590F491E02D09942F923F924F925F92DE
:105AA0006F927F928F929F92AF92BF92CF92DF922E
:105AB000EF92FF920F931F93CF93DF93CDB7DEB793
:105AC000CA1BDB0B0FB6F894DEBF0FBECDBF099427
:105AD0002A88398848885F846E847D848C849B847E
