:100000001DC7000038C7000036C7000034C7000015
:1000100032C7000030C700002EC700002CC7000008
:100020002AC7000028C700000C94472D0C942F2EDF
:100030000C94431720C700001EC700001CC7000017
:100040001AC7000018C7000016C7000014C7000038
:1000500012C700000C94232D0EC700000CC700002F
:100060000AC7000008C7000006C7000004C7000058
:1000700002C7000000C70000FEC60000FCC600006A
:10008000FAC60000F8C60000F6C60000F4C600007C
:10009000F2C60000F0C60000EEC60000ECC600008C
:1000A000EAC60000E8C60000E6C600000501090235
:1000B000A10185020901A1000509190129081500FE
:1000C0002501950875018102050109300931158165
:1000D000257F95027508810609381581257F9501D0
:1000E00075088106050C0A38021581257F95017572
:1000F000088106C0C005010980A101850319012AF4
:10010000B700150126B700950175108100C0050CD8
:100110000901A101850419012AA002150126A002E6
:10012000950175108100C005010906A10105071997
:10013000E029E715002501950875018102950175F3
:100140000881010507190029FF150026FF00950603
:100150007508810005081901290515002501950577
:1001600075019102950175039101C009023B0002DE
:100170000100A0FA09040000010301010009211196
:100180000100012244000705810308000109040160
:10019000000103000000092111010001227B00077A
:1001A0000582032000011201000200000008271749
:1001B0000300010001020001180363006F006300E7
:1001C0006F0074003400360070006C00750073001E
:1001D00000000C0361006B00690032003700000072
:1001E00004030904000000000000000000000000FB
:1001F00000000000000000000000000000000000FF
:1002000000000000000000007E0F00D4FFFFFFC7C9
:100210000000007800000000000000002A2B2800E9
:1002200000000000000000000000000000000029A5
:10023000000000002C1E3420212224342627252EE5
:10024000362D3738271E1F2021222324252633331D
:10025000362E37381F0405060708090A0B0C0D0E49
:100260000F101112131415161718191A1B1C1D2F15
:100270003130232D350405060708090A0B0C0D0E35
:100280000F101112131415161718191A1B1C1D2FF5
:100290003130354C2F002F002F00430053002F002A
:1002A000556E6465660057696E5343004D61635334
:1002B00043004C34202020004E756D2020004E61FC
:1002C00067696E0057696E2020004D616320200031
:1002D0002000808182838485868788898A8B8C8DA3
:1002E0008E8F9091929394A0A1A2A3A4A5A6A7A853
:1002F000A9AAABACADAEAFB0B1B2B3B4C0C1C2C3CA
:10030000C4C5C6C7C8C9CACBCCCDCECFD0D1D2D335
:10031000D40000AE00AF0000000000003E5B4F5B69
:100320003E003E6B4F6B3E001C3E7C3E1C00183C6A
:100330007E3C18001C577D571C001C5E7F5E1C0015
:1003400000183C180000FFE7C3E7FF00001824185E
:100350000000FFE7DBE7FF0030483A060E002629E1
:1003600079292600407F05050700407F05253F00CD
:100370005A3CE73C5A007F3E1C1C0800081C1C3EEF
:100380007F0014227F2214005F5F005F5F00060978
:100390007F017F00006689956A0060606060600090
:1003A00094A2FFA2940008047E04080010207E207E
:1003B000100008082A1C0800081C2A0808001E1043
:1003C000101010000C1E0C1E0C0030383E3830008F
:1003D000060E3E0E060000000000000000005F0058
:1003E0000000000700070000147F147F1400242A77
:1003F0007F2A1200231308646200364956205000F9
:10040000000807030000001C224100000041221CDC
:1004100000002A1C7F1C2A0008083E0808000080F3
:100420007030000008080808080000006060000044
:100430002010080402003E5149453E0000427F4022
:1004400000007249494946002141494D33001814C2
:10045000127F10002745454539003C4A4949310083
:1004600041211109070036494949360046494929C1
:100470001E000000140000000040340000000008CE
:100480001422410014141414140000412214080012
:100490000201590906003E415D594E007C121112BD
:1004A0007C007F49494936003E41414122007F415D
:1004B00041413E007F49494941007F090909010046
:1004C0003E41415173007F0808087F0000417F4191
:1004D00000002040413F01007F08142241007F407E
:1004E000404040007F021C027F007F0408107F0014
:1004F0003E4141413E007F09090906003E4151212C
:100500005E007F0919294600264949493200030146
:100510007F0103003F4040403F001F2040201F005C
:100520003F4038403F00631408146300030478041C
:1005300003006159494D4300007F414141000204DD
:1005400008102000004141417F0004020102040024
:100550004040404040000003070800002054547809
:1005600040007F284444380038444444280038443C
:1005700044287F0038545454180000087E090200B3
:100580001824241C78007F080404780000447D406F
:1005900000002040403D00007F1028440000004142
:1005A0007F4000007C04780478007C080404780014
:1005B0003844444438007C18242418001824241893
:1005C0007C007C08040408004854545424000404AB
:1005D0003F4424003C4040207C001C2040201C0064
:1005E0003C4030403C004428102844004C909090FF
:1005F0007C004464544C4400000836410000000074
:1006000077000000004136080000020102040200E9
:100610003C2623263C000000000000000000C060D3
:10062000C0D0C8E86C6464646C686898D06000806E
:10063000000000000000000000808080000000003A
:10064000000000008080800000000000000000002A
:10065000808080000000000000000000808000001A
:100660000000000000E0E00000000000000000C00A
:10067000E0E0E000000000000080E0E0200000007A
:10068000000000000000000000000000000000006A
:1006900000000000E0F0F0F0E0ECEEF7F370200076
:1006A0007C7C7C7E007E7E7E7F7F7F000080C0E041
:1006B0007E5B4F5BFEC00000C000DCD7DEDEDED715
:1006C000DC00C0000000000000000000000000008E
:1006D000000000000000000000000000FC8778FE21
:1006E000FE010178848202028686030187FFFC03F3
:1006F000FE00000000FCFECF0303030387C7860053
:1007000078FEFF8703030303CFFEFC0038FEFF875C
:1007100003030303C7868400FCFE870303030387E8
:10072000FEFC300303FFFF8303000070787E6F63DD
:1007300061FFFF606000F0FCFF0F0F0E8EFCF860A1
:10074000003030303030FFFF3030303000000000FB
:10075000000000000F1F3F7F7F7F7F7F3F1E0C0048
:100760001F1F1F3F003F3F3F7F7F7F00307B7F7811
:1007700030202030787F3B0003000F7F0F0F0F7F6A
:100780000F00030000000000000000000000000057
:100790000000000000000000000000000003041939
:1007A0003F27425858D99999D85D5F6E2C190C078C
:1007B0000100000000000103030303030303010021
:1007C0000001010303030303030100000000010310
:1007D00003030303030100000001030303030303F6
:1007E00001000000000103030300000000000000FE
:1007F00000030300000000010303030303030100DF
:1008000000000000000003030000000000000000E2
:1008100000000000000000000000000000000000D8
:1008200000000000000000000000000000000000C8
:1008300000000000000000000000000000000000B8
:1008400000000000000000000000000000000000A8
:10085000000000000000FFAA7F55400001010101D7
:10086000010101010102020202020202020203036B
:10087000030303030303040404040404040505053B
:1008800005050606060606070707070708080808FD
:10089000090909090A0A0A0B0B0B0C0C0C0D0D0DAA
:1008A0000E0E0E0F0F0F1010111111121213131440
:1008B00014151516161717181819191A1A1B1B1CB8
:1008C0001D1D1E1E1F202021222223242425262612
:1008D000272829292A2B2C2D2D2E2F303132323347
:1008E0003435363738393A3B3C3D3E3F4041424350
:1008F0004445464748494A4C4D4E4F505153545534
:100900005658595A5B5D5E5F616264656668696BE3
:100910006C6D6F7072737577787A7B7D7E80828361
:100920008587888A8C8E8F91939596989A9C9EA0A5
:10093000A2A3A5A7A9ABADAFB1B3B5B7BABCBEC0B2
:10094000C2C4C6C9CBCDCFD1D4D6D8DBDDDFE2E47B
:10095000E7E9EBEEF0F3F5F8FAFDFF00DA0281FFCC
:10096000D9F1DB20A4A62EAF00A0C0D30000A1C8FF
:10097000D30000AED580A81F408D1420006432142F
:10098000783C1E2B2814001A0008001500170029B7
:100990002104001600070009000A0090241D001B16
:1009A000000600190005005201E1002C43255241C8
:1009B00052D100000000004B0000004E000000314A
:1009C00000130012000C0018001C00340033000F4C
:1009D000000E000D000B0091343800370036001077
:1009E0000011005101E50028382A380000D200002B
:1009F00000000000000000000000002B2814001A76
:100A0000000800150017002921040016000700093E
:100A1000000A0090241D001B000600190005002B91
:100A200008E1002C4326524052D100000000004B48
:100A30000000004E0000003100130012000C0018EE
:100A4000001C00340033000F000E000D000B00915D
:100A500034380037003600100011002B05E500285F
:100A6000382A310000D20000000000000000000021
:100A70000000002B28407E417E427E437E447E0162
:100A8000004A7E4B7E4C7E4D7E4E7E0100547E554C
:100A90007E567E577E587E697E23525E7E0100011F
:100AA00000D100000000002D0100002E0100000117
:100AB00000497E487E477E467E457E0100537E5239
:100AC0007E517E507E4F7E01005D7E5C7E5B7E5A55
:100AD0007E597E5101E7005F7E01000000D20000D8
:100AE000000000000000000000000000001E001FC9
:100AF0000020002100220001001E021F022002210E
:100B000002220201002D022E022D002E0000000004
:100B1000000100000000004052D10000000000AAC7
:100B2000000000A900000035002700260025002451
:100B30000023003502270226022502240223020197
:100B400000380230022F0230002F000000010001A7
:100B50000001000000D200000000000000000000C2
:100B60000000000000000000000000000000000085
:100B70000000000000000000000000000000000075
:100B80000000000000000000000000000000000065
:100B90000000000000000000000000000000000055
:100BA0000000000000000000000000000000000045
:100BB0000000000000000000000000000000000035
:100BC0000000000000000000000000000000000025
:100BD0000000000000000000000000660C3A003B2E
:100BE000003C003D003E00010044004500000021A3
:100BF0000A200A0100217820782F7800002C0901B2
:100C000000010000000000D3005008000000002D8B
:100C10000800002E08000000004300420041004090
:100C2000003F00000000004F005200510050000142
:100C300000007E017E0000AD00AE0000000100015A
:100C4000004C3800004F08000000000000000000C9
:100C50000000000F083A003B003C003D003E000150
:100C600000440045000000160A46080100217820D3
:100C7000782F78000037080100010000000000D341
:100C800000B600000000002D0100002E0100000051
:100C90000043004200410040003F00000000004FC0
:100CA000005200510050000100000000000000ADA3
:100CB00000AE000000010001004C310000B7000050
:100CC00000000000000000000000004E004B004E3D
:100CD000004B004E004B00A900AA004E004B002E16
:100CE000082D082E012D01010000007000000000F9
:100CF00000020000007A000000000004000000680C
:100D00000000000000080000006600000000001065
:100D10000000002F0000000000200000003B000049
:100D20000000004000000071000000000080000092
:100D3000006F0000000000000100007700000000CC
:100D400000000100407E000000000000020000786A
:100D5000000000000000040000640000000000002B
:100D6000080000730000000000001000006E00008A
:100D7000000000002000007400000000000040009F
:100D800000670000000000008000006C0000000010
:100D90000000000100610000000000000002006986
:100DA0000000000000000002406E6E000000000025
:100DB000000400750000000000000004402D000049
:100DC00000000000000800650000000000000008AE
:100DD0004078747500000000001000620000000000
:100DE0000000002000720000000000000040006DC4
:100DF0000000000000000080006300000000000010
:100E00000000016B000000000000000002790000FB
:100E1000000000000000042C0000000000000000A2
:100E2000086A0000000000000000102E0000000012
:100E300000000000207600000000000011241FBE0A
:100E4000CFEFDAE0DEBFCDBF12E0A0E0B1E0ECE131
:100E5000FCE602C005900D92A23CB107D9F726E04E
:100E6000A2ECB2E001C01D92A037B207E1F70E94E8
:100E700013280C94B835C4C88F929F92AF92BF923A
:100E8000CF92DF92EF92FF92CF93DF93DB01EC01E1
:100E90002091550630E02115310509F453C0422F49
:100EA00066E576E080E090E0FB010190F081E02DC6
:100EB000EE0FFF1FEE0FFF1FEF5BF64FC080D180DC
:100EC000E280F380460157018A229B22AC22BD2298
:100ED00089288A288B2811F1C094D094E094F0944A
:100EE000AC21BD21CE21DF21FC01EE0FFF1FEA5A0C
:100EF000F94F8930910561F41092680610926906E5
:100F0000215031092097B040A04029F641500DC032
:100F100001966281738161937193EBCF6E5F7F4F16
:100F20000196821793070CF4BFCF40935506DF91CB
:100F3000CF91FF90EF90DF90CF90BF90AF909F90B8
:100F40008F90089540E0F1CFE6E5F6E084E111925C
:100F50008A95E9F71092550610924F0610925006A6
:100F600010924E0610924C0610924D060895292FAD
:100F700030E048E0911102C09C0140E0C90164E00A
:100F8000969587956A95E1F7009711F04C5F9C0163
:100F9000C9019695879596958795009711F04E5FB4
:100FA0009C01C90196958795840F08958093F70554
:100FB0009093F8050895CF93C1E061FDC4E060FD12
:100FC000CC0F62FDC29593E0769567959A95E1F70F
:100FD000660F771F660F771F460F571FFA0140E015
:100FE00050E090E06191DF019C01042E02C0369533
:100FF00027950A94E2F72695220B26272C232627ED
:101000002E934F5F5F4F4430510561F7CF910895A4
:10101000A82FA77023E0969587952A95E1F7880F6A
:10102000991F880F991F680F791FFB0140E050E05E
:1010300080E0219130E00A2E02C0369527950A946F
:10104000E2F72170042E01C0220F0A94EAF7822BE6
:101050004F5F5F4F4430510561F70895282F862F69
:101060009A3068F4263050F4622F70E026E0929FA8
:10107000600D711D112442EB55E09DCF08959C5FDA
:101080009230E0F7622F70E04EEA55E0F6CF292F5C
:101090009A3058F4863080F490E062EB75E036E0E8
:1010A000239F800D911D1124B3CF2C5F223020F49B
:1010B0006EEA75E090E0F8CF80E00895E0910006D8
:1010C0009091FF05E91302C080E008959F0157E069
:1010D000E59FF0011124EF5FF94F5181561306C0CF
:1010E0005081581303C05581541305C02F5F3F4FE3
:1010F000F901E770E7CF81E0089580910006209123
:10110000FF05281301C0089501968770FACF8095D6
:10111000982F8091F40589238093F4050895FC01AC
:10112000F235B8F5F03508F0BBC0E03EF105F0F45B
:10113000ED3CF10508F092C0E83AF10570F4E53AAB
:10114000F10508F07BC0E130F10529F0CF010497EB
:10115000813A910540F4CF010895CF01885A910951
:101160004B9708F46FC0E0E0F0E0F5CFF03460F4A6
:10117000F03208F0AAC0E83EF10568F3CF019150C3
:101180009C0121153F41E6CFCF019F70906AFC0181
:10119000E2CFE03882E5F807C8F5E03682E5F807E7
:1011A00008F064C0E03482E5F807D0F4E03282E56C
:1011B000F80708F055C02E2F2695269590E2299F16
:1011C000900111248E2F837041E050E002C0440F43
:1011D000551F8A95E2F7CA01822B932B9D68D7CFC2
:1011E0002E2F26952695277090E2299F9001112495
:1011F0008E2F837041E050E002C0440F551F8A9546
:10120000E2F7CA01822B932B9C68C1CFE03C82E5B8
:10121000F80748F42E2F2F71E03AF245E8F5922FA7
:1012200084EF906AB4CFCF01805C9245809708F03C
:101230009ACF9E2F9F7180EF906AA9CFCF0184979C
:101240009064A5CF8E2F885AE82FF0E0EE0FFF1F95
:10125000E553FE4F80819181946499CFF0657BCFF7
:101260008E2F8F71982F81EF906A91CF2E2F269518
:101270002695277090E2299F900111248E2F83706C
:1012800041E050E002C0440F551F8A95E2F7CA01C1
:10129000822B932B9A687BCF80E0922F906277CF3E
:1012A000CF0123E0880F991F2A95E1F7392F3F706E
:1012B0006E2F6F71462FE4FF04C080E1689FA0018C
:1012C0001124242FC901906962CFCF019F71E6CF0D
:1012D000972F7A30C8F4663088F5873090F570E043
:1012E00026E0929F600D711D11249CE3899F600D83
:1012F000711D1124FB01EE0FFF1FED57F64F859175
:101300009591282F822F08957D3F59F4611116C0C1
:101310008730B8F494E0899FF0011124E553F34F2E
:10132000EECF7C3F59F4611109C0873050F494E04E
:10133000899FF0011124E353F34FE1CF20E090E0C7
:10134000E1CF21E0FCCFCF92DF92FF920F931F936A
:10135000CF93DF936C010091F9051091FA0580910C
:10136000F7059091F805082B192BCFE0D0E081E02C
:1013700090E00C2E02C0880F991F0A94E2F7802398
:101380009123892B61F4219790F7F12C8F2DDF9118
:10139000CF911F910F91FF90DF90CF900895FC2E79
:1013A000B6018C2F95DFBBDE019769F3EFCF1F935A
:1013B000CF93DF93FC012581C081D181CE0121151E
:1013C00071F0611561F0BFDF182F682FCE0146DE86
:1013D000BE01812F7DDFDF91CF911F91089557DEF0
:1013E000182FF6CFCF93DF93EC01ADDFBE0170DF96
:1013F00096DEDF91CF910895FC012481211599F0AB
:1014000080819181EFDF282F92959F70963099F01F
:1014100060F4925F9F70923030F4203FB1F038F466
:1014200081E0283E38F080E008959A5FF3CF81E0B4
:10143000243FC9F7089591E0213F09F090E081E051
:10144000283E08F080E0892B089581E0089580E02F
:1014500008950895CF92DF92EF92FF921F93CF935A
:10146000DF93462F172FE82FF0E0E55AF74F711161
:101470000CC0E4918E2F7E2F6E2FDF91CF911F91A4
:10148000FF90EF90DF90CF900895F491EF2F86E0DA
:10149000689FE00111242FEF30E0CE01B9010E94D6
:1014A0000932DB01CA01880F991F65E56A9FA00117
:1014B0006B9F500D1124841B482F440F480FC90106
:1014C000811B9109F89F7001F99FF00C11248F2D59
:1014D000149FB0011124672F70E06901C61AD70A62
:1014E000B601F69F6001F79FD00C1124A330B1051F
:1014F00049F1B901641B7109AB01149FB001159F3B
:10150000700D1124672F70E0261B370BF29FA0018E
:10151000F39F500D1124752FCC3FD34050F4A130D0
:10152000B105A1F0129709F0A7CFEF2D852F7F2FDE
:10153000A3CFA430B10569F0169709F49DCF7F2D94
:101540008D2D9ACF7D2DEF2D8F2F96CF7F2FED2DC7
:1015500093CFE52F7F2DF8CFCF93762FC22F682F13
:10156000842F78DF472F909120012C2F291B922F59
:10157000282F892F90E062D1CF910895CF93809149
:10158000EC0580FF03C0C2D4CF910895C091220121
:1015900080912301C817B8F7809120019C2F981BD8
:1015A00020E040E060E0892F90E048D1CF5FF0CFAD
:1015B0000F931F93CF93DF93D82F162F042F809173
:1015C000EC05C091220180FD10C0DF91CF911F91E9
:1015D0000F910895809120019C2F981B202F412F5F
:1015E0006D2F892F90E02AD1CF5F80912301C817FA
:1015F00088F3C4DFEACF0F931F93CF93DF93762F47
:101600009091EC0590FF19C0493708F048E7682F22
:10161000842F20DFD62F172F082FC0E080912001C4
:101620009C2F981B202F412F6D2F892F90E006D1E2
:101630008C2FC1E0813091F7A1DFDF91CF911F9115
:101640000F910895CF93DF93EC0191DC843049F141
:10165000C0F48230F1F0833001F140E060E080E0DE
:10166000CADF80E08093440682E0809322018CE010
:10167000809323018AE080932401CE01DF91CF91F2
:101680000895853091F0863041F74FEF6FEF85E593
:101690000FC04FEF6FEF8BE2E3CF4FEF6FEF80E8BC
:1016A000DFCF4FEF6FEF85E1DBCF4FEF6FEF80E0E4
:1016B000A2DF81E0D7CFC6DF8093F9059093FA05CA
:1016C000089521E030E002C0220F331F8A95E2F72F
:1016D0008091F9059091FA05822B932BECCF81E054
:1016E00080936F0610926B0610926C0610926D0636
:1016F00010926E0629DC80916A06E3CF21E030E08B
:1017000002C0220F331F8A95E2F720953095809111
:10171000F9059091FA0582239323CDCF10926F069D
:1017200010926B0610926C0610926D0610926E0667
:101730000BDC80916A06E2CF9091FB0580958923AE
:101740008093FB05282F277061F4891751F0909141
:10175000FD0592FF06C0869586958695CFDF10928F
:10176000FB050895CF93DF93EC018091EC0580FF9A
:101770000EC07091EE058091EF05893708F088E77B
:101780006C8168DE962F672F482F892F11DF8C819F
:101790008F5F8C83DF91CF9108950F931F93CF9329
:1017A0008C01C0E060912401C61768F0E7DEF80103
:1017B0008481928190FF20C08F5FF8018483CF9154
:1017C0001F910F910895209122012C0F3327331F71
:1017D0004091EF05493708F048E770E08FEF90E05F
:1017E0000E946032F8018481C69F800D11246091AF
:1017F000EE05B2DECF5FD6CF8150DFCF4AB183E9AD
:10180000861B8F7021E001C0220F8A95EAF7922F84
:10181000909594239AB99BB1822F892B8BB9089507
:1018200089B190E023E9261B2F7002C0959587951A
:101830002A95E2F781700895269A0895FC01EE0F2B
:10184000FF1FE80FF91FE951FD4F61834083228399
:101850000895382F25EB3203C001112497FF04C0EF
:1018600080589109892F089580589F4FFBCF809110
:10187000D40580FD14C081FD14C082FD16C0809186
:10188000D305811581F08E3180F420E5829FC0015F
:1018900011246EE170E00E946032862F089584E189
:1018A000089588E2089588E0089580E5089580917C
:1018B000D40580FD17C081FD17C082FD19C080913D
:1018C000D205811599F0883298F428E0829FC001F2
:1018D000112468E270E00E9460326115710551F0D8
:1018E000862F089562E0FCCF64E0FACF61E0F8CF84
:1018F00068E0F6CF81E00895E091A405F091A50598
:10190000309739F00190F081E02D309711F0099572
:10191000089580E00895E091A405F091A505309721
:1019200059F026813781232B39F022E0DC012C93FA
:101930000680F781E02D09950895A3E0B0E0E3EA81
:10194000FCE00C942D322091E5023091E60228173C
:101950003907B1F08093E5029093E602E091A40587
:10196000F091A505309761F00084F185E02D309766
:1019700039F023E029838A839B83CE010196099560
:101980002396E2E00C944932A3E0B0E0EAECFCE0FC
:101990000C942D322091E3023091E402281739078C
:1019A000B1F08093E3029093E402E091A405F091FA
:1019B000A505309761F00084F185E02D309739F06E
:1019C00024E029838A839B83CE010196099523967F
:1019D000E2E00C9449329C01FC01329680E09FEFDA
:1019E0004081461759F031969F3F19F4411101C0CB
:1019F000982F8F5F8630A1F79F3F09F40895290F34
:101A0000311D97FD3A95F90162830895FC013296E4
:101A100008962191261302C0DF011E92E817F907EC
:101A2000C1F70895DC01FB0111969C91119781810A
:101A3000981322C012968C911297811519F09281F9
:101A400089131AC013968C911397811519F09381FD
:101A5000891312C015968C911597811519F09581EF
:101A600089130AC014969C91911521F081E024817C
:101A7000291303C080E001C081E081700895809146
:101A8000130108952FB7F8946091DF027091E0027E
:101A90008091E1029091E2022FBF08950895FC0128
:101AA0002091D5023091D6022617370748F06115EC
:101AB000710529F49091E8009E779093E8009B01CE
:101AC00090E02115310541F4911106C08091E800A4
:101AD00082FF32C080E0089580915E058115C1F1DA
:101AE0008530C1F18091E80083FD30C08091E8002D
:101AF00082FDECCF8091E80080FFE3CF8091F3007E
:101B00004091F200582F2115310519F04830510548
:101B100058F091E04830510509F090E04091E8001C
:101B20004E774093E800CDCF81918093F100215012
:101B300031094F5F5F4FE7CF80915E05811541F01E
:101B4000853041F08091E80083FFC0CF81E00895A7
:101B500082E0089583E00895982F9093E900891713
:101B600071F07091EC002091ED005091F00021FD9A
:101B700009C09F5F973089F78093E9000895762F19
:101B8000242F50E03091EB003E7F3093EB003091FA
:101B9000ED003D7F3093ED003091EB0031603093EC
:101BA000EB007093EC002093ED005093F000209137
:101BB000EE0027FDDECF08958091CF0287FF13C08E
:101BC0008091E80082FF06C08091E8008B778093C7
:101BD000E800089580915E058111F2CF089580910B
:101BE0005E058115D9F38091E80080FFF8CF8091E0
:101BF000E8008E77ECCF2091E4003091E50095E687
:101C0000A9012091EC00822F817020FF06C08091F5
:101C1000E80080FF06C080E008952091E80022FDE2
:101C20001AC080915E05811589F0853089F0809118
:101C3000EB0085FD0FC02091E4003091E5004217D4
:101C40005307F9F29150E1F684E0089582E0089597
:101C500083E0089581E00895CF93DF93C8EDD0E04D
:101C600088818F7E8883E7EDF0E0808181608083CA
:101C700084E082BF81E08093CE0288818E7F88835A
:101C8000E2EE10821092DA00A1EEB0E01C928881A0
:101C90008F77888388818068888388818F7D888317
:101CA00019BC10925E051092CD0210925D05109243
:101CB000CC02A0EE8C918B7F8C938881816088838D
:101CC00042E060E080E048DFA1EEB0E08C918E7FE2
:101CD0008C93E2EEF0E08081816080838081886077
:101CE0008083E0EE80818E7F80838881806188831D
:101CF000DF91CF910895E8EDF0E080818E7F8083C1
:101D00001092E2001092DA001092E100A0EEB0E032
:101D10008C9181608C9380818F77808319BCA7ED33
:101D20008C918E7F8C9380818F7E80831092CE02E7
:101D3000089580935106409151065091520660914A
:101D400053067091540683E190E00C949C352498DE
:101D50002C9880E098E02A9825E02A95F1F7000079
:101D600022271C992395880F822B2A9A25E02A95F1
:101D7000F1F70000915079F70895249A27E030E0B8
:101D800090E02A98AC01022E02C0559547950A941E
:101D9000E2F740FF0EC02C9A4AE04A95F1F700C0E6
:101DA0002A9A2150310968F785E18A95F1F70000F8
:101DB00008952C98F1CFCF93C62F2D988068DDDF42
:101DC0008C2FDBDF2D9ACF91089584E0809340061D
:101DD0008093410682E08093420681E0809343062F
:101DE0001092440644E054E062E071E08FE090E03D
:101DF0000E949C3560E070E0AB0183E190E00E94BE
:101E00009C3560E982E2D7CF61E08D37910548F0DB
:101E10006DE0863D26E0920720F46DE770E00E94B9
:101E20000932606189E1C7CFCF932D98809131034A
:101E300081110EC083E6A1DF8ADFC82F88DF982FCB
:101E40002D9A8C2FC7FD806897FD9068CF910895DB
:101E500080E090E0FBCFACE0B0E0E1E3FFE00C9489
:101E60002B324F835887162F072F8B879C87DCDFF9
:101E7000282F292B11F4902F812F89879A8786E0AC
:101E8000FE013796DE01119601900D928A95E1F7D9
:101E900029813A814B815C816D817E8180E090E077
:101EA0002C96E4E00C9447322D9867DF50DF95E0E4
:101EB0009A95F1F700002D9A0895CF93DF93229A17
:101EC000249A259A6AE58AE376DF8FE79FEA22E083
:101ED000815090402040E1F700C000001092310393
:101EE000A3DF80E0E1DFC82F81E0DEDFD82F8EE3C3
:101EF000DBDFC23129F49D2FD13011F4863209F095
:101F000090E0892F8170DF91CF91089535B13F7BAB
:101F100025B120644FB7F89487EE92E0FC0101965A
:101F2000508168E025B9000000C057FF35B9550F52
:101F3000000000C000C000C035B900C06A9591F72C
:101F400053E08B30950751F74FBF8FE594E0019731
:101F5000F1F700C0000008950F931F93CF93DF9314
:101F6000EB018A0190915E05943059F58093E90068
:101F70008FEF9091E80095FD06C095ED9A95F1F7E9
:101F800000008150B1F78091E80085FF1AC033DE70
:101F9000811112C08091E80085FD06C08091E800A3
:101FA0008E778093E800F3CF88818093F100015011
:101FB000104011F02196EECF8091E8008E7780934B
:101FC000E800DF91CF911F910F910895CF93DF9398
:101FD000EC0148E050E0BC0181E0BEDF88E0FE019A
:101FE000A7EDB2E001900D928A95E1F7DF91CF91D4
:101FF000089546E050E0BC0182E0AECF43E050E0FF
:10200000BC0182E0A9CF9091FD0592FB222720F927
:10201000281771F080FB92F99093FD056091FC0503
:102020007091FD0584E090E00E94A43582E084CBAD
:1020300008950F93CF93DF93CCEED5E0488159817B
:102040006A817B8188E090E00E949C356C81262F1C
:1020500060E070E0CB01622F83E20E948A35DF915D
:10206000CF910F91089585E08093EC051092ED05D6
:102070008FEF8093EE0588E78093EF051092F005CF
:102080008CEE95E0D6CF8091F005833018F48F5F09
:102090008093F0058CEE95E0CCCF8091F005811512
:1020A00019F081508093F0058CEE95E0C2CFA0E04E
:1020B000B0E0EDE5F0E10C942832082FE62E142F65
:1020C000D22E8091EC0580FF24C0282F26952695DE
:1020D000E22FF0E0E858FE4F90819093EA058C7F64
:1020E0008430E1F4842F493708F088E7602F7E2D93
:1020F000B1D9962F672F482F892F5ADA0093ED0513
:10210000E092EE051093EF05D11419F08CEE95E0F6
:1021100090DFCDB7DEB7E7E00C944432923019F48B
:102120000091ED05EBCF9530D9F39B3039F785EF72
:10213000F82EF20EEF2DE695F0E0EA5AF74FD49123
:10214000C0E060912401C61710F018DAD7CFCD9FF8
:10215000C001112470E00E940932862F800FF0FE2A
:1021600002C0802F861B209122012C0F3327331FA2
:10217000412F193708F048E76E2DEED9CF5FE1CF38
:10218000ECEEF5E0818121E043816281865F8FCFB3
:10219000ECEEF5E0818121E0438162818A5087CFB6
:1021A000ECEEF5E0628121E1620F08F46FEF21E0CF
:1021B000438181817CCFECEEF5E0628121E1621BFD
:1021C00008F460E021E04381818171CFECEEF5E01D
:1021D000438121E1420F08F44FEF21E062818181C8
:1021E00066CFECEEF5E0438121E1421B08F440E0CC
:1021F00021E0628181815BCFCF9367E473E08BED57
:1022000095E010DCC82F811519F08BED95E083DB8C
:102210009091DC0586E0EBEDF5E0282F11922A95F0
:10222000E9F79093DC05EBEDF5E0A7E4B3E001906E
:102230000D928A95E1F781E0911101C080E08C2B2D
:10224000CF9108958091F4059091FE05892B90918E
:10225000F505911589F0892B90E026EC32E0F90123
:1022600040812F5F3F4F41119F5F42E02C3C34077C
:10227000B1F791111092F5058093C40248E050E047
:1022800066EA75E084EC92E00E94B332892BB9F0E3
:1022900088E0E4ECF2E0A6EAB5E001900D928A95C0
:1022A000E1F7E091A405F091A505309741F0028097
:1022B000F381E02D309719F084EC92E009950895B0
:1022C000811531F09091F405982B9093F405BACFD5
:1022D0000895811519F00E948708B4CF08958F9250
:1022E0009F92AF92BF92CF92DF92EF92FF920F93A5
:1022F00088E090E00E9480354B015C016093EC0522
:102300009092ED058093EE05B092EF051092F005E6
:102310001092F1051092F2051092F30583E290E01D
:102320000E9478359401A5018092EC053093ED056B
:10233000A092EE055093EF058093F0051092F10501
:102340001092F2051092F3050F91FF90EF90DF903D
:10235000CF90BF90AF909F908F900895ADE2B0E086
:10236000E4EBF1E10C941D3280915B05833009F0C0
:10237000C8C24091DB055091DC056091DD0570918C
:10238000DE058091DF059091E00565DD2093DB059A
:102390003093DC054093DD055093DE056093DF0547
:1023A0007093E00586E0EBEDF5E0DE011796019015
:1023B0000D928A95E1F70091DD0501951091DE05FA
:1023C000119509871A8786E0FE013796DE011D9672
:1023D00001900D928A95E1F786E0FE013D969E01FF
:1023E0002F5F3F4FD90101900D928A95E1F786E06A
:1023F000F901ABEDB5E001900D928A95E1F786E029
:10240000EBEDF5E0DE01179601900D928A95E1F76C
:1024100086E0FE013796DE01539601900D928A9573
:10242000E1F786E0FE017396D90101900D928A953D
:10243000E1F786E0F901ABEDB5E001900D928A95E8
:10244000E1F786E0EBEDF5E0DE015F9601900D929D
:102450008A95E1F73090DF052090E005E091420693
:10246000F0E0EE0FFF1FE756FE4F6081718180E0C4
:1024700090E00E94A43125E33AEF4EE85CE30E942D
:10248000E6304B015C01602F000F770B872F972FF1
:102490000E94A6312B013C01B401C5010E94D42F3A
:1024A0006B017C01612F110F770B872F972F0E94F3
:1024B000A6316DA37EA38FA398A7B401C501905840
:1024C0000E94323069A77AA78BA79CA79601A70123
:1024D000B201C3010E94E6304B015C0129A53AA577
:1024E0004BA55CA56DA17EA18FA198A50E94E630A9
:1024F0009B01AC01B401C5010E946E312AE939E9A2
:1025000049E95EE30E94E6304B015C0123E333E3DB
:1025100043E35FE36091420370914303809144037E
:10252000909145030E94E6309B01AC01B401C501C6
:102530000E946F314B015C0129A53AA54BA55CA512
:10254000B201C3010E94E6302B013C012DA13EA146
:102550004FA158A5B601C7010E94E6309B01AC010E
:10256000B201C3010E946F312AE939E949E95EE30A
:102570000E94E6306B017C0123E333E343E35FE336
:1025800060913E0370913F0380914003909141031D
:102590000E94E6309B01AC01B601C7010E946F3179
:1025A0006B017C018092420390924303A09244030A
:1025B000B092450360933E03D0923F038093400363
:1025C000F092410320E030E040EC5FE3B401C5014C
:1025D0000E94E6304B015C0120E030E040EC5FE31C
:1025E000B601C7010E94E6306B017C018091440670
:1025F0009E012F5F3F4F29A73DA7811509F4FBC01E
:10260000B401C5010E9473318B0177FF04C000271C
:102610001127061B170BB601C7010E947331AB01CE
:10262000CB0177FF04C088279927841B950B80175F
:1026300091070CF0CBC0E12CF12C670160913C03B9
:1026400070913D03872F880F880B982F0E94A63129
:102650006DA37EA38FA398A760913A0370913B036B
:10266000872F880F880B982F0E94A6312B013C01E1
:1026700080914306811509F4ADC02DA13EA14FA163
:1026800058A5B401C5010E946F314B015C01960150
:10269000A701B201C3010E946E310E9473316B0128
:1026A0007C01B401C5010E947331AB0160933C030E
:1026B00050933D03C0923A03D0923B03E091410610
:1026C000F0E0EE0FFF1FE357FE4FE0819A010E2E60
:1026D00002C0359527950A94E2F7C6010E2E02C076
:1026E000959587950A94E2F7082F211581F0220E1F
:1026F000322F330F330B0E2E02C0220F331F0A94DA
:10270000E2F7421B530B40933C0350933D030115EA
:1027100009F4F5C0380E982F990F990B02C0880F55
:10272000991FEA95E2F7C81AD90AC0923A03D092E3
:102730003B0300E010E009A31AA33BA22CA286E011
:10274000FE017F96DE01179601900D928A95E1F7C2
:1027500086E0FE013796A9A5BDA501900D928A9548
:10276000E1F786E0E9A5FDA5DE01599601900D92FD
:102770008A95E1F786E0FE017996DE0117960190D1
:102780000D928A95E1F786E0FE013796ABEDB5E054
:1027900001900D928A95E1F786E0E5EDF5E0DE0126
:1027A000179601900D928A95E1F78091DC05988546
:1027B000892B8093DC0520DD811102C080914603C6
:1027C00010924603AD96E2E10C943932A12CB12C63
:1027D000450134CF9401A5016DA17EA18FA198A5DB
:1027E0000E946E314B015C019201A301B601C70149
:1027F0000E946F3152CF20E030E040E05FE3B4014F
:10280000C5010E94E6302091360330913703409194
:102810003803509139030E946F314B015C01609382
:1028200036039092370380933803B092390320E047
:1028300030E040E05FE3B601C7010E94E63020913E
:1028400032033091330340913403509135030E9499
:102850006F316B017C0160933203D092330380931C
:102860003403F0923503B401C5019F7720E030E0D6
:1028700040E85FE30E94E13100E087FD1AC0B40147
:10288000C5010E947331062F762F770F770B872FA4
:10289000972F0E94A6319B01AC01B401C5010E9493
:1028A0006E316093360370933703809338039093AF
:1028B000390320E030E040E85FE3B601C7019F77CD
:1028C0000E94E13187FD1BC0B601C7010E94733130
:1028D000162F762F770F770B872F972F0E94A63111
:1028E0009B01AC01B601C7010E946E3160933203B7
:1028F0007093330380933403909335031CCF10E01F
:102900001ACF80E05FCFAB0124E630E0BC0188E75E
:102910000E94402F9C0181E0232B09F080E0089564
:10292000809153058115E9F0ADD8DC01CB01805AC7
:102930009541AF4FBF4F8093540590935505A09399
:102940005605B09357058091520581110AC062E087
:1029500070E084E193E0D7DF811519F081E0809386
:102960005205089580915305811561F080915205BB
:10297000811541F062E070E082E193E0C4DF8111F3
:10298000109252050895CF93DF93C0914F03D091D9
:1029900050038A30C1F440915805CE0181559340CF
:1029A000642F70E00E940932481B842F66E00E9469
:1029B0005432C82FC11103C0DF91CF910895C15087
:1029C00080E2E1DFF7CF8D30C1F4C155D3404091B3
:1029D0005805642F70E0CE010E940932481BCE01D9
:1029E000840F911D923010F080E090E08F5A9C4F40
:1029F00080934F0390935003DFCF96E0FE01ABE24C
:102A0000B3E001900D929A95E1F7803E08F455C02D
:102A100086E019928A95E9F7C0914F03D09150034F
:102A200046E050E0BE018BE293E00E94B3329E018B
:102A300021553340892B41F1C90145E09695879591
:102A40004A95E1F741E050E0BA0102C0660F771FF6
:102A50008A95E2F7CB0160914D0370914E03862B6E
:102A6000972BB9016B5F7F4FE5E076956795EA9507
:102A7000E1F702C0440F551F6A95E2F7842B952BAE
:102A800080934D0390934E032A5F3F4F409158052A
:102A9000642F70E0C9010E940932481B463010F4CF
:102AA000240F311D323010F020E030E02F5A3C4F1F
:102AB00020934F03309350037FCF96E0899FB0015E
:102AC00011246A5E7C4F46E050E0CE010E949D32A8
:102AD000A3CFCF93DF93EC01FE018491811103C05A
:102AE000DF91CF9108954FDF2196F6CF0F931F937B
:102AF000CF93DF93EC01FC0101900020E9F78F01F7
:102B000001501109C017D10728F0DF91CF911F9113
:102B10000F910895899137DFF5CFACE0B0E0E3E99C
:102B2000F5E10C941F3280915305811509F476C1AB
:102B300081E593E080934F039093500382ED92E000
:102B4000C8DF80ED92E0C5DFE0914106F0E0EE0FD6
:102B5000FF1FE357FE4F10810181E0914206F0E034
:102B6000EE0FFF1FE756FE4FB080A180E0914006B8
:102B7000F0E0EE0FFF1FE95CFD4F81818F938081B4
:102B80008F9385E291E09F938F931F9285E08F93BF
:102B90006E018FEFC81AD80A3601DF92CF920E94D9
:102BA000C0320F931F9389E291E09F938F931F92FE
:102BB00083E08F937E018AE0E80EF11C47019F922B
:102BC000EF920E94C032AF92BF928DE291E09F934C
:102BD0008F931F9284E08F938E010A5F1F4F5801DD
:102BE000BF920F930E94C0322091F9053091FA05EF
:102BF0008091F7059091F805822B932B0E94B707DF
:102C00002DB73EB7285E3F4F0FB6F8943EBF0FBEBC
:102C10002DBF873008F018C1E82FF0E0E753FA4CD9
:102C20000C9473328AEC92E054DF8EE992E051DF2B
:102C300080914406811509F40AC18CE992E049DFCC
:102C400088E992E046DFC60151DF86E992E041DF84
:102C5000C7014CDF84E992E03CDFC80147DF809187
:102C60004D0390914E03892B09F4BEC0809153050A
:102C7000811509F4B9C0809151058111B5C050DEAC
:102C800080914D0390914E03009709F4ADC080FBF5
:102C9000EE24E0F8F12C10E080FD10C041E050E09F
:102CA000212F2F5F122F7A0102C0EE0CFF1C2A95F4
:102CB000E2F7970128233923232B91F380915905BB
:102CC00080FFC8C0912F990F990F990F392F395F45
:102CD00080E023E09093020180930501309303018B
:102CE0002093060124E630E047E050E060E071E028
:102CF00088E70E94F62E892B09F076C080E2189FA3
:102D0000A00111248091590580FFB6C0EBE0F3E0EB
:102D100080E211928A95E9F734E7632E31E0732E51
:102D200080E791E04C0168E771E0D301ED913D014E
:102D3000D4010D914D01040F152F111DF0E0E55F39
:102D4000FC4F80E090E027E0A22EA81ABB24B394A9
:102D5000082E01C0BB0C0A94EAF798012F5A3C4F89
:102D60002901D12CD2012D912D012B21B22F2A2DF9
:102D70002D19277030E0AB2F022E01C0AA0F0A9444
:102D8000EAF7CA2E31952195310927703327AB2FE9
:102D900001C0A6952A95EAF7CA2A2081C22AC082D4
:102DA000D3942D2D2830F1F6019631968830910577
:102DB00051F66615770509F0B8CF04E610E020E279
:102DC0004BE053E060E488E70E94862F892B61F492
:102DD000E094F09480914D0390914E03E822F92203
:102DE000E0924D03F0924E03809152058115B1F0AF
:102DF0000E94420D009154051091550520915605F1
:102E000030915705DC01CB01801B910BA20BB30B5A
:102E10008F3F9F4FAF4FBF4708F4A4DD2C96E0E1F2
:102E20000C943B3284EC92E0FFCE8EEB92E0FCCE31
:102E300088EB92E0F9CE82EB92E0F6CE8CEA92E05B
:102E4000F3CE86EA92E0F0CE80EA92E0EDCE8AE917
:102E500092E0F5CE20E2129FC0011124880F492F85
:102E6000441F550B5195242F912F9295990F9076D1
:102E7000392F315E842F2ECF4F5A5C4F04E610E07D
:102E800020E230E09FCF1F921FB61F9211248F9334
:102E90009F93AF93BF9380915C05811113C0809184
:102EA000DF029091E002A091E102B091E20241962E
:102EB000A11DB11D8093DF029093E002A093E10277
:102EC000B093E202BF91AF919F918F911F901FBE6F
:102ED0001F9018952FB7F8948091DF029091E0022F
:102EE000A091E102B091E2022FBF0895CF93DF934A
:102EF000EC01F0DF8C1B9D0BDF91CF910895A0E0DA
:102F0000B0E0E5E8F7E10C941D3248E955E00BEB41
:102F100011E0D12C7D01E394FA01B190AF01DF0102
:102F20001E92F80181918F01E82FE295EF70F0E099
:102F300021A18F70B70101C0660F8A95EAF7462E6E
:102F4000262B21A322A1C62EC0942C2122A320EA45
:102F50002A95F1F725EC222E21E0322E310160E096
:102F600070E0E301A9903E012A2D22952F70205E8A
:102F700030E0E90128819C908A2D8F7002C0359540
:102F800027958A95E2F720FD91C02E2D062E01C0CF
:102F9000220F0A94EAF729292C936F5F7F4F66303E
:102FA0007105F9F691A1C922C1A292A1842D892BA4
:102FB00082A381E09C919B1101C080E0D82A85E02A
:102FC0004D39580709F0A8CF20E030E07901E394AB
:102FD00040EC51E0F10181911F01E82FE295EF7083
:102FE000F0E061A18F70D70102C0AA0FBB1F8A95C4
:102FF000E2F72D016A2B61A372A16A2F60957623F7
:1030000072A370EA7A95F1F7AE2D022E01C0AA0FD5
:103010000A94EAF78A2E80947A2FABEBB1E00DE99F
:1030200015E0C12CE80199908E017D90A72CA29407
:103030008FE0A82280E2A80EB12CE501A880872DA0
:103040008F7002C0B594A7948A95E2F7A0FC30C0B7
:10305000B92CB72A380181E0681A7108E301B882F7
:10306000AA24A394B91001C0A12CCA284A175B074F
:10307000C9F691A1692361A392A1842D892B82A312
:10308000DC282F5F3F4F2630310509F0A3CFD11444
:1030900091F081E080938D051DDF80938B059093E7
:1030A0008C05CDB7DEB7E2E10C94393220E073CF66
:1030B000B92CB820CFCF80918D05811591F3C091A7
:1030C0008B05D0918C0506DF8C1B9D0B059748F373
:1030D0004AE050E068E975E08EE895E00E94B3327E
:1030E000892B49F08AE0E8E9F5E0AEE8B5E0019027
:1030F0000D928A95E1F710928D05D3CF9091EC0552
:1031000090FF2EC0811569F1853168F58F73880FA6
:10311000880F9091EC059370892B8093EC056115D5
:1031200021F08CEE95E00E9419106091EC056695F7
:10313000669570E04BE050E087E091E00E94A63297
:10314000892B99F01092EB0581E08093770520E0C0
:103150004091EF056091EE058091ED050C945710BC
:10316000089581E0D4CF84E1D2CF81E08093EB0554
:10317000B1DE8093740590937505E6CF8091EC05E0
:10318000869586958F5F853108F081E061E0B6CF46
:103190008091EC0586958695815009F484E161E083
:1031A000ADCF98DE9C019091D7058091D805982BE2
:1031B00021F020938805309389059091D90580915D
:1031C000DA05982B21F0209386053093870585ED4D
:1031D00095E00C948B0C611509F459C0E82FED5C57
:1031E000E33150F4F0E0E053FA4C0C9473320E9457
:1031F000370C81958093D805D4CF0E94370CFACF35
:103200000E94370C81958093D705F6CF0E94370C2A
:10321000FACF0E94570C8093D905EECF0E94570C2D
:103220008195F9CF0E94570C81958093DA05E4CF00
:103230000E94570CFACF482F415D550B21E001C089
:10324000220F4A95EAF79091D605922B9093D605D6
:103250004091DC05815D21E001C0220F8A95EAF7EB
:10326000822F611509F48AC0422B4093DC050C942F
:10327000FC108091D40581608093D405BDCF8091EE
:10328000D4058260F9CF8091D4058460F5CF909108
:10329000D705482F50E08D3C59F42091D80527FFE1
:1032A0000DC01092D80591110BC01092D30508C023
:1032B0008E3CA9F42091D80512169CF39115A9F023
:1032C0009091D9052091DA05922B11F41092D20534
:1032D000415D51094830510508F4BACF8DCF8F3C7C
:1032E00039F497FFEBCF1092D7059091D805DBCF3B
:1032F000803D19F41916BCF3E1CF2091D905893D21
:1033000029F41216DCF61092D905D8CF8A3D19F4AB
:1033100027FFD4CFF8CF2091DA058B3D29F427FF82
:10332000CDCF1092DA05CACF8C3D19F41216CCF32A
:10333000C5CF282F215D283070F4FA01E15D21E02E
:1033400001C0220FEA95EAF720953091D605232394
:103350002093D605B3CF2091D4052E7F8D3D59F013
:103360002091D4052D7F8E3D31F08F3D09F0A6CF01
:103370002091D4052B7F2093D405A0CF809548239E
:1033800074CFCF93C82F8115A9F08450813AA0F44F
:10339000E6ECF2E08CEC92E02081C217E9F1319684
:1033A0008E179F07C9F76C2F84EC92E00E94EB0CFC
:1033B0000E942211CF9108958C2F805E883060F496
:1033C000C77021E001C0220FCA95EAF78091F40589
:1033D000822B8093F405ECCF8C2F855A833030F408
:1033E0008C2F8452990B0E949D0CE4CFEC2FE85A4D
:1033F000EB3150F4F0E0EE0FFF1FEF5FFD4F8081E7
:1034000091810E94C40CD6CF8C2F8D5C833190F6B5
:1034100061E08C2FE0DECECF6C2F84EC92E00E9436
:10342000060D0E942211BFCF811581F1982F945073
:10343000913A38F4682F84EC92E00E94060D0C94C7
:103440002211982F905E983058F4982F81E091FDCA
:1034500084E090FD880F92FD82950E948708EFCF4F
:10346000982F955A933020F480E090E00C949D0CB6
:10347000982F985A9B3120F480E090E00C94C40C73
:10348000982F9D5C933110F460E0A5CE08951F93B2
:10349000CF93DF93182FC0E5D0E0893311F0C0E05F
:1034A000D0E0812F6EDF209731F4812FBDDFDF91D7
:1034B000CF911F9108958FE99FE00197F1F700C028
:1034C00000002197F0CFA0E0B0E0E9E6FAE10C942B
:1034D0002632EC0198819130D0F009F03EC089810C
:1034E000813021F48A812396D2DFF4CF823021F417
:1034F0008A81239646DFEECF833021F48A8123969A
:1035000093DFE8CF843041F022968111E3CFCDB72D
:10351000DEB7E9E00C9442328A81239620E030E065
:103520009AE0482F4053550B4A30510560F0211561
:10353000310559F3EFE9FFE03197F1F700C00000E2
:1035400021503109F4CF929FB001939F700D112447
:103550009A01260F371F8991E4CF2196E92FF0E0D9
:10356000EC5EFD4F8491B82E292F26952695269541
:1035700030E0F901EC5FFD4FE4909770F12C092EDB
:1035800002C0F594E7940A94E2F7F901EC50FE4F7B
:10359000C490D12C092E02C0D594C7940A94E2F7A6
:1035A0002C513E4FF901049110E002C0159507958A
:1035B0009A95E2F7E0FE02C081EEE3DEC0FE02C0B3
:1035C00086EEDFDE8B2DDDDE8B2D2EDFC0FE02C012
:1035D00086EE2ADFE0FE02C081EE26DF00FF7ACF12
:1035E0008CE282CFA2E1B0E0E8EFFAE10C941D3268
:1035F00060915506611509F448C080906B06909063
:103600006C06A0906D06B0906E0686E596E08B87FE
:103610009C87DC0180E090E01D861E861F86188A4C
:10362000ED91FD91EE0FFF1FEE0FFF1FEF5BF64FC9
:103630000081118122813381802A912AA22AB32A12
:10364000CD84DE84EF84F888C02AD12AE22AF32AC6
:10365000CD86DE86EF86F88A01968617910504F3FB
:1036600081149104A10480E4B80699F4809156066F
:10367000909157068F359E4739F588E208DF60E064
:1036800070E080E090E40E943C076296E2E10C94D6
:10369000393281149104A10486E0B80639F40E94FD
:1036A0006F0B60E070E080E096E0EDCF8114910454
:1036B00080E8A80681E0B80639F40E948E0B60E02D
:1036C00070E080E891E0DFCFE6E5F6E020E030E072
:1036D00080819181AC014E555E474230510508F41E
:1036E00090C0880F991F880F991F8F5B964FFC0120
:1036F000408051806280738087EE282E8CE0382EC7
:103700008101C12CD12C76014AE050E0B801CE01F4
:1037100001960E949D3229813A814B815C81C901C9
:10372000DA0188219921AA21BB21BE016F5F7F4F59
:10373000698B7A8B281739074A075B0799F58D85BE
:103740009E85AF85B88982239323A423B523892B33
:103750008A2B8B2B39F1B901CA010E947932FC0105
:10376000B601C7010E9479328E179F070CF454C02E
:10377000C9F44114510461047104A1F0C901DA01D2
:1037800084219521A621B721892B8A2B8B2B51F0DF
:10379000C201D3018C219D21AE21BF21892B8A2B0F
:1037A0008B2BD1F1065F1F4F8EE00B33180709F00A
:1037B000ABCFC114D104E104F10409F44FC04AE0D5
:1037C00050E0B10189899A890E949D3289819A814C
:1037D000AB81BC818C159D05AE05BF05A9F5809117
:1037E0004B06811571F180E4C816D104E104F1049F
:1037F000B1F481E391E067DEB601C7010E943C07A6
:10380000F7CE32962F5F3F4F261731050CF460CF6D
:10381000612C712C230170CF69017A01C3CFC114CF
:10382000D104E10488E0F80619F484E391E0E3CFE1
:10383000C11482E0D806E104F10419F487E391E0B1
:10384000DACFCE010596D7CF8AE0280E311C8BE364
:1038500028168EE0380609F0B2CFCECF80915506FB
:10386000811509F412CFEB85FC85228133812193E8
:103870003193EB87FC87E856F640A9F7109268066B
:1038800010926906815080935506FFCE1092F40580
:10389000E6ECF2E086E011928A95E9F780E090E0AC
:1038A0000E949D0C80E090E00E94C40C1092FE05E6
:1038B0000E942211E5EDF5E086E011928A95E9F784
:1038C0001092D3051092D2051092D4056ACCDEDF97
:1038D0008FEF94E32CE0815090402040E1F700C04E
:1038E000000088E19AE00FB6F894A89580936000F4
:1038F0000FBE90936000FFCFA0E0B0E0E2E8FCE1F3
:103900000C9427327C01FC0184818115A1F161E0D6
:10391000C7010E94D709EC01F7018581CA369EE7ED
:10392000D907A1F0CB369EE7D90751F1811509F4EB
:103930006CC0C039D10579F158F5CA38D10559F1B3
:10394000CB38D10559F510924B0628C0811521F0CE
:103950000E948E0B10924B068091FB05877059F0E8
:10396000F7018581811539F08091FD0582FF03C043
:1039700082E00E949C0BCDB7DEB7E8E00C944332A6
:10398000811551F30E946F0B81E080934B06E4CFC9
:10399000C139D105D7CF81E080934B0680914F0686
:1039A00090915006892BD1F480916F06811509F40E
:1039B00047C080916A064091F9055091FA0541157A
:1039C000510509F04BC0811509F455C00E94610BE7
:1039D00080914F0690915006892B71F180914F068E
:1039E00090915006181619060CF045C080916A0691
:1039F0004091F9055091FA054115510509F058C05B
:103A0000811139C00E947E0B36C08681803130F230
:103A1000CE019052903210F68C2F90E0C03909F40C
:103A2000BACF8139910508F08DCF8A38910509F414
:103A3000B2CF8B38910586CF80916F0681111BC064
:103A400080916A064091F9055091FA05411551059A
:103A500011F5811110C00E947E0BC0CF21E030E033
:103A6000082E02C0220F331F0A94E2F724233523C5
:103A7000232B09F4ABCFF7012581211509F489C067
:103A8000FE01E056FE47EA30F10508F082C0ED5134
:103A9000FA4C0C94733221E030E0082E02C0220F61
:103AA000331F0A94E2F724233523232B21F3D3CFAA
:103AB00021E030E0082E02C0220F331F0A94E2F703
:103AC00024233523232BB9F29DCF0E946F0B44CFC3
:103AD0000E948E0B41CF0E94A4073ECF81E00E943E
:103AE000990E3ACF82E0FBCF83E0F9CF9091520656
:103AF000892F8E7F90FF81608093520640915106FE
:103B000050915206609153067091540683E190E003
:103B10000E949C3521CF809151068230B1F08330D4
:103B200009F1813019F48AE391E0CDDC80915206ED
:103B300081FF1BC082E591E0C6DC8091520682FFC6
:103B400017C08EE591E0BFDC07CF8EE391E0BBDCD0
:103B50008091520680FF03C082E491E0E6CF87E4C3
:103B600091E0E3CF8CE491E0E0CF88E591E0E4CF11
:103B700087E691E0E8CF90915206892F8D7F91FFE3
:103B80008260BACF90915206892F8B7F92FF84601A
:103B9000B3CF80916F068111C0C080914C06909187
:103BA0004D06211509F4AAC020914E062F5F2093DF
:103BB0004E064091E5055091E605009701F521304C
:103BC000F1F4C417D507B1F08091E7059091E805AD
:103BD000C817D90779F08091E1059091E205C817DF
:103BE000D90741F08091E3059091E405C817D90702
:103BF00009F08EC0C0934C06D0934D06ADCE2091F7
:103C0000E7053091E805C417D50761F4281739078F
:103C100079F40E946F0B10924C0610924D06109290
:103C20004E069ACEC217D30719F448175907F0CF9A
:103C30002091E1053091E2054091E3055091E405C2
:103C4000C217D30731F48417950749F40E948E0BED
:103C5000E2CFC417D50719F428173907F6CF17DCB8
:103C600010924C0610924D0610924E06C1158EE72A
:103C7000D80709F09EC0F7018581811509F180916F
:103C8000400690E0019665E070E00E940932809362
:103C90004006409140065091410660914206709165
:103CA00043068FE090E00E949C35E0914006F0E0F2
:103CB000EE0FFF1FE95CFD4F808191810E94040F90
:103CC000F7018581C6319CE7D90709F0B1C4811598
:103CD00009F485C18091F4058A7A91E0811101C0CF
:103CE00090E09093E90565E3811101C069E284ECFD
:103CF00092E00E94EB0C0E9422112ECE10924E06F2
:103D0000009731F0C4DB10924C0610924D0624CE81
:103D100010924C0610924D06A9CFD93208F06EC011
:103D2000C13088E2D80768F4D33208F063C0C130EC
:103D300082E2D80730F4C83ED10518F5C03ED1055F
:103D400030F180914F0690915006211509F46BC017
:103D5000019680934F069093500680916A060E94C8
:103D60007E0BC6308EE7D80709F422C1C5308EE736
:103D7000D80709F428C1C4308EE7D80709F428C150
:103D80009FCFCE01815091428F3F9105D0F22115F6
:103D900009F4CEC0CE358EE7D80708F051C0C03444
:103DA0008EE7D80708F093C0C1158EE7D80709F44D
:103DB00066CFC1308EE7D80709F016C4F7018581B8
:103DC000811509F47DCF8091410690E0019666E06F
:103DD00070E00E9409328093410640914006509164
:103DE000410660914206709143068FE090E00E9488
:103DF0009C3566CFCE0181509442C6CFD53378F43E
:103E0000C13084E3D80708F09CCFD23320F4C1300E
:103E100081E3D80795CFCE0181509243B5CFCE0133
:103E200081509843B1CF019711F00AF0D8C3109296
:103E30004F061092500680916A060E94610B91CF46
:103E4000CE018E559E47029708F0D3C38091550648
:103E5000909152068E0100541E47000F111F000F53
:103E6000111F92FD0DC0811549F0BCDB10926B064D
:103E700010926C0610926D0610926E068091550697
:103E8000E82FF0E0EE0FFF1FEA5AF94FC083D1830D
:103E90008F5F80935506F801EF5BFD4F80916B06B5
:103EA00090916C06A0916D06B0916E064081518193
:103EB00062817381842B952BA62BB72B80936B0685
:103EC00090936C06A0936D06B0936E0645CD8091DD
:103ED0005506E82FF0E0EE0FFF1FEA5AF94FC083B6
:103EE000D1838F5F80935506CC0FDD1FCC0FDD1F74
:103EF000CF5BD64F40916B0650916C0660916D067A
:103F000070916E06FB81EA810980C881D02D4C2B0F
:103F10005D2B6E2B7F2B40936B0650936C0660934A
:103F20006D0670936E068A3008F416CD5BDB14CDF7
:103F3000CE0180549E478032910508F097CE880FBD
:103F4000991F880F991F8F5B9D4FFC014081518104
:103F500062817381409550956095709580916B0654
:103F600090916C06A0916D06B0916E068423952306
:103F7000A623B72380936B0690936C06A0936D06DF
:103F8000B0936E0680915506811509F4E5CCCECF2D
:103F9000F7018581811509F493CE8091420690E066
:103FA000019669E070E00E9409328093420615CFC5
:103FB000F7018581811509F43BC380914306819502
:103FC0008093430629C3F7018581811509F430C325
:103FD0008091440691E089278093440629C380910B
:103FE000E90565E3811101C069E284EC92E00E9479
:103FF000060D81CE8091EC0580FF0CC08E7F8093F2
:10400000EC058CEE95E00E9419101092EB050E94D1
:10401000BE0AA2CC81608093EC0561E0869586950E
:104020006DD89ACC811521F0B3D896CC8115E1F3E7
:10403000A5D892CC811529F00E94C8108DCC81158D
:10404000D9F30E94C01088CC811529F00E94DB10A2
:1040500083CC8115D9F30E94D0107ECC811529F034
:104060000E94F11079CC8115D9F30E94E61074CC2E
:10407000811529F00E944D106FCC8115D9F30E9453
:1040800043106ACC9E01205E324520323105A0F4F7
:10409000911125C0CF7181E090E002C0880F991F77
:1040A000CA95E2F7EC01682F83E090E00E948A3520
:1040B000CE010E94D60750CC911509F446C0CB35ED
:1040C0008CE7D807C9F1CC358CE7D80751F1CA3550
:1040D0008CE7D80779F1C1308CE7D807A9F1C33054
:1040E0008CE7D80759F1C115DC4779F5CFDB8FEFA5
:1040F00094E32CE0815090402040E1F700C00000A4
:1041000087E797E7809300089093010888E19AE099
:104110000FB6F894A895809360000FBE909360004E
:10412000FFCF8091FD05002482FF0394802D0E9423
:10413000031012CC81E0FBCF80E0F9CF6FEF7FEF6F
:1041400080E090E00E94A435C2DBF701008111817C
:10415000911509F445C0C8010E94A309C82F682F12
:10416000C8010E942E08B8018C2F0E9468090E9485
:104170008F08D82FC92FF701D580068102950F70BF
:104180008091FB05877001F1CD2CD114F1F0892FBE
:10419000807F803461F08D2F805E8830A8F0892F79
:1041A000807E803221F4D23078F0011569F0809160
:1041B000FD0582FF09C082E00E949C0B8091FB05F7
:1041C0008770CC24C3948111C12CEC2FE295EF7041
:1041D000C03C08F067C0F0E0E351FA4C0C94733235
:1041E000C8010E944708C82FBECF1C2F1F70C031C6
:1041F00010F01295107FD114B9F0111569F08D2FC0
:10420000805E883010F0D11109C08091F405812BB7
:104210008093F4050E9422118D2F3EC08091FE05EF
:10422000812B8093FE05F6CF8D2FFED81115D1F18D
:104230008D2F805E883010F0D11104C0812F0E9434
:10424000870806C010958091FE0581238093FE05A6
:104250000E94221127C01C2F1F70C07FC03211F096
:104260001295107FD13040F009F461C0D11409F4E7
:104270006BC0011599F1D0CF8091FD0582FD2AC058
:10428000D11461F0111539F08091F405812B8093E0
:10429000F4050E94221180E074D804C080E0C4D8E4
:1042A0001111CCCFC11409F4B7C08091FB0580FD7A
:1042B000B3C0F70115828695869586950E94610B9D
:1042C000C7011ADB8091FB058695869586950E942D
:1042D0007E0BA2C0D11489F0013020F4812F0E94FE
:1042E0006011E0CFF9F68091F505912F9823191709
:1042F000C9F2812B8093F505D5CF0111D3CF812F42
:104300000E9469119091F505812F892329F0812F51
:10431000809589238093F5058091F605912F982348
:1043200009F4C0CF109518231093F605BBCFD11414
:1043300021F0063008F0B6CFD1CF053008F0B2CF6B
:10434000812F0E946911AECF0115D1F3D93349F401
:104350008FEF97EE23E0815090402040E1F700C0BE
:1043600000008D2F61D89ECF8C2F86958695837007
:10437000813060F009F096CF8D2F9C2F9370D11073
:1043800002C080E090E00E94C40C8CCF8D2F9C2F47
:104390009370D11002C080E090E00E949D0C82CF0B
:1043A0006D2D8D2F0E94EB187DCF8C2F837009F01F
:1043B00046C0D1102FC04D2F429546954770440FEF
:1043C000440F2D2F2F7030E0042E02C0220F331F18
:1043D0000A94E2F780E090E0D4FF09C08FE090E01B
:1043E00002C0880F991F4A95E2F780959095C6956F
:1043F000C695C370C230D1F0C330A9F04091F70523
:104400005091F805C13069F0822B932B84239523BA
:104410000E94D6070E947C0C60E0C7010E94D70969
:10442000AACA242B352B822B932BF2CF822B932BD2
:104430002091F7053091F80582279327E9CFD11411
:1044400091F1C0FFE7CF4D2F429546954770440F3D
:10445000440F2D2F2F7030E0042E02C0220F331F87
:104460000A94E2F780E090E0D4FF09C08FE090E08A
:1044700002C0880F991F4A95E2F780959095C695DE
:10448000C695C370C230C1F0C33099F04091F905B0
:104490005091FA05C13059F0822B932B8423952338
:1044A0000E945B0BB7CF823008F4B4CFCCCF242B63
:1044B000352B822B932BF4CF822B932B2091F90554
:1044C0003091FA0582279327EBCFCF70D11439F0C2
:1044D0008C2F0E94610B8D2F0E9460119BCF8D2F1E
:1044E0000E9469118C2F0E947E0B94CFD23F99F1CC
:1044F00070F4D03FC9F0D13F91F0D11409F45BC002
:10450000011509F455C08D2F0E94C11983CFD33FE7
:1045100049F1D43F91F79091FD0592FD31C08C2F68
:104520008F71D11401F31BC0D11499F0053008F03C
:1045300071CFCF7181E090E002C0880F991FCA95BA
:10454000E2F7EC018091F9059091FA058C279D27FF
:10455000A7CF0630ECCF8C2F8F71D110C4CF0E9423
:10456000610B58CF80E090E0D11409F499CFCF715E
:1045700081E090E002C0880F991FCA95E2F790CFC2
:10458000D11461F08C2F8F7192FFE9CF982F990F82
:10459000990F990F93609093FB05E1CF81E00E9402
:1045A0009C0B023008F436CF82E00E949C0B32CF85
:1045B0008C2F8F71D4CF011579F0D93349F48FEF57
:1045C00097EE23E0815090402040E1F700C00000CA
:1045D0008D2F0E94141A1ECF8C2F8F7184CF809341
:1045E0004F0690935006BDCBC2308EE7D80709F432
:1045F000CFCCC3308EE7D80709F0B3CBF701858164
:104600008115B1F08091420690E0089669E070E073
:104610000E94093280934206409140065091410623
:1046200060914206709143068FE090E00E949C35B5
:10463000F7019581911509F425CD8091F4058272D9
:10464000FE01E052F847EB30F10508F01BCDE750D2
:10465000FA4C0C94733280913F06803170F4809153
:104660003E06811551F0E09100062091FF05309142
:104670003A06409139062E1301C00895BF0187E024
:10468000E89FF0011124DF01AF5FB94F14968C91C0
:104690001497811551F111968C911197831325C0B0
:1046A0008C91841322C015968C91159781111DC091
:1046B00012968D919D91A0913B06B0913C068A1B6C
:1046C0009B0B883C910588F480913F068F70806138
:1046D00080933F06E95FF94F80818F70806180830E
:1046E00089E396E009D90C947D086F5F7F4FFB0149
:1046F000E770C1CFADE0B0E0E0E8F3E20C94223225
:104700008C0186E0F801DE01189601900D928A95E1
:10471000E1F7F801F580C48089E3882E86E0982EC1
:1047200070903D0671101FC0C114D1F0F11409F44E
:1047300016C1C8010E94FC09811509F410C187E067
:10474000F801D40101900D928A95E1F78C2D81300A
:1047500031F48091390690913A060E94F2097BDF8C
:10476000FF24F39453C0E080A280B380D0903E0633
:1047700080913B0690913C069501281B390BD11482
:1047800009F4B5C0283C310508F08DC0C11441F3CF
:1047900090913A06C18080913F06803108F056C062
:1047A000C91213C0909139069E110FC0F11048C074
:1047B0008F70806180933F0689E396E09DD8809159
:1047C0003F06F8018683F12C21C0F11039C040E08A
:1047D0006C2D8E2D0E945E0840E06C2D8E2D0E9467
:1047E0005E08F82E8111EFCF888599850E94F20925
:1047F000292F22952F70903470F49F70223098F0FA
:104800009115A9F0F8019681903188F48F2D2D969D
:10481000EDE00C943E322A5F2F70223060F0C80128
:104820006BD8FD2CF3CF911511F0811579F3805ED3
:10483000883060F3F4CF803F48F3815F8330F9CF55
:1048400080913F06816080933F06BDCFC91207C0AB
:10485000909139069E1103C0F11409F469C0C80192
:104860000E94FC09811509F47AC0F11409F477C09B
:1048700080913F06803270F02091390630913A06DF
:1048800029833A83AB82BC827D821E828F83CE01D4
:10489000019632D887E0F801A9E3B6E001900D92C5
:1048A0008A95E1F75CCF80913F06803148F489E337
:1048B00096E022D8F40187E011928A95E9F783CF38
:1048C000C11409F44DCF20913A0691812913C7CF25
:1048D000909139069E11C3CFF110C1CF8683C801D4
:1048E0000BD8F40187E011928A95E9F739CF283C7B
:1048F000310500F7C11409F433CFF11481F190911F
:104900003A068181981321C0809139068E111DC00D
:1049100080913F0680FD10C0803170F08683807FDB
:10492000803F39F08681982F907F905F8F70892B20
:104930008683C8010E947C1C87E0F801A9E3B6E0E9
:1049400001900D928A95E1F70BCFC8010E94FC09F6
:104950008111A0CF80913F06816080933F06C801FE
:104960000E947C1CFDCEABE1B0E0E9EBF4E20C94DC
:104970002B324E8B5F8B688F798F8A8F192F9B8F8D
:1049800091111092FE051D8A86E0FE017696DE01E9
:104990001F9601900D928A95E1F70A8D011561F03D
:1049A0000B8B1C8B61E0CE010F960E94D70961E052
:1049B000CE010F960E94D7090B8B1C8B87E0FE015E
:1049C0003F96DE01189601900D928A95E1F7CE018F
:1049D000089690DE81112EC02091FF0530910006CF
:1049E00087E0AE01485F5F4FFA0147505109DA0195
:1049F00001900D928A95E1F78C858115D9F0822F6F
:104A000090E08395877090E0AC0134171506E1F0D3
:104A100097E0929FD0011124AF5FB94F9E012F5FA5
:104A20003F4FF90101900D929A95E1F74093FF05F0
:104A30000E947D08809100069091FF05891311C0A6
:104A40006B96E4E00C9447320E94461C1092FF05DE
:104A500010920006E9E3F6E087E011928A95E9F703
:104A6000E9CF27E0829FC00111248F5F994F42DE7A
:104A7000811531F3809100069091010601968770AF
:104A800080930006D7CFA6E0B0E0E9E4F5E20C940D
:104A90002B320E946A178C018091A2059091A30588
:104AA0008017910771F019821A820E946A17BC015F
:104AB00049815A8180E090E056DF0093A20510936F
:104AC000A3052696E4E00C944732AAE2B0E0EBE6B8
:104AD000F5E20C942C328FEC92E0FC0101962091CF
:104AE000F100208322E0873D9207B9F78091D00240
:104AF000893009F45AC0C8F4823009F4B7C0833051
:104B000009F486C0813091F18091E80083FFEBC009
:104B10008091CF029091D0029A3008F0E4C0E92F42
:104B2000F0E0EC5FF94C0C9473328A3009F48DC0DC
:104B30008B3051F78091CF02813231F78091D302CF
:104B40009091D402892B01F78091E800877F8093B0
:104B5000E8000E94DC0D81E09091D102911101C02A
:104B600080E0809314010E94461CCECF8091CF023A
:104B7000813A51F68091E800877F8093E800809128
:104B8000D3029091D402892B61F060E080E090E044
:104B900070E00E944F0D8091E8008B778093E800D1
:104BA000B3CF68E087ED92E0F3CF8091CF028132FE
:104BB00009F0AACF8091D3029091D402029708F015
:104BC000A3CF8091E800877F8093E8008091E80080
:104BD00082FF19C02091F3008091F200922F02977A
:104BE00031F48091F100813011F0863021F4809110
:104BF000F100809313018091E8008B778093E800A7
:104C00000E94DC0D81CF80915E058111DFCF7CCFCA
:104C10008091CF02813A09F077CF8091D3029091B1
:104C2000D402892B09F070CF8091E800877F8093B0
:104C3000E8008091E80080FFFCCF80911401809310
:104C4000F1008091E8008E77D9CF8091CF02813238
:104C500009F05ACF8091E800877F8093E8000E9496
:104C6000DC0D8091D202809312014ECF8091CF0251
:104C7000813A09F049CF8091E800877F8093E8006E
:104C80008091E80080FFFCCF80911201D8CF80385E
:104C900089F0823841F58091D3028F70873018F502
:104CA0008093E9008091EB0085FB882780F91092C2
:104CB000E90006C080915D05880F9091CC02892B98
:104CC0009091E800977F9093E8008093F100109214
:104CD000F1008091E8008E7723C0811116C0809189
:104CE000D102813011F18091E80083FF0AC08091E8
:104CF000E800877F8093E8008091EB0080628093DA
:104D0000EB00AA96E3E00C944832823061F7809180
:104D1000D102811581F01092E9008091E800877F2F
:104D20008093E8000E94DC0DDECF933009F080E034
:104D300080935D05F0CF8091D3028F70282F215092
:104D4000263088F68093E9002091EB0020FFE3CF26
:104D5000933031F48091EB0080628093EB00DBCFE5
:104D60009091EB0090619093EB0021E001C0220F45
:104D70008A95EAF72093EA001092EA008091EB000E
:104D80008860EBCF8111AFCF8091D1028F77182F40
:104D90008091E3008078812B8093E3008091E8008C
:104DA000877F8093E8000E94DC0D8091E80080FFFF
:104DB000FCCF8091E30080688093E30083E01111D1
:104DC00001C082E080935E058ECF8058823008F06B
:104DD0008ACF2091D1023091D2022C3D83E0380756
:104DE00091F583E08A838AE289834FB7F894DE01E4
:104DF000139620E03EE051E2E32FF0E0509357009D
:104E0000849120FF03C082958F703F5F8F708A303E
:104E1000C0F0895C8D931D922F5F243169F74FBFDD
:104E20008091E800877F8093E8006AE270E0CE011D
:104E300001960E944F0D8091E8008B778093E800E7
:104E400052CF805DE7CF832F90E08330910519F139
:104E500060F48130910509F46CC08230910509F04D
:104E600042CF8BE3EBE6F1E029C02091D3023091F1
:104E7000D4028132910509F453C08232910509F0C0
:104E800032CF2130310508F45CC009F02CCF8BE71C
:104E9000ECEAF0E013C0822F90E0213099F18230EB
:104EA0009105B9F1009709F01ECFE0EEF1E0E49131
:104EB0008E2FE0EEF1E0009709F415CF2091E80085
:104EC000277F2093E8002091D5023091D6028217E7
:104ED000930708F49C0140E021153105B1F541111B
:104EE00034C08091E80082FDA6CF80915E058115D7
:104EF00009F4A1CF853009F49ECF8091E80083FFAB
:104F0000F0CF99CFE2EDF1E0E4918E2FE2EDF1E008
:104F1000D2CFE8EBF1E0E4918E2FE8EBF1E0CBCFDC
:104F20002130310550F009F0DECE89E0E6E9F1E00C
:104F3000C5CF82E1E6EAF1E0C1CF89E0EDE7F1E03B
:104F4000BDCF84E4E7E2F1E0B9CF80915E05811541
:104F500009F471CF853009F46ECF8091E80083FDAC
:104F60006ACF8091E80082FDBCCF8091E80080FF8D
:104F7000B3CF4091F3008091F200942F21153105B9
:104F800019F08830910550F041E0089709F040E0B1
:104F90008091E8008E778093E8009ECF4491409303
:104FA000F1003196215031090196E8CF803809F09F
:104FB0009ACE8091E800877F8093E8008091CD02AF
:104FC0008093F10086CE81118ECE8091D102182F70
:104FD000823008F088CE8091E800877F8093E800D7
:104FE0001093CD020E94DC0D1115A9F084E080938E
:104FF0005E0542E061EC81E00E94AC0D42E261ECB2
:1050000082E00E94AC0D80915E05843051F482E014
:105010008093150168CE8091E30087FDE7CF81E0A2
:10502000E6CF81E0F5CFCDB7DEB765970FB6F89440
:10503000DEBF0FBECDBF85B7806885BF85B78068EE
:1050400085BF84B7877F84BF0FB6F894A8958091F9
:105050006000886180936000109260000FBE80E85D
:1050600090E00FB6F89480936100909361000FBEBA
:1050700081E08093150187E29AE08093C2029093C9
:10508000C3020E947B0E0E942C0E8091E20084607D
:105090008093E200789480915E05811591F0809173
:1050A000E9001091EC008F7010FB112717F9182BF5
:1050B0001092E9008091E80083FD07DD1F701093D6
:1050C000E90082E084BD93E095BD9AEF97BD80939F
:1050D0006E00EDE7F5E088E011928A95E9F781E04E
:1050E00080937C0560E080E00E94FE0B61E080E040
:1050F0000E94FE0B8FE891E00197F1F700C00000DD
:1051000010E080917C05181708F424C2EBEBF1E065
:1051100025EC31E0AF0161E0DA018D91AD01A82FFE
:10512000A295AF70B0E091961C918F70E62E01C0F1
:10513000EE0C8A95EAF79E2D909591239C931196FB
:105140009C918E2D892B8C932417350729F745ECDC
:1051500051E02BEC31E0BA0101E0DB018D91BD01A2
:10516000A82FA295AF70B0E09196FC908F70C02EE2
:1051700001C0CC0C8A95EAF79C2D90959F219C93B9
:1051800011969C918C2D892B8C932617370729F724
:1051900021E0DA018D91AD01A82FA295AF70B0E0AA
:1051A00091966C918F70022F01C0000F8A95EAF7DB
:1051B000902F909596239C9311969C91802F892BEC
:1051C0008C9381E04B3C580721F741E08191A82F57
:1051D000A295AF70B0E091962C918F70642F01C0B2
:1051E000660F8A95EAF7962F909592239C931196D5
:1051F0009C91862F892B8C9381E0E53CF80731F751
:10520000E8E9F5E08AE011928A95E9F7EEE8F5E041
:105210008AE011928A95E9F78FE090E00E9480354C
:105220006093400670934106809342069093430634
:10523000663010F00E94E50E82E080936A0681E1FC
:1052400090E08093E5051092E60580E18093E70504
:105250001092E80589E18093E1051092E20585E06E
:105260008093E3051092E40583E10E94803560930A
:1052700051067093520680935306909354066150E2
:10528000633090F081E0809351067760709352060E
:105290004091510650915206609153067091540608
:1052A00083E190E00E949C3580E090E00E9485358B
:1052B000833E9E4FF9F063EE7EEF80E090E00E9427
:1052C000A43560E082E090E00E948A3581E090E0C1
:1052D0008093F7051092F80561E083E00E948A351B
:1052E00060E074E184E090E00E94A4350E943310F5
:1052F0000E94E50E82E090E00E9478358093690577
:1053000084E090E00E9485358093FC059093FD0534
:1053100083E090E00E94783590E00E94D60780916B
:10532000F9059091FA050E94220B1092590580E828
:105330008093580528D56BE070E082E799E00E94E1
:1053400083148115E9F18091590565E070E081FDD4
:1053500013C18DE699E00E948314811589F16DE0F7
:1053600070E08BE599E00E948314811549F10E9459
:10537000420DDC01CB01805A9541AF4FBF4F809366
:10538000540590935505A0935605B0935705E1E554
:10539000F3E0DF0180E092E01D920197E9F7E093EE
:1053A0004F03F09350038FEF9FEF80934D03909343
:1053B0004E0381E08093530580935205109251056E
:1053C00080915A0581112FC08CEE95E00E946F11DB
:1053D0008091EC05843008F0D2C00E9433108CEE2E
:1053E00095E00E946F118091EC05843008F0C7C0F1
:1053F000837084608093EC058091EF05893718F005
:1054000088E78093EF051092EB050E941C0C8091B9
:10541000EC0580FF05C060E0869586950E947E18A9
:1054200081E080935A050E945D0F8111B0C081E038
:1054300080935B05E0914006F0E0EE0FFF1FE95C12
:10544000FD4F808191810E94040F60E982E20E94F9
:10545000DB0E86E191E08093A4059093A505CE0133
:105460000196282E9B8BACEF4A2EA1E05A2E8091FC
:105470005E0500E110E4F2E1FF2E853009F4E2C0A0
:105480000E947F17EAE68E2EE5E09E2E8EE895E0DC
:105490008C8B9D8BFC01D4019D91808124E735E0AC
:1054A0002A173B0709F4D8C031969817A9F30FE5DE
:1054B00015E0D12CEC89FD89C190EC8BFD8BF401BA
:1054C00061904F016C14D1F16C24E12CF12C772404
:1054D0007394862D872141F13C2C372071E0A72E53
:1054E0000E2C01C0AA0C0A94EAF7F801808190E022
:1054F0008A21892B91F4E982DA820E946A178B83D0
:105500009C835D8291E0311001C090E09E834981CF
:105510005A816B817C818D8126DA311005C0A0947F
:10552000F80180818A218083770C8FEFE81AF80ACE
:1055300086E0E816F10469F6F401C292D3940F5F95
:105540001F4F8D2D8A3009F0B5CF0E94420DDD240A
:10555000D39486C060E0812F0E94100C082F61E078
:10556000812F0E94100CE12FF0E0E558FA4F880FD0
:10557000802B80831F5FC5CD88E699E0ECCE8091BB
:10558000EC05843508F438CF8370806533CF83E031
:105590004FCF80915E05843039F10E94B2140E9491
:1055A000AE1110925C0588E190E00FB6F894A895D2
:1055B000809360000FBE1093600083B7817F84608A
:1055C00083BF83B7816083BF7894889583B78E7FCC
:1055D00083BF0FB6F894A89580916000886180938E
:1055E0006000109260000FBE0E947F17EEE8F5E0A9
:1055F000AFE5B5E080E021912D9391E0211101C04C
:1056000090E0892B28E935E02E173F07A1F7811597
:10561000C9F080915D058115A9F009BDF9BC09B4F7
:1056200000FEFDCF8091D8008F7D8093D8008091BF
:10563000E00082608093E0008091E00081FDFCCF7B
:105640000E94461C80915E05853009F4A2CF0E941D
:10565000461C0E947C0C14CF981329CF14DAD12C4D
:105660008091EB058115D9F18091EA05E091EC0577
:10567000E695E695E81BE0937605823009F03FC099
:10568000F0E0E058F64FE4910E2F10E062EBE62ECA
:105690006BE0F62E80917705811561F01092770509
:1056A0000E946A178093740590937505109278058F
:1056B000109279050E946A17209174053091750542
:1056C000821B930B8F3F9F4750F4200F311F209375
:1056D00074053093750584E795E0F701099580918D
:1056E0008505811551F080917F0510928505809385
:1056F000800580917D0580937E0500E05FC000ED10
:1057000017E049E2E42E4AE0F42E853019F6E695DA
:10571000F0E0E358F64FE4910E2F10E05DECE52E3B
:105720005BE0F52EB7CFF090800510917F0561E02A
:10573000802F0E94100CE82E60E0802F0E94100C39
:10574000EE0C8E29202F30E0D901A558BA4FEC91EC
:105750009E2F9370891789F1EE0FEE0FE82BEC93D3
:10576000EF70F0E0E555FE4F26583A4F8081F90181
:105770009081890F84300CF448C0412F50E0BA0169
:105780006395637070E0F616170679F043585A4F28
:10579000902F9F77FA0194831F5F137010937F05FA
:1057A00090917D059F5F90937D05982F990F990BA0
:1057B00064E070E085D6F90180830F5F80917C05FD
:1057C000081708F4B0CF00E01DEF8091800590919C
:1057D0007F05981709F44DC0E82FF0E0EF57FA4F16
:1057E000F0800F2D0F778F5F8370809380058091FD
:1057F0007E058F5F80937E05F7FC17C00F83488678
:105800000E946A1723E0E22E16C08D3F74F6412FE6
:1058100050E0BA016395637070E0F616170629F23E
:1058200043585A4F902F9068B5CF0F8318870E9426
:105830006A1732E0E32EBC0189879A87EB865C8683
:105840004F8158858E2D91E08ED80D87F7FE0FC0C1
:105850001E870E946A17BC018F87988BE98A1A8A73
:105860004D855E858E2D90E07ED801E0AECF4E86D0
:10587000F0CF011519F00E94420DD02E0E94AE11FA
:10588000811539F00E94420D0E948D150E949014DE
:1058900004C00E948D15D110F9CF86E0E5EDF5E04A
:1058A000A22DBB8901900D928A95E1F71092D70540
:1058B0001092D8051092D9051092DA058B819C813F
:1058C000892B09F443C000918805109189050E9435
:1058D0006A17801B910B9C019091D305911509F4D7
:1058E000ADC02531310590F19F3F19F09F5F909336
:1058F000D3051B81111559F00E94370C91E0111648
:105900000CF09FEF899F802D11248093D7051C8177
:10591000111559F00E94370C91E011160CF09FEF11
:10592000899F802D11248093D8058091D7058115FA
:1059300069F01091D805111549F00E94290C809347
:10594000D705812F0E94290C8093D8058D819E81D7
:10595000892B09F443C000918605109187050E94A8
:105960006A17801B910B9C019091D205911509F447
:1059700060C02135310590F19F3F19F09F5F9093F2
:10598000D2051D81111559F00E94570C91E0111696
:105990000CF09FEF899F802D11248093D9051E81E3
:1059A000111559F00E94570C91E011160CF09FEF61
:1059B000899F802D11248093DA058091D905811566
:1059C00069F01091DA05111549F00E94290C8093B5
:1059D000D905812F0E94290C8093DA05622D7B89DD
:1059E00085ED95E00E94120D81110CC08091D705C4
:1059F0009091D805892B9091D905892B9091DA0542
:105A0000892B11F00E94D11886E0E22DFB89A5EDCB
:105A1000B5E001900D928A95E1F70E947C0C90917F
:105A20008A05891709F423CD80938A050E94420DC7
:105A30001ACD2B30310508F0A1CFD0CF2B30310556
:105A400008F054CF83CF78941F921FB61F92112471
:105A50008F939F93AF93BF938091DF029091E00269
:105A6000A091E102B091E2020196A11DB11D8093C7
:105A7000DF029093E002A093E102B093E202BF91B3
:105A8000AF919F918F911F901FBE1F9018951F92ED
:105A90000F920FB60F9211242F933F934F935F9362
:105AA0006F937F938F939F93AF93BF93EF93FF93E6
:105AB0008091E10082FF09C08091E20082FF05C071
:105AC0008091E1008B7F8093E1008091DA0080FF7C
:105AD00024C08091D80080FF20C08091DA008E7FA2
